{
  "contractName": "AdminEscrowActions",
  "abi": [
    {
      "inputs": [],
      "payable": false,
      "stateMutability": "nonpayable",
      "type": "constructor"
    },
    {
      "anonymous": false,
      "inputs": [
        {
          "indexed": false,
          "internalType": "string",
          "name": "msg",
          "type": "string"
        }
      ],
      "name": "AdminContractActionTaken",
      "type": "event"
    },
    {
      "anonymous": false,
      "inputs": [
        {
          "indexed": false,
          "internalType": "string",
          "name": "msg",
          "type": "string"
        }
      ],
      "name": "ContractInterventionRequestMade",
      "type": "event"
    },
    {
      "constant": true,
      "inputs": [
        {
          "internalType": "address",
          "name": "",
          "type": "address"
        }
      ],
      "name": "RequestedHelpContractExists",
      "outputs": [
        {
          "internalType": "bool",
          "name": "",
          "type": "bool"
        }
      ],
      "payable": false,
      "stateMutability": "view",
      "type": "function"
    },
    {
      "constant": true,
      "inputs": [],
      "name": "adminNeededContractCount",
      "outputs": [
        {
          "internalType": "uint256",
          "name": "",
          "type": "uint256"
        }
      ],
      "payable": false,
      "stateMutability": "view",
      "type": "function"
    },
    {
      "constant": true,
      "inputs": [
        {
          "internalType": "uint256",
          "name": "",
          "type": "uint256"
        }
      ],
      "name": "adminNeededContracts",
      "outputs": [
        {
          "internalType": "uint256",
          "name": "contractIndexOnEscrowExchange",
          "type": "uint256"
        },
        {
          "internalType": "uint8",
          "name": "completed",
          "type": "uint8"
        },
        {
          "internalType": "address",
          "name": "contractAddress",
          "type": "address"
        }
      ],
      "payable": false,
      "stateMutability": "view",
      "type": "function"
    },
    {
      "constant": true,
      "inputs": [
        {
          "internalType": "address",
          "name": "",
          "type": "address"
        }
      ],
      "name": "isAdmin",
      "outputs": [
        {
          "internalType": "bool",
          "name": "",
          "type": "bool"
        }
      ],
      "payable": false,
      "stateMutability": "view",
      "type": "function"
    },
    {
      "constant": true,
      "inputs": [],
      "name": "owner",
      "outputs": [
        {
          "internalType": "address payable",
          "name": "",
          "type": "address"
        }
      ],
      "payable": false,
      "stateMutability": "view",
      "type": "function"
    },
    {
      "constant": true,
      "inputs": [
        {
          "internalType": "address",
          "name": "escrow_factory_contract_address",
          "type": "address"
        }
      ],
      "name": "getRetrievedContract",
      "outputs": [
        {
          "internalType": "address",
          "name": "",
          "type": "address"
        },
        {
          "internalType": "address",
          "name": "",
          "type": "address"
        },
        {
          "internalType": "uint256",
          "name": "",
          "type": "uint256"
        },
        {
          "internalType": "uint256",
          "name": "",
          "type": "uint256"
        },
        {
          "internalType": "string",
          "name": "",
          "type": "string"
        },
        {
          "internalType": "string",
          "name": "",
          "type": "string"
        },
        {
          "internalType": "address",
          "name": "",
          "type": "address"
        }
      ],
      "payable": false,
      "stateMutability": "view",
      "type": "function"
    },
    {
      "constant": false,
      "inputs": [
        {
          "internalType": "uint256",
          "name": "index",
          "type": "uint256"
        },
        {
          "internalType": "string",
          "name": "_notes",
          "type": "string"
        },
        {
          "internalType": "address",
          "name": "escrow_factory_contract_address",
          "type": "address"
        }
      ],
      "name": "contractInterventionRequest",
      "outputs": [],
      "payable": false,
      "stateMutability": "nonpayable",
      "type": "function"
    },
    {
      "constant": false,
      "inputs": [
        {
          "internalType": "uint256",
          "name": "index",
          "type": "uint256"
        },
        {
          "internalType": "uint8",
          "name": "action",
          "type": "uint8"
        },
        {
          "internalType": "address",
          "name": "escrow_factory_contract_address",
          "type": "address"
        }
      ],
      "name": "adminContractTakeAction",
      "outputs": [],
      "payable": false,
      "stateMutability": "nonpayable",
      "type": "function"
    },
    {
      "constant": false,
      "inputs": [
        {
          "internalType": "bool",
          "name": "state",
          "type": "bool"
        },
        {
          "internalType": "address",
          "name": "newAdmin",
          "type": "address"
        }
      ],
      "name": "setAdmin",
      "outputs": [],
      "payable": false,
      "stateMutability": "nonpayable",
      "type": "function"
    },
    {
      "constant": true,
      "inputs": [
        {
          "internalType": "address",
          "name": "admin",
          "type": "address"
        }
      ],
      "name": "getAdmin",
      "outputs": [
        {
          "internalType": "bool",
          "name": "",
          "type": "bool"
        }
      ],
      "payable": false,
      "stateMutability": "view",
      "type": "function"
    }
  ],
  "bytecode": "0x60806040526000805534801561001457600080fd5b5033600260006101000a81548173ffffffffffffffffffffffffffffffffffffffff021916908373ffffffffffffffffffffffffffffffffffffffff16021790555060018060003373ffffffffffffffffffffffffffffffffffffffff1673ffffffffffffffffffffffffffffffffffffffff16815260200190815260200160002060006101000a81548160ff021916908315150217905550611445806100bc6000396000f3fe608060405234801561001057600080fd5b506004361061009e5760003560e01c806380ac6ac01161006657806380ac6ac01461016b57806383ffb10a146101895780638da5cb5b146101bf5780639a310171146101dd578063f825d626146101f95761009e565b806324d7806c146100a357806357b12b9c146100d35780635f3babed1461010357806364efb22b1461011f57806379f053991461014f575b600080fd5b6100bd60048036036100b89190810190610d28565b61022b565b6040516100ca919061111c565b60405180910390f35b6100ed60048036036100e89190810190610d28565b61024b565b6040516100fa919061111c565b60405180910390f35b61011d60048036036101189190810190610ef1565b61026b565b005b61013960048036036101349190810190610d28565b610434565b604051610146919061111c565b60405180910390f35b61016960048036036101649190810190610e8a565b61048a565b005b6101736106b1565b60405161018091906111e2565b60405180910390f35b6101a3600480360361019e9190810190610d28565b6106b7565b6040516101b6979695949392919061109f565b60405180910390f35b6101c76109eb565b6040516101d49190611084565b60405180910390f35b6101f760048036036101f29190810190610d7a565b610a11565b005b610213600480360361020e9190810190610e38565b610b57565b604051610222939291906111fd565b60405180910390f35b60016020528060005260406000206000915054906101000a900460ff1681565b60046020528060005260406000206000915054906101000a900460ff1681565b600260009054906101000a900473ffffffffffffffffffffffffffffffffffffffff1673ffffffffffffffffffffffffffffffffffffffff163373ffffffffffffffffffffffffffffffffffffffff161480610317575060011515600160003373ffffffffffffffffffffffffffffffffffffffff1673ffffffffffffffffffffffffffffffffffffffff16815260200190815260200160002060009054906101000a900460ff161515145b610356576040517f08c379a000000000000000000000000000000000000000000000000000000000815260040161034d90611182565b60405180910390fd5b600081905060016003600086815260200190815260200160002060010160006101000a81548160ff021916908360ff1602179055508073ffffffffffffffffffffffffffffffffffffffff16633bd0387b6001856040518363ffffffff1660e01b81526004016103c7929190611137565b600060405180830381600087803b1580156103e157600080fd5b505af11580156103f5573d6000803e3d6000fd5b505050507f20433980736947fbdb7303f501bdc939a9ac59bd69b9100e2b7a0b76e8c1aa9d604051610426906111a2565b60405180910390a150505050565b6000600160008373ffffffffffffffffffffffffffffffffffffffff1673ffffffffffffffffffffffffffffffffffffffff16815260200190815260200160002060009054906101000a900460ff169050919050565b60001515600460008373ffffffffffffffffffffffffffffffffffffffff1673ffffffffffffffffffffffffffffffffffffffff16815260200190815260200160002060009054906101000a900460ff1615151415610606576040518060600160405280848152602001600060ff1681526020018273ffffffffffffffffffffffffffffffffffffffff1681525060036000805481526020019081526020016000206000820151816000015560208201518160010160006101000a81548160ff021916908360ff16021790555060408201518160010160016101000a81548173ffffffffffffffffffffffffffffffffffffffff021916908373ffffffffffffffffffffffffffffffffffffffff1602179055509050506001600054016000819055506001600460008373ffffffffffffffffffffffffffffffffffffffff1673ffffffffffffffffffffffffffffffffffffffff16815260200190815260200160002060006101000a81548160ff0219169083151502179055505b60008190508073ffffffffffffffffffffffffffffffffffffffff1663bada8736846040518263ffffffff1660e01b81526004016106449190611160565b600060405180830381600087803b15801561065e57600080fd5b505af1158015610672573d6000803e3d6000fd5b505050507f40a801efac683455896bb61be4c6d8c65bcd3ab0cf1883bc94e30a247bddfe2d6040516106a3906111c2565b60405180910390a150505050565b60005481565b60008060008060608060008088905060008173ffffffffffffffffffffffffffffffffffffffff16637150d8ae6040518163ffffffff1660e01b815260040160206040518083038186803b15801561070e57600080fd5b505afa158015610722573d6000803e3d6000fd5b505050506040513d601f19601f820116820180604052506107469190810190610d51565b9050808273ffffffffffffffffffffffffffffffffffffffff166308551a536040518163ffffffff1660e01b815260040160206040518083038186803b15801561078f57600080fd5b505afa1580156107a3573d6000803e3d6000fd5b505050506040513d601f19601f820116820180604052506107c79190810190610d51565b8373ffffffffffffffffffffffffffffffffffffffff1663aa8c217c6040518163ffffffff1660e01b815260040160206040518083038186803b15801561080d57600080fd5b505afa158015610821573d6000803e3d6000fd5b505050506040513d601f19601f820116820180604052506108459190810190610e61565b8473ffffffffffffffffffffffffffffffffffffffff1663d0e30db06040518163ffffffff1660e01b815260040160206040518083038186803b15801561088b57600080fd5b505afa15801561089f573d6000803e3d6000fd5b505050506040513d601f19601f820116820180604052506108c39190810190610e61565b8573ffffffffffffffffffffffffffffffffffffffff1663c032846b6040518163ffffffff1660e01b815260040160006040518083038186803b15801561090957600080fd5b505afa15801561091d573d6000803e3d6000fd5b505050506040513d6000823e3d601f19601f820116820180604052506109469190810190610df7565b8673ffffffffffffffffffffffffffffffffffffffff16631866dc976040518163ffffffff1660e01b815260040160006040518083038186803b15801561098c57600080fd5b505afa1580156109a0573d6000803e3d6000fd5b505050506040513d6000823e3d601f19601f820116820180604052506109c99190810190610db6565b8785955081915098509850985098509850985098505050919395979092949650565b600260009054906101000a900473ffffffffffffffffffffffffffffffffffffffff1681565b600260009054906101000a900473ffffffffffffffffffffffffffffffffffffffff1673ffffffffffffffffffffffffffffffffffffffff163373ffffffffffffffffffffffffffffffffffffffff161480610abd575060011515600160003373ffffffffffffffffffffffffffffffffffffffff1673ffffffffffffffffffffffffffffffffffffffff16815260200190815260200160002060009054906101000a900460ff161515145b610afc576040517f08c379a0000000000000000000000000000000000000000000000000000000008152600401610af390611182565b60405180910390fd5b81600160008373ffffffffffffffffffffffffffffffffffffffff1673ffffffffffffffffffffffffffffffffffffffff16815260200190815260200160002060006101000a81548160ff0219169083151502179055505050565b60036020528060005260406000206000915090508060000154908060010160009054906101000a900460ff16908060010160019054906101000a900473ffffffffffffffffffffffffffffffffffffffff16905083565b600081359050610bbd8161138f565b92915050565b600081519050610bd2816113a6565b92915050565b600081359050610be7816113bd565b92915050565b600082601f830112610bfe57600080fd5b8151610c11610c0c82611261565b611234565b91508082526020830160208301858383011115610c2d57600080fd5b610c3883828461134b565b50505092915050565b600082601f830112610c5257600080fd5b8135610c65610c608261128d565b611234565b91508082526020830160208301858383011115610c8157600080fd5b610c8c83828461133c565b50505092915050565b600082601f830112610ca657600080fd5b8151610cb9610cb48261128d565b611234565b91508082526020830160208301858383011115610cd557600080fd5b610ce083828461134b565b50505092915050565b600081359050610cf8816113d4565b92915050565b600081519050610d0d816113d4565b92915050565b600081359050610d22816113eb565b92915050565b600060208284031215610d3a57600080fd5b6000610d4884828501610bae565b91505092915050565b600060208284031215610d6357600080fd5b6000610d7184828501610bc3565b91505092915050565b60008060408385031215610d8d57600080fd5b6000610d9b85828601610bd8565b9250506020610dac85828601610bae565b9150509250929050565b600060208284031215610dc857600080fd5b600082015167ffffffffffffffff811115610de257600080fd5b610dee84828501610bed565b91505092915050565b600060208284031215610e0957600080fd5b600082015167ffffffffffffffff811115610e2357600080fd5b610e2f84828501610c95565b91505092915050565b600060208284031215610e4a57600080fd5b6000610e5884828501610ce9565b91505092915050565b600060208284031215610e7357600080fd5b6000610e8184828501610cfe565b91505092915050565b600080600060608486031215610e9f57600080fd5b6000610ead86828701610ce9565b935050602084013567ffffffffffffffff811115610eca57600080fd5b610ed686828701610c41565b9250506040610ee786828701610bae565b9150509250925092565b600080600060608486031215610f0657600080fd5b6000610f1486828701610ce9565b9350506020610f2586828701610d13565b9250506040610f3686828701610bae565b9150509250925092565b610f49816112e7565b82525050565b610f58816112d5565b82525050565b610f67816112f9565b82525050565b6000610f78826112b9565b610f8281856112c4565b9350610f9281856020860161134b565b610f9b8161137e565b840191505092915050565b6000610fb36012836112c4565b91507f61646d696e6973747261746f72206f6e6c7900000000000000000000000000006000830152602082019050919050565b6000610ff3601a836112c4565b91507f41646d696e206861732074616b656e20616e20616374696f6e2e0000000000006000830152602082019050919050565b6000611033601d836112c4565b91507f41646d696e20496e74657276656e74696f6e20526571756573746564210000006000830152602082019050919050565b61106f81611325565b82525050565b61107e8161132f565b82525050565b60006020820190506110996000830184610f40565b92915050565b600060e0820190506110b4600083018a610f4f565b6110c16020830189610f4f565b6110ce6040830188611066565b6110db6060830187611066565b81810360808301526110ed8186610f6d565b905081810360a08301526111018185610f6d565b905061111060c0830184610f4f565b98975050505050505050565b60006020820190506111316000830184610f5e565b92915050565b600060408201905061114c6000830185610f5e565b6111596020830184611075565b9392505050565b6000602082019050818103600083015261117a8184610f6d565b905092915050565b6000602082019050818103600083015261119b81610fa6565b9050919050565b600060208201905081810360008301526111bb81610fe6565b9050919050565b600060208201905081810360008301526111db81611026565b9050919050565b60006020820190506111f76000830184611066565b92915050565b60006060820190506112126000830186611066565b61121f6020830185611075565b61122c6040830184610f4f565b949350505050565b6000604051905081810181811067ffffffffffffffff8211171561125757600080fd5b8060405250919050565b600067ffffffffffffffff82111561127857600080fd5b601f19601f8301169050602081019050919050565b600067ffffffffffffffff8211156112a457600080fd5b601f19601f8301169050602081019050919050565b600081519050919050565b600082825260208201905092915050565b60006112e082611305565b9050919050565b60006112f282611305565b9050919050565b60008115159050919050565b600073ffffffffffffffffffffffffffffffffffffffff82169050919050565b6000819050919050565b600060ff82169050919050565b82818337600083830152505050565b60005b8381101561136957808201518184015260208101905061134e565b83811115611378576000848401525b50505050565b6000601f19601f8301169050919050565b611398816112d5565b81146113a357600080fd5b50565b6113af816112e7565b81146113ba57600080fd5b50565b6113c6816112f9565b81146113d157600080fd5b50565b6113dd81611325565b81146113e857600080fd5b50565b6113f48161132f565b81146113ff57600080fd5b5056fea365627a7a7231582018c81b4409ac8e587af104f933ad013c803ca89cdd95618935a485908d5251ba6c6578706572696d656e74616cf564736f6c63430005110040",
  "source": "pragma solidity ^0.5.16;\npragma experimental ABIEncoderV2;\n\nimport \"./EscrowFactory.sol\";\n\ncontract AdminEscrowActions {\n\tuint public adminNeededContractCount = 0;\n\tmapping(address => bool) public isAdmin;\n\taddress payable public owner;\n\tmapping(uint => ThirdPartyNeededContract) public adminNeededContracts;\n\tmapping(address => bool) public RequestedHelpContractExists;\n\n\tevent ContractInterventionRequestMade(string msg);\n\tevent AdminContractActionTaken(string msg);\n\n\tmodifier isAdministrator() {\n        require(msg.sender == owner || isAdmin[msg.sender] == true, \"administrator only\");\n        _;\n    }\n\n\tstruct ThirdPartyNeededContract {\n\t\tuint contractIndexOnEscrowExchange;\n\t\tuint8 completed;\n\t\taddress contractAddress;\n\t}\n\n\tconstructor() public {\n\t\towner = msg.sender;\n\t\tisAdmin[msg.sender] = true;\n\t}\n\n\tfunction getRetrievedContract(address escrow_factory_contract_address) public view returns (address, address, uint, uint, string memory, string memory, address) {\n\t\tEscrowFactory retrieved_contract = EscrowFactory(escrow_factory_contract_address);\n\t\taddress buyer = retrieved_contract.buyer();\n\n        return (\n        \tbuyer, \n        \tretrieved_contract.seller(), \n        \tretrieved_contract.amount(),\n        \tretrieved_contract.deposit(),\n        \tretrieved_contract.getContractStatus(), \n        \tretrieved_contract.notes(),\n        \taddress(retrieved_contract)\n        );\n\t}\n\n\tfunction contractInterventionRequest(uint index, string memory _notes, address escrow_factory_contract_address) public {\n    \tif (RequestedHelpContractExists[escrow_factory_contract_address] == false) {\n    \t\tadminNeededContracts[adminNeededContractCount] = ThirdPartyNeededContract(index, 0, escrow_factory_contract_address); // Needs to change to perhaps use the contract address as index...\n    \t\tadminNeededContractCount = adminNeededContractCount + 1;\n    \t\tRequestedHelpContractExists[escrow_factory_contract_address] = true;\n    \t}\n    \tEscrowFactory retrieved_contract = EscrowFactory(escrow_factory_contract_address);\n    \tretrieved_contract.requestAdminAction(_notes);\n    \temit ContractInterventionRequestMade(\"Admin Intervention Requested!\");\n    }\n\n    function adminContractTakeAction(uint index, uint8 action, address escrow_factory_contract_address) public isAdministrator {\n    \tEscrowFactory retrieved_contract = EscrowFactory(escrow_factory_contract_address);\n    \tadminNeededContracts[index].completed = 1;\n    \tretrieved_contract.adminContractTakeAction(true, action);\n    \temit AdminContractActionTaken(\"Admin has taken an action.\");\n    }\n\n    function setAdmin(bool state, address newAdmin) public isAdministrator {\n    \tisAdmin[newAdmin] = state;\n    }\n\n    function getAdmin(address admin) public view returns (bool) {\n    \treturn isAdmin[admin];\n    }\n}",
  "sourcePath": "/Users/donaldlee/Developer/PointsExchange/contracts/AdminEscrowActions.sol",
  "compiler": {
    "name": "solc",
    "version": "0.5.17+commit.d19bba13.Emscripten.clang"
  },
  "schemaVersion": "3.3.3",
  "updatedAt": "2021-07-27T00:46:53.695Z",
  "networkType": "ethereum",
  "devdoc": {
    "methods": {}
  },
  "userdoc": {
    "methods": {}
  }
}