{
  "contractName": "EscrowExchange",
  "abi": [
    {
      "inputs": [],
      "payable": false,
      "stateMutability": "nonpayable",
      "type": "constructor"
    },
    {
      "constant": true,
      "inputs": [],
      "name": "contractCount",
      "outputs": [
        {
          "internalType": "uint256",
          "name": "",
          "type": "uint256"
        }
      ],
      "payable": false,
      "stateMutability": "view",
      "type": "function"
    },
    {
      "constant": true,
      "inputs": [
        {
          "internalType": "address",
          "name": "",
          "type": "address"
        },
        {
          "internalType": "uint256",
          "name": "",
          "type": "uint256"
        }
      ],
      "name": "contractsForUser",
      "outputs": [
        {
          "internalType": "string",
          "name": "_address",
          "type": "string"
        },
        {
          "internalType": "enum EscrowExchange.Status",
          "name": "_status",
          "type": "uint8"
        }
      ],
      "payable": false,
      "stateMutability": "view",
      "type": "function"
    },
    {
      "constant": true,
      "inputs": [
        {
          "internalType": "uint256",
          "name": "startID",
          "type": "uint256"
        }
      ],
      "name": "getContractsForCurrentUser",
      "outputs": [
        {
          "internalType": "string[]",
          "name": "",
          "type": "string[]"
        },
        {
          "internalType": "string[]",
          "name": "",
          "type": "string[]"
        }
      ],
      "payable": false,
      "stateMutability": "view",
      "type": "function"
    },
    {
      "constant": true,
      "inputs": [
        {
          "internalType": "uint256",
          "name": "id",
          "type": "uint256"
        }
      ],
      "name": "checkStatus",
      "outputs": [
        {
          "internalType": "string",
          "name": "",
          "type": "string"
        }
      ],
      "payable": false,
      "stateMutability": "view",
      "type": "function"
    },
    {
      "constant": false,
      "inputs": [
        {
          "internalType": "address",
          "name": "_buyer",
          "type": "address"
        },
        {
          "internalType": "address",
          "name": "_seller",
          "type": "address"
        },
        {
          "internalType": "string",
          "name": "_contractAddress",
          "type": "string"
        }
      ],
      "name": "addContractAddressToRegistry",
      "outputs": [],
      "payable": false,
      "stateMutability": "nonpayable",
      "type": "function"
    }
  ],
  "bytecode": "0x60806040526000805534801561001457600080fd5b50610d5a806100246000396000f3fe608060405234801561001057600080fd5b50600436106100575760003560e01c80632858c7641461005c578063429987361461008c57806386151ebc146100bd5780638736381a146100d9578063f617b901146100f7575b600080fd5b6100766004803603610071919081019061093f565b610128565b6040516100839190610af1565b60405180910390f35b6100a660048036036100a19190810190610903565b6102f1565b6040516100b4929190610b13565b60405180910390f35b6100d760048036036100d2919081019061089c565b6103d4565b005b6100e161057e565b6040516100ee9190610b43565b60405180910390f35b610111600480360361010c919081019061093f565b610584565b60405161011f929190610aba565b60405180910390f35b6060806040518060200160405280600081525090506000600160003373ffffffffffffffffffffffffffffffffffffffff1673ffffffffffffffffffffffffffffffffffffffff168152602001908152602001600020848154811061018957fe5b906000526020600020906002020160010160009054906101000a900460ff1660028111156101b357fe5b14156101f6576040518060400160405280600481526020017f4f70656e0000000000000000000000000000000000000000000000000000000081525090506102e8565b60018060003373ffffffffffffffffffffffffffffffffffffffff1673ffffffffffffffffffffffffffffffffffffffff168152602001908152602001600020848154811061024157fe5b906000526020600020906002020160010160009054906101000a900460ff16600281111561026b57fe5b14156102ae576040518060400160405280600781526020017f50656e64696e670000000000000000000000000000000000000000000000000081525090506102e7565b6040518060400160405280600681526020017f436c6f736564000000000000000000000000000000000000000000000000000081525090505b5b80915050919050565b6001602052816000526040600020818154811061030a57fe5b906000526020600020906002020160009150915050806000018054600181600116156101000203166002900480601f0160208091040260200160405190810160405280929190818152602001828054600181600116156101000203166002900480156103b75780601f1061038c576101008083540402835291602001916103b7565b820191906000526020600020905b81548152906001019060200180831161039a57829003601f168201915b5050505050908060010160009054906101000a900460ff16905082565b60008081548092919060010191905055506103ed610754565b60405180604001604052808381526020016000600281111561040b57fe5b8152509050600160008573ffffffffffffffffffffffffffffffffffffffff1673ffffffffffffffffffffffffffffffffffffffff16815260200190815260200160002081908060018154018082558091505090600182039060005260206000209060020201600090919290919091506000820151816000019080519060200190610497929190610779565b5060208201518160010160006101000a81548160ff021916908360028111156104bc57fe5b0217905550505050600160008473ffffffffffffffffffffffffffffffffffffffff1673ffffffffffffffffffffffffffffffffffffffff1681526020019081526020016000208190806001815401808255809150509060018203906000526020600020906002020160009091929091909150600082015181600001908051906020019061054b929190610779565b5060208201518160010160006101000a81548160ff0219169083600281111561057057fe5b021790555050505050505050565b60005481565b60608060006060816040519080825280602002602001820160405280156105bf57816020015b60608152602001906001900390816105aa5790505b5090506060826040519080825280602002602001820160405280156105f857816020015b60608152602001906001900390816105e35790505b50905060008090505b8381101561074557600160003373ffffffffffffffffffffffffffffffffffffffff1673ffffffffffffffffffffffffffffffffffffffff1681526020019081526020016000208188018154811061065557fe5b90600052602060002090600202016000018054600181600116156101000203166002900480601f0160208091040260200160405190810160405280929190818152602001828054600181600116156101000203166002900480156106fa5780601f106106cf576101008083540402835291602001916106fa565b820191906000526020600020905b8154815290600101906020018083116106dd57829003601f168201915b505050505083828151811061070b57fe5b6020026020010181905250610721818801610128565b82828151811061072d57fe5b60200260200101819052508080600101915050610601565b50818194509450505050915091565b6040518060400160405280606081526020016000600281111561077357fe5b81525090565b828054600181600116156101000203166002900490600052602060002090601f016020900481019282601f106107ba57805160ff19168380011785556107e8565b828001600101855582156107e8579182015b828111156107e75782518255916020019190600101906107cc565b5b5090506107f591906107f9565b5090565b61081b91905b808211156108175760008160009055506001016107ff565b5090565b90565b60008135905061082d81610ce9565b92915050565b600082601f83011261084457600080fd5b813561085761085282610b8b565b610b5e565b9150808252602083016020830185838301111561087357600080fd5b61087e838284610c89565b50505092915050565b60008135905061089681610d00565b92915050565b6000806000606084860312156108b157600080fd5b60006108bf8682870161081e565b93505060206108d08682870161081e565b925050604084013567ffffffffffffffff8111156108ed57600080fd5b6108f986828701610833565b9150509250925092565b6000806040838503121561091657600080fd5b60006109248582860161081e565b925050602061093585828601610887565b9150509250929050565b60006020828403121561095157600080fd5b600061095f84828501610887565b91505092915050565b60006109748383610a39565b905092915050565b600061098782610bc7565b6109918185610bf5565b9350836020820285016109a385610bb7565b8060005b858110156109df57848403895281516109c08582610968565b94506109cb83610be8565b925060208a019950506001810190506109a7565b50829750879550505050505092915050565b6109fa81610c77565b82525050565b6000610a0b82610bdd565b610a158185610c17565b9350610a25818560208601610c98565b610a2e81610ccb565b840191505092915050565b6000610a4482610bd2565b610a4e8185610c06565b9350610a5e818560208601610c98565b610a6781610ccb565b840191505092915050565b6000610a7d82610bd2565b610a878185610c17565b9350610a97818560208601610c98565b610aa081610ccb565b840191505092915050565b610ab481610c6d565b82525050565b60006040820190508181036000830152610ad4818561097c565b90508181036020830152610ae8818461097c565b90509392505050565b60006020820190508181036000830152610b0b8184610a00565b905092915050565b60006040820190508181036000830152610b2d8185610a72565b9050610b3c60208301846109f1565b9392505050565b6000602082019050610b586000830184610aab565b92915050565b6000604051905081810181811067ffffffffffffffff82111715610b8157600080fd5b8060405250919050565b600067ffffffffffffffff821115610ba257600080fd5b601f19601f8301169050602081019050919050565b6000819050602082019050919050565b600081519050919050565b600081519050919050565b600081519050919050565b6000602082019050919050565b600082825260208201905092915050565b600082825260208201905092915050565b600082825260208201905092915050565b6000610c3382610c4d565b9050919050565b6000819050610c4882610cdc565b919050565b600073ffffffffffffffffffffffffffffffffffffffff82169050919050565b6000819050919050565b6000610c8282610c3a565b9050919050565b82818337600083830152505050565b60005b83811015610cb6578082015181840152602081019050610c9b565b83811115610cc5576000848401525b50505050565b6000601f19601f8301169050919050565b60038110610ce657fe5b50565b610cf281610c28565b8114610cfd57600080fd5b50565b610d0981610c6d565b8114610d1457600080fd5b5056fea365627a7a72315820d26ac4710f0021a0d5c46aeece89751874a3b3f2aad6c94457be1f2f3b75973c6c6578706572696d656e74616cf564736f6c63430005100040",
  "source": "pragma solidity ^0.5.16;\npragma experimental ABIEncoderV2;\n\ncontract EscrowExchange {\n\tuint public contractCount = 0;\n\n\tmapping(address => EscrowContracts[]) public contractsForUser;\n\n\tenum Status { OPEN, PENDING, CLOSED }\n\n\tstruct EscrowContracts {\n\t    string _address;\n\t    Status _status;\n\t}\n\n\tconstructor() public {\n\t}\n\n\tfunction getContractsForCurrentUser(uint startID) public view returns (string[] memory, string[] memory){\n\t\tuint length;\n\n\t\tstring[] memory addresses = new string[](length);\n\t\tstring[] memory statuses = new string[](length);\n\n\n\t\tfor (uint i = 0; i < length; i++)\n\t\t{\n\t\t\taddresses[i] = (contractsForUser[msg.sender][startID+i]._address);\n\t\t\tstatuses[i] = (checkStatus(startID+i));\n\t\t}\n        return (addresses, statuses);\n    }\n\n    function checkStatus(uint id) public view returns (string memory){\n\n        string memory status = \"\";\n\n        if (uint(contractsForUser[msg.sender][id]._status) == 0){\n            status = \"Open\";\n        } else if (uint(contractsForUser[msg.sender][id]._status) == 1){\n            status = \"Pending\";\n        } else{\n            status = \"Closed\";\n        }\n\n        return (status);\n    }\n\n\n    function addContractAddressToRegistry (address _buyer, address _seller, string memory _contractAddress) public {\n    \tcontractCount++;\n    \tEscrowContracts memory _contract = EscrowContracts(_contractAddress, Status.OPEN);\n        contractsForUser[_buyer].push(_contract);\n        contractsForUser[_seller].push(_contract);\n    }\n}",
  "sourcePath": "/Users/donaldlee/Developer/PointsExchange/contracts/EscrowExchange.sol",
  "compiler": {
    "name": "solc",
    "version": "0.5.16+commit.9c3226ce.Emscripten.clang"
  },
  "schemaVersion": "3.3.3",
  "updatedAt": "2021-03-13T01:14:08.847Z",
  "networkType": "ethereum",
  "devdoc": {
    "methods": {}
  },
  "userdoc": {
    "methods": {}
  }
}