{
  "contractName": "AdminEscrowActions",
  "abi": [
    {
      "inputs": [],
      "payable": false,
      "stateMutability": "nonpayable",
      "type": "constructor"
    },
    {
      "anonymous": false,
      "inputs": [
        {
          "indexed": false,
          "internalType": "string",
          "name": "msg",
          "type": "string"
        }
      ],
      "name": "AdminContractActionTaken",
      "type": "event"
    },
    {
      "anonymous": false,
      "inputs": [
        {
          "indexed": false,
          "internalType": "string",
          "name": "msg",
          "type": "string"
        }
      ],
      "name": "ContractInterventionRequestMade",
      "type": "event"
    },
    {
      "constant": true,
      "inputs": [
        {
          "internalType": "address",
          "name": "",
          "type": "address"
        }
      ],
      "name": "RequestedHelpContractExists",
      "outputs": [
        {
          "internalType": "bool",
          "name": "",
          "type": "bool"
        }
      ],
      "payable": false,
      "stateMutability": "view",
      "type": "function"
    },
    {
      "constant": true,
      "inputs": [],
      "name": "adminNeededContractCount",
      "outputs": [
        {
          "internalType": "uint256",
          "name": "",
          "type": "uint256"
        }
      ],
      "payable": false,
      "stateMutability": "view",
      "type": "function"
    },
    {
      "constant": true,
      "inputs": [
        {
          "internalType": "uint256",
          "name": "",
          "type": "uint256"
        }
      ],
      "name": "adminNeededContracts",
      "outputs": [
        {
          "internalType": "uint256",
          "name": "contractIndexOnEscrowExchange",
          "type": "uint256"
        },
        {
          "internalType": "uint8",
          "name": "completed",
          "type": "uint8"
        },
        {
          "internalType": "address",
          "name": "contractAddress",
          "type": "address"
        }
      ],
      "payable": false,
      "stateMutability": "view",
      "type": "function"
    },
    {
      "constant": true,
      "inputs": [
        {
          "internalType": "address",
          "name": "",
          "type": "address"
        }
      ],
      "name": "isAdmin",
      "outputs": [
        {
          "internalType": "bool",
          "name": "",
          "type": "bool"
        }
      ],
      "payable": false,
      "stateMutability": "view",
      "type": "function"
    },
    {
      "constant": true,
      "inputs": [],
      "name": "owner",
      "outputs": [
        {
          "internalType": "address payable",
          "name": "",
          "type": "address"
        }
      ],
      "payable": false,
      "stateMutability": "view",
      "type": "function"
    },
    {
      "constant": true,
      "inputs": [
        {
          "internalType": "address",
          "name": "escrow_factory_contract_address",
          "type": "address"
        }
      ],
      "name": "getRetrievedContract",
      "outputs": [
        {
          "internalType": "address",
          "name": "",
          "type": "address"
        },
        {
          "internalType": "address",
          "name": "",
          "type": "address"
        },
        {
          "internalType": "uint256",
          "name": "",
          "type": "uint256"
        },
        {
          "internalType": "uint256",
          "name": "",
          "type": "uint256"
        },
        {
          "internalType": "string",
          "name": "",
          "type": "string"
        },
        {
          "internalType": "string",
          "name": "",
          "type": "string"
        },
        {
          "internalType": "address",
          "name": "",
          "type": "address"
        }
      ],
      "payable": false,
      "stateMutability": "view",
      "type": "function"
    },
    {
      "constant": false,
      "inputs": [
        {
          "internalType": "uint256",
          "name": "index",
          "type": "uint256"
        },
        {
          "internalType": "string",
          "name": "_notes",
          "type": "string"
        },
        {
          "internalType": "address",
          "name": "escrow_factory_contract_address",
          "type": "address"
        }
      ],
      "name": "contractInterventionRequest",
      "outputs": [],
      "payable": false,
      "stateMutability": "nonpayable",
      "type": "function"
    },
    {
      "constant": false,
      "inputs": [
        {
          "internalType": "uint256",
          "name": "index",
          "type": "uint256"
        },
        {
          "internalType": "uint8",
          "name": "action",
          "type": "uint8"
        },
        {
          "internalType": "address",
          "name": "escrow_factory_contract_address",
          "type": "address"
        }
      ],
      "name": "adminContractTakeAction",
      "outputs": [],
      "payable": false,
      "stateMutability": "nonpayable",
      "type": "function"
    },
    {
      "constant": false,
      "inputs": [
        {
          "internalType": "bool",
          "name": "state",
          "type": "bool"
        },
        {
          "internalType": "address",
          "name": "newAdmin",
          "type": "address"
        }
      ],
      "name": "setAdmin",
      "outputs": [],
      "payable": false,
      "stateMutability": "nonpayable",
      "type": "function"
    },
    {
      "constant": true,
      "inputs": [
        {
          "internalType": "address",
          "name": "admin",
          "type": "address"
        }
      ],
      "name": "getAdmin",
      "outputs": [
        {
          "internalType": "bool",
          "name": "",
          "type": "bool"
        }
      ],
      "payable": false,
      "stateMutability": "view",
      "type": "function"
    }
  ],
  "bytecode": "0x60806040526000805534801561001457600080fd5b5033600260006101000a81548173ffffffffffffffffffffffffffffffffffffffff021916908373ffffffffffffffffffffffffffffffffffffffff16021790555060018060003373ffffffffffffffffffffffffffffffffffffffff1673ffffffffffffffffffffffffffffffffffffffff16815260200190815260200160002060006101000a81548160ff02191690831515021790555061144a806100bc6000396000f3fe608060405234801561001057600080fd5b506004361061009e5760003560e01c806380ac6ac01161006657806380ac6ac01461016b57806383ffb10a146101895780638da5cb5b146101bf5780639a310171146101dd578063f825d626146101f95761009e565b806324d7806c146100a357806357b12b9c146100d35780635f3babed1461010357806364efb22b1461011f57806379f053991461014f575b600080fd5b6100bd60048036036100b89190810190610d2d565b61022b565b6040516100ca9190611121565b60405180910390f35b6100ed60048036036100e89190810190610d2d565b61024b565b6040516100fa9190611121565b60405180910390f35b61011d60048036036101189190810190610ef6565b61026b565b005b61013960048036036101349190810190610d2d565b610434565b6040516101469190611121565b60405180910390f35b61016960048036036101649190810190610e8f565b61048a565b005b6101736106b6565b60405161018091906111e7565b60405180910390f35b6101a3600480360361019e9190810190610d2d565b6106bc565b6040516101b697969594939291906110a4565b60405180910390f35b6101c76109f0565b6040516101d49190611089565b60405180910390f35b6101f760048036036101f29190810190610d7f565b610a16565b005b610213600480360361020e9190810190610e3d565b610b5c565b60405161022293929190611202565b60405180910390f35b60016020528060005260406000206000915054906101000a900460ff1681565b60046020528060005260406000206000915054906101000a900460ff1681565b600260009054906101000a900473ffffffffffffffffffffffffffffffffffffffff1673ffffffffffffffffffffffffffffffffffffffff163373ffffffffffffffffffffffffffffffffffffffff161480610317575060011515600160003373ffffffffffffffffffffffffffffffffffffffff1673ffffffffffffffffffffffffffffffffffffffff16815260200190815260200160002060009054906101000a900460ff161515145b610356576040517f08c379a000000000000000000000000000000000000000000000000000000000815260040161034d90611187565b60405180910390fd5b600081905060016003600086815260200190815260200160002060010160006101000a81548160ff021916908360ff1602179055508073ffffffffffffffffffffffffffffffffffffffff16633bd0387b6001856040518363ffffffff1660e01b81526004016103c792919061113c565b600060405180830381600087803b1580156103e157600080fd5b505af11580156103f5573d6000803e3d6000fd5b505050507f20433980736947fbdb7303f501bdc939a9ac59bd69b9100e2b7a0b76e8c1aa9d604051610426906111a7565b60405180910390a150505050565b6000600160008373ffffffffffffffffffffffffffffffffffffffff1673ffffffffffffffffffffffffffffffffffffffff16815260200190815260200160002060009054906101000a900460ff169050919050565b60001515600460008373ffffffffffffffffffffffffffffffffffffffff1673ffffffffffffffffffffffffffffffffffffffff16815260200190815260200160002060009054906101000a900460ff161515141561060b576040518060600160405280848152602001600060ff1681526020018273ffffffffffffffffffffffffffffffffffffffff1681525060036000805481526020019081526020016000206000820151816000015560208201518160010160006101000a81548160ff021916908360ff16021790555060408201518160010160016101000a81548173ffffffffffffffffffffffffffffffffffffffff021916908373ffffffffffffffffffffffffffffffffffffffff16021790555090505060008081548092919060010191905055506001600460008373ffffffffffffffffffffffffffffffffffffffff1673ffffffffffffffffffffffffffffffffffffffff16815260200190815260200160002060006101000a81548160ff0219169083151502179055505b60008190508073ffffffffffffffffffffffffffffffffffffffff1663bada8736846040518263ffffffff1660e01b81526004016106499190611165565b600060405180830381600087803b15801561066357600080fd5b505af1158015610677573d6000803e3d6000fd5b505050507f40a801efac683455896bb61be4c6d8c65bcd3ab0cf1883bc94e30a247bddfe2d6040516106a8906111c7565b60405180910390a150505050565b60005481565b60008060008060608060008088905060008173ffffffffffffffffffffffffffffffffffffffff16637150d8ae6040518163ffffffff1660e01b815260040160206040518083038186803b15801561071357600080fd5b505afa158015610727573d6000803e3d6000fd5b505050506040513d601f19601f8201168201806040525061074b9190810190610d56565b9050808273ffffffffffffffffffffffffffffffffffffffff166308551a536040518163ffffffff1660e01b815260040160206040518083038186803b15801561079457600080fd5b505afa1580156107a8573d6000803e3d6000fd5b505050506040513d601f19601f820116820180604052506107cc9190810190610d56565b8373ffffffffffffffffffffffffffffffffffffffff1663aa8c217c6040518163ffffffff1660e01b815260040160206040518083038186803b15801561081257600080fd5b505afa158015610826573d6000803e3d6000fd5b505050506040513d601f19601f8201168201806040525061084a9190810190610e66565b8473ffffffffffffffffffffffffffffffffffffffff1663d0e30db06040518163ffffffff1660e01b815260040160206040518083038186803b15801561089057600080fd5b505afa1580156108a4573d6000803e3d6000fd5b505050506040513d601f19601f820116820180604052506108c89190810190610e66565b8573ffffffffffffffffffffffffffffffffffffffff1663c032846b6040518163ffffffff1660e01b815260040160006040518083038186803b15801561090e57600080fd5b505afa158015610922573d6000803e3d6000fd5b505050506040513d6000823e3d601f19601f8201168201806040525061094b9190810190610dfc565b8673ffffffffffffffffffffffffffffffffffffffff16631866dc976040518163ffffffff1660e01b815260040160006040518083038186803b15801561099157600080fd5b505afa1580156109a5573d6000803e3d6000fd5b505050506040513d6000823e3d601f19601f820116820180604052506109ce9190810190610dbb565b8785955081915098509850985098509850985098505050919395979092949650565b600260009054906101000a900473ffffffffffffffffffffffffffffffffffffffff1681565b600260009054906101000a900473ffffffffffffffffffffffffffffffffffffffff1673ffffffffffffffffffffffffffffffffffffffff163373ffffffffffffffffffffffffffffffffffffffff161480610ac2575060011515600160003373ffffffffffffffffffffffffffffffffffffffff1673ffffffffffffffffffffffffffffffffffffffff16815260200190815260200160002060009054906101000a900460ff161515145b610b01576040517f08c379a0000000000000000000000000000000000000000000000000000000008152600401610af890611187565b60405180910390fd5b81600160008373ffffffffffffffffffffffffffffffffffffffff1673ffffffffffffffffffffffffffffffffffffffff16815260200190815260200160002060006101000a81548160ff0219169083151502179055505050565b60036020528060005260406000206000915090508060000154908060010160009054906101000a900460ff16908060010160019054906101000a900473ffffffffffffffffffffffffffffffffffffffff16905083565b600081359050610bc281611394565b92915050565b600081519050610bd7816113ab565b92915050565b600081359050610bec816113c2565b92915050565b600082601f830112610c0357600080fd5b8151610c16610c1182611266565b611239565b91508082526020830160208301858383011115610c3257600080fd5b610c3d838284611350565b50505092915050565b600082601f830112610c5757600080fd5b8135610c6a610c6582611292565b611239565b91508082526020830160208301858383011115610c8657600080fd5b610c91838284611341565b50505092915050565b600082601f830112610cab57600080fd5b8151610cbe610cb982611292565b611239565b91508082526020830160208301858383011115610cda57600080fd5b610ce5838284611350565b50505092915050565b600081359050610cfd816113d9565b92915050565b600081519050610d12816113d9565b92915050565b600081359050610d27816113f0565b92915050565b600060208284031215610d3f57600080fd5b6000610d4d84828501610bb3565b91505092915050565b600060208284031215610d6857600080fd5b6000610d7684828501610bc8565b91505092915050565b60008060408385031215610d9257600080fd5b6000610da085828601610bdd565b9250506020610db185828601610bb3565b9150509250929050565b600060208284031215610dcd57600080fd5b600082015167ffffffffffffffff811115610de757600080fd5b610df384828501610bf2565b91505092915050565b600060208284031215610e0e57600080fd5b600082015167ffffffffffffffff811115610e2857600080fd5b610e3484828501610c9a565b91505092915050565b600060208284031215610e4f57600080fd5b6000610e5d84828501610cee565b91505092915050565b600060208284031215610e7857600080fd5b6000610e8684828501610d03565b91505092915050565b600080600060608486031215610ea457600080fd5b6000610eb286828701610cee565b935050602084013567ffffffffffffffff811115610ecf57600080fd5b610edb86828701610c46565b9250506040610eec86828701610bb3565b9150509250925092565b600080600060608486031215610f0b57600080fd5b6000610f1986828701610cee565b9350506020610f2a86828701610d18565b9250506040610f3b86828701610bb3565b9150509250925092565b610f4e816112ec565b82525050565b610f5d816112da565b82525050565b610f6c816112fe565b82525050565b6000610f7d826112be565b610f8781856112c9565b9350610f97818560208601611350565b610fa081611383565b840191505092915050565b6000610fb86012836112c9565b91507f61646d696e6973747261746f72206f6e6c7900000000000000000000000000006000830152602082019050919050565b6000610ff8601a836112c9565b91507f41646d696e206861732074616b656e20616e20616374696f6e2e0000000000006000830152602082019050919050565b6000611038601d836112c9565b91507f41646d696e20496e74657276656e74696f6e20526571756573746564210000006000830152602082019050919050565b6110748161132a565b82525050565b61108381611334565b82525050565b600060208201905061109e6000830184610f45565b92915050565b600060e0820190506110b9600083018a610f54565b6110c66020830189610f54565b6110d3604083018861106b565b6110e0606083018761106b565b81810360808301526110f28186610f72565b905081810360a08301526111068185610f72565b905061111560c0830184610f54565b98975050505050505050565b60006020820190506111366000830184610f63565b92915050565b60006040820190506111516000830185610f63565b61115e602083018461107a565b9392505050565b6000602082019050818103600083015261117f8184610f72565b905092915050565b600060208201905081810360008301526111a081610fab565b9050919050565b600060208201905081810360008301526111c081610feb565b9050919050565b600060208201905081810360008301526111e08161102b565b9050919050565b60006020820190506111fc600083018461106b565b92915050565b6000606082019050611217600083018661106b565b611224602083018561107a565b6112316040830184610f54565b949350505050565b6000604051905081810181811067ffffffffffffffff8211171561125c57600080fd5b8060405250919050565b600067ffffffffffffffff82111561127d57600080fd5b601f19601f8301169050602081019050919050565b600067ffffffffffffffff8211156112a957600080fd5b601f19601f8301169050602081019050919050565b600081519050919050565b600082825260208201905092915050565b60006112e58261130a565b9050919050565b60006112f78261130a565b9050919050565b60008115159050919050565b600073ffffffffffffffffffffffffffffffffffffffff82169050919050565b6000819050919050565b600060ff82169050919050565b82818337600083830152505050565b60005b8381101561136e578082015181840152602081019050611353565b8381111561137d576000848401525b50505050565b6000601f19601f8301169050919050565b61139d816112da565b81146113a857600080fd5b50565b6113b4816112ec565b81146113bf57600080fd5b50565b6113cb816112fe565b81146113d657600080fd5b50565b6113e28161132a565b81146113ed57600080fd5b50565b6113f981611334565b811461140457600080fd5b5056fea365627a7a72315820e31270af2b37170de78421762f541b7f3824cf5f8fdd4dd5d756ed1b1668d9d66c6578706572696d656e74616cf564736f6c63430005110040",
  "source": "pragma solidity ^0.5.16;\npragma experimental ABIEncoderV2;\n\nimport \"./EscrowFactory.sol\";\n\ncontract AdminEscrowActions {\n\tuint public adminNeededContractCount = 0;\n\tmapping(address => bool) public isAdmin;\n\taddress payable public owner;\n\tmapping(uint => ThirdPartyNeededContract) public adminNeededContracts;\n\tmapping(address => bool) public RequestedHelpContractExists;\n\n\tevent ContractInterventionRequestMade(string msg);\n\tevent AdminContractActionTaken(string msg);\n\n\tmodifier isAdministrator() {\n        require(msg.sender == owner || isAdmin[msg.sender] == true, \"administrator only\");\n        _;\n    }\n\n\tstruct ThirdPartyNeededContract {\n\t\tuint contractIndexOnEscrowExchange;\n\t\tuint8 completed;\n\t\taddress contractAddress;\n\t}\n\n\tconstructor() public {\n\t\towner = msg.sender;\n\t\tisAdmin[msg.sender] = true;\n\t}\n\n\tfunction getRetrievedContract(address escrow_factory_contract_address) public view returns (address, address, uint, uint, string memory, string memory, address) {\n\t\tEscrowFactory retrieved_contract = EscrowFactory(escrow_factory_contract_address);\n\t\taddress buyer = retrieved_contract.buyer();\n\n        return (\n        \tbuyer, \n        \tretrieved_contract.seller(), \n        \tretrieved_contract.amount(),\n        \tretrieved_contract.deposit(),\n        \tretrieved_contract.getContractStatus(), \n        \tretrieved_contract.notes(),\n        \taddress(retrieved_contract)\n        );\n\t}\n\n\tfunction contractInterventionRequest(uint index, string memory _notes, address escrow_factory_contract_address) public {\n    \tif (RequestedHelpContractExists[escrow_factory_contract_address] == false) {\n    \t\tadminNeededContracts[adminNeededContractCount] = ThirdPartyNeededContract(index, 0, escrow_factory_contract_address); // Needs to change to perhaps use the contract address as index...\n    \t\tadminNeededContractCount ++;\n    \t\tRequestedHelpContractExists[escrow_factory_contract_address] = true;\n    \t}\n    \tEscrowFactory retrieved_contract = EscrowFactory(escrow_factory_contract_address);\n    \tretrieved_contract.requestAdminAction(_notes);\n    \temit ContractInterventionRequestMade(\"Admin Intervention Requested!\");\n    }\n\n    function adminContractTakeAction(uint index, uint8 action, address escrow_factory_contract_address) public isAdministrator {\n    \tEscrowFactory retrieved_contract = EscrowFactory(escrow_factory_contract_address);\n    \tadminNeededContracts[index].completed = 1;\n    \tretrieved_contract.adminContractTakeAction(true, action);\n    \temit AdminContractActionTaken(\"Admin has taken an action.\");\n    }\n\n    function setAdmin(bool state, address newAdmin) public isAdministrator {\n    \tisAdmin[newAdmin] = state;\n    }\n\n    function getAdmin(address admin) public view returns (bool) {\n    \treturn isAdmin[admin];\n    }\n}",
  "sourcePath": "/Users/donaldlee/Developer/PointsExchange/contracts/AdminEscrowActions.sol",
  "compiler": {
    "name": "solc",
    "version": "0.5.17+commit.d19bba13.Emscripten.clang"
  },
  "schemaVersion": "3.3.3",
  "updatedAt": "2021-07-27T01:19:08.871Z",
  "networkType": "ethereum",
  "devdoc": {
    "methods": {}
  },
  "userdoc": {
    "methods": {}
  }
}