{
  "contractName": "AdminEscrowActions",
  "abi": [
    {
      "inputs": [],
      "payable": false,
      "stateMutability": "nonpayable",
      "type": "constructor"
    },
    {
      "constant": true,
      "inputs": [
        {
          "internalType": "uint256",
          "name": "",
          "type": "uint256"
        }
      ],
      "name": "adminNeededContracts",
      "outputs": [
        {
          "internalType": "uint256",
          "name": "contractIndexOnEscrowExchange",
          "type": "uint256"
        },
        {
          "internalType": "uint8",
          "name": "completed",
          "type": "uint8"
        },
        {
          "internalType": "address",
          "name": "contractAddress",
          "type": "address"
        }
      ],
      "payable": false,
      "stateMutability": "view",
      "type": "function"
    },
    {
      "constant": true,
      "inputs": [
        {
          "internalType": "address",
          "name": "",
          "type": "address"
        }
      ],
      "name": "isAdmin",
      "outputs": [
        {
          "internalType": "bool",
          "name": "",
          "type": "bool"
        }
      ],
      "payable": false,
      "stateMutability": "view",
      "type": "function"
    },
    {
      "constant": true,
      "inputs": [],
      "name": "owner",
      "outputs": [
        {
          "internalType": "address payable",
          "name": "",
          "type": "address"
        }
      ],
      "payable": false,
      "stateMutability": "view",
      "type": "function"
    },
    {
      "constant": false,
      "inputs": [
        {
          "internalType": "uint256",
          "name": "index",
          "type": "uint256"
        },
        {
          "internalType": "string",
          "name": "_notes",
          "type": "string"
        },
        {
          "internalType": "address",
          "name": "escrow_factory_contract_address",
          "type": "address"
        }
      ],
      "name": "contractInterventionRequest",
      "outputs": [],
      "payable": false,
      "stateMutability": "nonpayable",
      "type": "function"
    },
    {
      "constant": false,
      "inputs": [
        {
          "internalType": "uint256",
          "name": "index",
          "type": "uint256"
        },
        {
          "internalType": "uint8",
          "name": "action",
          "type": "uint8"
        },
        {
          "internalType": "address",
          "name": "escrow_factory_contract_address",
          "type": "address"
        }
      ],
      "name": "adminContractTakeAction",
      "outputs": [],
      "payable": false,
      "stateMutability": "nonpayable",
      "type": "function"
    },
    {
      "constant": false,
      "inputs": [
        {
          "internalType": "bool",
          "name": "state",
          "type": "bool"
        },
        {
          "internalType": "address",
          "name": "newAdmin",
          "type": "address"
        }
      ],
      "name": "setAdmin",
      "outputs": [],
      "payable": false,
      "stateMutability": "nonpayable",
      "type": "function"
    },
    {
      "constant": true,
      "inputs": [
        {
          "internalType": "address",
          "name": "admin",
          "type": "address"
        }
      ],
      "name": "getAdmin",
      "outputs": [
        {
          "internalType": "bool",
          "name": "",
          "type": "bool"
        }
      ],
      "payable": false,
      "stateMutability": "view",
      "type": "function"
    }
  ],
  "bytecode": "0x60806040526000805534801561001457600080fd5b5033600260006101000a81548173ffffffffffffffffffffffffffffffffffffffff021916908373ffffffffffffffffffffffffffffffffffffffff160217905550610be9806100656000396000f3fe608060405234801561001057600080fd5b506004361061007d5760003560e01c806379f053991161005b57806379f05399146100fe5780638da5cb5b1461011a5780639a31017114610138578063f825d626146101545761007d565b806324d7806c146100825780635f3babed146100b257806364efb22b146100ce575b600080fd5b61009c6004803603610097919081019061073b565b610186565b6040516100a9919061095e565b60405180910390f35b6100cc60048036036100c79190810190610830565b6101a6565b005b6100e860048036036100e3919081019061073b565b61033a565b6040516100f5919061095e565b60405180910390f35b610118600480360361011391908101906107c9565b610390565b005b6101226104d0565b60405161012f9190610943565b60405180910390f35b610152600480360361014d9190810190610764565b6104f6565b005b61016e600480360361016991908101906107a0565b61063c565b60405161017d939291906109e4565b60405180910390f35b60016020528060005260406000206000915054906101000a900460ff1681565b600260009054906101000a900473ffffffffffffffffffffffffffffffffffffffff1673ffffffffffffffffffffffffffffffffffffffff163373ffffffffffffffffffffffffffffffffffffffff161480610252575060011515600160003373ffffffffffffffffffffffffffffffffffffffff1673ffffffffffffffffffffffffffffffffffffffff16815260200190815260200160002060009054906101000a900460ff161515145b610291576040517f08c379a0000000000000000000000000000000000000000000000000000000008152600401610288906109c4565b60405180910390fd5b600081905060016003600086815260200190815260200160002060010160006101000a81548160ff021916908360ff1602179055508073ffffffffffffffffffffffffffffffffffffffff16633bd0387b6001856040518363ffffffff1660e01b8152600401610302929190610979565b600060405180830381600087803b15801561031c57600080fd5b505af1158015610330573d6000803e3d6000fd5b5050505050505050565b6000600160008373ffffffffffffffffffffffffffffffffffffffff1673ffffffffffffffffffffffffffffffffffffffff16815260200190815260200160002060009054906101000a900460ff169050919050565b6040518060600160405280848152602001600060ff1681526020018273ffffffffffffffffffffffffffffffffffffffff1681525060036000805481526020019081526020016000206000820151816000015560208201518160010160006101000a81548160ff021916908360ff16021790555060408201518160010160016101000a81548173ffffffffffffffffffffffffffffffffffffffff021916908373ffffffffffffffffffffffffffffffffffffffff16021790555090505060016000540160008190555060008190508073ffffffffffffffffffffffffffffffffffffffff1663bada8736846040518263ffffffff1660e01b815260040161049891906109a2565b600060405180830381600087803b1580156104b257600080fd5b505af11580156104c6573d6000803e3d6000fd5b5050505050505050565b600260009054906101000a900473ffffffffffffffffffffffffffffffffffffffff1681565b600260009054906101000a900473ffffffffffffffffffffffffffffffffffffffff1673ffffffffffffffffffffffffffffffffffffffff163373ffffffffffffffffffffffffffffffffffffffff1614806105a2575060011515600160003373ffffffffffffffffffffffffffffffffffffffff1673ffffffffffffffffffffffffffffffffffffffff16815260200190815260200160002060009054906101000a900460ff161515145b6105e1576040517f08c379a00000000000000000000000000000000000000000000000000000000081526004016105d8906109c4565b60405180910390fd5b81600160008373ffffffffffffffffffffffffffffffffffffffff1673ffffffffffffffffffffffffffffffffffffffff16815260200190815260200160002060006101000a81548160ff0219169083151502179055505050565b60036020528060005260406000206000915090508060000154908060010160009054906101000a900460ff16908060010160019054906101000a900473ffffffffffffffffffffffffffffffffffffffff16905083565b6000813590506106a281610b4a565b92915050565b6000813590506106b781610b61565b92915050565b600082601f8301126106ce57600080fd5b81356106e16106dc82610a48565b610a1b565b915080825260208301602083018583830111156106fd57600080fd5b610708838284610af7565b50505092915050565b60008135905061072081610b78565b92915050565b60008135905061073581610b8f565b92915050565b60006020828403121561074d57600080fd5b600061075b84828501610693565b91505092915050565b6000806040838503121561077757600080fd5b6000610785858286016106a8565b925050602061079685828601610693565b9150509250929050565b6000602082840312156107b257600080fd5b60006107c084828501610711565b91505092915050565b6000806000606084860312156107de57600080fd5b60006107ec86828701610711565b935050602084013567ffffffffffffffff81111561080957600080fd5b610815868287016106bd565b925050604061082686828701610693565b9150509250925092565b60008060006060848603121561084557600080fd5b600061085386828701610711565b935050602061086486828701610726565b925050604061087586828701610693565b9150509250925092565b61088881610aa2565b82525050565b61089781610a90565b82525050565b6108a681610ab4565b82525050565b60006108b782610a74565b6108c18185610a7f565b93506108d1818560208601610b06565b6108da81610b39565b840191505092915050565b60006108f2601283610a7f565b91507f61646d696e6973747261746f72206f6e6c7900000000000000000000000000006000830152602082019050919050565b61092e81610ae0565b82525050565b61093d81610aea565b82525050565b6000602082019050610958600083018461087f565b92915050565b6000602082019050610973600083018461089d565b92915050565b600060408201905061098e600083018561089d565b61099b6020830184610934565b9392505050565b600060208201905081810360008301526109bc81846108ac565b905092915050565b600060208201905081810360008301526109dd816108e5565b9050919050565b60006060820190506109f96000830186610925565b610a066020830185610934565b610a13604083018461088e565b949350505050565b6000604051905081810181811067ffffffffffffffff82111715610a3e57600080fd5b8060405250919050565b600067ffffffffffffffff821115610a5f57600080fd5b601f19601f8301169050602081019050919050565b600081519050919050565b600082825260208201905092915050565b6000610a9b82610ac0565b9050919050565b6000610aad82610ac0565b9050919050565b60008115159050919050565b600073ffffffffffffffffffffffffffffffffffffffff82169050919050565b6000819050919050565b600060ff82169050919050565b82818337600083830152505050565b60005b83811015610b24578082015181840152602081019050610b09565b83811115610b33576000848401525b50505050565b6000601f19601f8301169050919050565b610b5381610a90565b8114610b5e57600080fd5b50565b610b6a81610ab4565b8114610b7557600080fd5b50565b610b8181610ae0565b8114610b8c57600080fd5b50565b610b9881610aea565b8114610ba357600080fd5b5056fea365627a7a72315820cac55f71282979afc6dfdec63b68f94083f1308c9a58e5b02db168fe088201976c6578706572696d656e74616cf564736f6c63430005110040",
  "source": "pragma solidity ^0.5.16;\npragma experimental ABIEncoderV2;\n\nimport \"./EscrowFactory.sol\";\n\ncontract AdminEscrowActions {\n\tuint adminNeededContractCount = 0;\n\tmapping(address => bool) public isAdmin;\n\taddress payable public owner;\n\tmapping(uint => ThirdPartyNeededContract) public adminNeededContracts;\n\n\tmodifier isAdministrator() {\n        require(msg.sender == owner || isAdmin[msg.sender] == true, \"administrator only\");\n        _;\n    }\n\n\tstruct ThirdPartyNeededContract {\n\t\tuint contractIndexOnEscrowExchange;\n\t\tuint8 completed;\n\t\taddress contractAddress;\n\t}\n\n\tconstructor() public {\n\t\towner = msg.sender;\n\t}\n\n\tfunction contractInterventionRequest(uint index, string memory _notes, address escrow_factory_contract_address) public {\n    \tadminNeededContracts[adminNeededContractCount] = ThirdPartyNeededContract(index, 0, escrow_factory_contract_address);\n    \tadminNeededContractCount = adminNeededContractCount + 1;\n    \tEscrowFactory retrieved_contract = EscrowFactory(escrow_factory_contract_address);\n    \tretrieved_contract.requestAdminAction(_notes);\n    }\n\n    function adminContractTakeAction(uint index, uint8 action, address escrow_factory_contract_address) public isAdministrator {\n    \tEscrowFactory retrieved_contract = EscrowFactory(escrow_factory_contract_address);\n    \tadminNeededContracts[index].completed = 1;\n    \tretrieved_contract.adminContractTakeAction(true, action);\n    }\n\n    function setAdmin(bool state, address newAdmin) public isAdministrator {\n    \tisAdmin[newAdmin] = state;\n    }\n\n    function getAdmin(address admin) public view returns (bool) {\n    \treturn isAdmin[admin];\n    }\n}",
  "sourcePath": "/Users/donaldlee/Developer/PointsExchange/contracts/AdminEscrowActions.sol",
  "compiler": {
    "name": "solc",
    "version": "0.5.17+commit.d19bba13.Emscripten.clang"
  },
  "schemaVersion": "3.3.3",
  "updatedAt": "2021-07-22T01:00:50.865Z",
  "networkType": "ethereum",
  "devdoc": {
    "methods": {}
  },
  "userdoc": {
    "methods": {}
  }
}