{
  "contractName": "EscrowExchange",
  "abi": [
    {
      "anonymous": false,
      "inputs": [
        {
          "indexed": false,
          "internalType": "string",
          "name": "msg",
          "type": "string"
        }
      ],
      "name": "AmountSent",
      "type": "event"
    },
    {
      "anonymous": false,
      "inputs": [
        {
          "indexed": false,
          "internalType": "string",
          "name": "msg",
          "type": "string"
        }
      ],
      "name": "BuyerDepositReversed",
      "type": "event"
    },
    {
      "anonymous": false,
      "inputs": [
        {
          "indexed": false,
          "internalType": "address",
          "name": "from",
          "type": "address"
        },
        {
          "indexed": false,
          "internalType": "string",
          "name": "msg",
          "type": "string"
        },
        {
          "indexed": false,
          "internalType": "uint256",
          "name": "amount",
          "type": "uint256"
        }
      ],
      "name": "BuyerDeposited",
      "type": "event"
    },
    {
      "anonymous": false,
      "inputs": [
        {
          "indexed": false,
          "internalType": "string",
          "name": "msg",
          "type": "string"
        }
      ],
      "name": "BuyerRefunded",
      "type": "event"
    },
    {
      "anonymous": false,
      "inputs": [
        {
          "indexed": false,
          "internalType": "address",
          "name": "buyer",
          "type": "address"
        },
        {
          "indexed": false,
          "internalType": "address",
          "name": "seller",
          "type": "address"
        },
        {
          "indexed": false,
          "internalType": "uint256",
          "name": "amount",
          "type": "uint256"
        },
        {
          "indexed": false,
          "internalType": "uint256",
          "name": "deposit",
          "type": "uint256"
        },
        {
          "indexed": false,
          "internalType": "uint256",
          "name": "signatureCount",
          "type": "uint256"
        },
        {
          "indexed": false,
          "internalType": "string",
          "name": "status",
          "type": "string"
        }
      ],
      "name": "ContractCreated",
      "type": "event"
    },
    {
      "anonymous": false,
      "inputs": [
        {
          "indexed": false,
          "internalType": "string",
          "name": "msg",
          "type": "string"
        }
      ],
      "name": "DepositPartialClaim",
      "type": "event"
    },
    {
      "anonymous": false,
      "inputs": [
        {
          "indexed": false,
          "internalType": "string",
          "name": "msg",
          "type": "string"
        }
      ],
      "name": "DepositsClaimed",
      "type": "event"
    },
    {
      "anonymous": false,
      "inputs": [
        {
          "indexed": false,
          "internalType": "string",
          "name": "msg",
          "type": "string"
        }
      ],
      "name": "SellerDepositReversed",
      "type": "event"
    },
    {
      "anonymous": false,
      "inputs": [
        {
          "indexed": false,
          "internalType": "address",
          "name": "from",
          "type": "address"
        },
        {
          "indexed": false,
          "internalType": "string",
          "name": "msg",
          "type": "string"
        },
        {
          "indexed": false,
          "internalType": "uint256",
          "name": "amount",
          "type": "uint256"
        }
      ],
      "name": "SellerDeposited",
      "type": "event"
    },
    {
      "anonymous": false,
      "inputs": [
        {
          "indexed": false,
          "internalType": "string",
          "name": "msg",
          "type": "string"
        }
      ],
      "name": "SellerPaid",
      "type": "event"
    },
    {
      "constant": false,
      "inputs": [
        {
          "internalType": "uint256",
          "name": "contract_id",
          "type": "uint256"
        }
      ],
      "name": "buyerDeposit",
      "outputs": [],
      "payable": true,
      "stateMutability": "payable",
      "type": "function"
    },
    {
      "constant": false,
      "inputs": [
        {
          "internalType": "uint256",
          "name": "contract_id",
          "type": "uint256"
        }
      ],
      "name": "claimDeposits",
      "outputs": [],
      "payable": false,
      "stateMutability": "nonpayable",
      "type": "function"
    },
    {
      "constant": true,
      "inputs": [
        {
          "internalType": "address",
          "name": "",
          "type": "address"
        },
        {
          "internalType": "uint256",
          "name": "",
          "type": "uint256"
        }
      ],
      "name": "contractsForUser",
      "outputs": [
        {
          "internalType": "address payable",
          "name": "buyer",
          "type": "address"
        },
        {
          "internalType": "address payable",
          "name": "seller",
          "type": "address"
        },
        {
          "internalType": "uint256",
          "name": "amount",
          "type": "uint256"
        },
        {
          "internalType": "uint256",
          "name": "deposit",
          "type": "uint256"
        },
        {
          "internalType": "uint256",
          "name": "signatureCount",
          "type": "uint256"
        },
        {
          "internalType": "enum EscrowFactory.Status",
          "name": "status",
          "type": "uint8"
        }
      ],
      "payable": false,
      "stateMutability": "view",
      "type": "function"
    },
    {
      "constant": false,
      "inputs": [
        {
          "internalType": "uint256",
          "name": "contract_id",
          "type": "uint256"
        }
      ],
      "name": "paySeller",
      "outputs": [],
      "payable": false,
      "stateMutability": "nonpayable",
      "type": "function"
    },
    {
      "constant": false,
      "inputs": [
        {
          "internalType": "uint256",
          "name": "contract_id",
          "type": "uint256"
        }
      ],
      "name": "refundBuyer",
      "outputs": [],
      "payable": false,
      "stateMutability": "nonpayable",
      "type": "function"
    },
    {
      "constant": false,
      "inputs": [
        {
          "internalType": "uint256",
          "name": "contract_id",
          "type": "uint256"
        }
      ],
      "name": "reverseBuyerDeposit",
      "outputs": [],
      "payable": false,
      "stateMutability": "nonpayable",
      "type": "function"
    },
    {
      "constant": false,
      "inputs": [
        {
          "internalType": "uint256",
          "name": "contract_id",
          "type": "uint256"
        }
      ],
      "name": "reverseSellerDeposit",
      "outputs": [],
      "payable": false,
      "stateMutability": "nonpayable",
      "type": "function"
    },
    {
      "constant": false,
      "inputs": [
        {
          "internalType": "uint256",
          "name": "contract_id",
          "type": "uint256"
        }
      ],
      "name": "sellerDeposit",
      "outputs": [],
      "payable": true,
      "stateMutability": "payable",
      "type": "function"
    },
    {
      "constant": false,
      "inputs": [
        {
          "internalType": "uint256",
          "name": "contract_id",
          "type": "uint256"
        }
      ],
      "name": "sendAmount",
      "outputs": [],
      "payable": true,
      "stateMutability": "payable",
      "type": "function"
    },
    {
      "constant": true,
      "inputs": [],
      "name": "getContractsForCurrentUser",
      "outputs": [
        {
          "internalType": "address[]",
          "name": "",
          "type": "address[]"
        },
        {
          "internalType": "address[]",
          "name": "",
          "type": "address[]"
        },
        {
          "internalType": "uint256[]",
          "name": "",
          "type": "uint256[]"
        },
        {
          "internalType": "uint256[]",
          "name": "",
          "type": "uint256[]"
        },
        {
          "internalType": "uint256[]",
          "name": "",
          "type": "uint256[]"
        },
        {
          "internalType": "string[]",
          "name": "",
          "type": "string[]"
        }
      ],
      "payable": false,
      "stateMutability": "view",
      "type": "function"
    },
    {
      "constant": false,
      "inputs": [
        {
          "internalType": "address payable",
          "name": "buyer",
          "type": "address"
        },
        {
          "internalType": "address payable",
          "name": "seller",
          "type": "address"
        },
        {
          "internalType": "uint256",
          "name": "amount",
          "type": "uint256"
        },
        {
          "internalType": "uint256",
          "name": "deposit",
          "type": "uint256"
        }
      ],
      "name": "createContract",
      "outputs": [],
      "payable": false,
      "stateMutability": "nonpayable",
      "type": "function"
    },
    {
      "constant": true,
      "inputs": [
        {
          "internalType": "uint256",
          "name": "id",
          "type": "uint256"
        }
      ],
      "name": "checkStatus",
      "outputs": [
        {
          "internalType": "string",
          "name": "",
          "type": "string"
        }
      ],
      "payable": false,
      "stateMutability": "view",
      "type": "function"
    }
  ],
  "bytecode": "0x608060405234801561001057600080fd5b5061334d806100206000396000f3fe6080604052600436106100a75760003560e01c80634709384f116100645780634709384f146101c95780634a47248c146101f2578063683024671461021b5780636b424e2d146102445780636deba5f31461026d578063fd72b6e914610289576100a7565b80630eb47922146100ac5780631cd6865f146100c85780632858c764146100f85780632cc4007814610135578063392927631461015e5780634299873614610187575b600080fd5b6100c660048036036100c1919081019061285d565b6102a5565b005b3480156100d457600080fd5b506100dd610404565b6040516100ef96959493929190612f49565b60405180910390f35b34801561010457600080fd5b5061011f600480360361011a919081019061285d565b6108ab565b60405161012c9190612fd4565b60405180910390f35b34801561014157600080fd5b5061015c6004803603610157919081019061285d565b610a73565b005b34801561016a57600080fd5b506101856004803603610180919081019061285d565b610d91565b005b34801561019357600080fd5b506101ae60048036036101a99190810190612821565b611132565b6040516101c096959493929190612eac565b60405180910390f35b3480156101d557600080fd5b506101f060048036036101eb919081019061285d565b6111d5565b005b3480156101fe57600080fd5b506102196004803603610214919081019061285d565b611879565b005b34801561022757600080fd5b50610242600480360361023d919081019061285d565b611b97565b005b34801561025057600080fd5b5061026b600480360361026691908101906127be565b611f38565b005b6102876004803603610282919081019061285d565b612219565b005b6102a3600480360361029e919081019061285d565b612378565b005b806102af816125d7565b60010160009054906101000a900473ffffffffffffffffffffffffffffffffffffffff1673ffffffffffffffffffffffffffffffffffffffff163373ffffffffffffffffffffffffffffffffffffffff161461030a57600080fd5b610313826125d7565b60030154341461032257600080fd5b600061032d836125d7565b60070160003373ffffffffffffffffffffffffffffffffffffffff1673ffffffffffffffffffffffffffffffffffffffff168152602001908152602001600020541461037857600080fd5b6001610383836125d7565b60070160003373ffffffffffffffffffffffffffffffffffffffff1673ffffffffffffffffffffffffffffffffffffffff168152602001908152602001600020819055507feaa52bf3f740eaa050012695cd117e2182b5c032c7fc36dbcdfc74189f68ab2e33346040516103f8929190612f0d565b60405180910390a15050565b60608060608060608060606000803373ffffffffffffffffffffffffffffffffffffffff1673ffffffffffffffffffffffffffffffffffffffff168152602001908152602001600020805480602002602001604051908101604052809291908181526020016000905b8282101561059657838290600052602060002090600902016040518060c00160405290816000820160009054906101000a900473ffffffffffffffffffffffffffffffffffffffff1673ffffffffffffffffffffffffffffffffffffffff1673ffffffffffffffffffffffffffffffffffffffff1681526020016001820160009054906101000a900473ffffffffffffffffffffffffffffffffffffffff1673ffffffffffffffffffffffffffffffffffffffff1673ffffffffffffffffffffffffffffffffffffffff1681526020016002820154815260200160038201548152602001600482015481526020016005820160009054906101000a900460ff16600281111561057857fe5b600281111561058357fe5b815250508152602001906001019061046d565b5050505090506000815190506060816040519080825280602002602001820160405280156105d35781602001602082028038833980820191505090505b5090506060826040519080825280602002602001820160405280156106075781602001602082028038833980820191505090505b50905060608360405190808252806020026020018201604052801561063b5781602001602082028038833980820191505090505b50905060608460405190808252806020026020018201604052801561066f5781602001602082028038833980820191505090505b5090506060856040519080825280602002602001820160405280156106a35781602001602082028038833980820191505090505b5090506060866040519080825280602002602001820160405280156106dc57816020015b60608152602001906001900390816106c75790505b50905060008090505b87811015610888578881815181106106f957fe5b60200260200101516000015187828151811061071157fe5b602002602001019073ffffffffffffffffffffffffffffffffffffffff16908173ffffffffffffffffffffffffffffffffffffffff168152505088818151811061075757fe5b60200260200101516020015186828151811061076f57fe5b602002602001019073ffffffffffffffffffffffffffffffffffffffff16908173ffffffffffffffffffffffffffffffffffffffff16815250508881815181106107b557fe5b6020026020010151604001518582815181106107cd57fe5b6020026020010181815250508881815181106107e557fe5b6020026020010151606001518482815181106107fd57fe5b60200260200101818152505088818151811061081557fe5b60200260200101516080015183828151811061082d57fe5b60200260200101818152505061086489828151811061084857fe5b602002602001015160a00151600281111561085f57fe5b6108ab565b82828151811061087057fe5b602002602001018190525080806001019150506106e5565b508585858585859d509d509d509d509d509d505050505050505050909192939495565b60608060405180602001604052806000815250905060008060003373ffffffffffffffffffffffffffffffffffffffff1673ffffffffffffffffffffffffffffffffffffffff168152602001908152602001600020848154811061090b57fe5b906000526020600020906009020160050160009054906101000a900460ff16600281111561093557fe5b1415610978576040518060400160405280600481526020017f4f70656e000000000000000000000000000000000000000000000000000000008152509050610a6a565b60016000803373ffffffffffffffffffffffffffffffffffffffff1673ffffffffffffffffffffffffffffffffffffffff16815260200190815260200160002084815481106109c357fe5b906000526020600020906009020160050160009054906101000a900460ff1660028111156109ed57fe5b1415610a30576040518060400160405280600781526020017f50656e64696e67000000000000000000000000000000000000000000000000008152509050610a69565b6040518060400160405280600681526020017f436c6f736564000000000000000000000000000000000000000000000000000081525090505b5b80915050919050565b80610a7d816125d7565b60000160009054906101000a900473ffffffffffffffffffffffffffffffffffffffff1673ffffffffffffffffffffffffffffffffffffffff163373ffffffffffffffffffffffffffffffffffffffff1614610ad857600080fd5b6001610ae3836125d7565b6007016000610af1856125d7565b60000160009054906101000a900473ffffffffffffffffffffffffffffffffffffffff1673ffffffffffffffffffffffffffffffffffffffff1673ffffffffffffffffffffffffffffffffffffffff1681526020019081526020016000205414610b5a57600080fd5b6000610b65836125d7565b6007016000610b73856125d7565b60010160009054906101000a900473ffffffffffffffffffffffffffffffffffffffff1673ffffffffffffffffffffffffffffffffffffffff1673ffffffffffffffffffffffffffffffffffffffff1681526020019081526020016000205414610bdc57600080fd5b6000610be7836125d7565b6008016000610bf5856125d7565b60000160009054906101000a900473ffffffffffffffffffffffffffffffffffffffff1673ffffffffffffffffffffffffffffffffffffffff1673ffffffffffffffffffffffffffffffffffffffff1681526020019081526020016000205414610c5e57600080fd5b6000610c69836125d7565b6007016000610c77856125d7565b60000160009054906101000a900473ffffffffffffffffffffffffffffffffffffffff1673ffffffffffffffffffffffffffffffffffffffff1673ffffffffffffffffffffffffffffffffffffffff16815260200190815260200160002081905550610ce2826125d7565b60000160009054906101000a900473ffffffffffffffffffffffffffffffffffffffff1673ffffffffffffffffffffffffffffffffffffffff166108fc610d28846125d7565b600301549081150290604051600060405180830381858888f19350505050158015610d57573d6000803e3d6000fd5b507f022a173fa68fb425cd1264890a0951b5a57aa7f1fcdc49e3262e86c1189ec9b1604051610d85906130b6565b60405180910390a15050565b80610d9b816125d7565b60010160009054906101000a900473ffffffffffffffffffffffffffffffffffffffff1673ffffffffffffffffffffffffffffffffffffffff163373ffffffffffffffffffffffffffffffffffffffff1614610df657600080fd5b6001610e01836125d7565b6007016000610e0f856125d7565b60000160009054906101000a900473ffffffffffffffffffffffffffffffffffffffff1673ffffffffffffffffffffffffffffffffffffffff1673ffffffffffffffffffffffffffffffffffffffff1681526020019081526020016000205414610e7857600080fd5b6001610e83836125d7565b6007016000610e91856125d7565b60010160009054906101000a900473ffffffffffffffffffffffffffffffffffffffff1673ffffffffffffffffffffffffffffffffffffffff1673ffffffffffffffffffffffffffffffffffffffff1681526020019081526020016000205414610efa57600080fd5b6001610f05836125d7565b6008016000610f13856125d7565b60000160009054906101000a900473ffffffffffffffffffffffffffffffffffffffff1673ffffffffffffffffffffffffffffffffffffffff1673ffffffffffffffffffffffffffffffffffffffff1681526020019081526020016000205414610f7c57600080fd5b610f85826125d7565b60000160009054906101000a900473ffffffffffffffffffffffffffffffffffffffff1673ffffffffffffffffffffffffffffffffffffffff166108fc610fcb846125d7565b600201549081150290604051600060405180830381858888f19350505050158015610ffa573d6000803e3d6000fd5b50611004826125d7565b60010160009054906101000a900473ffffffffffffffffffffffffffffffffffffffff1673ffffffffffffffffffffffffffffffffffffffff166108fc61104a846125d7565b600301549081150290604051600060405180830381858888f19350505050158015611079573d6000803e3d6000fd5b50611083826125d7565b60000160009054906101000a900473ffffffffffffffffffffffffffffffffffffffff1673ffffffffffffffffffffffffffffffffffffffff166108fc6110c9846125d7565b600301549081150290604051600060405180830381858888f193505050501580156110f8573d6000803e3d6000fd5b507f1355ee9ef69549a50f8d0008c6cd588a9759815d1b30ee62ed168c2bb7a24a6260405161112690613096565b60405180910390a15050565b6000602052816000526040600020818154811061114b57fe5b9060005260206000209060090201600091509150508060000160009054906101000a900473ffffffffffffffffffffffffffffffffffffffff16908060010160009054906101000a900473ffffffffffffffffffffffffffffffffffffffff16908060020154908060030154908060040154908060050160009054906101000a900460ff16905086565b806111df816125d7565b60010160009054906101000a900473ffffffffffffffffffffffffffffffffffffffff1673ffffffffffffffffffffffffffffffffffffffff163373ffffffffffffffffffffffffffffffffffffffff1614806112935750611240816125d7565b60000160009054906101000a900473ffffffffffffffffffffffffffffffffffffffff1673ffffffffffffffffffffffffffffffffffffffff163373ffffffffffffffffffffffffffffffffffffffff16145b61129c57600080fd5b60016112a7836125d7565b60070160006112b5856125d7565b60000160009054906101000a900473ffffffffffffffffffffffffffffffffffffffff1673ffffffffffffffffffffffffffffffffffffffff1673ffffffffffffffffffffffffffffffffffffffff168152602001908152602001600020541461131e57600080fd5b6001611329836125d7565b6007016000611337856125d7565b60010160009054906101000a900473ffffffffffffffffffffffffffffffffffffffff1673ffffffffffffffffffffffffffffffffffffffff1673ffffffffffffffffffffffffffffffffffffffff16815260200190815260200160002054146113a057600080fd5b60006113ab836125d7565b60080160006113b9856125d7565b60000160009054906101000a900473ffffffffffffffffffffffffffffffffffffffff1673ffffffffffffffffffffffffffffffffffffffff1673ffffffffffffffffffffffffffffffffffffffff168152602001908152602001600020541461142257600080fd5b600061142d836125d7565b60060160003373ffffffffffffffffffffffffffffffffffffffff1673ffffffffffffffffffffffffffffffffffffffff168152602001908152602001600020541461147857600080fd5b6001611483836125d7565b60060160003373ffffffffffffffffffffffffffffffffffffffff1673ffffffffffffffffffffffffffffffffffffffff168152602001908152602001600020819055506114d0826125d7565b6004016000815480929190600101919050555060016114ee836125d7565b60040154141561152e577f87463abc399fbbddfcd563f22d61267e4c0402b336940699382407adce42e5a260405161152590613056565b60405180910390a15b6002611539836125d7565b6004015414156118755761154c826125d7565b60000160009054906101000a900473ffffffffffffffffffffffffffffffffffffffff1673ffffffffffffffffffffffffffffffffffffffff166108fc611592846125d7565b600301549081150290604051600060405180830381858888f193505050501580156115c1573d6000803e3d6000fd5b506115cb826125d7565b60010160009054906101000a900473ffffffffffffffffffffffffffffffffffffffff1673ffffffffffffffffffffffffffffffffffffffff166108fc611611846125d7565b600301549081150290604051600060405180830381858888f19350505050158015611640573d6000803e3d6000fd5b50600061164c836125d7565b600701600061165a856125d7565b60000160009054906101000a900473ffffffffffffffffffffffffffffffffffffffff1673ffffffffffffffffffffffffffffffffffffffff1673ffffffffffffffffffffffffffffffffffffffff1681526020019081526020016000208190555060006116c7836125d7565b60070160006116d5856125d7565b60010160009054906101000a900473ffffffffffffffffffffffffffffffffffffffff1673ffffffffffffffffffffffffffffffffffffffff1673ffffffffffffffffffffffffffffffffffffffff168152602001908152602001600020819055506000611742836125d7565b6006016000611750856125d7565b60000160009054906101000a900473ffffffffffffffffffffffffffffffffffffffff1673ffffffffffffffffffffffffffffffffffffffff1673ffffffffffffffffffffffffffffffffffffffff1681526020019081526020016000208190555060006117bd836125d7565b60060160006117cb856125d7565b60010160009054906101000a900473ffffffffffffffffffffffffffffffffffffffff1673ffffffffffffffffffffffffffffffffffffffff1673ffffffffffffffffffffffffffffffffffffffff168152602001908152602001600020819055506000611838836125d7565b600401819055507fd397a3b1b662401574a4482307d3aaaa5413f8af98a7053e3473935f4d0659ed60405161186c90613036565b60405180910390a15b5050565b80611883816125d7565b60010160009054906101000a900473ffffffffffffffffffffffffffffffffffffffff1673ffffffffffffffffffffffffffffffffffffffff163373ffffffffffffffffffffffffffffffffffffffff16146118de57600080fd5b60016118e9836125d7565b60070160006118f7856125d7565b60010160009054906101000a900473ffffffffffffffffffffffffffffffffffffffff1673ffffffffffffffffffffffffffffffffffffffff1673ffffffffffffffffffffffffffffffffffffffff168152602001908152602001600020541461196057600080fd5b600061196b836125d7565b6007016000611979856125d7565b60000160009054906101000a900473ffffffffffffffffffffffffffffffffffffffff1673ffffffffffffffffffffffffffffffffffffffff1673ffffffffffffffffffffffffffffffffffffffff16815260200190815260200160002054146119e257600080fd5b60006119ed836125d7565b60080160006119fb856125d7565b60000160009054906101000a900473ffffffffffffffffffffffffffffffffffffffff1673ffffffffffffffffffffffffffffffffffffffff1673ffffffffffffffffffffffffffffffffffffffff1681526020019081526020016000205414611a6457600080fd5b6000611a6f836125d7565b6007016000611a7d856125d7565b60010160009054906101000a900473ffffffffffffffffffffffffffffffffffffffff1673ffffffffffffffffffffffffffffffffffffffff1673ffffffffffffffffffffffffffffffffffffffff16815260200190815260200160002081905550611ae8826125d7565b60010160009054906101000a900473ffffffffffffffffffffffffffffffffffffffff1673ffffffffffffffffffffffffffffffffffffffff166108fc611b2e846125d7565b600301549081150290604051600060405180830381858888f19350505050158015611b5d573d6000803e3d6000fd5b507f68899ad50909030043672ec750f7e234201226c34f9efa036d99c5432d220a39604051611b8b90612ff6565b60405180910390a15050565b80611ba1816125d7565b60000160009054906101000a900473ffffffffffffffffffffffffffffffffffffffff1673ffffffffffffffffffffffffffffffffffffffff163373ffffffffffffffffffffffffffffffffffffffff1614611bfc57600080fd5b6001611c07836125d7565b6007016000611c15856125d7565b60000160009054906101000a900473ffffffffffffffffffffffffffffffffffffffff1673ffffffffffffffffffffffffffffffffffffffff1673ffffffffffffffffffffffffffffffffffffffff1681526020019081526020016000205414611c7e57600080fd5b6001611c89836125d7565b6007016000611c97856125d7565b60010160009054906101000a900473ffffffffffffffffffffffffffffffffffffffff1673ffffffffffffffffffffffffffffffffffffffff1673ffffffffffffffffffffffffffffffffffffffff1681526020019081526020016000205414611d0057600080fd5b6001611d0b836125d7565b6008016000611d19856125d7565b60000160009054906101000a900473ffffffffffffffffffffffffffffffffffffffff1673ffffffffffffffffffffffffffffffffffffffff1673ffffffffffffffffffffffffffffffffffffffff1681526020019081526020016000205414611d8257600080fd5b611d8b826125d7565b60010160009054906101000a900473ffffffffffffffffffffffffffffffffffffffff1673ffffffffffffffffffffffffffffffffffffffff166108fc611dd1846125d7565b600201549081150290604051600060405180830381858888f19350505050158015611e00573d6000803e3d6000fd5b50611e0a826125d7565b60000160009054906101000a900473ffffffffffffffffffffffffffffffffffffffff1673ffffffffffffffffffffffffffffffffffffffff166108fc611e50846125d7565b600301549081150290604051600060405180830381858888f19350505050158015611e7f573d6000803e3d6000fd5b50611e89826125d7565b60010160009054906101000a900473ffffffffffffffffffffffffffffffffffffffff1673ffffffffffffffffffffffffffffffffffffffff166108fc611ecf846125d7565b600301549081150290604051600060405180830381858888f19350505050158015611efe573d6000803e3d6000fd5b507fd54aabd3141f0694c3f533b346119d27c2eb3248d4f866d6bd8299c78b128daf604051611f2c90613016565b60405180910390a15050565b611f40612712565b611f4c85858585612637565b90506000808673ffffffffffffffffffffffffffffffffffffffff1673ffffffffffffffffffffffffffffffffffffffff168152602001908152602001600020819080600181540180825580915050906001820390600052602060002090600902016000909192909190915060008201518160000160006101000a81548173ffffffffffffffffffffffffffffffffffffffff021916908373ffffffffffffffffffffffffffffffffffffffff16021790555060208201518160010160006101000a81548173ffffffffffffffffffffffffffffffffffffffff021916908373ffffffffffffffffffffffffffffffffffffffff16021790555060408201518160020155606082015181600301556080820151816004015560a08201518160050160006101000a81548160ff0219169083600281111561208857fe5b02179055505050506000808573ffffffffffffffffffffffffffffffffffffffff1673ffffffffffffffffffffffffffffffffffffffff168152602001908152602001600020819080600181540180825580915050906001820390600052602060002090600902016000909192909190915060008201518160000160006101000a81548173ffffffffffffffffffffffffffffffffffffffff021916908373ffffffffffffffffffffffffffffffffffffffff16021790555060208201518160010160006101000a81548173ffffffffffffffffffffffffffffffffffffffff021916908373ffffffffffffffffffffffffffffffffffffffff16021790555060408201518160020155606082015181600301556080820151816004015560a08201518160050160006101000a81548160ff021916908360028111156121ca57fe5b02179055505050507f9e46342a5a4a55c6cfe0a6f7c9f82bf30233357f64e02dca6ca4ab8ccd76147985858585600060405161220a959493929190612e46565b60405180910390a15050505050565b80612223816125d7565b60000160009054906101000a900473ffffffffffffffffffffffffffffffffffffffff1673ffffffffffffffffffffffffffffffffffffffff163373ffffffffffffffffffffffffffffffffffffffff161461227e57600080fd5b612287826125d7565b60030154341461229657600080fd5b60006122a1836125d7565b60070160003373ffffffffffffffffffffffffffffffffffffffff1673ffffffffffffffffffffffffffffffffffffffff16815260200190815260200160002054146122ec57600080fd5b60016122f7836125d7565b60070160003373ffffffffffffffffffffffffffffffffffffffff1673ffffffffffffffffffffffffffffffffffffffff168152602001908152602001600020819055507f0109c07b399c647a3567815a956a02e0badfd3ed527a3fdb992031fae5d005f9333460405161236c929190612f0d565b60405180910390a15050565b80612382816125d7565b60000160009054906101000a900473ffffffffffffffffffffffffffffffffffffffff1673ffffffffffffffffffffffffffffffffffffffff163373ffffffffffffffffffffffffffffffffffffffff16146123dd57600080fd5b6123e6826125d7565b6002015434146123f557600080fd5b6001612400836125d7565b600701600061240e856125d7565b60000160009054906101000a900473ffffffffffffffffffffffffffffffffffffffff1673ffffffffffffffffffffffffffffffffffffffff1673ffffffffffffffffffffffffffffffffffffffff168152602001908152602001600020541461247757600080fd5b6001612482836125d7565b6007016000612490856125d7565b60010160009054906101000a900473ffffffffffffffffffffffffffffffffffffffff1673ffffffffffffffffffffffffffffffffffffffff1673ffffffffffffffffffffffffffffffffffffffff16815260200190815260200160002054146124f957600080fd5b6000612504836125d7565b60080160003373ffffffffffffffffffffffffffffffffffffffff1673ffffffffffffffffffffffffffffffffffffffff168152602001908152602001600020541461254f57600080fd5b600161255a836125d7565b60080160003373ffffffffffffffffffffffffffffffffffffffff1673ffffffffffffffffffffffffffffffffffffffff168152602001908152602001600020819055507fdbafb049923bd24c9143b7aea787bb9133f12c9bc10e8ff7f1be6e2f13028c976040516125cb90613076565b60405180910390a15050565b60008060003373ffffffffffffffffffffffffffffffffffffffff1673ffffffffffffffffffffffffffffffffffffffff168152602001908152602001600020828154811061262257fe5b90600052602060002090600902019050919050565b61263f612712565b6040518060c001604052808673ffffffffffffffffffffffffffffffffffffffff1681526020018573ffffffffffffffffffffffffffffffffffffffff16815260200161269d670de0b6b3a7640000866126e390919063ffffffff16565b81526020016126bd670de0b6b3a7640000856126e390919063ffffffff16565b815260200160008152602001600060028111156126d657fe5b8152509050949350505050565b600080828402905060008414806127025750828482816126ff57fe5b04145b61270857fe5b8091505092915050565b6040518060c00160405280600073ffffffffffffffffffffffffffffffffffffffff168152602001600073ffffffffffffffffffffffffffffffffffffffff1681526020016000815260200160008152602001600081526020016000600281111561277957fe5b81525090565b60008135905061278e816132c5565b92915050565b6000813590506127a3816132dc565b92915050565b6000813590506127b8816132f3565b92915050565b600080600080608085870312156127d457600080fd5b60006127e287828801612794565b94505060206127f387828801612794565b9350506040612804878288016127a9565b9250506060612815878288016127a9565b91505092959194509250565b6000806040838503121561283457600080fd5b60006128428582860161277f565b9250506020612853858286016127a9565b9150509250929050565b60006020828403121561286f57600080fd5b600061287d848285016127a9565b91505092915050565b600061289283836128e8565b60208301905092915050565b60006128aa8383612a7f565b905092915050565b60006128be8383612e28565b60208301905092915050565b6128d38161321a565b82525050565b6128e2816131cb565b82525050565b6128f1816131b9565b82525050565b600061290282613106565b61290c8185613164565b9350612917836130d6565b8060005b8381101561294857815161292f8882612886565b975061293a8361313d565b92505060018101905061291b565b5085935050505092915050565b600061296082613111565b61296a8185613175565b93508360208202850161297c856130e6565b8060005b858110156129b85784840389528151612999858261289e565b94506129a48361314a565b925060208a01995050600181019050612980565b50829750879550505050505092915050565b60006129d58261311c565b6129df8185613186565b93506129ea836130f6565b8060005b83811015612a1b578151612a0288826128b2565b9750612a0d83613157565b9250506001810190506129ee565b5085935050505092915050565b612a318161322c565b82525050565b612a408161323e565b82525050565b6000612a5182613132565b612a5b81856131a8565b9350612a6b818560208601613274565b612a74816132a7565b840191505092915050565b6000612a8a82613127565b612a948185613197565b9350612aa4818560208601613274565b612aad816132a7565b840191505092915050565b6000612ac56025836131a8565b91507f7468652073656c6c65722068617320726576657273656420746865697220646560008301527f706f7369740000000000000000000000000000000000000000000000000000006020830152604082019050919050565b6000612b2b6053836131a8565b91507f5468652073656c6c657220686173206265656e207061696420616e6420616c6c60008301527f206465706f736974732068617665206265656e2072657475726e6564202d207460208301527f72616e73616374696f6e20636f6d706c657465000000000000000000000000006040830152606082019050919050565b6000612bb7601f836131a8565b91507f746865206465706f736974732068617665206265656e2072657475726e6564006000830152602082019050919050565b6000612bf76004836131a8565b91507f4f70656e000000000000000000000000000000000000000000000000000000006000830152602082019050919050565b6000612c376035836131a8565b91507f746865206465706f73697420636c61696d206861732031206f7574206f66203260008301527f206e6563657373617279207369676e61747572657300000000000000000000006020830152604082019050919050565b6000612c9d6020836131a8565b91507f686173206d61646520746865207265717569726564206465706f736974206f666000830152602082019050919050565b6000612cdd602f836131a8565b91507f4275796572206861732073656e7420746865207061796d656e7420616d6f756e60008301527f7420746f2074686520657363726f7700000000000000000000000000000000006020830152604082019050919050565b6000612d436057836131a8565b91507f54686520627579657220686173206265656e20726566756e64656420616e642060008301527f616c6c206465706f736974732068617665206265656e2072657475726e65642060208301527f2d207472616e73616374696f6e2063616e63656c6c65640000000000000000006040830152606082019050919050565b6000612dcf6024836131a8565b91507f746865206275796572206861732072657665727365642074686569722064657060008301527f6f736974000000000000000000000000000000000000000000000000000000006020830152604082019050919050565b612e3181613210565b82525050565b612e4081613210565b82525050565b600060c082019050612e5b60008301886128ca565b612e6860208301876128ca565b612e756040830186612e37565b612e826060830185612e37565b612e8f6080830184612a37565b81810360a0830152612ea081612bea565b90509695505050505050565b600060c082019050612ec160008301896128d9565b612ece60208301886128d9565b612edb6040830187612e37565b612ee86060830186612e37565b612ef56080830185612e37565b612f0260a0830184612a28565b979650505050505050565b6000606082019050612f2260008301856128ca565b8181036020830152612f3381612c90565b9050612f426040830184612e37565b9392505050565b600060c0820190508181036000830152612f6381896128f7565b90508181036020830152612f7781886128f7565b90508181036040830152612f8b81876129ca565b90508181036060830152612f9f81866129ca565b90508181036080830152612fb381856129ca565b905081810360a0830152612fc78184612955565b9050979650505050505050565b60006020820190508181036000830152612fee8184612a46565b905092915050565b6000602082019050818103600083015261300f81612ab8565b9050919050565b6000602082019050818103600083015261302f81612b1e565b9050919050565b6000602082019050818103600083015261304f81612baa565b9050919050565b6000602082019050818103600083015261306f81612c2a565b9050919050565b6000602082019050818103600083015261308f81612cd0565b9050919050565b600060208201905081810360008301526130af81612d36565b9050919050565b600060208201905081810360008301526130cf81612dc2565b9050919050565b6000819050602082019050919050565b6000819050602082019050919050565b6000819050602082019050919050565b600081519050919050565b600081519050919050565b600081519050919050565b600081519050919050565b600081519050919050565b6000602082019050919050565b6000602082019050919050565b6000602082019050919050565b600082825260208201905092915050565b600082825260208201905092915050565b600082825260208201905092915050565b600082825260208201905092915050565b600082825260208201905092915050565b60006131c4826131f0565b9050919050565b60006131d6826131f0565b9050919050565b60008190506131eb826132b8565b919050565b600073ffffffffffffffffffffffffffffffffffffffff82169050919050565b6000819050919050565b600061322582613250565b9050919050565b6000613237826131dd565b9050919050565b600061324982613210565b9050919050565b600061325b82613262565b9050919050565b600061326d826131f0565b9050919050565b60005b83811015613292578082015181840152602081019050613277565b838111156132a1576000848401525b50505050565b6000601f19601f8301169050919050565b600381106132c257fe5b50565b6132ce816131b9565b81146132d957600080fd5b50565b6132e5816131cb565b81146132f057600080fd5b50565b6132fc81613210565b811461330757600080fd5b5056fea365627a7a72315820edd88f8543241ffbeac41053e614b0fe621ef926c1e7e670743fd05771b8d5e16c6578706572696d656e74616cf564736f6c63430005100040",
  "source": "pragma solidity ^0.5.16;\npragma experimental ABIEncoderV2;\n\nimport \"./EscrowFactory.sol\";\n\ncontract EscrowExchange is EscrowFactory {\n\n\tevent ContractCreated(address buyer, address seller, uint amount, uint deposit, uint signatureCount, string status);\n\n\tfunction getContractsForCurrentUser() public view returns (address[] memory, address[] memory, uint[] memory, uint[] memory, uint[] memory, string[] memory){\n\t\tEscrowContract[] memory currentUserContracts = contractsForUser[msg.sender];\n\t\tuint length = currentUserContracts.length;\n\n\t\taddress[] memory buyers = new address[](length);\n\t\taddress[] memory sellers = new address[](length);\n\t\tuint[] memory amounts = new uint[](length);\n\t\tuint[] memory deposits = new uint[](length);\n\t\tuint[] memory signatureCounts = new uint[](length);\n\t\tstring[] memory statuses = new string[](length);\n\n\t\tfor (uint i = 0; i < length; i++)\n\t\t{\n\t\t\tbuyers[i] = (currentUserContracts[i].buyer);\n\t\t\tsellers[i] = (currentUserContracts[i].seller);\n\t\t\tamounts[i] = (currentUserContracts[i].amount);\n\t\t\tdeposits[i] = (currentUserContracts[i].deposit);\n\t\t\tsignatureCounts[i] = (currentUserContracts[i].signatureCount);\n\t\t\tstatuses[i] = (checkStatus(uint(currentUserContracts[i].status)));\n\t\t}\n        return (buyers, sellers, amounts, deposits, signatureCounts, statuses);\n    }\n\n    function createContract(address payable buyer, address payable seller, uint amount, uint deposit) public {\n    \tEscrowContract memory newContract = _createContract(buyer, seller, amount, deposit);\n    \t// For looping through contracts later on.\n    \tcontractsForUser[buyer].push(newContract);\n    \tcontractsForUser[seller].push(newContract);\n\n    \temit ContractCreated(buyer, seller, amount, deposit, 0, \"Open\");\n    }\n\n    function checkStatus(uint id) public view returns (string memory){\n\n        string memory status = \"\";\n\n        if (uint(contractsForUser[msg.sender][id].status) == 0){\n            status = \"Open\";\n        } else if (uint(contractsForUser[msg.sender][id].status) == 1){\n            status = \"Pending\";\n        } else{\n            status = \"Closed\";\n        }\n\n        return (status);\n    }\n}",
  "sourcePath": "/Users/donaldlee/Developer/PointsExchange/contracts/EscrowExchange.sol",
  "compiler": {
    "name": "solc",
    "version": "0.5.16+commit.9c3226ce.Emscripten.clang"
  },
  "schemaVersion": "3.3.3",
  "updatedAt": "2021-04-04T00:28:13.580Z",
  "networkType": "ethereum",
  "devdoc": {
    "methods": {}
  },
  "userdoc": {
    "methods": {}
  }
}