{
  "contractName": "EscrowExchange",
  "abi": [
    {
      "anonymous": false,
      "inputs": [
        {
          "indexed": false,
          "internalType": "string",
          "name": "msg",
          "type": "string"
        }
      ],
      "name": "AmountSent",
      "type": "event"
    },
    {
      "anonymous": false,
      "inputs": [
        {
          "indexed": false,
          "internalType": "string",
          "name": "msg",
          "type": "string"
        }
      ],
      "name": "BuyerDepositReversed",
      "type": "event"
    },
    {
      "anonymous": false,
      "inputs": [
        {
          "indexed": false,
          "internalType": "address",
          "name": "from",
          "type": "address"
        },
        {
          "indexed": false,
          "internalType": "string",
          "name": "msg",
          "type": "string"
        },
        {
          "indexed": false,
          "internalType": "uint256",
          "name": "amount",
          "type": "uint256"
        }
      ],
      "name": "BuyerDeposited",
      "type": "event"
    },
    {
      "anonymous": false,
      "inputs": [
        {
          "indexed": false,
          "internalType": "string",
          "name": "msg",
          "type": "string"
        }
      ],
      "name": "BuyerRefunded",
      "type": "event"
    },
    {
      "anonymous": false,
      "inputs": [
        {
          "indexed": false,
          "internalType": "address",
          "name": "buyer",
          "type": "address"
        },
        {
          "indexed": false,
          "internalType": "address",
          "name": "seller",
          "type": "address"
        },
        {
          "indexed": false,
          "internalType": "uint256",
          "name": "amount",
          "type": "uint256"
        },
        {
          "indexed": false,
          "internalType": "uint256",
          "name": "deposit",
          "type": "uint256"
        },
        {
          "indexed": false,
          "internalType": "uint256",
          "name": "signatureCount",
          "type": "uint256"
        },
        {
          "indexed": false,
          "internalType": "string",
          "name": "status",
          "type": "string"
        }
      ],
      "name": "ContractCreated",
      "type": "event"
    },
    {
      "anonymous": false,
      "inputs": [
        {
          "indexed": false,
          "internalType": "string",
          "name": "msg",
          "type": "string"
        }
      ],
      "name": "DepositPartialClaim",
      "type": "event"
    },
    {
      "anonymous": false,
      "inputs": [
        {
          "indexed": false,
          "internalType": "string",
          "name": "msg",
          "type": "string"
        }
      ],
      "name": "DepositsClaimed",
      "type": "event"
    },
    {
      "anonymous": false,
      "inputs": [
        {
          "indexed": false,
          "internalType": "string",
          "name": "msg",
          "type": "string"
        }
      ],
      "name": "SellerDepositReversed",
      "type": "event"
    },
    {
      "anonymous": false,
      "inputs": [
        {
          "indexed": false,
          "internalType": "address",
          "name": "from",
          "type": "address"
        },
        {
          "indexed": false,
          "internalType": "string",
          "name": "msg",
          "type": "string"
        },
        {
          "indexed": false,
          "internalType": "uint256",
          "name": "amount",
          "type": "uint256"
        }
      ],
      "name": "SellerDeposited",
      "type": "event"
    },
    {
      "anonymous": false,
      "inputs": [
        {
          "indexed": false,
          "internalType": "string",
          "name": "msg",
          "type": "string"
        }
      ],
      "name": "SellerPaid",
      "type": "event"
    },
    {
      "constant": false,
      "inputs": [
        {
          "internalType": "uint256",
          "name": "contract_id",
          "type": "uint256"
        }
      ],
      "name": "buyerDeposit",
      "outputs": [],
      "payable": true,
      "stateMutability": "payable",
      "type": "function"
    },
    {
      "constant": false,
      "inputs": [
        {
          "internalType": "uint256",
          "name": "contract_id",
          "type": "uint256"
        }
      ],
      "name": "claimDeposits",
      "outputs": [],
      "payable": false,
      "stateMutability": "nonpayable",
      "type": "function"
    },
    {
      "constant": true,
      "inputs": [
        {
          "internalType": "address",
          "name": "",
          "type": "address"
        },
        {
          "internalType": "uint256",
          "name": "",
          "type": "uint256"
        }
      ],
      "name": "contractsForUser",
      "outputs": [
        {
          "internalType": "address payable",
          "name": "buyer",
          "type": "address"
        },
        {
          "internalType": "address payable",
          "name": "seller",
          "type": "address"
        },
        {
          "internalType": "uint256",
          "name": "amount",
          "type": "uint256"
        },
        {
          "internalType": "uint256",
          "name": "deposit",
          "type": "uint256"
        },
        {
          "internalType": "uint256",
          "name": "signatureCount",
          "type": "uint256"
        },
        {
          "internalType": "enum EscrowFactory.Status",
          "name": "status",
          "type": "uint8"
        }
      ],
      "payable": false,
      "stateMutability": "view",
      "type": "function"
    },
    {
      "constant": true,
      "inputs": [
        {
          "internalType": "address",
          "name": "",
          "type": "address"
        }
      ],
      "name": "ownerContractCount",
      "outputs": [
        {
          "internalType": "uint256",
          "name": "",
          "type": "uint256"
        }
      ],
      "payable": false,
      "stateMutability": "view",
      "type": "function"
    },
    {
      "constant": false,
      "inputs": [
        {
          "internalType": "uint256",
          "name": "contract_id",
          "type": "uint256"
        }
      ],
      "name": "paySeller",
      "outputs": [],
      "payable": false,
      "stateMutability": "nonpayable",
      "type": "function"
    },
    {
      "constant": false,
      "inputs": [
        {
          "internalType": "uint256",
          "name": "contract_id",
          "type": "uint256"
        }
      ],
      "name": "refundBuyer",
      "outputs": [],
      "payable": false,
      "stateMutability": "nonpayable",
      "type": "function"
    },
    {
      "constant": false,
      "inputs": [
        {
          "internalType": "uint256",
          "name": "contract_id",
          "type": "uint256"
        }
      ],
      "name": "reverseBuyerDeposit",
      "outputs": [],
      "payable": false,
      "stateMutability": "nonpayable",
      "type": "function"
    },
    {
      "constant": false,
      "inputs": [
        {
          "internalType": "uint256",
          "name": "contract_id",
          "type": "uint256"
        }
      ],
      "name": "reverseSellerDeposit",
      "outputs": [],
      "payable": false,
      "stateMutability": "nonpayable",
      "type": "function"
    },
    {
      "constant": false,
      "inputs": [
        {
          "internalType": "uint256",
          "name": "contract_id",
          "type": "uint256"
        }
      ],
      "name": "sellerDeposit",
      "outputs": [],
      "payable": true,
      "stateMutability": "payable",
      "type": "function"
    },
    {
      "constant": false,
      "inputs": [
        {
          "internalType": "uint256",
          "name": "contract_id",
          "type": "uint256"
        }
      ],
      "name": "sendAmount",
      "outputs": [],
      "payable": true,
      "stateMutability": "payable",
      "type": "function"
    },
    {
      "constant": true,
      "inputs": [
        {
          "internalType": "uint256",
          "name": "index",
          "type": "uint256"
        }
      ],
      "name": "getContractForCurrentUser",
      "outputs": [
        {
          "internalType": "address",
          "name": "",
          "type": "address"
        },
        {
          "internalType": "address",
          "name": "",
          "type": "address"
        },
        {
          "internalType": "uint256",
          "name": "",
          "type": "uint256"
        },
        {
          "internalType": "uint256",
          "name": "",
          "type": "uint256"
        },
        {
          "internalType": "uint256",
          "name": "",
          "type": "uint256"
        },
        {
          "internalType": "string",
          "name": "",
          "type": "string"
        }
      ],
      "payable": false,
      "stateMutability": "view",
      "type": "function"
    },
    {
      "constant": true,
      "inputs": [],
      "name": "getContractCountForCurrentUser",
      "outputs": [
        {
          "internalType": "uint256",
          "name": "",
          "type": "uint256"
        }
      ],
      "payable": false,
      "stateMutability": "view",
      "type": "function"
    },
    {
      "constant": false,
      "inputs": [
        {
          "internalType": "address payable",
          "name": "buyer",
          "type": "address"
        },
        {
          "internalType": "address payable",
          "name": "seller",
          "type": "address"
        },
        {
          "internalType": "uint256",
          "name": "amount",
          "type": "uint256"
        },
        {
          "internalType": "uint256",
          "name": "deposit",
          "type": "uint256"
        }
      ],
      "name": "createContract",
      "outputs": [],
      "payable": false,
      "stateMutability": "nonpayable",
      "type": "function"
    }
  ],
  "bytecode": "0x608060405234801561001057600080fd5b50612f75806100206000396000f3fe6080604052600436106100c25760003560e01c80634a47248c1161007f5780636b424e2d116100595780636b424e2d146102715780636deba5f31461029a578063e1ab5711146102b6578063fd72b6e9146102e1576100c2565b80634a47248c146101dd57806360cc1062146102065780636830246714610248576100c2565b80630eb47922146100c75780630f063dab146100e35780632cc4007814610120578063392927631461014957806342998736146101725780634709384f146101b4575b600080fd5b6100e160048036036100dc9190810190612733565b6102fd565b005b3480156100ef57600080fd5b5061010a6004803603610105919081019061266b565b61045c565b6040516101179190612daa565b60405180910390f35b34801561012c57600080fd5b5061014760048036036101429190810190612733565b610474565b005b34801561015557600080fd5b50610170600480360361016b9190810190612733565b610792565b005b34801561017e57600080fd5b50610199600480360361019491908101906126f7565b610b33565b6040516101ab96959493929190612bc5565b60405180910390f35b3480156101c057600080fd5b506101db60048036036101d69190810190612733565b610bd6565b005b3480156101e957600080fd5b5061020460048036036101ff9190810190612733565b61127a565b005b34801561021257600080fd5b5061022d60048036036102289190810190612733565b611598565b60405161023f96959493929190612c62565b60405180910390f35b34801561025457600080fd5b5061026f600480360361026a9190810190612733565b611752565b005b34801561027d57600080fd5b5061029860048036036102939190810190612694565b611af3565b005b6102b460048036036102af9190810190612733565b611efe565b005b3480156102c257600080fd5b506102cb61205d565b6040516102d89190612daa565b60405180910390f35b6102fb60048036036102f69190810190612733565b6120a4565b005b8061030781612303565b60010160009054906101000a900473ffffffffffffffffffffffffffffffffffffffff1673ffffffffffffffffffffffffffffffffffffffff163373ffffffffffffffffffffffffffffffffffffffff161461036257600080fd5b61036b82612303565b60030154341461037a57600080fd5b600061038583612303565b60070160003373ffffffffffffffffffffffffffffffffffffffff1673ffffffffffffffffffffffffffffffffffffffff16815260200190815260200160002054146103d057600080fd5b60016103db83612303565b60070160003373ffffffffffffffffffffffffffffffffffffffff1673ffffffffffffffffffffffffffffffffffffffff168152602001908152602001600020819055507feaa52bf3f740eaa050012695cd117e2182b5c032c7fc36dbcdfc74189f68ab2e3334604051610450929190612c26565b60405180910390a15050565b60016020528060005260406000206000915090505481565b8061047e81612303565b60000160009054906101000a900473ffffffffffffffffffffffffffffffffffffffff1673ffffffffffffffffffffffffffffffffffffffff163373ffffffffffffffffffffffffffffffffffffffff16146104d957600080fd5b60016104e483612303565b60070160006104f285612303565b60000160009054906101000a900473ffffffffffffffffffffffffffffffffffffffff1673ffffffffffffffffffffffffffffffffffffffff1673ffffffffffffffffffffffffffffffffffffffff168152602001908152602001600020541461055b57600080fd5b600061056683612303565b600701600061057485612303565b60010160009054906101000a900473ffffffffffffffffffffffffffffffffffffffff1673ffffffffffffffffffffffffffffffffffffffff1673ffffffffffffffffffffffffffffffffffffffff16815260200190815260200160002054146105dd57600080fd5b60006105e883612303565b60080160006105f685612303565b60000160009054906101000a900473ffffffffffffffffffffffffffffffffffffffff1673ffffffffffffffffffffffffffffffffffffffff1673ffffffffffffffffffffffffffffffffffffffff168152602001908152602001600020541461065f57600080fd5b600061066a83612303565b600701600061067885612303565b60000160009054906101000a900473ffffffffffffffffffffffffffffffffffffffff1673ffffffffffffffffffffffffffffffffffffffff1673ffffffffffffffffffffffffffffffffffffffff168152602001908152602001600020819055506106e382612303565b60000160009054906101000a900473ffffffffffffffffffffffffffffffffffffffff1673ffffffffffffffffffffffffffffffffffffffff166108fc61072984612303565b600301549081150290604051600060405180830381858888f19350505050158015610758573d6000803e3d6000fd5b507f022a173fa68fb425cd1264890a0951b5a57aa7f1fcdc49e3262e86c1189ec9b160405161078690612d8a565b60405180910390a15050565b8061079c81612303565b60010160009054906101000a900473ffffffffffffffffffffffffffffffffffffffff1673ffffffffffffffffffffffffffffffffffffffff163373ffffffffffffffffffffffffffffffffffffffff16146107f757600080fd5b600161080283612303565b600701600061081085612303565b60000160009054906101000a900473ffffffffffffffffffffffffffffffffffffffff1673ffffffffffffffffffffffffffffffffffffffff1673ffffffffffffffffffffffffffffffffffffffff168152602001908152602001600020541461087957600080fd5b600161088483612303565b600701600061089285612303565b60010160009054906101000a900473ffffffffffffffffffffffffffffffffffffffff1673ffffffffffffffffffffffffffffffffffffffff1673ffffffffffffffffffffffffffffffffffffffff16815260200190815260200160002054146108fb57600080fd5b600161090683612303565b600801600061091485612303565b60000160009054906101000a900473ffffffffffffffffffffffffffffffffffffffff1673ffffffffffffffffffffffffffffffffffffffff1673ffffffffffffffffffffffffffffffffffffffff168152602001908152602001600020541461097d57600080fd5b61098682612303565b60000160009054906101000a900473ffffffffffffffffffffffffffffffffffffffff1673ffffffffffffffffffffffffffffffffffffffff166108fc6109cc84612303565b600201549081150290604051600060405180830381858888f193505050501580156109fb573d6000803e3d6000fd5b50610a0582612303565b60010160009054906101000a900473ffffffffffffffffffffffffffffffffffffffff1673ffffffffffffffffffffffffffffffffffffffff166108fc610a4b84612303565b600301549081150290604051600060405180830381858888f19350505050158015610a7a573d6000803e3d6000fd5b50610a8482612303565b60000160009054906101000a900473ffffffffffffffffffffffffffffffffffffffff1673ffffffffffffffffffffffffffffffffffffffff166108fc610aca84612303565b600301549081150290604051600060405180830381858888f19350505050158015610af9573d6000803e3d6000fd5b507f1355ee9ef69549a50f8d0008c6cd588a9759815d1b30ee62ed168c2bb7a24a62604051610b2790612d6a565b60405180910390a15050565b60006020528160005260406000208181548110610b4c57fe5b9060005260206000209060090201600091509150508060000160009054906101000a900473ffffffffffffffffffffffffffffffffffffffff16908060010160009054906101000a900473ffffffffffffffffffffffffffffffffffffffff16908060020154908060030154908060040154908060050160009054906101000a900460ff16905086565b80610be081612303565b60010160009054906101000a900473ffffffffffffffffffffffffffffffffffffffff1673ffffffffffffffffffffffffffffffffffffffff163373ffffffffffffffffffffffffffffffffffffffff161480610c945750610c4181612303565b60000160009054906101000a900473ffffffffffffffffffffffffffffffffffffffff1673ffffffffffffffffffffffffffffffffffffffff163373ffffffffffffffffffffffffffffffffffffffff16145b610c9d57600080fd5b6001610ca883612303565b6007016000610cb685612303565b60000160009054906101000a900473ffffffffffffffffffffffffffffffffffffffff1673ffffffffffffffffffffffffffffffffffffffff1673ffffffffffffffffffffffffffffffffffffffff1681526020019081526020016000205414610d1f57600080fd5b6001610d2a83612303565b6007016000610d3885612303565b60010160009054906101000a900473ffffffffffffffffffffffffffffffffffffffff1673ffffffffffffffffffffffffffffffffffffffff1673ffffffffffffffffffffffffffffffffffffffff1681526020019081526020016000205414610da157600080fd5b6000610dac83612303565b6008016000610dba85612303565b60000160009054906101000a900473ffffffffffffffffffffffffffffffffffffffff1673ffffffffffffffffffffffffffffffffffffffff1673ffffffffffffffffffffffffffffffffffffffff1681526020019081526020016000205414610e2357600080fd5b6000610e2e83612303565b60060160003373ffffffffffffffffffffffffffffffffffffffff1673ffffffffffffffffffffffffffffffffffffffff1681526020019081526020016000205414610e7957600080fd5b6001610e8483612303565b60060160003373ffffffffffffffffffffffffffffffffffffffff1673ffffffffffffffffffffffffffffffffffffffff16815260200190815260200160002081905550610ed182612303565b600401600081548092919060010191905055506001610eef83612303565b600401541415610f2f577f87463abc399fbbddfcd563f22d61267e4c0402b336940699382407adce42e5a2604051610f2690612d2a565b60405180910390a15b6002610f3a83612303565b60040154141561127657610f4d82612303565b60000160009054906101000a900473ffffffffffffffffffffffffffffffffffffffff1673ffffffffffffffffffffffffffffffffffffffff166108fc610f9384612303565b600301549081150290604051600060405180830381858888f19350505050158015610fc2573d6000803e3d6000fd5b50610fcc82612303565b60010160009054906101000a900473ffffffffffffffffffffffffffffffffffffffff1673ffffffffffffffffffffffffffffffffffffffff166108fc61101284612303565b600301549081150290604051600060405180830381858888f19350505050158015611041573d6000803e3d6000fd5b50600061104d83612303565b600701600061105b85612303565b60000160009054906101000a900473ffffffffffffffffffffffffffffffffffffffff1673ffffffffffffffffffffffffffffffffffffffff1673ffffffffffffffffffffffffffffffffffffffff1681526020019081526020016000208190555060006110c883612303565b60070160006110d685612303565b60010160009054906101000a900473ffffffffffffffffffffffffffffffffffffffff1673ffffffffffffffffffffffffffffffffffffffff1673ffffffffffffffffffffffffffffffffffffffff16815260200190815260200160002081905550600061114383612303565b600601600061115185612303565b60000160009054906101000a900473ffffffffffffffffffffffffffffffffffffffff1673ffffffffffffffffffffffffffffffffffffffff1673ffffffffffffffffffffffffffffffffffffffff1681526020019081526020016000208190555060006111be83612303565b60060160006111cc85612303565b60010160009054906101000a900473ffffffffffffffffffffffffffffffffffffffff1673ffffffffffffffffffffffffffffffffffffffff1673ffffffffffffffffffffffffffffffffffffffff16815260200190815260200160002081905550600061123983612303565b600401819055507fd397a3b1b662401574a4482307d3aaaa5413f8af98a7053e3473935f4d0659ed60405161126d90612d0a565b60405180910390a15b5050565b8061128481612303565b60010160009054906101000a900473ffffffffffffffffffffffffffffffffffffffff1673ffffffffffffffffffffffffffffffffffffffff163373ffffffffffffffffffffffffffffffffffffffff16146112df57600080fd5b60016112ea83612303565b60070160006112f885612303565b60010160009054906101000a900473ffffffffffffffffffffffffffffffffffffffff1673ffffffffffffffffffffffffffffffffffffffff1673ffffffffffffffffffffffffffffffffffffffff168152602001908152602001600020541461136157600080fd5b600061136c83612303565b600701600061137a85612303565b60000160009054906101000a900473ffffffffffffffffffffffffffffffffffffffff1673ffffffffffffffffffffffffffffffffffffffff1673ffffffffffffffffffffffffffffffffffffffff16815260200190815260200160002054146113e357600080fd5b60006113ee83612303565b60080160006113fc85612303565b60000160009054906101000a900473ffffffffffffffffffffffffffffffffffffffff1673ffffffffffffffffffffffffffffffffffffffff1673ffffffffffffffffffffffffffffffffffffffff168152602001908152602001600020541461146557600080fd5b600061147083612303565b600701600061147e85612303565b60010160009054906101000a900473ffffffffffffffffffffffffffffffffffffffff1673ffffffffffffffffffffffffffffffffffffffff1673ffffffffffffffffffffffffffffffffffffffff168152602001908152602001600020819055506114e982612303565b60010160009054906101000a900473ffffffffffffffffffffffffffffffffffffffff1673ffffffffffffffffffffffffffffffffffffffff166108fc61152f84612303565b600301549081150290604051600060405180830381858888f1935050505015801561155e573d6000803e3d6000fd5b507f68899ad50909030043672ec750f7e234201226c34f9efa036d99c5432d220a3960405161158c90612cca565b60405180910390a15050565b600080600080600060606115aa6125bf565b6000803373ffffffffffffffffffffffffffffffffffffffff1673ffffffffffffffffffffffffffffffffffffffff16815260200190815260200160002088815481106115f357fe5b90600052602060002090600902016040518060c00160405290816000820160009054906101000a900473ffffffffffffffffffffffffffffffffffffffff1673ffffffffffffffffffffffffffffffffffffffff1673ffffffffffffffffffffffffffffffffffffffff1681526020016001820160009054906101000a900473ffffffffffffffffffffffffffffffffffffffff1673ffffffffffffffffffffffffffffffffffffffff1673ffffffffffffffffffffffffffffffffffffffff1681526020016002820154815260200160038201548152602001600482015481526020016005820160009054906101000a900460ff1660028111156116f457fe5b60028111156116ff57fe5b815250509050806000015181602001518260400151836060015184608001516117368660a00151600281111561173157fe5b612363565b8595508494509650965096509650965096505091939550919395565b8061175c81612303565b60000160009054906101000a900473ffffffffffffffffffffffffffffffffffffffff1673ffffffffffffffffffffffffffffffffffffffff163373ffffffffffffffffffffffffffffffffffffffff16146117b757600080fd5b60016117c283612303565b60070160006117d085612303565b60000160009054906101000a900473ffffffffffffffffffffffffffffffffffffffff1673ffffffffffffffffffffffffffffffffffffffff1673ffffffffffffffffffffffffffffffffffffffff168152602001908152602001600020541461183957600080fd5b600161184483612303565b600701600061185285612303565b60010160009054906101000a900473ffffffffffffffffffffffffffffffffffffffff1673ffffffffffffffffffffffffffffffffffffffff1673ffffffffffffffffffffffffffffffffffffffff16815260200190815260200160002054146118bb57600080fd5b60016118c683612303565b60080160006118d485612303565b60000160009054906101000a900473ffffffffffffffffffffffffffffffffffffffff1673ffffffffffffffffffffffffffffffffffffffff1673ffffffffffffffffffffffffffffffffffffffff168152602001908152602001600020541461193d57600080fd5b61194682612303565b60010160009054906101000a900473ffffffffffffffffffffffffffffffffffffffff1673ffffffffffffffffffffffffffffffffffffffff166108fc61198c84612303565b600201549081150290604051600060405180830381858888f193505050501580156119bb573d6000803e3d6000fd5b506119c582612303565b60000160009054906101000a900473ffffffffffffffffffffffffffffffffffffffff1673ffffffffffffffffffffffffffffffffffffffff166108fc611a0b84612303565b600301549081150290604051600060405180830381858888f19350505050158015611a3a573d6000803e3d6000fd5b50611a4482612303565b60010160009054906101000a900473ffffffffffffffffffffffffffffffffffffffff1673ffffffffffffffffffffffffffffffffffffffff166108fc611a8a84612303565b600301549081150290604051600060405180830381858888f19350505050158015611ab9573d6000803e3d6000fd5b507fd54aabd3141f0694c3f533b346119d27c2eb3248d4f866d6bd8299c78b128daf604051611ae790612cea565b60405180910390a15050565b611afb6125bf565b611b078585858561252b565b90506000808673ffffffffffffffffffffffffffffffffffffffff1673ffffffffffffffffffffffffffffffffffffffff168152602001908152602001600020819080600181540180825580915050906001820390600052602060002090600902016000909192909190915060008201518160000160006101000a81548173ffffffffffffffffffffffffffffffffffffffff021916908373ffffffffffffffffffffffffffffffffffffffff16021790555060208201518160010160006101000a81548173ffffffffffffffffffffffffffffffffffffffff021916908373ffffffffffffffffffffffffffffffffffffffff16021790555060408201518160020155606082015181600301556080820151816004015560a08201518160050160006101000a81548160ff02191690836002811115611c4357fe5b02179055505050506000808573ffffffffffffffffffffffffffffffffffffffff1673ffffffffffffffffffffffffffffffffffffffff168152602001908152602001600020819080600181540180825580915050906001820390600052602060002090600902016000909192909190915060008201518160000160006101000a81548173ffffffffffffffffffffffffffffffffffffffff021916908373ffffffffffffffffffffffffffffffffffffffff16021790555060208201518160010160006101000a81548173ffffffffffffffffffffffffffffffffffffffff021916908373ffffffffffffffffffffffffffffffffffffffff16021790555060408201518160020155606082015181600301556080820151816004015560a08201518160050160006101000a81548160ff02191690836002811115611d8557fe5b0217905550505050611ddf60018060008873ffffffffffffffffffffffffffffffffffffffff1673ffffffffffffffffffffffffffffffffffffffff168152602001908152602001600020546125a390919063ffffffff16565b600160008773ffffffffffffffffffffffffffffffffffffffff1673ffffffffffffffffffffffffffffffffffffffff16815260200190815260200160002081905550611e7460018060008773ffffffffffffffffffffffffffffffffffffffff1673ffffffffffffffffffffffffffffffffffffffff168152602001908152602001600020546125a390919063ffffffff16565b600160008673ffffffffffffffffffffffffffffffffffffffff1673ffffffffffffffffffffffffffffffffffffffff168152602001908152602001600020819055507f9e46342a5a4a55c6cfe0a6f7c9f82bf30233357f64e02dca6ca4ab8ccd761479858585856000604051611eef959493929190612b5f565b60405180910390a15050505050565b80611f0881612303565b60000160009054906101000a900473ffffffffffffffffffffffffffffffffffffffff1673ffffffffffffffffffffffffffffffffffffffff163373ffffffffffffffffffffffffffffffffffffffff1614611f6357600080fd5b611f6c82612303565b600301543414611f7b57600080fd5b6000611f8683612303565b60070160003373ffffffffffffffffffffffffffffffffffffffff1673ffffffffffffffffffffffffffffffffffffffff1681526020019081526020016000205414611fd157600080fd5b6001611fdc83612303565b60070160003373ffffffffffffffffffffffffffffffffffffffff1673ffffffffffffffffffffffffffffffffffffffff168152602001908152602001600020819055507f0109c07b399c647a3567815a956a02e0badfd3ed527a3fdb992031fae5d005f93334604051612051929190612c26565b60405180910390a15050565b6000600160003373ffffffffffffffffffffffffffffffffffffffff1673ffffffffffffffffffffffffffffffffffffffff16815260200190815260200160002054905090565b806120ae81612303565b60000160009054906101000a900473ffffffffffffffffffffffffffffffffffffffff1673ffffffffffffffffffffffffffffffffffffffff163373ffffffffffffffffffffffffffffffffffffffff161461210957600080fd5b61211282612303565b60020154341461212157600080fd5b600161212c83612303565b600701600061213a85612303565b60000160009054906101000a900473ffffffffffffffffffffffffffffffffffffffff1673ffffffffffffffffffffffffffffffffffffffff1673ffffffffffffffffffffffffffffffffffffffff16815260200190815260200160002054146121a357600080fd5b60016121ae83612303565b60070160006121bc85612303565b60010160009054906101000a900473ffffffffffffffffffffffffffffffffffffffff1673ffffffffffffffffffffffffffffffffffffffff1673ffffffffffffffffffffffffffffffffffffffff168152602001908152602001600020541461222557600080fd5b600061223083612303565b60080160003373ffffffffffffffffffffffffffffffffffffffff1673ffffffffffffffffffffffffffffffffffffffff168152602001908152602001600020541461227b57600080fd5b600161228683612303565b60080160003373ffffffffffffffffffffffffffffffffffffffff1673ffffffffffffffffffffffffffffffffffffffff168152602001908152602001600020819055507fdbafb049923bd24c9143b7aea787bb9133f12c9bc10e8ff7f1be6e2f13028c976040516122f790612d4a565b60405180910390a15050565b60008060003373ffffffffffffffffffffffffffffffffffffffff1673ffffffffffffffffffffffffffffffffffffffff168152602001908152602001600020828154811061234e57fe5b90600052602060002090600902019050919050565b60608060405180602001604052806000815250905060008060003373ffffffffffffffffffffffffffffffffffffffff1673ffffffffffffffffffffffffffffffffffffffff16815260200190815260200160002084815481106123c357fe5b906000526020600020906009020160050160009054906101000a900460ff1660028111156123ed57fe5b1415612430576040518060400160405280600481526020017f4f70656e000000000000000000000000000000000000000000000000000000008152509050612522565b60016000803373ffffffffffffffffffffffffffffffffffffffff1673ffffffffffffffffffffffffffffffffffffffff168152602001908152602001600020848154811061247b57fe5b906000526020600020906009020160050160009054906101000a900460ff1660028111156124a557fe5b14156124e8576040518060400160405280600781526020017f50656e64696e67000000000000000000000000000000000000000000000000008152509050612521565b6040518060400160405280600681526020017f436c6f736564000000000000000000000000000000000000000000000000000081525090505b5b80915050919050565b6125336125bf565b6040518060c001604052808673ffffffffffffffffffffffffffffffffffffffff1681526020018573ffffffffffffffffffffffffffffffffffffffff168152602001848152602001838152602001600081526020016000600281111561259657fe5b8152509050949350505050565b6000808284019050838110156125b557fe5b8091505092915050565b6040518060c00160405280600073ffffffffffffffffffffffffffffffffffffffff168152602001600073ffffffffffffffffffffffffffffffffffffffff1681526020016000815260200160008152602001600081526020016000600281111561262657fe5b81525090565b60008135905061263b81612eed565b92915050565b60008135905061265081612f04565b92915050565b60008135905061266581612f1b565b92915050565b60006020828403121561267d57600080fd5b600061268b8482850161262c565b91505092915050565b600080600080608085870312156126aa57600080fd5b60006126b887828801612641565b94505060206126c987828801612641565b93505060406126da87828801612656565b92505060606126eb87828801612656565b91505092959194509250565b6000806040838503121561270a57600080fd5b60006127188582860161262c565b925050602061272985828601612656565b9150509250929050565b60006020828403121561274557600080fd5b600061275384828501612656565b91505092915050565b61276581612e42565b82525050565b61277481612df3565b82525050565b61278381612de1565b82525050565b61279281612e54565b82525050565b6127a181612e66565b82525050565b60006127b282612dc5565b6127bc8185612dd0565b93506127cc818560208601612e9c565b6127d581612ecf565b840191505092915050565b60006127ed602583612dd0565b91507f7468652073656c6c65722068617320726576657273656420746865697220646560008301527f706f7369740000000000000000000000000000000000000000000000000000006020830152604082019050919050565b6000612853605383612dd0565b91507f5468652073656c6c657220686173206265656e207061696420616e6420616c6c60008301527f206465706f736974732068617665206265656e2072657475726e6564202d207460208301527f72616e73616374696f6e20636f6d706c657465000000000000000000000000006040830152606082019050919050565b60006128df601f83612dd0565b91507f746865206465706f736974732068617665206265656e2072657475726e6564006000830152602082019050919050565b600061291f600483612dd0565b91507f4f70656e000000000000000000000000000000000000000000000000000000006000830152602082019050919050565b600061295f603583612dd0565b91507f746865206465706f73697420636c61696d206861732031206f7574206f66203260008301527f206e6563657373617279207369676e61747572657300000000000000000000006020830152604082019050919050565b60006129c5602083612dd0565b91507f686173206d61646520746865207265717569726564206465706f736974206f666000830152602082019050919050565b6000612a05602f83612dd0565b91507f4275796572206861732073656e7420746865207061796d656e7420616d6f756e60008301527f7420746f2074686520657363726f7700000000000000000000000000000000006020830152604082019050919050565b6000612a6b605783612dd0565b91507f54686520627579657220686173206265656e20726566756e64656420616e642060008301527f616c6c206465706f736974732068617665206265656e2072657475726e65642060208301527f2d207472616e73616374696f6e2063616e63656c6c65640000000000000000006040830152606082019050919050565b6000612af7602483612dd0565b91507f746865206275796572206861732072657665727365642074686569722064657060008301527f6f736974000000000000000000000000000000000000000000000000000000006020830152604082019050919050565b612b5981612e38565b82525050565b600060c082019050612b74600083018861275c565b612b81602083018761275c565b612b8e6040830186612b50565b612b9b6060830185612b50565b612ba86080830184612798565b81810360a0830152612bb981612912565b90509695505050505050565b600060c082019050612bda600083018961276b565b612be7602083018861276b565b612bf46040830187612b50565b612c016060830186612b50565b612c0e6080830185612b50565b612c1b60a0830184612789565b979650505050505050565b6000606082019050612c3b600083018561275c565b8181036020830152612c4c816129b8565b9050612c5b6040830184612b50565b9392505050565b600060c082019050612c77600083018961277a565b612c84602083018861277a565b612c916040830187612b50565b612c9e6060830186612b50565b612cab6080830185612b50565b81810360a0830152612cbd81846127a7565b9050979650505050505050565b60006020820190508181036000830152612ce3816127e0565b9050919050565b60006020820190508181036000830152612d0381612846565b9050919050565b60006020820190508181036000830152612d23816128d2565b9050919050565b60006020820190508181036000830152612d4381612952565b9050919050565b60006020820190508181036000830152612d63816129f8565b9050919050565b60006020820190508181036000830152612d8381612a5e565b9050919050565b60006020820190508181036000830152612da381612aea565b9050919050565b6000602082019050612dbf6000830184612b50565b92915050565b600081519050919050565b600082825260208201905092915050565b6000612dec82612e18565b9050919050565b6000612dfe82612e18565b9050919050565b6000819050612e1382612ee0565b919050565b600073ffffffffffffffffffffffffffffffffffffffff82169050919050565b6000819050919050565b6000612e4d82612e78565b9050919050565b6000612e5f82612e05565b9050919050565b6000612e7182612e38565b9050919050565b6000612e8382612e8a565b9050919050565b6000612e9582612e18565b9050919050565b60005b83811015612eba578082015181840152602081019050612e9f565b83811115612ec9576000848401525b50505050565b6000601f19601f8301169050919050565b60038110612eea57fe5b50565b612ef681612de1565b8114612f0157600080fd5b50565b612f0d81612df3565b8114612f1857600080fd5b50565b612f2481612e38565b8114612f2f57600080fd5b5056fea365627a7a72315820b0b556d4c624c0a976888184afae13f5a92c7c863a1151d0153aed10776eb2d36c6578706572696d656e74616cf564736f6c63430005100040",
  "source": "pragma solidity ^0.5.16;\npragma experimental ABIEncoderV2;\n\nimport \"./EscrowFactory.sol\";\n\ncontract EscrowExchange is EscrowFactory {\n\n\tevent ContractCreated(address buyer, address seller, uint amount, uint deposit, uint signatureCount, string status);\n\n\tfunction getContractForCurrentUser(uint index) public view returns (address, address, uint, uint, uint, string memory){\n\t\tEscrowContract memory retrieved_contract = contractsForUser[msg.sender][index];\n        return (retrieved_contract.buyer, retrieved_contract.seller, retrieved_contract.amount, retrieved_contract.deposit, retrieved_contract.signatureCount, checkStatus(uint(retrieved_contract.status)));\n    }\n\n    function getContractCountForCurrentUser() external view returns (uint) {\n\t    return ownerContractCount[msg.sender];\n\t }\n\n    function createContract(address payable buyer, address payable seller, uint amount, uint deposit) public {\n    \tEscrowContract memory newContract = _createContract(buyer, seller, amount, deposit);\n    \t// For looping through contracts later on.\n    \tcontractsForUser[buyer].push(newContract);\n    \tcontractsForUser[seller].push(newContract);\n    \townerContractCount[buyer] = ownerContractCount[buyer].add(1);\n    \townerContractCount[seller] = ownerContractCount[seller].add(1);\n\n    \temit ContractCreated(buyer, seller, amount, deposit, 0, \"Open\");\n    }\n\n    function checkStatus(uint id) private view returns (string memory){\n\n        string memory status = \"\";\n\n        if (uint(contractsForUser[msg.sender][id].status) == 0){\n            status = \"Open\";\n        } else if (uint(contractsForUser[msg.sender][id].status) == 1){\n            status = \"Pending\";\n        } else{\n            status = \"Closed\";\n        }\n\n        return (status);\n    }\n}",
  "sourcePath": "/Users/donaldlee/Developer/PointsExchange/contracts/EscrowExchange.sol",
  "compiler": {
    "name": "solc",
    "version": "0.5.16+commit.9c3226ce.Emscripten.clang"
  },
  "schemaVersion": "3.3.3",
  "updatedAt": "2021-04-07T02:20:16.980Z",
  "networkType": "ethereum",
  "devdoc": {
    "methods": {}
  },
  "userdoc": {
    "methods": {}
  }
}