{
  "contractName": "EscrowExchange",
  "abi": [
    {
      "inputs": [],
      "payable": false,
      "stateMutability": "nonpayable",
      "type": "constructor"
    },
    {
      "anonymous": false,
      "inputs": [
        {
          "indexed": false,
          "internalType": "address",
          "name": "buyer",
          "type": "address"
        },
        {
          "indexed": false,
          "internalType": "address",
          "name": "seller",
          "type": "address"
        },
        {
          "indexed": false,
          "internalType": "uint256",
          "name": "amount",
          "type": "uint256"
        },
        {
          "indexed": false,
          "internalType": "uint256",
          "name": "deposit",
          "type": "uint256"
        },
        {
          "indexed": false,
          "internalType": "uint256",
          "name": "signatureCount",
          "type": "uint256"
        },
        {
          "indexed": false,
          "internalType": "string",
          "name": "status",
          "type": "string"
        },
        {
          "indexed": false,
          "internalType": "string",
          "name": "notes",
          "type": "string"
        },
        {
          "indexed": false,
          "internalType": "bool",
          "name": "depositMade",
          "type": "bool"
        }
      ],
      "name": "ContractCreated",
      "type": "event"
    },
    {
      "constant": true,
      "inputs": [
        {
          "internalType": "address",
          "name": "",
          "type": "address"
        },
        {
          "internalType": "uint256",
          "name": "",
          "type": "uint256"
        }
      ],
      "name": "addressContractIndexExists",
      "outputs": [
        {
          "internalType": "bool",
          "name": "",
          "type": "bool"
        }
      ],
      "payable": false,
      "stateMutability": "view",
      "type": "function"
    },
    {
      "constant": true,
      "inputs": [
        {
          "internalType": "address",
          "name": "",
          "type": "address"
        },
        {
          "internalType": "uint256",
          "name": "",
          "type": "uint256"
        }
      ],
      "name": "addressToIndex",
      "outputs": [
        {
          "internalType": "uint256",
          "name": "",
          "type": "uint256"
        }
      ],
      "payable": false,
      "stateMutability": "view",
      "type": "function"
    },
    {
      "constant": true,
      "inputs": [],
      "name": "contractCount",
      "outputs": [
        {
          "internalType": "uint256",
          "name": "",
          "type": "uint256"
        }
      ],
      "payable": false,
      "stateMutability": "view",
      "type": "function"
    },
    {
      "constant": true,
      "inputs": [
        {
          "internalType": "uint256",
          "name": "",
          "type": "uint256"
        }
      ],
      "name": "contractIndexesForUsers",
      "outputs": [
        {
          "internalType": "contract EscrowFactory",
          "name": "",
          "type": "address"
        }
      ],
      "payable": false,
      "stateMutability": "view",
      "type": "function"
    },
    {
      "constant": true,
      "inputs": [
        {
          "internalType": "address",
          "name": "",
          "type": "address"
        }
      ],
      "name": "isAdmin",
      "outputs": [
        {
          "internalType": "bool",
          "name": "",
          "type": "bool"
        }
      ],
      "payable": false,
      "stateMutability": "view",
      "type": "function"
    },
    {
      "constant": true,
      "inputs": [],
      "name": "owner",
      "outputs": [
        {
          "internalType": "address payable",
          "name": "",
          "type": "address"
        }
      ],
      "payable": false,
      "stateMutability": "view",
      "type": "function"
    },
    {
      "constant": true,
      "inputs": [
        {
          "internalType": "uint256",
          "name": "index",
          "type": "uint256"
        }
      ],
      "name": "getContractForCurrentUser",
      "outputs": [
        {
          "internalType": "address",
          "name": "",
          "type": "address"
        },
        {
          "internalType": "address",
          "name": "",
          "type": "address"
        },
        {
          "internalType": "uint256",
          "name": "",
          "type": "uint256"
        },
        {
          "internalType": "uint256",
          "name": "",
          "type": "uint256"
        },
        {
          "internalType": "uint256",
          "name": "",
          "type": "uint256"
        },
        {
          "internalType": "string",
          "name": "",
          "type": "string"
        },
        {
          "internalType": "string",
          "name": "",
          "type": "string"
        },
        {
          "internalType": "uint256",
          "name": "",
          "type": "uint256"
        },
        {
          "internalType": "uint256",
          "name": "",
          "type": "uint256"
        },
        {
          "internalType": "uint256",
          "name": "",
          "type": "uint256"
        },
        {
          "internalType": "address",
          "name": "",
          "type": "address"
        }
      ],
      "payable": false,
      "stateMutability": "view",
      "type": "function"
    },
    {
      "constant": true,
      "inputs": [],
      "name": "getContractCountForCurrentUser",
      "outputs": [
        {
          "internalType": "uint256",
          "name": "",
          "type": "uint256"
        }
      ],
      "payable": false,
      "stateMutability": "view",
      "type": "function"
    },
    {
      "constant": false,
      "inputs": [
        {
          "internalType": "address payable",
          "name": "buyer",
          "type": "address"
        },
        {
          "internalType": "address payable",
          "name": "seller",
          "type": "address"
        },
        {
          "internalType": "uint256",
          "name": "amount",
          "type": "uint256"
        },
        {
          "internalType": "uint256",
          "name": "deposit",
          "type": "uint256"
        },
        {
          "internalType": "string",
          "name": "notes",
          "type": "string"
        }
      ],
      "name": "createContract",
      "outputs": [],
      "payable": false,
      "stateMutability": "nonpayable",
      "type": "function"
    },
    {
      "constant": false,
      "inputs": [
        {
          "internalType": "uint256",
          "name": "index",
          "type": "uint256"
        }
      ],
      "name": "adminReverseContract",
      "outputs": [],
      "payable": false,
      "stateMutability": "nonpayable",
      "type": "function"
    },
    {
      "constant": false,
      "inputs": [
        {
          "internalType": "bool",
          "name": "state",
          "type": "bool"
        },
        {
          "internalType": "address",
          "name": "newAdmin",
          "type": "address"
        }
      ],
      "name": "setAdmin",
      "outputs": [],
      "payable": false,
      "stateMutability": "nonpayable",
      "type": "function"
    },
    {
      "constant": true,
      "inputs": [
        {
          "internalType": "address",
          "name": "admin",
          "type": "address"
        }
      ],
      "name": "getAdmin",
      "outputs": [
        {
          "internalType": "bool",
          "name": "",
          "type": "bool"
        }
      ],
      "payable": false,
      "stateMutability": "view",
      "type": "function"
    }
  ],
  "bytecode": "0x60806040526000805534801561001457600080fd5b5033600160006101000a81548173ffffffffffffffffffffffffffffffffffffffff021916908373ffffffffffffffffffffffffffffffffffffffff1602179055506157b8806100656000396000f3fe60806040523480156200001157600080fd5b5060043610620000c45760003560e01c80638da5cb5b116200007b5780638da5cb5b14620001ed57806392646cc5146200020f5780639a3101711462000245578063d0be31c41462000265578063e1ab5711146200029b578063fdeb5ccc14620002bd57620000c4565b806324d7806c14620000c95780633d0beb4b14620000ff57806360cc1062146200013557806364efb22b14620001755780636a3661a614620001ab5780638736381a14620001cb575b600080fd5b620000e76004803603620000e19190810190620013cc565b620002dd565b604051620000f69190620019f8565b60405180910390f35b6200011d6004803603620001179190810190620014bf565b620002fd565b6040516200012c919062001a98565b60405180910390f35b6200015360048036036200014d919081019062001586565b6200032c565b6040516200016c9b9a9998979695949392919062001929565b60405180910390f35b6200019360048036036200018d9190810190620013cc565b62000958565b604051620001a29190620019f8565b60405180910390f35b620001c96004803603620001c3919081019062001424565b620009ae565b005b620001d562000d71565b604051620001e4919062001a98565b60405180910390f35b620001f762000d77565b604051620002069190620017fe565b60405180910390f35b6200022d600480360362000227919081019062001586565b62000d9d565b6040516200023c919062001a15565b60405180910390f35b6200026360048036036200025d919081019062001500565b62000dd0565b005b6200028360048036036200027d9190810190620014bf565b62000f1a565b604051620002929190620019f8565b60405180910390f35b620002a562000f49565b604051620002b4919062001a98565b60405180910390f35b620002db6004803603620002d5919081019062001586565b620010e1565b005b60026020528060005260406000206000915054906101000a900460ff1681565b600360205281600052604060002081815481106200031757fe5b90600052602060002001600091509150505481565b6000806000806000606080600080600080600460003373ffffffffffffffffffffffffffffffffffffffff1673ffffffffffffffffffffffffffffffffffffffff16815260200190815260200160002060008d815260200190815260200160002060009054906101000a900460ff161562000948576000600560008e815260200190815260200160002060009054906101000a900473ffffffffffffffffffffffffffffffffffffffff16905060008173ffffffffffffffffffffffffffffffffffffffff1663dbd0e1b66040518163ffffffff1660e01b815260040160206040518083038186803b1580156200042257600080fd5b505afa15801562000437573d6000803e3d6000fd5b505050506040513d601f19601f820116820180604052506200045d9190810190620013f8565b905060008273ffffffffffffffffffffffffffffffffffffffff1663603daf9a6040518163ffffffff1660e01b815260040160206040518083038186803b158015620004a857600080fd5b505afa158015620004bd573d6000803e3d6000fd5b505050506040513d601f19601f82011682018060405250620004e39190810190620013f8565b905080828473ffffffffffffffffffffffffffffffffffffffff1663d321fe296040518163ffffffff1660e01b815260040160206040518083038186803b1580156200052e57600080fd5b505afa15801562000543573d6000803e3d6000fd5b505050506040513d601f19601f82011682018060405250620005699190810190620015b2565b8573ffffffffffffffffffffffffffffffffffffffff1663c399ec886040518163ffffffff1660e01b815260040160206040518083038186803b158015620005b057600080fd5b505afa158015620005c5573d6000803e3d6000fd5b505050506040513d601f19601f82011682018060405250620005eb9190810190620015b2565b8673ffffffffffffffffffffffffffffffffffffffff166389d84af56040518163ffffffff1660e01b815260040160206040518083038186803b1580156200063257600080fd5b505afa15801562000647573d6000803e3d6000fd5b505050506040513d601f19601f820116820180604052506200066d9190810190620015b2565b8773ffffffffffffffffffffffffffffffffffffffff1663c032846b6040518163ffffffff1660e01b815260040160006040518083038186803b158015620006b457600080fd5b505afa158015620006c9573d6000803e3d6000fd5b505050506040513d6000823e3d601f19601f82011682018060405250620006f4919081019062001541565b8873ffffffffffffffffffffffffffffffffffffffff1663b4af200d6040518163ffffffff1660e01b815260040160006040518083038186803b1580156200073b57600080fd5b505afa15801562000750573d6000803e3d6000fd5b505050506040513d6000823e3d601f19601f820116820180604052506200077b919081019062001541565b8973ffffffffffffffffffffffffffffffffffffffff166303828aee336040518263ffffffff1660e01b8152600401620007b69190620017e1565b60206040518083038186803b158015620007cf57600080fd5b505afa158015620007e4573d6000803e3d6000fd5b505050506040513d601f19601f820116820180604052506200080a9190810190620015b2565b8a73ffffffffffffffffffffffffffffffffffffffff166386fef2368a6040518263ffffffff1660e01b8152600401620008459190620017c4565b60206040518083038186803b1580156200085e57600080fd5b505afa15801562000873573d6000803e3d6000fd5b505050506040513d601f19601f82011682018060405250620008999190810190620015b2565b8b73ffffffffffffffffffffffffffffffffffffffff1663277fc0e9336040518263ffffffff1660e01b8152600401620008d49190620017e1565b60206040518083038186803b158015620008ed57600080fd5b505afa15801562000902573d6000803e3d6000fd5b505050506040513d601f19601f82011682018060405250620009289190810190620015b2565b8c9d509d509d509d509d509d509d509d509d509d509d5050505062000949565b5b91939597999b90929496989a50565b6000600260008373ffffffffffffffffffffffffffffffffffffffff1673ffffffffffffffffffffffffffffffffffffffff16815260200190815260200160002060009054906101000a900460ff169050919050565b600073ffffffffffffffffffffffffffffffffffffffff168573ffffffffffffffffffffffffffffffffffffffff16141562000a21576040517f08c379a000000000000000000000000000000000000000000000000000000000815260040162000a189062001a32565b60405180910390fd5b600073ffffffffffffffffffffffffffffffffffffffff168473ffffffffffffffffffffffffffffffffffffffff16141562000a94576040517f08c379a000000000000000000000000000000000000000000000000000000000815260040162000a8b9062001a76565b60405180910390fd5b6000831162000aa257600080fd5b6000821162000ab057600080fd5b60008585858585600160009054906101000a900473ffffffffffffffffffffffffffffffffffffffff1660405162000ae8906200127c565b62000af996959493929190620018b5565b604051809103906000f08015801562000b16573d6000803e3d6000fd5b50905080600560008054815260200190815260200160002060006101000a81548173ffffffffffffffffffffffffffffffffffffffff021916908373ffffffffffffffffffffffffffffffffffffffff160217905550600360008773ffffffffffffffffffffffffffffffffffffffff1673ffffffffffffffffffffffffffffffffffffffff1681526020019081526020016000206000549080600181540180825580915050906001820390600052602060002001600090919290919091505550600360008673ffffffffffffffffffffffffffffffffffffffff1673ffffffffffffffffffffffffffffffffffffffff16815260200190815260200160002060005490806001815401808255809150509060018203906000526020600020016000909192909190915055506001600460008873ffffffffffffffffffffffffffffffffffffffff1673ffffffffffffffffffffffffffffffffffffffff16815260200190815260200160002060008054815260200190815260200160002060006101000a81548160ff0219169083151502179055506001600460008773ffffffffffffffffffffffffffffffffffffffff1673ffffffffffffffffffffffffffffffffffffffff16815260200190815260200160002060008054815260200190815260200160002060006101000a81548160ff0219169083151502179055506001600054016000819055507f0acd88e48e19df2f60e1fac1cc74e5cd85d20d113033e9f7ed5d60534fb3381a86868686600087600060405162000d6197969594939291906200181b565b60405180910390a1505050505050565b60005481565b600160009054906101000a900473ffffffffffffffffffffffffffffffffffffffff1681565b60056020528060005260406000206000915054906101000a900473ffffffffffffffffffffffffffffffffffffffff1681565b600160009054906101000a900473ffffffffffffffffffffffffffffffffffffffff1673ffffffffffffffffffffffffffffffffffffffff163373ffffffffffffffffffffffffffffffffffffffff16148062000e7d575060011515600260003373ffffffffffffffffffffffffffffffffffffffff1673ffffffffffffffffffffffffffffffffffffffff16815260200190815260200160002060009054906101000a900460ff161515145b62000ebf576040517f08c379a000000000000000000000000000000000000000000000000000000000815260040162000eb69062001a54565b60405180910390fd5b81600260008373ffffffffffffffffffffffffffffffffffffffff1673ffffffffffffffffffffffffffffffffffffffff16815260200190815260200160002060006101000a81548160ff0219169083151502179055505050565b60046020528160005260406000206020528060005260406000206000915091509054906101000a900460ff1681565b600080600360003373ffffffffffffffffffffffffffffffffffffffff1673ffffffffffffffffffffffffffffffffffffffff16815260200190815260200160002080549050141562000fa05760009050620010de565b6001600360003373ffffffffffffffffffffffffffffffffffffffff1673ffffffffffffffffffffffffffffffffffffffff1681526020019081526020016000208054905014156200103757600360003373ffffffffffffffffffffffffffffffffffffffff1673ffffffffffffffffffffffffffffffffffffffff168152602001908152602001600020805490509050620010de565b6000600360003373ffffffffffffffffffffffffffffffffffffffff1673ffffffffffffffffffffffffffffffffffffffff1681526020019081526020016000208054905090506001600360003373ffffffffffffffffffffffffffffffffffffffff1673ffffffffffffffffffffffffffffffffffffffff1681526020019081526020016000206001830381548110620010ce57fe5b9060005260206000200154019150505b90565b600160009054906101000a900473ffffffffffffffffffffffffffffffffffffffff1673ffffffffffffffffffffffffffffffffffffffff163373ffffffffffffffffffffffffffffffffffffffff1614806200118e575060011515600260003373ffffffffffffffffffffffffffffffffffffffff1673ffffffffffffffffffffffffffffffffffffffff16815260200190815260200160002060009054906101000a900460ff161515145b620011d0576040517f08c379a0000000000000000000000000000000000000000000000000000000008152600401620011c79062001a54565b60405180910390fd5b60006005600083815260200190815260200160002060009054906101000a900473ffffffffffffffffffffffffffffffffffffffff1690508073ffffffffffffffffffffffffffffffffffffffff16636986ac0760016040518263ffffffff1660e01b8152600401620012449190620019f8565b600060405180830381600087803b1580156200125f57600080fd5b505af115801562001274573d6000803e3d6000fd5b505050505050565b613ab58062001cc183390190565b6000813590506200129b8162001c58565b92915050565b600081519050620012b28162001c58565b92915050565b600081359050620012c98162001c72565b92915050565b600081359050620012e08162001c8c565b92915050565b600082601f830112620012f857600080fd5b81356200130f620013098262001ae3565b62001ab5565b915080825260208301602083018583830111156200132c57600080fd5b6200133983828462001c02565b50505092915050565b600082601f8301126200135457600080fd5b81516200136b620013658262001ae3565b62001ab5565b915080825260208301602083018583830111156200138857600080fd5b6200139583828462001c11565b50505092915050565b600081359050620013af8162001ca6565b92915050565b600081519050620013c68162001ca6565b92915050565b600060208284031215620013df57600080fd5b6000620013ef848285016200128a565b91505092915050565b6000602082840312156200140b57600080fd5b60006200141b84828501620012a1565b91505092915050565b600080600080600060a086880312156200143d57600080fd5b60006200144d88828901620012b8565b95505060206200146088828901620012b8565b945050604062001473888289016200139e565b935050606062001486888289016200139e565b925050608086013567ffffffffffffffff811115620014a457600080fd5b620014b288828901620012e6565b9150509295509295909350565b60008060408385031215620014d357600080fd5b6000620014e3858286016200128a565b9250506020620014f6858286016200139e565b9150509250929050565b600080604083850312156200151457600080fd5b60006200152485828601620012cf565b925050602062001537858286016200128a565b9150509250929050565b6000602082840312156200155457600080fd5b600082015167ffffffffffffffff8111156200156f57600080fd5b6200157d8482850162001342565b91505092915050565b6000602082840312156200159957600080fd5b6000620015a9848285016200139e565b91505092915050565b600060208284031215620015c557600080fd5b6000620015d584828501620013b5565b91505092915050565b620015e98162001b8a565b82525050565b620015fa8162001b40565b82525050565b6200160b8162001b2c565b82525050565b6200161c8162001b54565b82525050565b6200162d8162001b9e565b82525050565b6200163e8162001bc6565b82525050565b6000620016518262001b10565b6200165d818562001b1b565b93506200166f81856020860162001c11565b6200167a8162001c47565b840191505092915050565b60006200169460158362001b1b565b91507f496e76616c6964206275796572206164647265737300000000000000000000006000830152602082019050919050565b6000620016d660358362001b1b565b91507f6f6e6c7920616e2061646d696e6973747261746f7220697320616c6c6f77656460008301527f20746f2072756e20746869732066756e6374696f6e00000000000000000000006020830152604082019050919050565b60006200173e60048362001b1b565b91507f4f70656e000000000000000000000000000000000000000000000000000000006000830152602082019050919050565b60006200178060168362001b1b565b91507f496e76616c69642073656c6c65722061646472657373000000000000000000006000830152602082019050919050565b620017be8162001b80565b82525050565b6000602082019050620017db600083018462001600565b92915050565b6000602082019050620017f86000830184620015de565b92915050565b6000602082019050620018156000830184620015ef565b92915050565b60006101008201905062001833600083018a620015de565b620018426020830189620015de565b620018516040830188620017b3565b620018606060830187620017b3565b6200186f608083018662001633565b81810360a083015262001882816200172f565b905081810360c083015262001898818562001644565b9050620018a960e083018462001611565b98975050505050505050565b600060c082019050620018cc6000830189620015ef565b620018db6020830188620015ef565b620018ea6040830187620017b3565b620018f96060830186620017b3565b81810360808301526200190d818562001644565b90506200191e60a0830184620015ef565b979650505050505050565b60006101608201905062001941600083018e62001600565b62001950602083018d62001600565b6200195f604083018c620017b3565b6200196e606083018b620017b3565b6200197d608083018a620017b3565b81810360a083015262001991818962001644565b905081810360c0830152620019a7818862001644565b9050620019b860e0830187620017b3565b620019c8610100830186620017b3565b620019d8610120830185620017b3565b620019e861014083018462001600565b9c9b505050505050505050505050565b600060208201905062001a0f600083018462001611565b92915050565b600060208201905062001a2c600083018462001622565b92915050565b6000602082019050818103600083015262001a4d8162001685565b9050919050565b6000602082019050818103600083015262001a6f81620016c7565b9050919050565b6000602082019050818103600083015262001a918162001771565b9050919050565b600060208201905062001aaf6000830184620017b3565b92915050565b6000604051905081810181811067ffffffffffffffff8211171562001ad957600080fd5b8060405250919050565b600067ffffffffffffffff82111562001afb57600080fd5b601f19601f8301169050602081019050919050565b600081519050919050565b600082825260208201905092915050565b600062001b398262001b60565b9050919050565b600062001b4d8262001b60565b9050919050565b60008115159050919050565b600073ffffffffffffffffffffffffffffffffffffffff82169050919050565b6000819050919050565b600062001b978262001bda565b9050919050565b600062001bab8262001bb2565b9050919050565b600062001bbf8262001b60565b9050919050565b600062001bd38262001b80565b9050919050565b600062001be78262001bee565b9050919050565b600062001bfb8262001b60565b9050919050565b82818337600083830152505050565b60005b8381101562001c3157808201518184015260208101905062001c14565b8381111562001c41576000848401525b50505050565b6000601f19601f8301169050919050565b62001c638162001b2c565b811462001c6f57600080fd5b50565b62001c7d8162001b40565b811462001c8957600080fd5b50565b62001c978162001b54565b811462001ca357600080fd5b50565b62001cb18162001b80565b811462001cbd57600080fd5b5056fe60806040523480156200001157600080fd5b5060405162003ab538038062003ab5833981810160405260c08110156200003757600080fd5b8101908080519060200190929190805190602001909291908051906020019092919080519060200190929190805160405193929190846401000000008211156200008057600080fd5b838201915060208201858111156200009757600080fd5b8251866001820283011164010000000082111715620000b557600080fd5b8083526020830192505050908051906020019080838360005b83811015620000eb578082015181840152602081019050620000ce565b50505050905090810190601f168015620001195780820380516001836020036101000a031916815260200191505b5060405260200180519060200190929190505050856000806101000a81548173ffffffffffffffffffffffffffffffffffffffff021916908373ffffffffffffffffffffffffffffffffffffffff16021790555084600160006101000a81548173ffffffffffffffffffffffffffffffffffffffff021916908373ffffffffffffffffffffffffffffffffffffffff16021790555083600481905550826005819055508160089080519060200190620001d4929190620003de565b506000600760006101000a81548160ff02191690836002811115620001f557fe5b02179055506000600960006101000a81548160ff02191690831515021790555060038690806001815401808255809150509060018203906000526020600020016000909192909190916101000a81548173ffffffffffffffffffffffffffffffffffffffff021916908373ffffffffffffffffffffffffffffffffffffffff1602179055505060038590806001815401808255809150509060018203906000526020600020016000909192909190916101000a81548173ffffffffffffffffffffffffffffffffffffffff021916908373ffffffffffffffffffffffffffffffffffffffff160217905550506001600a60008873ffffffffffffffffffffffffffffffffffffffff1673ffffffffffffffffffffffffffffffffffffffff16815260200190815260200160002060006101000a81548160ff0219169083151502179055506001600a60008773ffffffffffffffffffffffffffffffffffffffff1673ffffffffffffffffffffffffffffffffffffffff16815260200190815260200160002060006101000a81548160ff02191690831515021790555080600260006101000a81548173ffffffffffffffffffffffffffffffffffffffff021916908373ffffffffffffffffffffffffffffffffffffffff1602179055505050505050506200048d565b828054600181600116156101000203166002900490600052602060002090601f016020900481019282601f106200042157805160ff191683800117855562000452565b8280016001018555821562000452579182015b828111156200045157825182559160200191906001019062000434565b5b50905062000461919062000465565b5090565b6200048a91905b80821115620004865760008160009055506001016200046c565b5090565b90565b613618806200049d6000396000f3fe6080604052600436106101f95760003560e01c80638da5cb5b1161010d578063c032846b116100a0578063d321fe291161006f578063d321fe29146109f1578063dbd0e1b614610a1c578063e7f55ed614610a73578063e8a61cc814610a9e578063f8fe988914610ab5576101f9565b8063c032846b146108a6578063c399ec8814610936578063c792f36d14610961578063d0e30db0146109c6576101f9565b8063aa8c217c116100dc578063aa8c217c1461076f578063ab404ff01461079a578063b4af200d146107ff578063be7e69fd1461088f576101f9565b80638da5cb5b146106c8578063a05795871461071f578063a0c97bce14610729578063a575439414610740576101f9565b8063537eeb51116101905780637150d8ae1161015f5780637150d8ae146105a857806386fef236146105ff578063892642011461066457806389d84af5146106935780638b2b3d8b146106be576101f9565b8063537eeb5114610484578063603daf9a146104e95780636986ac07146105405780636f9fb98a1461057d576101f9565b8063200d2ed2116101cc578063200d2ed214610361578063277fc0e91461039a578063314fd68f146103ff5780634c1786ea1461047a576101f9565b806303828aee146101fe57806308551a53146102635780631432c281146102ba5780631866dc97146102d1575b600080fd5b34801561020a57600080fd5b5061024d6004803603602081101561022157600080fd5b81019080803573ffffffffffffffffffffffffffffffffffffffff169060200190929190505050610acc565b6040518082815260200191505060405180910390f35b34801561026f57600080fd5b50610278610b15565b604051808273ffffffffffffffffffffffffffffffffffffffff1673ffffffffffffffffffffffffffffffffffffffff16815260200191505060405180910390f35b3480156102c657600080fd5b506102cf610b3b565b005b3480156102dd57600080fd5b506102e66111f2565b6040518080602001828103825283818151815260200191508051906020019080838360005b8381101561032657808201518184015260208101905061030b565b50505050905090810190601f1680156103535780820380516001836020036101000a031916815260200191505b509250505060405180910390f35b34801561036d57600080fd5b50610376611290565b6040518082600281111561038657fe5b60ff16815260200191505060405180910390f35b3480156103a657600080fd5b506103e9600480360360208110156103bd57600080fd5b81019080803573ffffffffffffffffffffffffffffffffffffffff1690602001909291905050506112a3565b6040518082815260200191505060405180910390f35b34801561040b57600080fd5b506104386004803603602081101561042257600080fd5b81019080803590602001909291905050506112ec565b604051808273ffffffffffffffffffffffffffffffffffffffff1673ffffffffffffffffffffffffffffffffffffffff16815260200191505060405180910390f35b610482611328565b005b34801561049057600080fd5b506104d3600480360360208110156104a757600080fd5b81019080803573ffffffffffffffffffffffffffffffffffffffff169060200190929190505050611599565b6040518082815260200191505060405180910390f35b3480156104f557600080fd5b506104fe6115b1565b604051808273ffffffffffffffffffffffffffffffffffffffff1673ffffffffffffffffffffffffffffffffffffffff16815260200191505060405180910390f35b34801561054c57600080fd5b5061057b6004803603602081101561056357600080fd5b810190808035151590602001909291905050506115da565b005b34801561058957600080fd5b50610592611a85565b6040518082815260200191505060405180910390f35b3480156105b457600080fd5b506105bd611a8d565b604051808273ffffffffffffffffffffffffffffffffffffffff1673ffffffffffffffffffffffffffffffffffffffff16815260200191505060405180910390f35b34801561060b57600080fd5b5061064e6004803603602081101561062257600080fd5b81019080803573ffffffffffffffffffffffffffffffffffffffff169060200190929190505050611ab2565b6040518082815260200191505060405180910390f35b34801561067057600080fd5b50610679611afb565b604051808215151515815260200191505060405180910390f35b34801561069f57600080fd5b506106a8611b0e565b6040518082815260200191505060405180910390f35b6106c6611b18565b005b3480156106d457600080fd5b506106dd611ebf565b604051808273ffffffffffffffffffffffffffffffffffffffff1673ffffffffffffffffffffffffffffffffffffffff16815260200191505060405180910390f35b610727611ee5565b005b34801561073557600080fd5b5061073e612155565b005b34801561074c57600080fd5b506107556125bc565b604051808215151515815260200191505060405180910390f35b34801561077b57600080fd5b506107846125d3565b6040518082815260200191505060405180910390f35b3480156107a657600080fd5b506107e9600480360360208110156107bd57600080fd5b81019080803573ffffffffffffffffffffffffffffffffffffffff1690602001909291905050506125d9565b6040518082815260200191505060405180910390f35b34801561080b57600080fd5b506108146125f1565b6040518080602001828103825283818151815260200191508051906020019080838360005b83811015610854578082015181840152602081019050610839565b50505050905090810190601f1680156108815780820380516001836020036101000a031916815260200191505b509250505060405180910390f35b34801561089b57600080fd5b506108a4612693565b005b3480156108b257600080fd5b506108bb61297c565b6040518080602001828103825283818151815260200191508051906020019080838360005b838110156108fb5780820151818401526020810190506108e0565b50505050905090810190601f1680156109285780820380516001836020036101000a031916815260200191505b509250505060405180910390f35b34801561094257600080fd5b5061094b612a90565b6040518082815260200191505060405180910390f35b34801561096d57600080fd5b506109b06004803603602081101561098457600080fd5b81019080803573ffffffffffffffffffffffffffffffffffffffff169060200190929190505050612a9a565b6040518082815260200191505060405180910390f35b3480156109d257600080fd5b506109db612ab2565b6040518082815260200191505060405180910390f35b3480156109fd57600080fd5b50610a06612ab8565b6040518082815260200191505060405180910390f35b348015610a2857600080fd5b50610a31612ac2565b604051808273ffffffffffffffffffffffffffffffffffffffff1673ffffffffffffffffffffffffffffffffffffffff16815260200191505060405180910390f35b348015610a7f57600080fd5b50610a88612aec565b6040518082815260200191505060405180910390f35b348015610aaa57600080fd5b50610ab3612af2565b005b348015610ac157600080fd5b50610aca612f59565b005b6000600c60008373ffffffffffffffffffffffffffffffffffffffff1673ffffffffffffffffffffffffffffffffffffffff168152602001908152602001600020549050919050565b600160009054906101000a900473ffffffffffffffffffffffffffffffffffffffff1681565b33600a60008273ffffffffffffffffffffffffffffffffffffffff1673ffffffffffffffffffffffffffffffffffffffff16815260200190815260200160002060009054906101000a900460ff16610b9257600080fd5b6001600c60008060009054906101000a900473ffffffffffffffffffffffffffffffffffffffff1673ffffffffffffffffffffffffffffffffffffffff1673ffffffffffffffffffffffffffffffffffffffff1681526020019081526020016000205414610c4b576040517f08c379a00000000000000000000000000000000000000000000000000000000081526004018080602001828103825260328152602001806134fc6032913960400191505060405180910390fd5b6001600c6000600160009054906101000a900473ffffffffffffffffffffffffffffffffffffffff1673ffffffffffffffffffffffffffffffffffffffff1673ffffffffffffffffffffffffffffffffffffffff1681526020019081526020016000205414610d05576040517f08c379a000000000000000000000000000000000000000000000000000000000815260040180806020018281038252603381526020018061327c6033913960400191505060405180910390fd5b6000600d60008060009054906101000a900473ffffffffffffffffffffffffffffffffffffffff1673ffffffffffffffffffffffffffffffffffffffff1673ffffffffffffffffffffffffffffffffffffffff1681526020019081526020016000205414610dbe576040517f08c379a00000000000000000000000000000000000000000000000000000000081526004018080602001828103825260368152602001806132466036913960400191505060405180910390fd5b6000600b60003373ffffffffffffffffffffffffffffffffffffffff1673ffffffffffffffffffffffffffffffffffffffff1681526020019081526020016000205414610e56576040517f08c379a00000000000000000000000000000000000000000000000000000000081526004018080602001828103825260328152602001806135b26032913960400191505060405180910390fd5b6001600b60003373ffffffffffffffffffffffffffffffffffffffff1673ffffffffffffffffffffffffffffffffffffffff1681526020019081526020016000208190555060066000815480929190600101919050555060016006541415610f04577f87463abc399fbbddfcd563f22d61267e4c0402b336940699382407adce42e5a26040518080602001828103825260358152602001806133ea6035913960400191505060405180910390a15b600260065414156111ef576000809054906101000a900473ffffffffffffffffffffffffffffffffffffffff1673ffffffffffffffffffffffffffffffffffffffff166108fc6005549081150290604051600060405180830381858888f19350505050158015610f78573d6000803e3d6000fd5b50600160009054906101000a900473ffffffffffffffffffffffffffffffffffffffff1673ffffffffffffffffffffffffffffffffffffffff166108fc6005549081150290604051600060405180830381858888f19350505050158015610fe3573d6000803e3d6000fd5b506000600c60008060009054906101000a900473ffffffffffffffffffffffffffffffffffffffff1673ffffffffffffffffffffffffffffffffffffffff1673ffffffffffffffffffffffffffffffffffffffff168152602001908152602001600020819055506000600c6000600160009054906101000a900473ffffffffffffffffffffffffffffffffffffffff1673ffffffffffffffffffffffffffffffffffffffff1673ffffffffffffffffffffffffffffffffffffffff168152602001908152602001600020819055506000600b60008060009054906101000a900473ffffffffffffffffffffffffffffffffffffffff1673ffffffffffffffffffffffffffffffffffffffff1673ffffffffffffffffffffffffffffffffffffffff168152602001908152602001600020819055506000600b6000600160009054906101000a900473ffffffffffffffffffffffffffffffffffffffff1673ffffffffffffffffffffffffffffffffffffffff1673ffffffffffffffffffffffffffffffffffffffff1681526020019081526020016000208190555060006006819055507fd397a3b1b662401574a4482307d3aaaa5413f8af98a7053e3473935f4d0659ed60405180806020018281038252601f8152602001807f746865206465706f736974732068617665206265656e2072657475726e65640081525060200191505060405180910390a15b50565b60088054600181600116156101000203166002900480601f0160208091040260200160405190810160405280929190818152602001828054600181600116156101000203166002900480156112885780601f1061125d57610100808354040283529160200191611288565b820191906000526020600020905b81548152906001019060200180831161126b57829003601f168201915b505050505081565b600760009054906101000a900460ff1681565b6000600b60008373ffffffffffffffffffffffffffffffffffffffff1673ffffffffffffffffffffffffffffffffffffffff168152602001908152602001600020549050919050565b600381815481106112f957fe5b906000526020600020016000915054906101000a900473ffffffffffffffffffffffffffffffffffffffff1681565b600160009054906101000a900473ffffffffffffffffffffffffffffffffffffffff1673ffffffffffffffffffffffffffffffffffffffff163373ffffffffffffffffffffffffffffffffffffffff161461138257600080fd5b60055434146113f9576040517f08c379a000000000000000000000000000000000000000000000000000000000815260040180806020018281038252600f8152602001807f496e76616c6964206465706f736974000000000000000000000000000000000081525060200191505060405180910390fd5b6000600c60003373ffffffffffffffffffffffffffffffffffffffff1673ffffffffffffffffffffffffffffffffffffffff16815260200190815260200160002054146114ae576040517f08c379a00000000000000000000000000000000000000000000000000000000081526004018080602001828103825260188152602001807f53656c6c657220616c7265616479206465706f7369746564000000000000000081525060200191505060405180910390fd5b6001600c60003373ffffffffffffffffffffffffffffffffffffffff1673ffffffffffffffffffffffffffffffffffffffff168152602001908152602001600020819055507feaa52bf3f740eaa050012695cd117e2182b5c032c7fc36dbcdfc74189f68ab2e3334604051808373ffffffffffffffffffffffffffffffffffffffff1673ffffffffffffffffffffffffffffffffffffffff16815260200180602001838152602001828103825260208152602001807f686173206d61646520746865207265717569726564206465706f736974206f66815250602001935050505060405180910390a1565b600d6020528060005260406000206000915090505481565b60008060009054906101000a900473ffffffffffffffffffffffffffffffffffffffff16905090565b8060011515811515146115ec57600080fd5b60006103e8600f60055402816115fe57fe5b04905060008160026005548161161057fe5b04039050600082600554039050600260009054906101000a900473ffffffffffffffffffffffffffffffffffffffff1673ffffffffffffffffffffffffffffffffffffffff166108fc829081150290604051600060405180830381858888f19350505050158015611685573d6000803e3d6000fd5b506001600c60008060009054906101000a900473ffffffffffffffffffffffffffffffffffffffff1673ffffffffffffffffffffffffffffffffffffffff1673ffffffffffffffffffffffffffffffffffffffff1681526020019081526020016000205414156117be576000809054906101000a900473ffffffffffffffffffffffffffffffffffffffff1673ffffffffffffffffffffffffffffffffffffffff166108fc839081150290604051600060405180830381858888f19350505050158015611756573d6000803e3d6000fd5b506000600c60008060009054906101000a900473ffffffffffffffffffffffffffffffffffffffff1673ffffffffffffffffffffffffffffffffffffffff1673ffffffffffffffffffffffffffffffffffffffff168152602001908152602001600020819055505b6001600c6000600160009054906101000a900473ffffffffffffffffffffffffffffffffffffffff1673ffffffffffffffffffffffffffffffffffffffff1673ffffffffffffffffffffffffffffffffffffffff1681526020019081526020016000205414156118f957600160009054906101000a900473ffffffffffffffffffffffffffffffffffffffff1673ffffffffffffffffffffffffffffffffffffffff166108fc839081150290604051600060405180830381858888f19350505050158015611890573d6000803e3d6000fd5b506000600c6000600160009054906101000a900473ffffffffffffffffffffffffffffffffffffffff1673ffffffffffffffffffffffffffffffffffffffff1673ffffffffffffffffffffffffffffffffffffffff168152602001908152602001600020819055505b6001600d60008060009054906101000a900473ffffffffffffffffffffffffffffffffffffffff1673ffffffffffffffffffffffffffffffffffffffff1673ffffffffffffffffffffffffffffffffffffffff168152602001908152602001600020541415611a33576000809054906101000a900473ffffffffffffffffffffffffffffffffffffffff1673ffffffffffffffffffffffffffffffffffffffff166108fc6004549081150290604051600060405180830381858888f193505050501580156119cb573d6000803e3d6000fd5b506000600d60008060009054906101000a900473ffffffffffffffffffffffffffffffffffffffff1673ffffffffffffffffffffffffffffffffffffffff1673ffffffffffffffffffffffffffffffffffffffff168152602001908152602001600020819055505b7f2b8a5a9da82f2787db14bf47f6b82c3b647370a8f06e6f9bad17117d3022100e6040518080602001828103825260608152602001806135526060913960600191505060405180910390a15050505050565b600047905090565b6000809054906101000a900473ffffffffffffffffffffffffffffffffffffffff1681565b6000600d60008373ffffffffffffffffffffffffffffffffffffffff1673ffffffffffffffffffffffffffffffffffffffff168152602001908152602001600020549050919050565b600960009054906101000a900460ff1681565b6000600654905090565b6000809054906101000a900473ffffffffffffffffffffffffffffffffffffffff1673ffffffffffffffffffffffffffffffffffffffff163373ffffffffffffffffffffffffffffffffffffffff1614611b7157600080fd5b6004543414611be8576040517f08c379a000000000000000000000000000000000000000000000000000000000815260040180806020018281038252600e8152602001807f496e76616c696420616d6f756e7400000000000000000000000000000000000081525060200191505060405180910390fd5b6001600c60008060009054906101000a900473ffffffffffffffffffffffffffffffffffffffff1673ffffffffffffffffffffffffffffffffffffffff1673ffffffffffffffffffffffffffffffffffffffff1681526020019081526020016000205414611cbe576040517f08c379a000000000000000000000000000000000000000000000000000000000815260040180806020018281038252601f8152602001807f74686520627579657220686173206e6f74206465706f7369746564207965740081525060200191505060405180910390fd5b6001600c6000600160009054906101000a900473ffffffffffffffffffffffffffffffffffffffff1673ffffffffffffffffffffffffffffffffffffffff1673ffffffffffffffffffffffffffffffffffffffff1681526020019081526020016000205414611d95576040517f08c379a00000000000000000000000000000000000000000000000000000000081526004018080602001828103825260208152602001807f7468652073656c6c657220686173206e6f74206465706f73697465642079657481525060200191505060405180910390fd5b6000600d60003373ffffffffffffffffffffffffffffffffffffffff1673ffffffffffffffffffffffffffffffffffffffff1681526020019081526020016000205414611e2d576040517f08c379a00000000000000000000000000000000000000000000000000000000081526004018080602001828103825260258152602001806133906025913960400191505060405180910390fd5b6001600d60003373ffffffffffffffffffffffffffffffffffffffff1673ffffffffffffffffffffffffffffffffffffffff168152602001908152602001600020819055507fdbafb049923bd24c9143b7aea787bb9133f12c9bc10e8ff7f1be6e2f13028c9760405180806020018281038252602f81526020018061341f602f913960400191505060405180910390a1565b600260009054906101000a900473ffffffffffffffffffffffffffffffffffffffff1681565b6000809054906101000a900473ffffffffffffffffffffffffffffffffffffffff1673ffffffffffffffffffffffffffffffffffffffff163373ffffffffffffffffffffffffffffffffffffffff1614611f3e57600080fd5b6005543414611fb5576040517f08c379a000000000000000000000000000000000000000000000000000000000815260040180806020018281038252600f8152602001807f496e76616c6964206465706f736974000000000000000000000000000000000081525060200191505060405180910390fd5b6000600c60003373ffffffffffffffffffffffffffffffffffffffff1673ffffffffffffffffffffffffffffffffffffffff168152602001908152602001600020541461206a576040517f08c379a00000000000000000000000000000000000000000000000000000000081526004018080602001828103825260178152602001807f427579657220616c7265616479206465706f736974656400000000000000000081525060200191505060405180910390fd5b6001600c60003373ffffffffffffffffffffffffffffffffffffffff1673ffffffffffffffffffffffffffffffffffffffff168152602001908152602001600020819055507f0109c07b399c647a3567815a956a02e0badfd3ed527a3fdb992031fae5d005f93334604051808373ffffffffffffffffffffffffffffffffffffffff1673ffffffffffffffffffffffffffffffffffffffff16815260200180602001838152602001828103825260208152602001807f686173206d61646520746865207265717569726564206465706f736974206f66815250602001935050505060405180910390a1565b6000809054906101000a900473ffffffffffffffffffffffffffffffffffffffff1673ffffffffffffffffffffffffffffffffffffffff163373ffffffffffffffffffffffffffffffffffffffff16146121ae57600080fd5b6001600c60008060009054906101000a900473ffffffffffffffffffffffffffffffffffffffff1673ffffffffffffffffffffffffffffffffffffffff1673ffffffffffffffffffffffffffffffffffffffff1681526020019081526020016000205414612284576040517f08c379a000000000000000000000000000000000000000000000000000000000815260040180806020018281038252601f8152602001807f74686520627579657220686173206e6f74206465706f7369746564207965740081525060200191505060405180910390fd5b6001600c6000600160009054906101000a900473ffffffffffffffffffffffffffffffffffffffff1673ffffffffffffffffffffffffffffffffffffffff1673ffffffffffffffffffffffffffffffffffffffff168152602001908152602001600020541461235b576040517f08c379a00000000000000000000000000000000000000000000000000000000081526004018080602001828103825260208152602001807f7468652073656c6c657220686173206e6f74206465706f73697465642079657481525060200191505060405180910390fd5b6001600d60008060009054906101000a900473ffffffffffffffffffffffffffffffffffffffff1673ffffffffffffffffffffffffffffffffffffffff1673ffffffffffffffffffffffffffffffffffffffff1681526020019081526020016000205414612414576040517f08c379a000000000000000000000000000000000000000000000000000000000815260040180806020018281038252602581526020018061344e6025913960400191505060405180910390fd5b6001600960006101000a81548160ff021916908315150217905550600160009054906101000a900473ffffffffffffffffffffffffffffffffffffffff1673ffffffffffffffffffffffffffffffffffffffff166108fc6004549081150290604051600060405180830381858888f19350505050158015612499573d6000803e3d6000fd5b506000809054906101000a900473ffffffffffffffffffffffffffffffffffffffff1673ffffffffffffffffffffffffffffffffffffffff166108fc6005549081150290604051600060405180830381858888f19350505050158015612503573d6000803e3d6000fd5b50600160009054906101000a900473ffffffffffffffffffffffffffffffffffffffff1673ffffffffffffffffffffffffffffffffffffffff166108fc6005549081150290604051600060405180830381858888f1935050505015801561256e573d6000803e3d6000fd5b507fd54aabd3141f0694c3f533b346119d27c2eb3248d4f866d6bd8299c78b128daf6040518080602001828103825260538152602001806132d46053913960600191505060405180910390a1565b6000600960009054906101000a900460ff16905090565b60045481565b600c6020528060005260406000206000915090505481565b606060088054600181600116156101000203166002900480601f0160208091040260200160405190810160405280929190818152602001828054600181600116156101000203166002900480156126895780601f1061265e57610100808354040283529160200191612689565b820191906000526020600020905b81548152906001019060200180831161266c57829003601f168201915b5050505050905090565b6000809054906101000a900473ffffffffffffffffffffffffffffffffffffffff1673ffffffffffffffffffffffffffffffffffffffff163373ffffffffffffffffffffffffffffffffffffffff16146126ec57600080fd5b6001600c60008060009054906101000a900473ffffffffffffffffffffffffffffffffffffffff1673ffffffffffffffffffffffffffffffffffffffff1673ffffffffffffffffffffffffffffffffffffffff16815260200190815260200160002054146127a5576040517f08c379a00000000000000000000000000000000000000000000000000000000081526004018080602001828103825260328152602001806134ca6032913960400191505060405180910390fd5b6000600c6000600160009054906101000a900473ffffffffffffffffffffffffffffffffffffffff1673ffffffffffffffffffffffffffffffffffffffff1673ffffffffffffffffffffffffffffffffffffffff168152602001908152602001600020541461285f576040517f08c379a00000000000000000000000000000000000000000000000000000000081526004018080602001828103825260368152602001806133276036913960400191505060405180910390fd5b6000600c60008060009054906101000a900473ffffffffffffffffffffffffffffffffffffffff1673ffffffffffffffffffffffffffffffffffffffff1673ffffffffffffffffffffffffffffffffffffffff168152602001908152602001600020819055506000809054906101000a900473ffffffffffffffffffffffffffffffffffffffff1673ffffffffffffffffffffffffffffffffffffffff166108fc6005549081150290604051600060405180830381858888f1935050505015801561292e573d6000803e3d6000fd5b507f022a173fa68fb425cd1264890a0951b5a57aa7f1fcdc49e3262e86c1189ec9b160405180806020018281038252602481526020018061352e6024913960400191505060405180910390a1565b60606000600281111561298b57fe5b600760009054906101000a900460ff1660028111156129a657fe5b14156129e9576040518060400160405280600481526020017f4f70656e000000000000000000000000000000000000000000000000000000008152509050612a8d565b600160028111156129f657fe5b600760009054906101000a900460ff166002811115612a1157fe5b1415612a54576040518060400160405280600781526020017f50656e64696e67000000000000000000000000000000000000000000000000008152509050612a8d565b6040518060400160405280600681526020017f436c6f736564000000000000000000000000000000000000000000000000000081525090505b90565b6000600554905090565b600b6020528060005260406000206000915090505481565b60055481565b6000600454905090565b6000600160009054906101000a900473ffffffffffffffffffffffffffffffffffffffff16905090565b60065481565b600160009054906101000a900473ffffffffffffffffffffffffffffffffffffffff1673ffffffffffffffffffffffffffffffffffffffff163373ffffffffffffffffffffffffffffffffffffffff1614612b4c57600080fd5b6001600c60008060009054906101000a900473ffffffffffffffffffffffffffffffffffffffff1673ffffffffffffffffffffffffffffffffffffffff1673ffffffffffffffffffffffffffffffffffffffff1681526020019081526020016000205414612c22576040517f08c379a000000000000000000000000000000000000000000000000000000000815260040180806020018281038252601f8152602001807f74686520627579657220686173206e6f74206465706f7369746564207965740081525060200191505060405180910390fd5b6001600c6000600160009054906101000a900473ffffffffffffffffffffffffffffffffffffffff1673ffffffffffffffffffffffffffffffffffffffff1673ffffffffffffffffffffffffffffffffffffffff1681526020019081526020016000205414612cf9576040517f08c379a00000000000000000000000000000000000000000000000000000000081526004018080602001828103825260208152602001807f7468652073656c6c657220686173206e6f74206465706f73697465642079657481525060200191505060405180910390fd5b6001600d60008060009054906101000a900473ffffffffffffffffffffffffffffffffffffffff1673ffffffffffffffffffffffffffffffffffffffff1673ffffffffffffffffffffffffffffffffffffffff1681526020019081526020016000205414612db2576040517f08c379a000000000000000000000000000000000000000000000000000000000815260040180806020018281038252602581526020018061344e6025913960400191505060405180910390fd5b6001600960006101000a81548160ff0219169083151502179055506000809054906101000a900473ffffffffffffffffffffffffffffffffffffffff1673ffffffffffffffffffffffffffffffffffffffff166108fc6004549081150290604051600060405180830381858888f19350505050158015612e36573d6000803e3d6000fd5b50600160009054906101000a900473ffffffffffffffffffffffffffffffffffffffff1673ffffffffffffffffffffffffffffffffffffffff166108fc6005549081150290604051600060405180830381858888f19350505050158015612ea1573d6000803e3d6000fd5b506000809054906101000a900473ffffffffffffffffffffffffffffffffffffffff1673ffffffffffffffffffffffffffffffffffffffff166108fc6005549081150290604051600060405180830381858888f19350505050158015612f0b573d6000803e3d6000fd5b507f1355ee9ef69549a50f8d0008c6cd588a9759815d1b30ee62ed168c2bb7a24a626040518080602001828103825260578152602001806134736057913960600191505060405180910390a1565b600160009054906101000a900473ffffffffffffffffffffffffffffffffffffffff1673ffffffffffffffffffffffffffffffffffffffff163373ffffffffffffffffffffffffffffffffffffffff1614612fb357600080fd5b6001600c6000600160009054906101000a900473ffffffffffffffffffffffffffffffffffffffff1673ffffffffffffffffffffffffffffffffffffffff1673ffffffffffffffffffffffffffffffffffffffff168152602001908152602001600020541461306d576040517f08c379a000000000000000000000000000000000000000000000000000000000815260040180806020018281038252603381526020018061335d6033913960400191505060405180910390fd5b6000600c60008060009054906101000a900473ffffffffffffffffffffffffffffffffffffffff1673ffffffffffffffffffffffffffffffffffffffff1673ffffffffffffffffffffffffffffffffffffffff1681526020019081526020016000205414613126576040517f08c379a00000000000000000000000000000000000000000000000000000000081526004018080602001828103825260358152602001806133b56035913960400191505060405180910390fd5b6000600c6000600160009054906101000a900473ffffffffffffffffffffffffffffffffffffffff1673ffffffffffffffffffffffffffffffffffffffff1673ffffffffffffffffffffffffffffffffffffffff16815260200190815260200160002081905550600160009054906101000a900473ffffffffffffffffffffffffffffffffffffffff1673ffffffffffffffffffffffffffffffffffffffff166108fc6005549081150290604051600060405180830381858888f193505050501580156131f7573d6000803e3d6000fd5b507f68899ad50909030043672ec750f7e234201226c34f9efa036d99c5432d220a396040518080602001828103825260258152602001806132af6025913960400191505060405180910390a156fe7468652062757965722068617320616c72656164792073656e7420616e20616d6f756e7420666f7220636c61696d4465706f736974737468652073656c6c657220686173206e6f74206d6164652061206465706f73697420666f7220636c61696d4465706f736974737468652073656c6c657220686173207265766572736564207468656972206465706f7369745468652073656c6c657220686173206265656e207061696420616e6420616c6c206465706f736974732068617665206265656e2072657475726e6564202d207472616e73616374696f6e20636f6d706c6574657468652073656c6c657220686173206465706f736974656420616c72656164792043414e4e4f5420726576657273654465706f7369747468652073656c6c657220686173206e6f7420646573706f73697465642043414e4e4f5420726576657273654465706f7369747468652062757965722068617320616c72656164792073656e642074686520616d6f756e7474686520627579657220686173206465706f736974656420616c72656164792043414e4e4f5420726576657273654465706f736974746865206465706f73697420636c61696d206861732031206f7574206f662032206e6563657373617279207369676e6174757265734275796572206861732073656e7420746865207061796d656e7420616d6f756e7420746f2074686520657363726f7774686520627579657220686173206e6f742073656e742074686520616d6f756e742079657454686520627579657220686173206265656e20726566756e64656420616e6420616c6c206465706f736974732068617665206265656e2072657475726e6564202d207472616e73616374696f6e2063616e63656c6c656474686520627579657220686173206e6f7420646573706f73697465642043414e4e4f5420726576657273654465706f73697474686520627579657220686173206e6f74206d6164652061206465706f73697420666f7220636c61696d4465706f7369747374686520627579657220686173207265766572736564207468656972206465706f73697454686520636f6e747261637420686173206265656e20636f6d706c6574656c792072657665727465642062792061646d696e2e20416c6c206465706f7369747320616e6420616d6f756e74732068617665206265656e20726566756e6465642e7468652073656e646572206861766520616c7265616479207369676e6564206f6666206f6e20636c61696d4465706f736974a265627a7a72315820f5689e894f6314e9112cea47c510c91812d11c43b553cca8895550de19c0c2f964736f6c63430005100032a365627a7a72315820dd5ee1352b32a6bdb56ec5b3aaceeef95ea9f0469eb2f08f6b975b0fe502d5cd6c6578706572696d656e74616cf564736f6c63430005100040",
  "source": "pragma solidity ^0.5.16;\npragma experimental ABIEncoderV2;\n\nimport \"./EscrowFactory.sol\";\n\ncontract EscrowExchange {\n\tuint public contractCount = 0;\n\taddress payable public owner;\n\tmapping(address => bool) public isAdmin;\n\tmapping(address => uint[]) public addressToIndex;\n\tmapping(address => mapping(uint => bool)) public addressContractIndexExists;\n\tmapping(uint => EscrowFactory) public contractIndexesForUsers;\n\n\tmodifier isAdministrator() {\n        require(msg.sender == owner || isAdmin[msg.sender] == true, \"only an administrator is allowed to run this function\");\n        _;\n    }\n\n\tevent ContractCreated(address buyer, address seller, uint amount, uint deposit, uint signatureCount, string status, string notes, bool depositMade);\n\n\tconstructor() public {\n\t\towner = msg.sender;\n\t}\n\n\tfunction getContractForCurrentUser(uint index) public view returns (address, address, uint, uint, uint, string memory, string memory, uint, uint, uint, address){\n\t\tif (addressContractIndexExists[msg.sender][index]) {\n\t \t\tEscrowFactory retrieved_contract = contractIndexesForUsers[index];\n\t\t\n\t \t\taddress seller = retrieved_contract.getSeller();\n\t \t\taddress buyer = retrieved_contract.getBuyer();\n\n\t        return (buyer, \n\t        \tseller, \n\t        \tretrieved_contract.getAmount(), \n\t        \tretrieved_contract.getDeposit(), \n\t        \tretrieved_contract.getSignatureCount(),\n\t        \tretrieved_contract.getContractStatus(), \n\t        \tretrieved_contract.getNotes(),\n\t        \tretrieved_contract.getIfAddressDeposited(msg.sender),\n\t        \tretrieved_contract.getAmountCheck(buyer),\n\t        \tretrieved_contract.getSignature(msg.sender),\n\t        \taddress(retrieved_contract)\n\t        );\n\t\t}\n    }\n\n    function getContractCountForCurrentUser() external view returns (uint) {\n    \tif (addressToIndex[msg.sender].length == 0) {\n    \t\treturn 0;\n    \t} else if (addressToIndex[msg.sender].length == 1) {\n    \t\treturn addressToIndex[msg.sender].length;\n    \t} else {\n\t    \tuint lastContractId = addressToIndex[msg.sender].length; // Get the length of the user's uint addressToIndex (array of contracts)\n\t\t    return addressToIndex[msg.sender][lastContractId - 1] + 1; // To access the last contract id user made, so we don't have to iterate entire contract array. We do +1 to take into account the user's last contract.\n    \t}\n\t }\n\n    function createContract(address payable buyer, address payable seller, uint amount, uint deposit, string memory notes) public {\n    \trequire(buyer != address(0), \"Invalid buyer address\");\n    \trequire(seller != address(0), \"Invalid seller address\");\n    \trequire(amount > 0);\n    \trequire(deposit > 0);\n    \tEscrowFactory newContract = new EscrowFactory(buyer, seller, amount, deposit, notes, owner);\n    \tcontractIndexesForUsers[contractCount] = newContract;\n    \taddressToIndex[buyer].push(contractCount);\n    \taddressToIndex[seller].push(contractCount);\n    \taddressContractIndexExists[buyer][contractCount] = true;\n    \taddressContractIndexExists[seller][contractCount] = true;\n    \tcontractCount = contractCount + 1;\n\n    \temit ContractCreated(buyer, seller, amount, deposit, 0, \"Open\", notes, false);\n    }\n\n    function adminReverseContract(uint index) public isAdministrator{\n    \tEscrowFactory retrieved_contract = contractIndexesForUsers[index];\n    \tretrieved_contract.adminReverseContract(true); // Write a function from web3 that if gas > contract value, this function can't be ran.\n    }\n\n    function setAdmin(bool state, address newAdmin) public isAdministrator {\n    \tisAdmin[newAdmin] = state;\n    }\n\n    function getAdmin(address admin) public view returns (bool) {\n    \treturn isAdmin[admin];\n    }\n}",
  "sourcePath": "/Users/donaldlee/Developer/PointsExchange/contracts/EscrowExchange.sol",
  "compiler": {
    "name": "solc",
    "version": "0.5.16+commit.9c3226ce.Emscripten.clang"
  },
  "schemaVersion": "3.3.3",
  "updatedAt": "2021-07-06T01:43:45.024Z",
  "networkType": "ethereum",
  "devdoc": {
    "methods": {}
  },
  "userdoc": {
    "methods": {}
  }
}