{
  "contractName": "Escrow",
  "abi": [
    {
      "inputs": [
        {
          "internalType": "address payable",
          "name": "_buyer",
          "type": "address"
        },
        {
          "internalType": "address payable",
          "name": "_seller",
          "type": "address"
        },
        {
          "internalType": "uint256",
          "name": "_amount",
          "type": "uint256"
        },
        {
          "internalType": "uint256",
          "name": "_deposit",
          "type": "uint256"
        }
      ],
      "payable": false,
      "stateMutability": "nonpayable",
      "type": "constructor"
    },
    {
      "anonymous": false,
      "inputs": [
        {
          "indexed": false,
          "internalType": "string",
          "name": "msg",
          "type": "string"
        }
      ],
      "name": "AmountSent",
      "type": "event"
    },
    {
      "anonymous": false,
      "inputs": [
        {
          "indexed": false,
          "internalType": "string",
          "name": "msg",
          "type": "string"
        }
      ],
      "name": "BuyerDepositReversed",
      "type": "event"
    },
    {
      "anonymous": false,
      "inputs": [
        {
          "indexed": false,
          "internalType": "address",
          "name": "from",
          "type": "address"
        },
        {
          "indexed": false,
          "internalType": "string",
          "name": "msg",
          "type": "string"
        },
        {
          "indexed": false,
          "internalType": "uint256",
          "name": "amount",
          "type": "uint256"
        }
      ],
      "name": "BuyerDeposited",
      "type": "event"
    },
    {
      "anonymous": false,
      "inputs": [
        {
          "indexed": false,
          "internalType": "string",
          "name": "msg",
          "type": "string"
        }
      ],
      "name": "BuyerRefunded",
      "type": "event"
    },
    {
      "anonymous": false,
      "inputs": [
        {
          "indexed": false,
          "internalType": "string",
          "name": "msg",
          "type": "string"
        }
      ],
      "name": "DepositPartialClaim",
      "type": "event"
    },
    {
      "anonymous": false,
      "inputs": [
        {
          "indexed": false,
          "internalType": "string",
          "name": "msg",
          "type": "string"
        }
      ],
      "name": "DepositsClaimed",
      "type": "event"
    },
    {
      "anonymous": false,
      "inputs": [
        {
          "indexed": false,
          "internalType": "string",
          "name": "msg",
          "type": "string"
        }
      ],
      "name": "SellerDepositReversed",
      "type": "event"
    },
    {
      "anonymous": false,
      "inputs": [
        {
          "indexed": false,
          "internalType": "address",
          "name": "from",
          "type": "address"
        },
        {
          "indexed": false,
          "internalType": "string",
          "name": "msg",
          "type": "string"
        },
        {
          "indexed": false,
          "internalType": "uint256",
          "name": "amount",
          "type": "uint256"
        }
      ],
      "name": "SellerDeposited",
      "type": "event"
    },
    {
      "anonymous": false,
      "inputs": [
        {
          "indexed": false,
          "internalType": "string",
          "name": "msg",
          "type": "string"
        }
      ],
      "name": "SellerPaid",
      "type": "event"
    },
    {
      "constant": true,
      "inputs": [],
      "name": "amount",
      "outputs": [
        {
          "internalType": "uint256",
          "name": "",
          "type": "uint256"
        }
      ],
      "payable": false,
      "stateMutability": "view",
      "type": "function"
    },
    {
      "constant": true,
      "inputs": [],
      "name": "buyer",
      "outputs": [
        {
          "internalType": "address payable",
          "name": "",
          "type": "address"
        }
      ],
      "payable": false,
      "stateMutability": "view",
      "type": "function"
    },
    {
      "constant": true,
      "inputs": [],
      "name": "deposit",
      "outputs": [
        {
          "internalType": "uint256",
          "name": "",
          "type": "uint256"
        }
      ],
      "payable": false,
      "stateMutability": "view",
      "type": "function"
    },
    {
      "constant": true,
      "inputs": [
        {
          "internalType": "uint256",
          "name": "",
          "type": "uint256"
        }
      ],
      "name": "party",
      "outputs": [
        {
          "internalType": "address",
          "name": "",
          "type": "address"
        }
      ],
      "payable": false,
      "stateMutability": "view",
      "type": "function"
    },
    {
      "constant": true,
      "inputs": [],
      "name": "seller",
      "outputs": [
        {
          "internalType": "address payable",
          "name": "",
          "type": "address"
        }
      ],
      "payable": false,
      "stateMutability": "view",
      "type": "function"
    },
    {
      "constant": true,
      "inputs": [],
      "name": "signatureCount",
      "outputs": [
        {
          "internalType": "uint256",
          "name": "",
          "type": "uint256"
        }
      ],
      "payable": false,
      "stateMutability": "view",
      "type": "function"
    },
    {
      "constant": false,
      "inputs": [],
      "name": "buyerDeposit",
      "outputs": [],
      "payable": true,
      "stateMutability": "payable",
      "type": "function"
    },
    {
      "constant": false,
      "inputs": [],
      "name": "sellerDeposit",
      "outputs": [],
      "payable": true,
      "stateMutability": "payable",
      "type": "function"
    },
    {
      "constant": false,
      "inputs": [],
      "name": "reverseBuyerDeposit",
      "outputs": [],
      "payable": false,
      "stateMutability": "nonpayable",
      "type": "function"
    },
    {
      "constant": false,
      "inputs": [],
      "name": "reverseSellerDeposit",
      "outputs": [],
      "payable": false,
      "stateMutability": "nonpayable",
      "type": "function"
    },
    {
      "constant": false,
      "inputs": [],
      "name": "claimDeposits",
      "outputs": [],
      "payable": false,
      "stateMutability": "nonpayable",
      "type": "function"
    },
    {
      "constant": false,
      "inputs": [],
      "name": "sendAmount",
      "outputs": [],
      "payable": true,
      "stateMutability": "payable",
      "type": "function"
    },
    {
      "constant": false,
      "inputs": [],
      "name": "paySeller",
      "outputs": [],
      "payable": false,
      "stateMutability": "nonpayable",
      "type": "function"
    },
    {
      "constant": false,
      "inputs": [],
      "name": "refundBuyer",
      "outputs": [],
      "payable": false,
      "stateMutability": "nonpayable",
      "type": "function"
    }
  ],
  "bytecode": "0x60806040523480156200001157600080fd5b5060405162001f2f38038062001f2f833981810160405260808110156200003757600080fd5b8101908080519060200190929190805190602001909291908051906020019092919080519060200190929190505050836000806101000a81548173ffffffffffffffffffffffffffffffffffffffff021916908373ffffffffffffffffffffffffffffffffffffffff16021790555082600160006101000a81548173ffffffffffffffffffffffffffffffffffffffff021916908373ffffffffffffffffffffffffffffffffffffffff16021790555062000109670de0b6b3a764000083620002bd60201b62001a751790919060201c565b60038190555062000131670de0b6b3a764000082620002bd60201b62001a751790919060201c565b60048190555060028490806001815401808255809150509060018203906000526020600020016000909192909190916101000a81548173ffffffffffffffffffffffffffffffffffffffff021916908373ffffffffffffffffffffffffffffffffffffffff1602179055505060028390806001815401808255809150509060018203906000526020600020016000909192909190916101000a81548173ffffffffffffffffffffffffffffffffffffffff021916908373ffffffffffffffffffffffffffffffffffffffff160217905550506001600660008673ffffffffffffffffffffffffffffffffffffffff1673ffffffffffffffffffffffffffffffffffffffff16815260200190815260200160002060006101000a81548160ff0219169083151502179055506001600660008573ffffffffffffffffffffffffffffffffffffffff1673ffffffffffffffffffffffffffffffffffffffff16815260200190815260200160002060006101000a81548160ff02191690831515021790555050505050620002ef565b60008082840290506000841480620002de575082848281620002db57fe5b04145b620002e557fe5b8091505092915050565b611c3080620002ff6000396000f3fe6080604052600436106100dd5760003560e01c8063a0c97bce1161007f578063d0e30db011610059578063d0e30db014610299578063e7f55ed6146102c4578063e8a61cc8146102ef578063f8fe988914610306576100dd565b8063a0c97bce14610240578063aa8c217c14610257578063be7e69fd14610282576100dd565b80634c1786ea116100bb5780634c1786ea146101cb5780637150d8ae146101d55780638b2b3d8b1461022c578063a057958714610236576100dd565b806308551a53146100e25780631432c28114610139578063314fd68f14610150575b600080fd5b3480156100ee57600080fd5b506100f761031d565b604051808273ffffffffffffffffffffffffffffffffffffffff1673ffffffffffffffffffffffffffffffffffffffff16815260200191505060405180910390f35b34801561014557600080fd5b5061014e610343565b005b34801561015c57600080fd5b506101896004803603602081101561017357600080fd5b81019080803590602001909291905050506108ca565b604051808273ffffffffffffffffffffffffffffffffffffffff1673ffffffffffffffffffffffffffffffffffffffff16815260200191505060405180910390f35b6101d3610906565b005b3480156101e157600080fd5b506101ea610aa5565b604051808273ffffffffffffffffffffffffffffffffffffffff1673ffffffffffffffffffffffffffffffffffffffff16815260200191505060405180910390f35b610234610aca565b005b61023e610cea565b005b34801561024c57600080fd5b50610255610e88565b005b34801561026357600080fd5b5061026c6111b6565b6040518082815260200191505060405180910390f35b34801561028e57600080fd5b506102976111bc565b005b3480156102a557600080fd5b506102ae61147a565b6040518082815260200191505060405180910390f35b3480156102d057600080fd5b506102d9611480565b6040518082815260200191505060405180910390f35b3480156102fb57600080fd5b50610304611486565b005b34801561031257600080fd5b5061031b6117b4565b005b600160009054906101000a900473ffffffffffffffffffffffffffffffffffffffff1681565b33600660008273ffffffffffffffffffffffffffffffffffffffff1673ffffffffffffffffffffffffffffffffffffffff16815260200190815260200160002060009054906101000a900460ff1661039a57600080fd5b6001600860008060009054906101000a900473ffffffffffffffffffffffffffffffffffffffff1673ffffffffffffffffffffffffffffffffffffffff1673ffffffffffffffffffffffffffffffffffffffff168152602001908152602001600020541461040757600080fd5b600160086000600160009054906101000a900473ffffffffffffffffffffffffffffffffffffffff1673ffffffffffffffffffffffffffffffffffffffff1673ffffffffffffffffffffffffffffffffffffffff168152602001908152602001600020541461047557600080fd5b6000600960008060009054906101000a900473ffffffffffffffffffffffffffffffffffffffff1673ffffffffffffffffffffffffffffffffffffffff1673ffffffffffffffffffffffffffffffffffffffff16815260200190815260200160002054146104e257600080fd5b6000600760003373ffffffffffffffffffffffffffffffffffffffff1673ffffffffffffffffffffffffffffffffffffffff168152602001908152602001600020541461052e57600080fd5b6001600760003373ffffffffffffffffffffffffffffffffffffffff1673ffffffffffffffffffffffffffffffffffffffff16815260200190815260200160002081905550600560008154809291906001019190505550600160055414156105dc577f87463abc399fbbddfcd563f22d61267e4c0402b336940699382407adce42e5a2604051808060200182810382526035815260200180611b1d6035913960400191505060405180910390a15b600260055414156108c7576000809054906101000a900473ffffffffffffffffffffffffffffffffffffffff1673ffffffffffffffffffffffffffffffffffffffff166108fc6004549081150290604051600060405180830381858888f19350505050158015610650573d6000803e3d6000fd5b50600160009054906101000a900473ffffffffffffffffffffffffffffffffffffffff1673ffffffffffffffffffffffffffffffffffffffff166108fc6004549081150290604051600060405180830381858888f193505050501580156106bb573d6000803e3d6000fd5b506000600860008060009054906101000a900473ffffffffffffffffffffffffffffffffffffffff1673ffffffffffffffffffffffffffffffffffffffff1673ffffffffffffffffffffffffffffffffffffffff16815260200190815260200160002081905550600060086000600160009054906101000a900473ffffffffffffffffffffffffffffffffffffffff1673ffffffffffffffffffffffffffffffffffffffff1673ffffffffffffffffffffffffffffffffffffffff168152602001908152602001600020819055506000600760008060009054906101000a900473ffffffffffffffffffffffffffffffffffffffff1673ffffffffffffffffffffffffffffffffffffffff1673ffffffffffffffffffffffffffffffffffffffff16815260200190815260200160002081905550600060076000600160009054906101000a900473ffffffffffffffffffffffffffffffffffffffff1673ffffffffffffffffffffffffffffffffffffffff1673ffffffffffffffffffffffffffffffffffffffff1681526020019081526020016000208190555060006005819055507fd397a3b1b662401574a4482307d3aaaa5413f8af98a7053e3473935f4d0659ed60405180806020018281038252601f8152602001807f746865206465706f736974732068617665206265656e2072657475726e65640081525060200191505060405180910390a15b50565b600281815481106108d757fe5b906000526020600020016000915054906101000a900473ffffffffffffffffffffffffffffffffffffffff1681565b600160009054906101000a900473ffffffffffffffffffffffffffffffffffffffff1673ffffffffffffffffffffffffffffffffffffffff163373ffffffffffffffffffffffffffffffffffffffff161461096057600080fd5b600454341461096e57600080fd5b6000600860003373ffffffffffffffffffffffffffffffffffffffff1673ffffffffffffffffffffffffffffffffffffffff16815260200190815260200160002054146109ba57600080fd5b6001600860003373ffffffffffffffffffffffffffffffffffffffff1673ffffffffffffffffffffffffffffffffffffffff168152602001908152602001600020819055507feaa52bf3f740eaa050012695cd117e2182b5c032c7fc36dbcdfc74189f68ab2e3334604051808373ffffffffffffffffffffffffffffffffffffffff1673ffffffffffffffffffffffffffffffffffffffff16815260200180602001838152602001828103825260208152602001807f686173206d61646520746865207265717569726564206465706f736974206f66815250602001935050505060405180910390a1565b6000809054906101000a900473ffffffffffffffffffffffffffffffffffffffff1681565b6000809054906101000a900473ffffffffffffffffffffffffffffffffffffffff1673ffffffffffffffffffffffffffffffffffffffff163373ffffffffffffffffffffffffffffffffffffffff1614610b2357600080fd5b6003543414610b3157600080fd5b6001600860008060009054906101000a900473ffffffffffffffffffffffffffffffffffffffff1673ffffffffffffffffffffffffffffffffffffffff1673ffffffffffffffffffffffffffffffffffffffff1681526020019081526020016000205414610b9e57600080fd5b600160086000600160009054906101000a900473ffffffffffffffffffffffffffffffffffffffff1673ffffffffffffffffffffffffffffffffffffffff1673ffffffffffffffffffffffffffffffffffffffff1681526020019081526020016000205414610c0c57600080fd5b6000600960003373ffffffffffffffffffffffffffffffffffffffff1673ffffffffffffffffffffffffffffffffffffffff1681526020019081526020016000205414610c5857600080fd5b6001600960003373ffffffffffffffffffffffffffffffffffffffff1673ffffffffffffffffffffffffffffffffffffffff168152602001908152602001600020819055507fdbafb049923bd24c9143b7aea787bb9133f12c9bc10e8ff7f1be6e2f13028c9760405180806020018281038252602f815260200180611b52602f913960400191505060405180910390a1565b6000809054906101000a900473ffffffffffffffffffffffffffffffffffffffff1673ffffffffffffffffffffffffffffffffffffffff163373ffffffffffffffffffffffffffffffffffffffff1614610d4357600080fd5b6004543414610d5157600080fd5b6000600860003373ffffffffffffffffffffffffffffffffffffffff1673ffffffffffffffffffffffffffffffffffffffff1681526020019081526020016000205414610d9d57600080fd5b6001600860003373ffffffffffffffffffffffffffffffffffffffff1673ffffffffffffffffffffffffffffffffffffffff168152602001908152602001600020819055507f0109c07b399c647a3567815a956a02e0badfd3ed527a3fdb992031fae5d005f93334604051808373ffffffffffffffffffffffffffffffffffffffff1673ffffffffffffffffffffffffffffffffffffffff16815260200180602001838152602001828103825260208152602001807f686173206d61646520746865207265717569726564206465706f736974206f66815250602001935050505060405180910390a1565b6000809054906101000a900473ffffffffffffffffffffffffffffffffffffffff1673ffffffffffffffffffffffffffffffffffffffff163373ffffffffffffffffffffffffffffffffffffffff1614610ee157600080fd5b6001600860008060009054906101000a900473ffffffffffffffffffffffffffffffffffffffff1673ffffffffffffffffffffffffffffffffffffffff1673ffffffffffffffffffffffffffffffffffffffff1681526020019081526020016000205414610f4e57600080fd5b600160086000600160009054906101000a900473ffffffffffffffffffffffffffffffffffffffff1673ffffffffffffffffffffffffffffffffffffffff1673ffffffffffffffffffffffffffffffffffffffff1681526020019081526020016000205414610fbc57600080fd5b6001600960008060009054906101000a900473ffffffffffffffffffffffffffffffffffffffff1673ffffffffffffffffffffffffffffffffffffffff1673ffffffffffffffffffffffffffffffffffffffff168152602001908152602001600020541461102957600080fd5b600160009054906101000a900473ffffffffffffffffffffffffffffffffffffffff1673ffffffffffffffffffffffffffffffffffffffff166108fc6003549081150290604051600060405180830381858888f19350505050158015611093573d6000803e3d6000fd5b506000809054906101000a900473ffffffffffffffffffffffffffffffffffffffff1673ffffffffffffffffffffffffffffffffffffffff166108fc6004549081150290604051600060405180830381858888f193505050501580156110fd573d6000803e3d6000fd5b50600160009054906101000a900473ffffffffffffffffffffffffffffffffffffffff1673ffffffffffffffffffffffffffffffffffffffff166108fc6004549081150290604051600060405180830381858888f19350505050158015611168573d6000803e3d6000fd5b507fd54aabd3141f0694c3f533b346119d27c2eb3248d4f866d6bd8299c78b128daf604051808060200182810382526053815260200180611aca6053913960600191505060405180910390a1565b60035481565b6000809054906101000a900473ffffffffffffffffffffffffffffffffffffffff1673ffffffffffffffffffffffffffffffffffffffff163373ffffffffffffffffffffffffffffffffffffffff161461121557600080fd5b6001600860008060009054906101000a900473ffffffffffffffffffffffffffffffffffffffff1673ffffffffffffffffffffffffffffffffffffffff1673ffffffffffffffffffffffffffffffffffffffff168152602001908152602001600020541461128257600080fd5b600060086000600160009054906101000a900473ffffffffffffffffffffffffffffffffffffffff1673ffffffffffffffffffffffffffffffffffffffff1673ffffffffffffffffffffffffffffffffffffffff16815260200190815260200160002054146112f057600080fd5b6000600960008060009054906101000a900473ffffffffffffffffffffffffffffffffffffffff1673ffffffffffffffffffffffffffffffffffffffff1673ffffffffffffffffffffffffffffffffffffffff168152602001908152602001600020541461135d57600080fd5b6000600860008060009054906101000a900473ffffffffffffffffffffffffffffffffffffffff1673ffffffffffffffffffffffffffffffffffffffff1673ffffffffffffffffffffffffffffffffffffffff168152602001908152602001600020819055506000809054906101000a900473ffffffffffffffffffffffffffffffffffffffff1673ffffffffffffffffffffffffffffffffffffffff166108fc6004549081150290604051600060405180830381858888f1935050505015801561142c573d6000803e3d6000fd5b507f022a173fa68fb425cd1264890a0951b5a57aa7f1fcdc49e3262e86c1189ec9b1604051808060200182810382526024815260200180611bd86024913960400191505060405180910390a1565b60045481565b60055481565b600160009054906101000a900473ffffffffffffffffffffffffffffffffffffffff1673ffffffffffffffffffffffffffffffffffffffff163373ffffffffffffffffffffffffffffffffffffffff16146114e057600080fd5b6001600860008060009054906101000a900473ffffffffffffffffffffffffffffffffffffffff1673ffffffffffffffffffffffffffffffffffffffff1673ffffffffffffffffffffffffffffffffffffffff168152602001908152602001600020541461154d57600080fd5b600160086000600160009054906101000a900473ffffffffffffffffffffffffffffffffffffffff1673ffffffffffffffffffffffffffffffffffffffff1673ffffffffffffffffffffffffffffffffffffffff16815260200190815260200160002054146115bb57600080fd5b6001600960008060009054906101000a900473ffffffffffffffffffffffffffffffffffffffff1673ffffffffffffffffffffffffffffffffffffffff1673ffffffffffffffffffffffffffffffffffffffff168152602001908152602001600020541461162857600080fd5b6000809054906101000a900473ffffffffffffffffffffffffffffffffffffffff1673ffffffffffffffffffffffffffffffffffffffff166108fc6003549081150290604051600060405180830381858888f19350505050158015611691573d6000803e3d6000fd5b50600160009054906101000a900473ffffffffffffffffffffffffffffffffffffffff1673ffffffffffffffffffffffffffffffffffffffff166108fc6004549081150290604051600060405180830381858888f193505050501580156116fc573d6000803e3d6000fd5b506000809054906101000a900473ffffffffffffffffffffffffffffffffffffffff1673ffffffffffffffffffffffffffffffffffffffff166108fc6004549081150290604051600060405180830381858888f19350505050158015611766573d6000803e3d6000fd5b507f1355ee9ef69549a50f8d0008c6cd588a9759815d1b30ee62ed168c2bb7a24a62604051808060200182810382526057815260200180611b816057913960600191505060405180910390a1565b600160009054906101000a900473ffffffffffffffffffffffffffffffffffffffff1673ffffffffffffffffffffffffffffffffffffffff163373ffffffffffffffffffffffffffffffffffffffff161461180e57600080fd5b600160086000600160009054906101000a900473ffffffffffffffffffffffffffffffffffffffff1673ffffffffffffffffffffffffffffffffffffffff1673ffffffffffffffffffffffffffffffffffffffff168152602001908152602001600020541461187c57600080fd5b6000600860008060009054906101000a900473ffffffffffffffffffffffffffffffffffffffff1673ffffffffffffffffffffffffffffffffffffffff1673ffffffffffffffffffffffffffffffffffffffff16815260200190815260200160002054146118e957600080fd5b6000600960008060009054906101000a900473ffffffffffffffffffffffffffffffffffffffff1673ffffffffffffffffffffffffffffffffffffffff1673ffffffffffffffffffffffffffffffffffffffff168152602001908152602001600020541461195657600080fd5b600060086000600160009054906101000a900473ffffffffffffffffffffffffffffffffffffffff1673ffffffffffffffffffffffffffffffffffffffff1673ffffffffffffffffffffffffffffffffffffffff16815260200190815260200160002081905550600160009054906101000a900473ffffffffffffffffffffffffffffffffffffffff1673ffffffffffffffffffffffffffffffffffffffff166108fc6004549081150290604051600060405180830381858888f19350505050158015611a27573d6000803e3d6000fd5b507f68899ad50909030043672ec750f7e234201226c34f9efa036d99c5432d220a39604051808060200182810382526025815260200180611aa56025913960400191505060405180910390a1565b60008082840290506000841480611a94575082848281611a9157fe5b04145b611a9a57fe5b809150509291505056fe7468652073656c6c657220686173207265766572736564207468656972206465706f7369745468652073656c6c657220686173206265656e207061696420616e6420616c6c206465706f736974732068617665206265656e2072657475726e6564202d207472616e73616374696f6e20636f6d706c657465746865206465706f73697420636c61696d206861732031206f7574206f662032206e6563657373617279207369676e6174757265734275796572206861732073656e7420746865207061796d656e7420616d6f756e7420746f2074686520657363726f7754686520627579657220686173206265656e20726566756e64656420616e6420616c6c206465706f736974732068617665206265656e2072657475726e6564202d207472616e73616374696f6e2063616e63656c6c656474686520627579657220686173207265766572736564207468656972206465706f736974a265627a7a723158200c680e1b115742ced7068455c08bfc0e89286c55387855a95b5ef93c9e56a1c964736f6c63430005100032",
  "source": "pragma solidity 0.5.16;\n\nlibrary SafeMath {\n    function mul(uint256 a, uint256 b) internal pure returns(uint256) {\n        uint256 c = a * b;\n        assert(a == 0 || c / a == b);\n        return c;\n    }\n\n    function div(uint256 a, uint256 b) internal pure returns(uint256) {\n        assert(b > 0); // Solidity automatically throws when dividing by 0\n        uint256 c = a / b;\n        assert(a == b * c + a % b); // There is no case in which this doesn't hold\n        return c;\n    }\n\n    function sub(uint256 a, uint256 b) internal pure returns(uint256) {\n        assert(b <= a);\n        return a - b;\n    }\n\n    function add(uint256 a, uint256 b) internal pure returns(uint256) {\n        uint256 c = a + b;\n        assert(c >= a);\n        return c;\n    }\n}\n\ncontract Escrow {\n\tusing SafeMath for uint256;\n\n\t//storage\n    address payable public buyer;\n    address payable public seller;\n    address[] public party;\n    uint public amount;\n    uint public deposit;\n    uint public signatureCount;\n    mapping (address => bool) isAParty;\n    mapping (address => uint) signatures;\n    mapping (address => uint) depositCheck;\n    mapping (address => uint) amountCheck;\n\n    //modifiers\n    //only buyer can access\n    modifier isBuyer() {\n        require(msg.sender == buyer);\n        _;\n    }\n    \n    //only seller can access\n    modifier isSeller() {\n        require(msg.sender == seller);\n        _;\n    }\n    \n    //only the parties involved in the transaction can access.\n    modifier ifIsAParty(address aParty) {\n        require(isAParty[aParty]);\n        _;\n    }\n\n     //events\n    event BuyerDeposited(address from, string msg, uint amount);\n    event SellerDeposited(address from, string msg, uint amount);\n    event BuyerDepositReversed(string msg);\n    event SellerDepositReversed(string msg);\n    event DepositPartialClaim(string msg);\n    event DepositsClaimed(string msg);\n    event AmountSent(string msg);\n    event SellerPaid(string msg);\n    event BuyerRefunded(string msg);\n\n    constructor(address payable _buyer, address payable _seller, uint _amount, uint _deposit) public {\n\t\tbuyer = _buyer;\n        seller = _seller;\n        amount = (_amount.mul(1 ether));\n        deposit = (_deposit.mul(1 ether));\n        party.push(_buyer);\n        party.push(_seller);\n        isAParty[_buyer] = true;\n        isAParty[_seller] = true;\n\t}\n\n\t/* Deposit function for the buyer - checks that the message sender\n    is the buyer, the amount being sent is equal to the deposit amount\n    and restricts the buyer from depositing more than once */\n    function buyerDeposit() public payable isBuyer {\n        require(msg.value == deposit); // Require value submitted is equal to the deposit in the contract.\n        require(depositCheck[msg.sender] == 0); // Require buyer has not deposited yet\n        depositCheck[msg.sender] = 1; // Set buyer deposited to true\n        emit BuyerDeposited(msg.sender, \"has made the required deposit of\", msg.value);\n    }\n\n    /* Deposit function for the seller - checks that the message sender\n    is the seller, the amount being sent is equal to the deposit amount\n    and restricts the seller from depositing more than once */\n    function sellerDeposit() public payable isSeller {\n        require(msg.value == deposit); // Require value submitted is equal to the deposit in the contract.\n        require(depositCheck[msg.sender] == 0); // Require seller has not deposited yet\n        depositCheck[msg.sender] = 1;// Set seller deposited to true\n        emit SellerDeposited(msg.sender, \"has made the required deposit of\", msg.value);\n    }\n\n    /* Function for buyer to retrieve deposit in the scenario where only the\n    buyer has interacted witht he contract and the transaction is no longer\n    going ahead.*/\n    \n    function reverseBuyerDeposit() public isBuyer {\n        require(depositCheck[buyer] == 1);\n        require(depositCheck[seller] == 0);\n        require(amountCheck[buyer] == 0);\n        depositCheck[buyer] = 0;\n        buyer.transfer(deposit);\n        emit BuyerDepositReversed(\"the buyer has reversed their deposit\");\n    }\n\n    /* Function for seller to retrieve deposit in the scenario where only the\n    seller has interacted with the contract and the transaction is no longer\n    going ahead.*/\n    \n    function reverseSellerDeposit() public isSeller {\n        require(depositCheck[seller] == 1);\n        require(depositCheck[buyer] == 0);\n        require(amountCheck[buyer] == 0);\n        depositCheck[seller] = 0;\n        seller.transfer(deposit);\n        emit SellerDepositReversed(\"the seller has reversed their deposit\");\n    }\n\n    /* Function for both parties to reverse their deposits when both the buyer\n    and seller have made their deposits but no longer wish to proceed, both must\n    sign off on this by calling this function*/\n \n    function claimDeposits() public ifIsAParty(msg.sender) {\n        require(depositCheck[buyer] ==1);\n        require(depositCheck[seller] == 1);\n        require(amountCheck[buyer] == 0);\n        require(signatures[msg.sender] == 0);\n        signatures[msg.sender] = 1;\n        signatureCount ++;\n        \n        if (signatureCount == 1) {\n            emit DepositPartialClaim(\"the deposit claim has 1 out of 2 necessary signatures\");\n        }\n        \n        if (signatureCount == 2) {\n            buyer.transfer(deposit);\n            seller.transfer(deposit);\n            depositCheck[buyer] = 0;\n            depositCheck[seller] = 0;\n            signatures[buyer] = 0;\n            signatures[seller] = 0;\n            signatureCount = 0;\n            emit DepositsClaimed(\"the deposits have been returned\");\n        }\n    }\n\n    /* Function to allow the buyer to send the amount which is to eventually\n    be transferred to the seller. Checks that the buyer is sending the correct\n    amount, checks that both seller and buyer have made the required deposits \n    and restricts the buyer from making multiple payments */\n    \n    function sendAmount() public payable isBuyer {\n        require(msg.value == amount); // Check to see correct amount is sent.\n        require(depositCheck[buyer] == 1);\n        require(depositCheck[seller] == 1);\n        require(amountCheck[msg.sender] == 0);\n        amountCheck[msg.sender] = 1;\n        emit AmountSent(\"Buyer has sent the payment amount to the escrow\");\n    }\n\n    /* complete transaction: transferring specified amount to the seller and \n    returning deposits to both parties */\n    /* NEW FUNCTION EXTRA: This should automatically pay seller when it passes expiry time (i.e. the flight time) and then automatically return deposits. Developer fee should be collected here */\n    function paySeller() public isBuyer {\n        require(depositCheck[buyer] == 1);\n        require(depositCheck[seller] == 1);\n        require(amountCheck[buyer] == 1);\n        seller.transfer(amount);\n        buyer.transfer(deposit);\n        seller.transfer(deposit);\n        emit SellerPaid(\"The seller has been paid and all deposits have been returned - transaction complete\");\n    }\n\n    /*cancel transaction: refunding the specified amount to the buyer and \n    returning deposits to both parties */\n    /* NEW FUNCTION EXTRA: This can only be called before the expiry time. (i.e. 1 or 2 days before flight time) and then automatically return deposits. Developer fee should be collected here */\n    function refundBuyer() public isSeller {\n        require(depositCheck[buyer] == 1);\n        require(depositCheck[seller] == 1);\n        require(amountCheck[buyer] == 1);\n        buyer.transfer(amount);\n        seller.transfer(deposit);\n        buyer.transfer(deposit);\n        emit BuyerRefunded(\"The buyer has been refunded and all deposits have been returned - transaction cancelled\");\n    }\n}",
  "sourcePath": "/Users/donaldlee/Developer/PointsExchange/contracts/Escrow.sol",
  "compiler": {
    "name": "solc",
    "version": "0.5.16+commit.9c3226ce.Emscripten.clang"
  },
  "schemaVersion": "3.3.3",
  "updatedAt": "2021-03-12T01:21:43.262Z",
  "networkType": "ethereum",
  "devdoc": {
    "methods": {}
  },
  "userdoc": {
    "methods": {}
  }
}