{
  "contractName": "EscrowExchange",
  "abi": [
    {
      "anonymous": false,
      "inputs": [
        {
          "indexed": false,
          "internalType": "string",
          "name": "msg",
          "type": "string"
        }
      ],
      "name": "AmountSent",
      "type": "event"
    },
    {
      "anonymous": false,
      "inputs": [
        {
          "indexed": false,
          "internalType": "string",
          "name": "msg",
          "type": "string"
        }
      ],
      "name": "BuyerDepositReversed",
      "type": "event"
    },
    {
      "anonymous": false,
      "inputs": [
        {
          "indexed": false,
          "internalType": "address",
          "name": "from",
          "type": "address"
        },
        {
          "indexed": false,
          "internalType": "string",
          "name": "msg",
          "type": "string"
        },
        {
          "indexed": false,
          "internalType": "uint256",
          "name": "amount",
          "type": "uint256"
        }
      ],
      "name": "BuyerDeposited",
      "type": "event"
    },
    {
      "anonymous": false,
      "inputs": [
        {
          "indexed": false,
          "internalType": "string",
          "name": "msg",
          "type": "string"
        }
      ],
      "name": "BuyerRefunded",
      "type": "event"
    },
    {
      "anonymous": false,
      "inputs": [
        {
          "indexed": false,
          "internalType": "address",
          "name": "buyer",
          "type": "address"
        },
        {
          "indexed": false,
          "internalType": "address",
          "name": "seller",
          "type": "address"
        },
        {
          "indexed": false,
          "internalType": "uint256",
          "name": "amount",
          "type": "uint256"
        },
        {
          "indexed": false,
          "internalType": "uint256",
          "name": "deposit",
          "type": "uint256"
        },
        {
          "indexed": false,
          "internalType": "uint256",
          "name": "signatureCount",
          "type": "uint256"
        },
        {
          "indexed": false,
          "internalType": "string",
          "name": "status",
          "type": "string"
        }
      ],
      "name": "ContractCreated",
      "type": "event"
    },
    {
      "anonymous": false,
      "inputs": [
        {
          "indexed": false,
          "internalType": "string",
          "name": "msg",
          "type": "string"
        }
      ],
      "name": "DepositPartialClaim",
      "type": "event"
    },
    {
      "anonymous": false,
      "inputs": [
        {
          "indexed": false,
          "internalType": "string",
          "name": "msg",
          "type": "string"
        }
      ],
      "name": "DepositsClaimed",
      "type": "event"
    },
    {
      "anonymous": false,
      "inputs": [
        {
          "indexed": false,
          "internalType": "string",
          "name": "msg",
          "type": "string"
        }
      ],
      "name": "SellerDepositReversed",
      "type": "event"
    },
    {
      "anonymous": false,
      "inputs": [
        {
          "indexed": false,
          "internalType": "address",
          "name": "from",
          "type": "address"
        },
        {
          "indexed": false,
          "internalType": "string",
          "name": "msg",
          "type": "string"
        },
        {
          "indexed": false,
          "internalType": "uint256",
          "name": "amount",
          "type": "uint256"
        }
      ],
      "name": "SellerDeposited",
      "type": "event"
    },
    {
      "anonymous": false,
      "inputs": [
        {
          "indexed": false,
          "internalType": "string",
          "name": "msg",
          "type": "string"
        }
      ],
      "name": "SellerPaid",
      "type": "event"
    },
    {
      "constant": false,
      "inputs": [
        {
          "internalType": "uint256",
          "name": "contract_id",
          "type": "uint256"
        }
      ],
      "name": "buyerDeposit",
      "outputs": [],
      "payable": true,
      "stateMutability": "payable",
      "type": "function"
    },
    {
      "constant": false,
      "inputs": [
        {
          "internalType": "uint256",
          "name": "contract_id",
          "type": "uint256"
        }
      ],
      "name": "claimDeposits",
      "outputs": [],
      "payable": false,
      "stateMutability": "nonpayable",
      "type": "function"
    },
    {
      "constant": true,
      "inputs": [
        {
          "internalType": "address",
          "name": "",
          "type": "address"
        },
        {
          "internalType": "uint256",
          "name": "",
          "type": "uint256"
        }
      ],
      "name": "contractsForUser",
      "outputs": [
        {
          "internalType": "address payable",
          "name": "buyer",
          "type": "address"
        },
        {
          "internalType": "address payable",
          "name": "seller",
          "type": "address"
        },
        {
          "internalType": "uint256",
          "name": "amount",
          "type": "uint256"
        },
        {
          "internalType": "uint256",
          "name": "deposit",
          "type": "uint256"
        },
        {
          "internalType": "uint256",
          "name": "signatureCount",
          "type": "uint256"
        },
        {
          "internalType": "enum EscrowFactory.Status",
          "name": "status",
          "type": "uint8"
        }
      ],
      "payable": false,
      "stateMutability": "view",
      "type": "function"
    },
    {
      "constant": true,
      "inputs": [
        {
          "internalType": "address",
          "name": "",
          "type": "address"
        }
      ],
      "name": "ownerContractCount",
      "outputs": [
        {
          "internalType": "uint256",
          "name": "",
          "type": "uint256"
        }
      ],
      "payable": false,
      "stateMutability": "view",
      "type": "function"
    },
    {
      "constant": false,
      "inputs": [
        {
          "internalType": "uint256",
          "name": "contract_id",
          "type": "uint256"
        }
      ],
      "name": "paySeller",
      "outputs": [],
      "payable": false,
      "stateMutability": "nonpayable",
      "type": "function"
    },
    {
      "constant": false,
      "inputs": [
        {
          "internalType": "uint256",
          "name": "contract_id",
          "type": "uint256"
        }
      ],
      "name": "refundBuyer",
      "outputs": [],
      "payable": false,
      "stateMutability": "nonpayable",
      "type": "function"
    },
    {
      "constant": false,
      "inputs": [
        {
          "internalType": "uint256",
          "name": "contract_id",
          "type": "uint256"
        }
      ],
      "name": "reverseBuyerDeposit",
      "outputs": [],
      "payable": false,
      "stateMutability": "nonpayable",
      "type": "function"
    },
    {
      "constant": false,
      "inputs": [
        {
          "internalType": "uint256",
          "name": "contract_id",
          "type": "uint256"
        }
      ],
      "name": "reverseSellerDeposit",
      "outputs": [],
      "payable": false,
      "stateMutability": "nonpayable",
      "type": "function"
    },
    {
      "constant": false,
      "inputs": [
        {
          "internalType": "uint256",
          "name": "contract_id",
          "type": "uint256"
        }
      ],
      "name": "sellerDeposit",
      "outputs": [],
      "payable": true,
      "stateMutability": "payable",
      "type": "function"
    },
    {
      "constant": false,
      "inputs": [
        {
          "internalType": "uint256",
          "name": "contract_id",
          "type": "uint256"
        }
      ],
      "name": "sendAmount",
      "outputs": [],
      "payable": true,
      "stateMutability": "payable",
      "type": "function"
    },
    {
      "constant": true,
      "inputs": [
        {
          "internalType": "uint256",
          "name": "index",
          "type": "uint256"
        }
      ],
      "name": "getContractForCurrentUser",
      "outputs": [
        {
          "internalType": "address",
          "name": "",
          "type": "address"
        },
        {
          "internalType": "address",
          "name": "",
          "type": "address"
        },
        {
          "internalType": "uint256",
          "name": "",
          "type": "uint256"
        },
        {
          "internalType": "uint256",
          "name": "",
          "type": "uint256"
        },
        {
          "internalType": "uint256",
          "name": "",
          "type": "uint256"
        },
        {
          "internalType": "string",
          "name": "",
          "type": "string"
        }
      ],
      "payable": false,
      "stateMutability": "view",
      "type": "function"
    },
    {
      "constant": false,
      "inputs": [
        {
          "internalType": "address payable",
          "name": "buyer",
          "type": "address"
        },
        {
          "internalType": "address payable",
          "name": "seller",
          "type": "address"
        },
        {
          "internalType": "uint256",
          "name": "amount",
          "type": "uint256"
        },
        {
          "internalType": "uint256",
          "name": "deposit",
          "type": "uint256"
        }
      ],
      "name": "createContract",
      "outputs": [],
      "payable": false,
      "stateMutability": "nonpayable",
      "type": "function"
    },
    {
      "constant": true,
      "inputs": [
        {
          "internalType": "uint256",
          "name": "id",
          "type": "uint256"
        }
      ],
      "name": "checkStatus",
      "outputs": [
        {
          "internalType": "string",
          "name": "",
          "type": "string"
        }
      ],
      "payable": false,
      "stateMutability": "view",
      "type": "function"
    }
  ],
  "bytecode": "0x608060405234801561001057600080fd5b50612fc5806100206000396000f3fe6080604052600436106100c25760003560e01c80634709384f1161007f578063683024671161005957806368302467146102855780636b424e2d146102ae5780636deba5f3146102d7578063fd72b6e9146102f3576100c2565b80634709384f146101f15780634a47248c1461021a57806360cc106214610243576100c2565b80630eb47922146100c75780630f063dab146100e35780632858c764146101205780632cc400781461015d578063392927631461018657806342998736146101af575b600080fd5b6100e160048036036100dc9190810190612761565b61030f565b005b3480156100ef57600080fd5b5061010a60048036036101059190810190612699565b61046e565b6040516101179190612dfa565b60405180910390f35b34801561012c57600080fd5b5061014760048036036101429190810190612761565b610486565b6040516101549190612cf8565b60405180910390f35b34801561016957600080fd5b50610184600480360361017f9190810190612761565b61064e565b005b34801561019257600080fd5b506101ad60048036036101a89190810190612761565b61096c565b005b3480156101bb57600080fd5b506101d660048036036101d19190810190612725565b610d0d565b6040516101e896959493929190612bf3565b60405180910390f35b3480156101fd57600080fd5b5061021860048036036102139190810190612761565b610db0565b005b34801561022657600080fd5b50610241600480360361023c9190810190612761565b611454565b005b34801561024f57600080fd5b5061026a60048036036102659190810190612761565b611772565b60405161027c96959493929190612c90565b60405180910390f35b34801561029157600080fd5b506102ac60048036036102a79190810190612761565b61192c565b005b3480156102ba57600080fd5b506102d560048036036102d091908101906126c2565b611ccd565b005b6102f160048036036102ec9190810190612761565b6120d8565b005b61030d60048036036103089190810190612761565b612237565b005b8061031981612496565b60010160009054906101000a900473ffffffffffffffffffffffffffffffffffffffff1673ffffffffffffffffffffffffffffffffffffffff163373ffffffffffffffffffffffffffffffffffffffff161461037457600080fd5b61037d82612496565b60030154341461038c57600080fd5b600061039783612496565b60070160003373ffffffffffffffffffffffffffffffffffffffff1673ffffffffffffffffffffffffffffffffffffffff16815260200190815260200160002054146103e257600080fd5b60016103ed83612496565b60070160003373ffffffffffffffffffffffffffffffffffffffff1673ffffffffffffffffffffffffffffffffffffffff168152602001908152602001600020819055507feaa52bf3f740eaa050012695cd117e2182b5c032c7fc36dbcdfc74189f68ab2e3334604051610462929190612c54565b60405180910390a15050565b60016020528060005260406000206000915090505481565b60608060405180602001604052806000815250905060008060003373ffffffffffffffffffffffffffffffffffffffff1673ffffffffffffffffffffffffffffffffffffffff16815260200190815260200160002084815481106104e657fe5b906000526020600020906009020160050160009054906101000a900460ff16600281111561051057fe5b1415610553576040518060400160405280600481526020017f4f70656e000000000000000000000000000000000000000000000000000000008152509050610645565b60016000803373ffffffffffffffffffffffffffffffffffffffff1673ffffffffffffffffffffffffffffffffffffffff168152602001908152602001600020848154811061059e57fe5b906000526020600020906009020160050160009054906101000a900460ff1660028111156105c857fe5b141561060b576040518060400160405280600781526020017f50656e64696e67000000000000000000000000000000000000000000000000008152509050610644565b6040518060400160405280600681526020017f436c6f736564000000000000000000000000000000000000000000000000000081525090505b5b80915050919050565b8061065881612496565b60000160009054906101000a900473ffffffffffffffffffffffffffffffffffffffff1673ffffffffffffffffffffffffffffffffffffffff163373ffffffffffffffffffffffffffffffffffffffff16146106b357600080fd5b60016106be83612496565b60070160006106cc85612496565b60000160009054906101000a900473ffffffffffffffffffffffffffffffffffffffff1673ffffffffffffffffffffffffffffffffffffffff1673ffffffffffffffffffffffffffffffffffffffff168152602001908152602001600020541461073557600080fd5b600061074083612496565b600701600061074e85612496565b60010160009054906101000a900473ffffffffffffffffffffffffffffffffffffffff1673ffffffffffffffffffffffffffffffffffffffff1673ffffffffffffffffffffffffffffffffffffffff16815260200190815260200160002054146107b757600080fd5b60006107c283612496565b60080160006107d085612496565b60000160009054906101000a900473ffffffffffffffffffffffffffffffffffffffff1673ffffffffffffffffffffffffffffffffffffffff1673ffffffffffffffffffffffffffffffffffffffff168152602001908152602001600020541461083957600080fd5b600061084483612496565b600701600061085285612496565b60000160009054906101000a900473ffffffffffffffffffffffffffffffffffffffff1673ffffffffffffffffffffffffffffffffffffffff1673ffffffffffffffffffffffffffffffffffffffff168152602001908152602001600020819055506108bd82612496565b60000160009054906101000a900473ffffffffffffffffffffffffffffffffffffffff1673ffffffffffffffffffffffffffffffffffffffff166108fc61090384612496565b600301549081150290604051600060405180830381858888f19350505050158015610932573d6000803e3d6000fd5b507f022a173fa68fb425cd1264890a0951b5a57aa7f1fcdc49e3262e86c1189ec9b160405161096090612dda565b60405180910390a15050565b8061097681612496565b60010160009054906101000a900473ffffffffffffffffffffffffffffffffffffffff1673ffffffffffffffffffffffffffffffffffffffff163373ffffffffffffffffffffffffffffffffffffffff16146109d157600080fd5b60016109dc83612496565b60070160006109ea85612496565b60000160009054906101000a900473ffffffffffffffffffffffffffffffffffffffff1673ffffffffffffffffffffffffffffffffffffffff1673ffffffffffffffffffffffffffffffffffffffff1681526020019081526020016000205414610a5357600080fd5b6001610a5e83612496565b6007016000610a6c85612496565b60010160009054906101000a900473ffffffffffffffffffffffffffffffffffffffff1673ffffffffffffffffffffffffffffffffffffffff1673ffffffffffffffffffffffffffffffffffffffff1681526020019081526020016000205414610ad557600080fd5b6001610ae083612496565b6008016000610aee85612496565b60000160009054906101000a900473ffffffffffffffffffffffffffffffffffffffff1673ffffffffffffffffffffffffffffffffffffffff1673ffffffffffffffffffffffffffffffffffffffff1681526020019081526020016000205414610b5757600080fd5b610b6082612496565b60000160009054906101000a900473ffffffffffffffffffffffffffffffffffffffff1673ffffffffffffffffffffffffffffffffffffffff166108fc610ba684612496565b600201549081150290604051600060405180830381858888f19350505050158015610bd5573d6000803e3d6000fd5b50610bdf82612496565b60010160009054906101000a900473ffffffffffffffffffffffffffffffffffffffff1673ffffffffffffffffffffffffffffffffffffffff166108fc610c2584612496565b600301549081150290604051600060405180830381858888f19350505050158015610c54573d6000803e3d6000fd5b50610c5e82612496565b60000160009054906101000a900473ffffffffffffffffffffffffffffffffffffffff1673ffffffffffffffffffffffffffffffffffffffff166108fc610ca484612496565b600301549081150290604051600060405180830381858888f19350505050158015610cd3573d6000803e3d6000fd5b507f1355ee9ef69549a50f8d0008c6cd588a9759815d1b30ee62ed168c2bb7a24a62604051610d0190612dba565b60405180910390a15050565b60006020528160005260406000208181548110610d2657fe5b9060005260206000209060090201600091509150508060000160009054906101000a900473ffffffffffffffffffffffffffffffffffffffff16908060010160009054906101000a900473ffffffffffffffffffffffffffffffffffffffff16908060020154908060030154908060040154908060050160009054906101000a900460ff16905086565b80610dba81612496565b60010160009054906101000a900473ffffffffffffffffffffffffffffffffffffffff1673ffffffffffffffffffffffffffffffffffffffff163373ffffffffffffffffffffffffffffffffffffffff161480610e6e5750610e1b81612496565b60000160009054906101000a900473ffffffffffffffffffffffffffffffffffffffff1673ffffffffffffffffffffffffffffffffffffffff163373ffffffffffffffffffffffffffffffffffffffff16145b610e7757600080fd5b6001610e8283612496565b6007016000610e9085612496565b60000160009054906101000a900473ffffffffffffffffffffffffffffffffffffffff1673ffffffffffffffffffffffffffffffffffffffff1673ffffffffffffffffffffffffffffffffffffffff1681526020019081526020016000205414610ef957600080fd5b6001610f0483612496565b6007016000610f1285612496565b60010160009054906101000a900473ffffffffffffffffffffffffffffffffffffffff1673ffffffffffffffffffffffffffffffffffffffff1673ffffffffffffffffffffffffffffffffffffffff1681526020019081526020016000205414610f7b57600080fd5b6000610f8683612496565b6008016000610f9485612496565b60000160009054906101000a900473ffffffffffffffffffffffffffffffffffffffff1673ffffffffffffffffffffffffffffffffffffffff1673ffffffffffffffffffffffffffffffffffffffff1681526020019081526020016000205414610ffd57600080fd5b600061100883612496565b60060160003373ffffffffffffffffffffffffffffffffffffffff1673ffffffffffffffffffffffffffffffffffffffff168152602001908152602001600020541461105357600080fd5b600161105e83612496565b60060160003373ffffffffffffffffffffffffffffffffffffffff1673ffffffffffffffffffffffffffffffffffffffff168152602001908152602001600020819055506110ab82612496565b6004016000815480929190600101919050555060016110c983612496565b600401541415611109577f87463abc399fbbddfcd563f22d61267e4c0402b336940699382407adce42e5a260405161110090612d7a565b60405180910390a15b600261111483612496565b6004015414156114505761112782612496565b60000160009054906101000a900473ffffffffffffffffffffffffffffffffffffffff1673ffffffffffffffffffffffffffffffffffffffff166108fc61116d84612496565b600301549081150290604051600060405180830381858888f1935050505015801561119c573d6000803e3d6000fd5b506111a682612496565b60010160009054906101000a900473ffffffffffffffffffffffffffffffffffffffff1673ffffffffffffffffffffffffffffffffffffffff166108fc6111ec84612496565b600301549081150290604051600060405180830381858888f1935050505015801561121b573d6000803e3d6000fd5b50600061122783612496565b600701600061123585612496565b60000160009054906101000a900473ffffffffffffffffffffffffffffffffffffffff1673ffffffffffffffffffffffffffffffffffffffff1673ffffffffffffffffffffffffffffffffffffffff1681526020019081526020016000208190555060006112a283612496565b60070160006112b085612496565b60010160009054906101000a900473ffffffffffffffffffffffffffffffffffffffff1673ffffffffffffffffffffffffffffffffffffffff1673ffffffffffffffffffffffffffffffffffffffff16815260200190815260200160002081905550600061131d83612496565b600601600061132b85612496565b60000160009054906101000a900473ffffffffffffffffffffffffffffffffffffffff1673ffffffffffffffffffffffffffffffffffffffff1673ffffffffffffffffffffffffffffffffffffffff16815260200190815260200160002081905550600061139883612496565b60060160006113a685612496565b60010160009054906101000a900473ffffffffffffffffffffffffffffffffffffffff1673ffffffffffffffffffffffffffffffffffffffff1673ffffffffffffffffffffffffffffffffffffffff16815260200190815260200160002081905550600061141383612496565b600401819055507fd397a3b1b662401574a4482307d3aaaa5413f8af98a7053e3473935f4d0659ed60405161144790612d5a565b60405180910390a15b5050565b8061145e81612496565b60010160009054906101000a900473ffffffffffffffffffffffffffffffffffffffff1673ffffffffffffffffffffffffffffffffffffffff163373ffffffffffffffffffffffffffffffffffffffff16146114b957600080fd5b60016114c483612496565b60070160006114d285612496565b60010160009054906101000a900473ffffffffffffffffffffffffffffffffffffffff1673ffffffffffffffffffffffffffffffffffffffff1673ffffffffffffffffffffffffffffffffffffffff168152602001908152602001600020541461153b57600080fd5b600061154683612496565b600701600061155485612496565b60000160009054906101000a900473ffffffffffffffffffffffffffffffffffffffff1673ffffffffffffffffffffffffffffffffffffffff1673ffffffffffffffffffffffffffffffffffffffff16815260200190815260200160002054146115bd57600080fd5b60006115c883612496565b60080160006115d685612496565b60000160009054906101000a900473ffffffffffffffffffffffffffffffffffffffff1673ffffffffffffffffffffffffffffffffffffffff1673ffffffffffffffffffffffffffffffffffffffff168152602001908152602001600020541461163f57600080fd5b600061164a83612496565b600701600061165885612496565b60010160009054906101000a900473ffffffffffffffffffffffffffffffffffffffff1673ffffffffffffffffffffffffffffffffffffffff1673ffffffffffffffffffffffffffffffffffffffff168152602001908152602001600020819055506116c382612496565b60010160009054906101000a900473ffffffffffffffffffffffffffffffffffffffff1673ffffffffffffffffffffffffffffffffffffffff166108fc61170984612496565b600301549081150290604051600060405180830381858888f19350505050158015611738573d6000803e3d6000fd5b507f68899ad50909030043672ec750f7e234201226c34f9efa036d99c5432d220a3960405161176690612d1a565b60405180910390a15050565b600080600080600060606117846125ed565b6000803373ffffffffffffffffffffffffffffffffffffffff1673ffffffffffffffffffffffffffffffffffffffff16815260200190815260200160002088815481106117cd57fe5b90600052602060002090600902016040518060c00160405290816000820160009054906101000a900473ffffffffffffffffffffffffffffffffffffffff1673ffffffffffffffffffffffffffffffffffffffff1673ffffffffffffffffffffffffffffffffffffffff1681526020016001820160009054906101000a900473ffffffffffffffffffffffffffffffffffffffff1673ffffffffffffffffffffffffffffffffffffffff1673ffffffffffffffffffffffffffffffffffffffff1681526020016002820154815260200160038201548152602001600482015481526020016005820160009054906101000a900460ff1660028111156118ce57fe5b60028111156118d957fe5b815250509050806000015181602001518260400151836060015184608001516119108660a00151600281111561190b57fe5b610486565b8595508494509650965096509650965096505091939550919395565b8061193681612496565b60000160009054906101000a900473ffffffffffffffffffffffffffffffffffffffff1673ffffffffffffffffffffffffffffffffffffffff163373ffffffffffffffffffffffffffffffffffffffff161461199157600080fd5b600161199c83612496565b60070160006119aa85612496565b60000160009054906101000a900473ffffffffffffffffffffffffffffffffffffffff1673ffffffffffffffffffffffffffffffffffffffff1673ffffffffffffffffffffffffffffffffffffffff1681526020019081526020016000205414611a1357600080fd5b6001611a1e83612496565b6007016000611a2c85612496565b60010160009054906101000a900473ffffffffffffffffffffffffffffffffffffffff1673ffffffffffffffffffffffffffffffffffffffff1673ffffffffffffffffffffffffffffffffffffffff1681526020019081526020016000205414611a9557600080fd5b6001611aa083612496565b6008016000611aae85612496565b60000160009054906101000a900473ffffffffffffffffffffffffffffffffffffffff1673ffffffffffffffffffffffffffffffffffffffff1673ffffffffffffffffffffffffffffffffffffffff1681526020019081526020016000205414611b1757600080fd5b611b2082612496565b60010160009054906101000a900473ffffffffffffffffffffffffffffffffffffffff1673ffffffffffffffffffffffffffffffffffffffff166108fc611b6684612496565b600201549081150290604051600060405180830381858888f19350505050158015611b95573d6000803e3d6000fd5b50611b9f82612496565b60000160009054906101000a900473ffffffffffffffffffffffffffffffffffffffff1673ffffffffffffffffffffffffffffffffffffffff166108fc611be584612496565b600301549081150290604051600060405180830381858888f19350505050158015611c14573d6000803e3d6000fd5b50611c1e82612496565b60010160009054906101000a900473ffffffffffffffffffffffffffffffffffffffff1673ffffffffffffffffffffffffffffffffffffffff166108fc611c6484612496565b600301549081150290604051600060405180830381858888f19350505050158015611c93573d6000803e3d6000fd5b507fd54aabd3141f0694c3f533b346119d27c2eb3248d4f866d6bd8299c78b128daf604051611cc190612d3a565b60405180910390a15050565b611cd56125ed565b611ce1858585856124f6565b90506000808673ffffffffffffffffffffffffffffffffffffffff1673ffffffffffffffffffffffffffffffffffffffff168152602001908152602001600020819080600181540180825580915050906001820390600052602060002090600902016000909192909190915060008201518160000160006101000a81548173ffffffffffffffffffffffffffffffffffffffff021916908373ffffffffffffffffffffffffffffffffffffffff16021790555060208201518160010160006101000a81548173ffffffffffffffffffffffffffffffffffffffff021916908373ffffffffffffffffffffffffffffffffffffffff16021790555060408201518160020155606082015181600301556080820151816004015560a08201518160050160006101000a81548160ff02191690836002811115611e1d57fe5b02179055505050506000808573ffffffffffffffffffffffffffffffffffffffff1673ffffffffffffffffffffffffffffffffffffffff168152602001908152602001600020819080600181540180825580915050906001820390600052602060002090600902016000909192909190915060008201518160000160006101000a81548173ffffffffffffffffffffffffffffffffffffffff021916908373ffffffffffffffffffffffffffffffffffffffff16021790555060208201518160010160006101000a81548173ffffffffffffffffffffffffffffffffffffffff021916908373ffffffffffffffffffffffffffffffffffffffff16021790555060408201518160020155606082015181600301556080820151816004015560a08201518160050160006101000a81548160ff02191690836002811115611f5f57fe5b0217905550505050611fb960018060008873ffffffffffffffffffffffffffffffffffffffff1673ffffffffffffffffffffffffffffffffffffffff168152602001908152602001600020546125a290919063ffffffff16565b600160008773ffffffffffffffffffffffffffffffffffffffff1673ffffffffffffffffffffffffffffffffffffffff1681526020019081526020016000208190555061204e60018060008873ffffffffffffffffffffffffffffffffffffffff1673ffffffffffffffffffffffffffffffffffffffff168152602001908152602001600020546125a290919063ffffffff16565b600160008673ffffffffffffffffffffffffffffffffffffffff1673ffffffffffffffffffffffffffffffffffffffff168152602001908152602001600020819055507f9e46342a5a4a55c6cfe0a6f7c9f82bf30233357f64e02dca6ca4ab8ccd7614798585858560006040516120c9959493929190612b8d565b60405180910390a15050505050565b806120e281612496565b60000160009054906101000a900473ffffffffffffffffffffffffffffffffffffffff1673ffffffffffffffffffffffffffffffffffffffff163373ffffffffffffffffffffffffffffffffffffffff161461213d57600080fd5b61214682612496565b60030154341461215557600080fd5b600061216083612496565b60070160003373ffffffffffffffffffffffffffffffffffffffff1673ffffffffffffffffffffffffffffffffffffffff16815260200190815260200160002054146121ab57600080fd5b60016121b683612496565b60070160003373ffffffffffffffffffffffffffffffffffffffff1673ffffffffffffffffffffffffffffffffffffffff168152602001908152602001600020819055507f0109c07b399c647a3567815a956a02e0badfd3ed527a3fdb992031fae5d005f9333460405161222b929190612c54565b60405180910390a15050565b8061224181612496565b60000160009054906101000a900473ffffffffffffffffffffffffffffffffffffffff1673ffffffffffffffffffffffffffffffffffffffff163373ffffffffffffffffffffffffffffffffffffffff161461229c57600080fd5b6122a582612496565b6002015434146122b457600080fd5b60016122bf83612496565b60070160006122cd85612496565b60000160009054906101000a900473ffffffffffffffffffffffffffffffffffffffff1673ffffffffffffffffffffffffffffffffffffffff1673ffffffffffffffffffffffffffffffffffffffff168152602001908152602001600020541461233657600080fd5b600161234183612496565b600701600061234f85612496565b60010160009054906101000a900473ffffffffffffffffffffffffffffffffffffffff1673ffffffffffffffffffffffffffffffffffffffff1673ffffffffffffffffffffffffffffffffffffffff16815260200190815260200160002054146123b857600080fd5b60006123c383612496565b60080160003373ffffffffffffffffffffffffffffffffffffffff1673ffffffffffffffffffffffffffffffffffffffff168152602001908152602001600020541461240e57600080fd5b600161241983612496565b60080160003373ffffffffffffffffffffffffffffffffffffffff1673ffffffffffffffffffffffffffffffffffffffff168152602001908152602001600020819055507fdbafb049923bd24c9143b7aea787bb9133f12c9bc10e8ff7f1be6e2f13028c9760405161248a90612d9a565b60405180910390a15050565b60008060003373ffffffffffffffffffffffffffffffffffffffff1673ffffffffffffffffffffffffffffffffffffffff16815260200190815260200160002082815481106124e157fe5b90600052602060002090600902019050919050565b6124fe6125ed565b6040518060c001604052808673ffffffffffffffffffffffffffffffffffffffff1681526020018573ffffffffffffffffffffffffffffffffffffffff16815260200161255c670de0b6b3a7640000866125be90919063ffffffff16565b815260200161257c670de0b6b3a7640000856125be90919063ffffffff16565b8152602001600081526020016000600281111561259557fe5b8152509050949350505050565b6000808284019050838110156125b457fe5b8091505092915050565b600080828402905060008414806125dd5750828482816125da57fe5b04145b6125e357fe5b8091505092915050565b6040518060c00160405280600073ffffffffffffffffffffffffffffffffffffffff168152602001600073ffffffffffffffffffffffffffffffffffffffff1681526020016000815260200160008152602001600081526020016000600281111561265457fe5b81525090565b60008135905061266981612f3d565b92915050565b60008135905061267e81612f54565b92915050565b60008135905061269381612f6b565b92915050565b6000602082840312156126ab57600080fd5b60006126b98482850161265a565b91505092915050565b600080600080608085870312156126d857600080fd5b60006126e68782880161266f565b94505060206126f78782880161266f565b935050604061270887828801612684565b925050606061271987828801612684565b91505092959194509250565b6000806040838503121561273857600080fd5b60006127468582860161265a565b925050602061275785828601612684565b9150509250929050565b60006020828403121561277357600080fd5b600061278184828501612684565b91505092915050565b61279381612e92565b82525050565b6127a281612e43565b82525050565b6127b181612e31565b82525050565b6127c081612ea4565b82525050565b6127cf81612eb6565b82525050565b60006127e082612e15565b6127ea8185612e20565b93506127fa818560208601612eec565b61280381612f1f565b840191505092915050565b600061281b602583612e20565b91507f7468652073656c6c65722068617320726576657273656420746865697220646560008301527f706f7369740000000000000000000000000000000000000000000000000000006020830152604082019050919050565b6000612881605383612e20565b91507f5468652073656c6c657220686173206265656e207061696420616e6420616c6c60008301527f206465706f736974732068617665206265656e2072657475726e6564202d207460208301527f72616e73616374696f6e20636f6d706c657465000000000000000000000000006040830152606082019050919050565b600061290d601f83612e20565b91507f746865206465706f736974732068617665206265656e2072657475726e6564006000830152602082019050919050565b600061294d600483612e20565b91507f4f70656e000000000000000000000000000000000000000000000000000000006000830152602082019050919050565b600061298d603583612e20565b91507f746865206465706f73697420636c61696d206861732031206f7574206f66203260008301527f206e6563657373617279207369676e61747572657300000000000000000000006020830152604082019050919050565b60006129f3602083612e20565b91507f686173206d61646520746865207265717569726564206465706f736974206f666000830152602082019050919050565b6000612a33602f83612e20565b91507f4275796572206861732073656e7420746865207061796d656e7420616d6f756e60008301527f7420746f2074686520657363726f7700000000000000000000000000000000006020830152604082019050919050565b6000612a99605783612e20565b91507f54686520627579657220686173206265656e20726566756e64656420616e642060008301527f616c6c206465706f736974732068617665206265656e2072657475726e65642060208301527f2d207472616e73616374696f6e2063616e63656c6c65640000000000000000006040830152606082019050919050565b6000612b25602483612e20565b91507f746865206275796572206861732072657665727365642074686569722064657060008301527f6f736974000000000000000000000000000000000000000000000000000000006020830152604082019050919050565b612b8781612e88565b82525050565b600060c082019050612ba2600083018861278a565b612baf602083018761278a565b612bbc6040830186612b7e565b612bc96060830185612b7e565b612bd660808301846127c6565b81810360a0830152612be781612940565b90509695505050505050565b600060c082019050612c086000830189612799565b612c156020830188612799565b612c226040830187612b7e565b612c2f6060830186612b7e565b612c3c6080830185612b7e565b612c4960a08301846127b7565b979650505050505050565b6000606082019050612c69600083018561278a565b8181036020830152612c7a816129e6565b9050612c896040830184612b7e565b9392505050565b600060c082019050612ca560008301896127a8565b612cb260208301886127a8565b612cbf6040830187612b7e565b612ccc6060830186612b7e565b612cd96080830185612b7e565b81810360a0830152612ceb81846127d5565b9050979650505050505050565b60006020820190508181036000830152612d1281846127d5565b905092915050565b60006020820190508181036000830152612d338161280e565b9050919050565b60006020820190508181036000830152612d5381612874565b9050919050565b60006020820190508181036000830152612d7381612900565b9050919050565b60006020820190508181036000830152612d9381612980565b9050919050565b60006020820190508181036000830152612db381612a26565b9050919050565b60006020820190508181036000830152612dd381612a8c565b9050919050565b60006020820190508181036000830152612df381612b18565b9050919050565b6000602082019050612e0f6000830184612b7e565b92915050565b600081519050919050565b600082825260208201905092915050565b6000612e3c82612e68565b9050919050565b6000612e4e82612e68565b9050919050565b6000819050612e6382612f30565b919050565b600073ffffffffffffffffffffffffffffffffffffffff82169050919050565b6000819050919050565b6000612e9d82612ec8565b9050919050565b6000612eaf82612e55565b9050919050565b6000612ec182612e88565b9050919050565b6000612ed382612eda565b9050919050565b6000612ee582612e68565b9050919050565b60005b83811015612f0a578082015181840152602081019050612eef565b83811115612f19576000848401525b50505050565b6000601f19601f8301169050919050565b60038110612f3a57fe5b50565b612f4681612e31565b8114612f5157600080fd5b50565b612f5d81612e43565b8114612f6857600080fd5b50565b612f7481612e88565b8114612f7f57600080fd5b5056fea365627a7a72315820cdbff67318566b39866219546fd2fd8742bc4dbaefd777c016055bb1691173266c6578706572696d656e74616cf564736f6c63430005100040",
  "source": "pragma solidity ^0.5.16;\npragma experimental ABIEncoderV2;\n\nimport \"./EscrowFactory.sol\";\n\ncontract EscrowExchange is EscrowFactory {\n\n\tevent ContractCreated(address buyer, address seller, uint amount, uint deposit, uint signatureCount, string status);\n\n\tfunction getContractForCurrentUser(uint index) public view returns (address, address, uint, uint, uint, string memory){\n\t\tEscrowContract memory retrieved_contract = contractsForUser[msg.sender][index];\n        return (retrieved_contract.buyer, retrieved_contract.seller, retrieved_contract.amount, retrieved_contract.deposit, retrieved_contract.signatureCount, checkStatus(uint(retrieved_contract.status)));\n    }\n\n    function createContract(address payable buyer, address payable seller, uint amount, uint deposit) public {\n    \tEscrowContract memory newContract = _createContract(buyer, seller, amount, deposit);\n    \t// For looping through contracts later on.\n    \tcontractsForUser[buyer].push(newContract);\n    \tcontractsForUser[seller].push(newContract);\n    \townerContractCount[buyer] = ownerContractCount[buyer].add(1);\n    \townerContractCount[seller] = ownerContractCount[buyer].add(1);\n\n    \temit ContractCreated(buyer, seller, amount, deposit, 0, \"Open\");\n    }\n\n    function checkStatus(uint id) public view returns (string memory){\n\n        string memory status = \"\";\n\n        if (uint(contractsForUser[msg.sender][id].status) == 0){\n            status = \"Open\";\n        } else if (uint(contractsForUser[msg.sender][id].status) == 1){\n            status = \"Pending\";\n        } else{\n            status = \"Closed\";\n        }\n\n        return (status);\n    }\n}",
  "sourcePath": "/Users/donaldlee/Developer/PointsExchange/contracts/EscrowExchange.sol",
  "compiler": {
    "name": "solc",
    "version": "0.5.16+commit.9c3226ce.Emscripten.clang"
  },
  "schemaVersion": "3.3.3",
  "updatedAt": "2021-04-04T21:58:09.208Z",
  "networkType": "ethereum",
  "devdoc": {
    "methods": {}
  },
  "userdoc": {
    "methods": {}
  }
}