{
  "contractName": "EscrowExchange",
  "abi": [
    {
      "anonymous": false,
      "inputs": [
        {
          "indexed": false,
          "internalType": "string",
          "name": "msg",
          "type": "string"
        }
      ],
      "name": "AmountSent",
      "type": "event"
    },
    {
      "anonymous": false,
      "inputs": [
        {
          "indexed": false,
          "internalType": "string",
          "name": "msg",
          "type": "string"
        }
      ],
      "name": "BuyerDepositReversed",
      "type": "event"
    },
    {
      "anonymous": false,
      "inputs": [
        {
          "indexed": false,
          "internalType": "address",
          "name": "from",
          "type": "address"
        },
        {
          "indexed": false,
          "internalType": "string",
          "name": "msg",
          "type": "string"
        },
        {
          "indexed": false,
          "internalType": "uint256",
          "name": "amount",
          "type": "uint256"
        }
      ],
      "name": "BuyerDeposited",
      "type": "event"
    },
    {
      "anonymous": false,
      "inputs": [
        {
          "indexed": false,
          "internalType": "string",
          "name": "msg",
          "type": "string"
        }
      ],
      "name": "BuyerRefunded",
      "type": "event"
    },
    {
      "anonymous": false,
      "inputs": [
        {
          "indexed": false,
          "internalType": "address",
          "name": "buyer",
          "type": "address"
        },
        {
          "indexed": false,
          "internalType": "address",
          "name": "seller",
          "type": "address"
        },
        {
          "indexed": false,
          "internalType": "uint256",
          "name": "amount",
          "type": "uint256"
        },
        {
          "indexed": false,
          "internalType": "uint256",
          "name": "deposit",
          "type": "uint256"
        },
        {
          "indexed": false,
          "internalType": "uint256",
          "name": "signatureCount",
          "type": "uint256"
        },
        {
          "indexed": false,
          "internalType": "uint256",
          "name": "depositCount",
          "type": "uint256"
        },
        {
          "indexed": false,
          "internalType": "uint256",
          "name": "amountCount",
          "type": "uint256"
        },
        {
          "indexed": false,
          "internalType": "string",
          "name": "status",
          "type": "string"
        },
        {
          "indexed": false,
          "internalType": "string",
          "name": "notes",
          "type": "string"
        },
        {
          "indexed": false,
          "internalType": "bool",
          "name": "depositMade",
          "type": "bool"
        }
      ],
      "name": "ContractCreated",
      "type": "event"
    },
    {
      "anonymous": false,
      "inputs": [
        {
          "indexed": false,
          "internalType": "string",
          "name": "msg",
          "type": "string"
        }
      ],
      "name": "DepositPartialClaim",
      "type": "event"
    },
    {
      "anonymous": false,
      "inputs": [
        {
          "indexed": false,
          "internalType": "string",
          "name": "msg",
          "type": "string"
        }
      ],
      "name": "DepositsClaimed",
      "type": "event"
    },
    {
      "anonymous": false,
      "inputs": [
        {
          "indexed": false,
          "internalType": "string",
          "name": "msg",
          "type": "string"
        }
      ],
      "name": "SellerDepositReversed",
      "type": "event"
    },
    {
      "anonymous": false,
      "inputs": [
        {
          "indexed": false,
          "internalType": "address",
          "name": "from",
          "type": "address"
        },
        {
          "indexed": false,
          "internalType": "string",
          "name": "msg",
          "type": "string"
        },
        {
          "indexed": false,
          "internalType": "uint256",
          "name": "amount",
          "type": "uint256"
        }
      ],
      "name": "SellerDeposited",
      "type": "event"
    },
    {
      "anonymous": false,
      "inputs": [
        {
          "indexed": false,
          "internalType": "string",
          "name": "msg",
          "type": "string"
        }
      ],
      "name": "SellerPaid",
      "type": "event"
    },
    {
      "constant": false,
      "inputs": [
        {
          "internalType": "uint256",
          "name": "contract_id",
          "type": "uint256"
        }
      ],
      "name": "buyerDeposit",
      "outputs": [],
      "payable": true,
      "stateMutability": "payable",
      "type": "function"
    },
    {
      "constant": false,
      "inputs": [
        {
          "internalType": "uint256",
          "name": "contract_id",
          "type": "uint256"
        }
      ],
      "name": "claimDeposits",
      "outputs": [],
      "payable": false,
      "stateMutability": "nonpayable",
      "type": "function"
    },
    {
      "constant": true,
      "inputs": [
        {
          "internalType": "address",
          "name": "",
          "type": "address"
        },
        {
          "internalType": "uint256",
          "name": "",
          "type": "uint256"
        }
      ],
      "name": "contractsForUser",
      "outputs": [
        {
          "internalType": "address payable",
          "name": "buyer",
          "type": "address"
        },
        {
          "internalType": "address payable",
          "name": "seller",
          "type": "address"
        },
        {
          "internalType": "uint256",
          "name": "amount",
          "type": "uint256"
        },
        {
          "internalType": "uint256",
          "name": "deposit",
          "type": "uint256"
        },
        {
          "internalType": "uint256",
          "name": "signatureCount",
          "type": "uint256"
        },
        {
          "internalType": "uint256",
          "name": "depositCount",
          "type": "uint256"
        },
        {
          "internalType": "uint256",
          "name": "amountCount",
          "type": "uint256"
        },
        {
          "internalType": "enum EscrowFactory.Status",
          "name": "status",
          "type": "uint8"
        },
        {
          "internalType": "string",
          "name": "notes",
          "type": "string"
        }
      ],
      "payable": false,
      "stateMutability": "view",
      "type": "function"
    },
    {
      "constant": true,
      "inputs": [
        {
          "internalType": "address",
          "name": "",
          "type": "address"
        }
      ],
      "name": "ownerContractCount",
      "outputs": [
        {
          "internalType": "uint256",
          "name": "",
          "type": "uint256"
        }
      ],
      "payable": false,
      "stateMutability": "view",
      "type": "function"
    },
    {
      "constant": false,
      "inputs": [
        {
          "internalType": "uint256",
          "name": "contract_id",
          "type": "uint256"
        }
      ],
      "name": "paySeller",
      "outputs": [],
      "payable": false,
      "stateMutability": "nonpayable",
      "type": "function"
    },
    {
      "constant": false,
      "inputs": [
        {
          "internalType": "uint256",
          "name": "contract_id",
          "type": "uint256"
        }
      ],
      "name": "refundBuyer",
      "outputs": [],
      "payable": false,
      "stateMutability": "nonpayable",
      "type": "function"
    },
    {
      "constant": false,
      "inputs": [
        {
          "internalType": "uint256",
          "name": "contract_id",
          "type": "uint256"
        }
      ],
      "name": "reverseBuyerDeposit",
      "outputs": [],
      "payable": false,
      "stateMutability": "nonpayable",
      "type": "function"
    },
    {
      "constant": false,
      "inputs": [
        {
          "internalType": "uint256",
          "name": "contract_id",
          "type": "uint256"
        }
      ],
      "name": "reverseSellerDeposit",
      "outputs": [],
      "payable": false,
      "stateMutability": "nonpayable",
      "type": "function"
    },
    {
      "constant": false,
      "inputs": [
        {
          "internalType": "uint256",
          "name": "contract_id",
          "type": "uint256"
        }
      ],
      "name": "sellerDeposit",
      "outputs": [],
      "payable": true,
      "stateMutability": "payable",
      "type": "function"
    },
    {
      "constant": false,
      "inputs": [
        {
          "internalType": "uint256",
          "name": "contract_id",
          "type": "uint256"
        }
      ],
      "name": "sendAmount",
      "outputs": [],
      "payable": true,
      "stateMutability": "payable",
      "type": "function"
    },
    {
      "constant": true,
      "inputs": [
        {
          "internalType": "uint256",
          "name": "index",
          "type": "uint256"
        }
      ],
      "name": "getContractForCurrentUser",
      "outputs": [
        {
          "internalType": "address",
          "name": "",
          "type": "address"
        },
        {
          "internalType": "address",
          "name": "",
          "type": "address"
        },
        {
          "internalType": "uint256",
          "name": "",
          "type": "uint256"
        },
        {
          "internalType": "uint256",
          "name": "",
          "type": "uint256"
        },
        {
          "internalType": "uint256",
          "name": "",
          "type": "uint256"
        },
        {
          "internalType": "uint256",
          "name": "",
          "type": "uint256"
        },
        {
          "internalType": "uint256",
          "name": "",
          "type": "uint256"
        },
        {
          "internalType": "string",
          "name": "",
          "type": "string"
        },
        {
          "internalType": "string",
          "name": "",
          "type": "string"
        },
        {
          "internalType": "uint256",
          "name": "",
          "type": "uint256"
        }
      ],
      "payable": false,
      "stateMutability": "view",
      "type": "function"
    },
    {
      "constant": true,
      "inputs": [],
      "name": "getContractCountForCurrentUser",
      "outputs": [
        {
          "internalType": "uint256",
          "name": "",
          "type": "uint256"
        }
      ],
      "payable": false,
      "stateMutability": "view",
      "type": "function"
    },
    {
      "constant": false,
      "inputs": [
        {
          "internalType": "address payable",
          "name": "buyer",
          "type": "address"
        },
        {
          "internalType": "address payable",
          "name": "seller",
          "type": "address"
        },
        {
          "internalType": "uint256",
          "name": "amount",
          "type": "uint256"
        },
        {
          "internalType": "uint256",
          "name": "deposit",
          "type": "uint256"
        },
        {
          "internalType": "string",
          "name": "notes",
          "type": "string"
        }
      ],
      "name": "createContract",
      "outputs": [],
      "payable": false,
      "stateMutability": "nonpayable",
      "type": "function"
    }
  ],
  "bytecode": "0x608060405234801561001057600080fd5b506133fb806100206000396000f3fe6080604052600436106100c25760003560e01c80634a47248c1161007f5780636a3661a6116100595780636a3661a6146102785780636deba5f3146102a1578063e1ab5711146102bd578063fd72b6e9146102e8576100c2565b80634a47248c146101e057806360cc106214610209578063683024671461024f576100c2565b80630eb47922146100c75780630f063dab146100e35780632cc4007814610120578063392927631461014957806342998736146101725780634709384f146101b7575b600080fd5b6100e160048036036100dc9190810190612a3b565b610304565b005b3480156100ef57600080fd5b5061010a60048036036101059190810190612947565b61047f565b60405161011791906131b1565b60405180910390f35b34801561012c57600080fd5b5061014760048036036101429190810190612a3b565b610497565b005b34801561015557600080fd5b50610170600480360361016b9190810190612a3b565b6107b5565b005b34801561017e57600080fd5b50610199600480360361019491908101906129ff565b610b56565b6040516101ae99989796959493929190612f57565b60405180910390f35b3480156101c357600080fd5b506101de60048036036101d99190810190612a3b565b610ca3565b005b3480156101ec57600080fd5b5061020760048036036102029190810190612a3b565b611347565b005b34801561021557600080fd5b50610230600480360361022b9190810190612a3b565b611665565b6040516102469a99989796959493929190613027565b60405180910390f35b34801561025b57600080fd5b5061027660048036036102719190810190612a3b565b611861565b005b34801561028457600080fd5b5061029f600480360361029a9190810190612970565b611c02565b005b6102bb60048036036102b69190810190612a3b565b61207d565b005b3480156102c957600080fd5b506102d26121f8565b6040516102df91906131b1565b60405180910390f35b61030260048036036102fd9190810190612a3b565b61223f565b005b8061030e816124ba565b60010160009054906101000a900473ffffffffffffffffffffffffffffffffffffffff1673ffffffffffffffffffffffffffffffffffffffff163373ffffffffffffffffffffffffffffffffffffffff161461036957600080fd5b610372826124ba565b60030154341461038157600080fd5b600061038c836124ba565b600a0160003373ffffffffffffffffffffffffffffffffffffffff1673ffffffffffffffffffffffffffffffffffffffff16815260200190815260200160002054146103d757600080fd5b60016103e2836124ba565b600a0160003373ffffffffffffffffffffffffffffffffffffffff1673ffffffffffffffffffffffffffffffffffffffff1681526020019081526020016000208190555061042f826124ba565b600501600081548092919060010191905055507feaa52bf3f740eaa050012695cd117e2182b5c032c7fc36dbcdfc74189f68ab2e3334604051610473929190612feb565b60405180910390a15050565b60016020528060005260406000206000915090505481565b806104a1816124ba565b60000160009054906101000a900473ffffffffffffffffffffffffffffffffffffffff1673ffffffffffffffffffffffffffffffffffffffff163373ffffffffffffffffffffffffffffffffffffffff16146104fc57600080fd5b6001610507836124ba565b600a016000610515856124ba565b60000160009054906101000a900473ffffffffffffffffffffffffffffffffffffffff1673ffffffffffffffffffffffffffffffffffffffff1673ffffffffffffffffffffffffffffffffffffffff168152602001908152602001600020541461057e57600080fd5b6000610589836124ba565b600a016000610597856124ba565b60010160009054906101000a900473ffffffffffffffffffffffffffffffffffffffff1673ffffffffffffffffffffffffffffffffffffffff1673ffffffffffffffffffffffffffffffffffffffff168152602001908152602001600020541461060057600080fd5b600061060b836124ba565b600b016000610619856124ba565b60000160009054906101000a900473ffffffffffffffffffffffffffffffffffffffff1673ffffffffffffffffffffffffffffffffffffffff1673ffffffffffffffffffffffffffffffffffffffff168152602001908152602001600020541461068257600080fd5b600061068d836124ba565b600a01600061069b856124ba565b60000160009054906101000a900473ffffffffffffffffffffffffffffffffffffffff1673ffffffffffffffffffffffffffffffffffffffff1673ffffffffffffffffffffffffffffffffffffffff16815260200190815260200160002081905550610706826124ba565b60000160009054906101000a900473ffffffffffffffffffffffffffffffffffffffff1673ffffffffffffffffffffffffffffffffffffffff166108fc61074c846124ba565b600301549081150290604051600060405180830381858888f1935050505015801561077b573d6000803e3d6000fd5b507f022a173fa68fb425cd1264890a0951b5a57aa7f1fcdc49e3262e86c1189ec9b16040516107a990613191565b60405180910390a15050565b806107bf816124ba565b60010160009054906101000a900473ffffffffffffffffffffffffffffffffffffffff1673ffffffffffffffffffffffffffffffffffffffff163373ffffffffffffffffffffffffffffffffffffffff161461081a57600080fd5b6001610825836124ba565b600a016000610833856124ba565b60000160009054906101000a900473ffffffffffffffffffffffffffffffffffffffff1673ffffffffffffffffffffffffffffffffffffffff1673ffffffffffffffffffffffffffffffffffffffff168152602001908152602001600020541461089c57600080fd5b60016108a7836124ba565b600a0160006108b5856124ba565b60010160009054906101000a900473ffffffffffffffffffffffffffffffffffffffff1673ffffffffffffffffffffffffffffffffffffffff1673ffffffffffffffffffffffffffffffffffffffff168152602001908152602001600020541461091e57600080fd5b6001610929836124ba565b600b016000610937856124ba565b60000160009054906101000a900473ffffffffffffffffffffffffffffffffffffffff1673ffffffffffffffffffffffffffffffffffffffff1673ffffffffffffffffffffffffffffffffffffffff16815260200190815260200160002054146109a057600080fd5b6109a9826124ba565b60000160009054906101000a900473ffffffffffffffffffffffffffffffffffffffff1673ffffffffffffffffffffffffffffffffffffffff166108fc6109ef846124ba565b600201549081150290604051600060405180830381858888f19350505050158015610a1e573d6000803e3d6000fd5b50610a28826124ba565b60010160009054906101000a900473ffffffffffffffffffffffffffffffffffffffff1673ffffffffffffffffffffffffffffffffffffffff166108fc610a6e846124ba565b600301549081150290604051600060405180830381858888f19350505050158015610a9d573d6000803e3d6000fd5b50610aa7826124ba565b60000160009054906101000a900473ffffffffffffffffffffffffffffffffffffffff1673ffffffffffffffffffffffffffffffffffffffff166108fc610aed846124ba565b600301549081150290604051600060405180830381858888f19350505050158015610b1c573d6000803e3d6000fd5b507f1355ee9ef69549a50f8d0008c6cd588a9759815d1b30ee62ed168c2bb7a24a62604051610b4a90613171565b60405180910390a15050565b60006020528160005260406000208181548110610b6f57fe5b90600052602060002090600c0201600091509150508060000160009054906101000a900473ffffffffffffffffffffffffffffffffffffffff16908060010160009054906101000a900473ffffffffffffffffffffffffffffffffffffffff16908060020154908060030154908060040154908060050154908060060154908060070160009054906101000a900460ff1690806008018054600181600116156101000203166002900480601f016020809104026020016040519081016040528092919081815260200182805460018160011615610100020316600290048015610c995780601f10610c6e57610100808354040283529160200191610c99565b820191906000526020600020905b815481529060010190602001808311610c7c57829003601f168201915b5050505050905089565b80610cad816124ba565b60010160009054906101000a900473ffffffffffffffffffffffffffffffffffffffff1673ffffffffffffffffffffffffffffffffffffffff163373ffffffffffffffffffffffffffffffffffffffff161480610d615750610d0e816124ba565b60000160009054906101000a900473ffffffffffffffffffffffffffffffffffffffff1673ffffffffffffffffffffffffffffffffffffffff163373ffffffffffffffffffffffffffffffffffffffff16145b610d6a57600080fd5b6001610d75836124ba565b600a016000610d83856124ba565b60000160009054906101000a900473ffffffffffffffffffffffffffffffffffffffff1673ffffffffffffffffffffffffffffffffffffffff1673ffffffffffffffffffffffffffffffffffffffff1681526020019081526020016000205414610dec57600080fd5b6001610df7836124ba565b600a016000610e05856124ba565b60010160009054906101000a900473ffffffffffffffffffffffffffffffffffffffff1673ffffffffffffffffffffffffffffffffffffffff1673ffffffffffffffffffffffffffffffffffffffff1681526020019081526020016000205414610e6e57600080fd5b6000610e79836124ba565b600b016000610e87856124ba565b60000160009054906101000a900473ffffffffffffffffffffffffffffffffffffffff1673ffffffffffffffffffffffffffffffffffffffff1673ffffffffffffffffffffffffffffffffffffffff1681526020019081526020016000205414610ef057600080fd5b6000610efb836124ba565b60090160003373ffffffffffffffffffffffffffffffffffffffff1673ffffffffffffffffffffffffffffffffffffffff1681526020019081526020016000205414610f4657600080fd5b6001610f51836124ba565b60090160003373ffffffffffffffffffffffffffffffffffffffff1673ffffffffffffffffffffffffffffffffffffffff16815260200190815260200160002081905550610f9e826124ba565b600401600081548092919060010191905055506001610fbc836124ba565b600401541415610ffc577f87463abc399fbbddfcd563f22d61267e4c0402b336940699382407adce42e5a2604051610ff390613131565b60405180910390a15b6002611007836124ba565b6004015414156113435761101a826124ba565b60000160009054906101000a900473ffffffffffffffffffffffffffffffffffffffff1673ffffffffffffffffffffffffffffffffffffffff166108fc611060846124ba565b600301549081150290604051600060405180830381858888f1935050505015801561108f573d6000803e3d6000fd5b50611099826124ba565b60010160009054906101000a900473ffffffffffffffffffffffffffffffffffffffff1673ffffffffffffffffffffffffffffffffffffffff166108fc6110df846124ba565b600301549081150290604051600060405180830381858888f1935050505015801561110e573d6000803e3d6000fd5b50600061111a836124ba565b600a016000611128856124ba565b60000160009054906101000a900473ffffffffffffffffffffffffffffffffffffffff1673ffffffffffffffffffffffffffffffffffffffff1673ffffffffffffffffffffffffffffffffffffffff168152602001908152602001600020819055506000611195836124ba565b600a0160006111a3856124ba565b60010160009054906101000a900473ffffffffffffffffffffffffffffffffffffffff1673ffffffffffffffffffffffffffffffffffffffff1673ffffffffffffffffffffffffffffffffffffffff168152602001908152602001600020819055506000611210836124ba565b600901600061121e856124ba565b60000160009054906101000a900473ffffffffffffffffffffffffffffffffffffffff1673ffffffffffffffffffffffffffffffffffffffff1673ffffffffffffffffffffffffffffffffffffffff16815260200190815260200160002081905550600061128b836124ba565b6009016000611299856124ba565b60010160009054906101000a900473ffffffffffffffffffffffffffffffffffffffff1673ffffffffffffffffffffffffffffffffffffffff1673ffffffffffffffffffffffffffffffffffffffff168152602001908152602001600020819055506000611306836124ba565b600401819055507fd397a3b1b662401574a4482307d3aaaa5413f8af98a7053e3473935f4d0659ed60405161133a90613111565b60405180910390a15b5050565b80611351816124ba565b60010160009054906101000a900473ffffffffffffffffffffffffffffffffffffffff1673ffffffffffffffffffffffffffffffffffffffff163373ffffffffffffffffffffffffffffffffffffffff16146113ac57600080fd5b60016113b7836124ba565b600a0160006113c5856124ba565b60010160009054906101000a900473ffffffffffffffffffffffffffffffffffffffff1673ffffffffffffffffffffffffffffffffffffffff1673ffffffffffffffffffffffffffffffffffffffff168152602001908152602001600020541461142e57600080fd5b6000611439836124ba565b600a016000611447856124ba565b60000160009054906101000a900473ffffffffffffffffffffffffffffffffffffffff1673ffffffffffffffffffffffffffffffffffffffff1673ffffffffffffffffffffffffffffffffffffffff16815260200190815260200160002054146114b057600080fd5b60006114bb836124ba565b600b0160006114c9856124ba565b60000160009054906101000a900473ffffffffffffffffffffffffffffffffffffffff1673ffffffffffffffffffffffffffffffffffffffff1673ffffffffffffffffffffffffffffffffffffffff168152602001908152602001600020541461153257600080fd5b600061153d836124ba565b600a01600061154b856124ba565b60010160009054906101000a900473ffffffffffffffffffffffffffffffffffffffff1673ffffffffffffffffffffffffffffffffffffffff1673ffffffffffffffffffffffffffffffffffffffff168152602001908152602001600020819055506115b6826124ba565b60010160009054906101000a900473ffffffffffffffffffffffffffffffffffffffff1673ffffffffffffffffffffffffffffffffffffffff166108fc6115fc846124ba565b600301549081150290604051600060405180830381858888f1935050505015801561162b573d6000803e3d6000fd5b507f68899ad50909030043672ec750f7e234201226c34f9efa036d99c5432d220a39604051611659906130d1565b60405180910390a15050565b60008060008060008060006060806000806000803373ffffffffffffffffffffffffffffffffffffffff1673ffffffffffffffffffffffffffffffffffffffff1681526020019081526020016000208c815481106116bf57fe5b90600052602060002090600c020190508060000160009054906101000a900473ffffffffffffffffffffffffffffffffffffffff168160010160009054906101000a900473ffffffffffffffffffffffffffffffffffffffff16826002015483600301548460040154856005015486600601546117578860070160009054906101000a900460ff16600281111561175257fe5b61251a565b8860080189600a0160003373ffffffffffffffffffffffffffffffffffffffff1673ffffffffffffffffffffffffffffffffffffffff16815260200190815260200160002054899950889850818054600181600116156101000203166002900480601f0160208091040260200160405190810160405280929190818152602001828054600181600116156101000203166002900480156118385780601f1061180d57610100808354040283529160200191611838565b820191906000526020600020905b81548152906001019060200180831161181b57829003601f168201915b505050505091509a509a509a509a509a509a509a509a509a509a50509193959799509193959799565b8061186b816124ba565b60000160009054906101000a900473ffffffffffffffffffffffffffffffffffffffff1673ffffffffffffffffffffffffffffffffffffffff163373ffffffffffffffffffffffffffffffffffffffff16146118c657600080fd5b60016118d1836124ba565b600a0160006118df856124ba565b60000160009054906101000a900473ffffffffffffffffffffffffffffffffffffffff1673ffffffffffffffffffffffffffffffffffffffff1673ffffffffffffffffffffffffffffffffffffffff168152602001908152602001600020541461194857600080fd5b6001611953836124ba565b600a016000611961856124ba565b60010160009054906101000a900473ffffffffffffffffffffffffffffffffffffffff1673ffffffffffffffffffffffffffffffffffffffff1673ffffffffffffffffffffffffffffffffffffffff16815260200190815260200160002054146119ca57600080fd5b60016119d5836124ba565b600b0160006119e3856124ba565b60000160009054906101000a900473ffffffffffffffffffffffffffffffffffffffff1673ffffffffffffffffffffffffffffffffffffffff1673ffffffffffffffffffffffffffffffffffffffff1681526020019081526020016000205414611a4c57600080fd5b611a55826124ba565b60010160009054906101000a900473ffffffffffffffffffffffffffffffffffffffff1673ffffffffffffffffffffffffffffffffffffffff166108fc611a9b846124ba565b600201549081150290604051600060405180830381858888f19350505050158015611aca573d6000803e3d6000fd5b50611ad4826124ba565b60000160009054906101000a900473ffffffffffffffffffffffffffffffffffffffff1673ffffffffffffffffffffffffffffffffffffffff166108fc611b1a846124ba565b600301549081150290604051600060405180830381858888f19350505050158015611b49573d6000803e3d6000fd5b50611b53826124ba565b60010160009054906101000a900473ffffffffffffffffffffffffffffffffffffffff1673ffffffffffffffffffffffffffffffffffffffff166108fc611b99846124ba565b600301549081150290604051600060405180830381858888f19350505050158015611bc8573d6000803e3d6000fd5b507fd54aabd3141f0694c3f533b346119d27c2eb3248d4f866d6bd8299c78b128daf604051611bf6906130f1565b60405180910390a15050565b611c0a61278c565b611c1786868686866126e2565b90506000808773ffffffffffffffffffffffffffffffffffffffff1673ffffffffffffffffffffffffffffffffffffffff168152602001908152602001600020819080600181540180825580915050906001820390600052602060002090600c02016000909192909190915060008201518160000160006101000a81548173ffffffffffffffffffffffffffffffffffffffff021916908373ffffffffffffffffffffffffffffffffffffffff16021790555060208201518160010160006101000a81548173ffffffffffffffffffffffffffffffffffffffff021916908373ffffffffffffffffffffffffffffffffffffffff16021790555060408201518160020155606082015181600301556080820151816004015560a0820151816005015560c0820151816006015560e08201518160070160006101000a81548160ff02191690836002811115611d6757fe5b0217905550610100820151816008019080519060200190611d8992919061280f565b505050506000808673ffffffffffffffffffffffffffffffffffffffff1673ffffffffffffffffffffffffffffffffffffffff168152602001908152602001600020819080600181540180825580915050906001820390600052602060002090600c02016000909192909190915060008201518160000160006101000a81548173ffffffffffffffffffffffffffffffffffffffff021916908373ffffffffffffffffffffffffffffffffffffffff16021790555060208201518160010160006101000a81548173ffffffffffffffffffffffffffffffffffffffff021916908373ffffffffffffffffffffffffffffffffffffffff16021790555060408201518160020155606082015181600301556080820151816004015560a0820151816005015560c0820151816006015560e08201518160070160006101000a81548160ff02191690836002811115611edb57fe5b0217905550610100820151816008019080519060200190611efd92919061280f565b50505050611f5360018060008973ffffffffffffffffffffffffffffffffffffffff1673ffffffffffffffffffffffffffffffffffffffff1681526020019081526020016000205461277090919063ffffffff16565b600160008873ffffffffffffffffffffffffffffffffffffffff1673ffffffffffffffffffffffffffffffffffffffff16815260200190815260200160002081905550611fe860018060008873ffffffffffffffffffffffffffffffffffffffff1673ffffffffffffffffffffffffffffffffffffffff1681526020019081526020016000205461277090919063ffffffff16565b600160008773ffffffffffffffffffffffffffffffffffffffff1673ffffffffffffffffffffffffffffffffffffffff168152602001908152602001600020819055507f8e9fd2f03a6e8b6225119163703c5c9d8c2dbd727a72b5e0f25862c9cffc8aa386868686600080600089600060405161206d99989796959493929190612eaf565b60405180910390a1505050505050565b80612087816124ba565b60000160009054906101000a900473ffffffffffffffffffffffffffffffffffffffff1673ffffffffffffffffffffffffffffffffffffffff163373ffffffffffffffffffffffffffffffffffffffff16146120e257600080fd5b6120eb826124ba565b6003015434146120fa57600080fd5b6000612105836124ba565b600a0160003373ffffffffffffffffffffffffffffffffffffffff1673ffffffffffffffffffffffffffffffffffffffff168152602001908152602001600020541461215057600080fd5b600161215b836124ba565b600a0160003373ffffffffffffffffffffffffffffffffffffffff1673ffffffffffffffffffffffffffffffffffffffff168152602001908152602001600020819055506121a8826124ba565b600501600081548092919060010191905055507f0109c07b399c647a3567815a956a02e0badfd3ed527a3fdb992031fae5d005f933346040516121ec929190612feb565b60405180910390a15050565b6000600160003373ffffffffffffffffffffffffffffffffffffffff1673ffffffffffffffffffffffffffffffffffffffff16815260200190815260200160002054905090565b80612249816124ba565b60000160009054906101000a900473ffffffffffffffffffffffffffffffffffffffff1673ffffffffffffffffffffffffffffffffffffffff163373ffffffffffffffffffffffffffffffffffffffff16146122a457600080fd5b6122ad826124ba565b6002015434146122bc57600080fd5b60016122c7836124ba565b600a0160006122d5856124ba565b60000160009054906101000a900473ffffffffffffffffffffffffffffffffffffffff1673ffffffffffffffffffffffffffffffffffffffff1673ffffffffffffffffffffffffffffffffffffffff168152602001908152602001600020541461233e57600080fd5b6001612349836124ba565b600a016000612357856124ba565b60010160009054906101000a900473ffffffffffffffffffffffffffffffffffffffff1673ffffffffffffffffffffffffffffffffffffffff1673ffffffffffffffffffffffffffffffffffffffff16815260200190815260200160002054146123c057600080fd5b60006123cb836124ba565b600b0160003373ffffffffffffffffffffffffffffffffffffffff1673ffffffffffffffffffffffffffffffffffffffff168152602001908152602001600020541461241657600080fd5b6001612421836124ba565b600b0160003373ffffffffffffffffffffffffffffffffffffffff1673ffffffffffffffffffffffffffffffffffffffff1681526020019081526020016000208190555061246e826124ba565b600601600081548092919060010191905055507fdbafb049923bd24c9143b7aea787bb9133f12c9bc10e8ff7f1be6e2f13028c976040516124ae90613151565b60405180910390a15050565b60008060003373ffffffffffffffffffffffffffffffffffffffff1673ffffffffffffffffffffffffffffffffffffffff168152602001908152602001600020828154811061250557fe5b90600052602060002090600c02019050919050565b60608060405180602001604052806000815250905060008060003373ffffffffffffffffffffffffffffffffffffffff1673ffffffffffffffffffffffffffffffffffffffff168152602001908152602001600020848154811061257a57fe5b90600052602060002090600c020160070160009054906101000a900460ff1660028111156125a457fe5b14156125e7576040518060400160405280600481526020017f4f70656e0000000000000000000000000000000000000000000000000000000081525090506126d9565b60016000803373ffffffffffffffffffffffffffffffffffffffff1673ffffffffffffffffffffffffffffffffffffffff168152602001908152602001600020848154811061263257fe5b90600052602060002090600c020160070160009054906101000a900460ff16600281111561265c57fe5b141561269f576040518060400160405280600781526020017f50656e64696e670000000000000000000000000000000000000000000000000081525090506126d8565b6040518060400160405280600681526020017f436c6f736564000000000000000000000000000000000000000000000000000081525090505b5b80915050919050565b6126ea61278c565b6040518061012001604052808773ffffffffffffffffffffffffffffffffffffffff1681526020018673ffffffffffffffffffffffffffffffffffffffff1681526020018581526020018481526020016000815260200160008152602001600081526020016000600281111561275c57fe5b815260200183815250905095945050505050565b60008082840190508381101561278257fe5b8091505092915050565b604051806101200160405280600073ffffffffffffffffffffffffffffffffffffffff168152602001600073ffffffffffffffffffffffffffffffffffffffff16815260200160008152602001600081526020016000815260200160008152602001600081526020016000600281111561280257fe5b8152602001606081525090565b828054600181600116156101000203166002900490600052602060002090601f016020900481019282601f1061285057805160ff191683800117855561287e565b8280016001018555821561287e579182015b8281111561287d578251825591602001919060010190612862565b5b50905061288b919061288f565b5090565b6128b191905b808211156128ad576000816000905550600101612895565b5090565b90565b6000813590506128c381613373565b92915050565b6000813590506128d88161338a565b92915050565b600082601f8301126128ef57600080fd5b81356129026128fd826131f9565b6131cc565b9150808252602083016020830185838301111561291e57600080fd5b612929838284613313565b50505092915050565b600081359050612941816133a1565b92915050565b60006020828403121561295957600080fd5b6000612967848285016128b4565b91505092915050565b600080600080600060a0868803121561298857600080fd5b6000612996888289016128c9565b95505060206129a7888289016128c9565b94505060406129b888828901612932565b93505060606129c988828901612932565b925050608086013567ffffffffffffffff8111156129e657600080fd5b6129f2888289016128de565b9150509295509295909350565b60008060408385031215612a1257600080fd5b6000612a20858286016128b4565b9250506020612a3185828601612932565b9150509250929050565b600060208284031215612a4d57600080fd5b6000612a5b84828501612932565b91505092915050565b612a6d816132b9565b82525050565b612a7c8161325e565b82525050565b612a8b8161324c565b82525050565b612a9a81613270565b82525050565b612aa9816132cb565b82525050565b612ab8816132dd565b82525050565b6000612ac982613230565b612ad3818561323b565b9350612ae3818560208601613322565b612aec81613355565b840191505092915050565b6000612b0282613225565b612b0c818561323b565b9350612b1c818560208601613322565b612b2581613355565b840191505092915050565b6000612b3d60258361323b565b91507f7468652073656c6c65722068617320726576657273656420746865697220646560008301527f706f7369740000000000000000000000000000000000000000000000000000006020830152604082019050919050565b6000612ba360538361323b565b91507f5468652073656c6c657220686173206265656e207061696420616e6420616c6c60008301527f206465706f736974732068617665206265656e2072657475726e6564202d207460208301527f72616e73616374696f6e20636f6d706c657465000000000000000000000000006040830152606082019050919050565b6000612c2f601f8361323b565b91507f746865206465706f736974732068617665206265656e2072657475726e6564006000830152602082019050919050565b6000612c6f60048361323b565b91507f4f70656e000000000000000000000000000000000000000000000000000000006000830152602082019050919050565b6000612caf60358361323b565b91507f746865206465706f73697420636c61696d206861732031206f7574206f66203260008301527f206e6563657373617279207369676e61747572657300000000000000000000006020830152604082019050919050565b6000612d1560208361323b565b91507f686173206d61646520746865207265717569726564206465706f736974206f666000830152602082019050919050565b6000612d55602f8361323b565b91507f4275796572206861732073656e7420746865207061796d656e7420616d6f756e60008301527f7420746f2074686520657363726f7700000000000000000000000000000000006020830152604082019050919050565b6000612dbb60578361323b565b91507f54686520627579657220686173206265656e20726566756e64656420616e642060008301527f616c6c206465706f736974732068617665206265656e2072657475726e65642060208301527f2d207472616e73616374696f6e2063616e63656c6c65640000000000000000006040830152606082019050919050565b6000612e4760248361323b565b91507f746865206275796572206861732072657665727365642074686569722064657060008301527f6f736974000000000000000000000000000000000000000000000000000000006020830152604082019050919050565b612ea9816132af565b82525050565b600061014082019050612ec5600083018c612a64565b612ed2602083018b612a64565b612edf604083018a612ea0565b612eec6060830189612ea0565b612ef96080830188612aaf565b612f0660a0830187612aaf565b612f1360c0830186612aaf565b81810360e0830152612f2481612c62565b9050818103610100830152612f398185612abe565b9050612f49610120830184612a91565b9a9950505050505050505050565b600061012082019050612f6d600083018c612a73565b612f7a602083018b612a73565b612f87604083018a612ea0565b612f946060830189612ea0565b612fa16080830188612ea0565b612fae60a0830187612ea0565b612fbb60c0830186612ea0565b612fc860e0830185612aa0565b818103610100830152612fdb8184612af7565b90509a9950505050505050505050565b60006060820190506130006000830185612a64565b818103602083015261301181612d08565b90506130206040830184612ea0565b9392505050565b60006101408201905061303d600083018d612a82565b61304a602083018c612a82565b613057604083018b612ea0565b613064606083018a612ea0565b6130716080830189612ea0565b61307e60a0830188612ea0565b61308b60c0830187612ea0565b81810360e083015261309d8186612abe565b90508181036101008301526130b28185612abe565b90506130c2610120830184612ea0565b9b9a5050505050505050505050565b600060208201905081810360008301526130ea81612b30565b9050919050565b6000602082019050818103600083015261310a81612b96565b9050919050565b6000602082019050818103600083015261312a81612c22565b9050919050565b6000602082019050818103600083015261314a81612ca2565b9050919050565b6000602082019050818103600083015261316a81612d48565b9050919050565b6000602082019050818103600083015261318a81612dae565b9050919050565b600060208201905081810360008301526131aa81612e3a565b9050919050565b60006020820190506131c66000830184612ea0565b92915050565b6000604051905081810181811067ffffffffffffffff821117156131ef57600080fd5b8060405250919050565b600067ffffffffffffffff82111561321057600080fd5b601f19601f8301169050602081019050919050565b600081519050919050565b600081519050919050565b600082825260208201905092915050565b60006132578261328f565b9050919050565b60006132698261328f565b9050919050565b60008115159050919050565b600081905061328a82613366565b919050565b600073ffffffffffffffffffffffffffffffffffffffff82169050919050565b6000819050919050565b60006132c4826132ef565b9050919050565b60006132d68261327c565b9050919050565b60006132e8826132af565b9050919050565b60006132fa82613301565b9050919050565b600061330c8261328f565b9050919050565b82818337600083830152505050565b60005b83811015613340578082015181840152602081019050613325565b8381111561334f576000848401525b50505050565b6000601f19601f8301169050919050565b6003811061337057fe5b50565b61337c8161324c565b811461338757600080fd5b50565b6133938161325e565b811461339e57600080fd5b50565b6133aa816132af565b81146133b557600080fd5b5056fea365627a7a72315820d1deba5b3381d5ed3972ff46ae81f3b02a7a8719a633a2ee64d318c1d7eb773e6c6578706572696d656e74616cf564736f6c63430005100040",
  "source": "pragma solidity ^0.5.16;\npragma experimental ABIEncoderV2;\n\nimport \"./EscrowFactory.sol\";\n\ncontract EscrowExchange is EscrowFactory {\n\n\tevent ContractCreated(address buyer, address seller, uint amount, uint deposit, uint signatureCount, uint depositCount, uint amountCount, string status, string notes, bool depositMade);\n\n\tfunction getContractForCurrentUser(uint index) public view returns (address, address, uint, uint, uint, uint, uint, string memory, string memory, uint){\n\t\tEscrowContract storage retrieved_contract = contractsForUser[msg.sender][index];\n\n        return (retrieved_contract.buyer, \n        \tretrieved_contract.seller, \n        \tretrieved_contract.amount, \n        \tretrieved_contract.deposit, \n        \tretrieved_contract.signatureCount,\n        \tretrieved_contract.depositCount,\n        \tretrieved_contract.amountCount,\n        \tcheckStatus(uint(retrieved_contract.status)), \n        \tretrieved_contract.notes,\n        \tretrieved_contract.depositCheck[msg.sender]\n        );\n    }\n\n    function getContractCountForCurrentUser() external view returns (uint) {\n\t    return ownerContractCount[msg.sender];\n\t }\n\n    function createContract(address payable buyer, address payable seller, uint amount, uint deposit, string memory notes) public {\n    \tEscrowContract memory newContract = _createContract(buyer, seller, amount, deposit, notes);\n    \t// For looping through contracts later on.\n    \tcontractsForUser[buyer].push(newContract);\n    \tcontractsForUser[seller].push(newContract);\n    \townerContractCount[buyer] = ownerContractCount[buyer].add(1);\n    \townerContractCount[seller] = ownerContractCount[seller].add(1);\n\n    \temit ContractCreated(buyer, seller, amount, deposit, 0, 0, 0, \"Open\", notes, false);\n    }\n\n    function checkStatus(uint id) private view returns (string memory){\n\n        string memory status = \"\";\n\n        if (uint(contractsForUser[msg.sender][id].status) == 0){\n            status = \"Open\";\n        } else if (uint(contractsForUser[msg.sender][id].status) == 1){\n            status = \"Pending\";\n        } else{\n            status = \"Closed\";\n        }\n\n        return (status);\n    }\n}",
  "sourcePath": "/Users/donaldlee/Developer/PointsExchange/contracts/EscrowExchange.sol",
  "compiler": {
    "name": "solc",
    "version": "0.5.16+commit.9c3226ce.Emscripten.clang"
  },
  "schemaVersion": "3.3.3",
  "updatedAt": "2021-04-27T01:05:11.154Z",
  "networkType": "ethereum",
  "devdoc": {
    "methods": {}
  },
  "userdoc": {
    "methods": {}
  }
}