{
  "contractName": "EscrowFactory",
  "abi": [
    {
      "inputs": [
        {
          "internalType": "address payable",
          "name": "_buyer",
          "type": "address"
        },
        {
          "internalType": "address payable",
          "name": "_seller",
          "type": "address"
        },
        {
          "internalType": "uint256",
          "name": "_amount",
          "type": "uint256"
        },
        {
          "internalType": "uint256",
          "name": "_deposit",
          "type": "uint256"
        },
        {
          "internalType": "string",
          "name": "_notes",
          "type": "string"
        },
        {
          "internalType": "address payable",
          "name": "_owner",
          "type": "address"
        }
      ],
      "payable": false,
      "stateMutability": "nonpayable",
      "type": "constructor"
    },
    {
      "anonymous": false,
      "inputs": [
        {
          "indexed": false,
          "internalType": "string",
          "name": "msg",
          "type": "string"
        }
      ],
      "name": "AdminActionRequested",
      "type": "event"
    },
    {
      "anonymous": false,
      "inputs": [
        {
          "indexed": false,
          "internalType": "string",
          "name": "msg",
          "type": "string"
        }
      ],
      "name": "AmountSent",
      "type": "event"
    },
    {
      "anonymous": false,
      "inputs": [
        {
          "indexed": false,
          "internalType": "string",
          "name": "msg",
          "type": "string"
        }
      ],
      "name": "BuyerDepositReversed",
      "type": "event"
    },
    {
      "anonymous": false,
      "inputs": [
        {
          "indexed": false,
          "internalType": "address",
          "name": "from",
          "type": "address"
        },
        {
          "indexed": false,
          "internalType": "string",
          "name": "msg",
          "type": "string"
        },
        {
          "indexed": false,
          "internalType": "uint256",
          "name": "amount",
          "type": "uint256"
        }
      ],
      "name": "BuyerDeposited",
      "type": "event"
    },
    {
      "anonymous": false,
      "inputs": [
        {
          "indexed": false,
          "internalType": "string",
          "name": "msg",
          "type": "string"
        }
      ],
      "name": "BuyerRefunded",
      "type": "event"
    },
    {
      "anonymous": false,
      "inputs": [
        {
          "indexed": false,
          "internalType": "string",
          "name": "msg",
          "type": "string"
        }
      ],
      "name": "ContractActionCompletedByAdmin",
      "type": "event"
    },
    {
      "anonymous": false,
      "inputs": [
        {
          "indexed": false,
          "internalType": "string",
          "name": "msg",
          "type": "string"
        }
      ],
      "name": "DepositPartialClaim",
      "type": "event"
    },
    {
      "anonymous": false,
      "inputs": [
        {
          "indexed": false,
          "internalType": "string",
          "name": "msg",
          "type": "string"
        }
      ],
      "name": "DepositsClaimed",
      "type": "event"
    },
    {
      "anonymous": false,
      "inputs": [
        {
          "indexed": false,
          "internalType": "string",
          "name": "msg",
          "type": "string"
        }
      ],
      "name": "SellerDepositReversed",
      "type": "event"
    },
    {
      "anonymous": false,
      "inputs": [
        {
          "indexed": false,
          "internalType": "address",
          "name": "from",
          "type": "address"
        },
        {
          "indexed": false,
          "internalType": "string",
          "name": "msg",
          "type": "string"
        },
        {
          "indexed": false,
          "internalType": "uint256",
          "name": "amount",
          "type": "uint256"
        }
      ],
      "name": "SellerDeposited",
      "type": "event"
    },
    {
      "anonymous": false,
      "inputs": [
        {
          "indexed": false,
          "internalType": "string",
          "name": "msg",
          "type": "string"
        }
      ],
      "name": "SellerPaid",
      "type": "event"
    },
    {
      "constant": true,
      "inputs": [],
      "name": "amount",
      "outputs": [
        {
          "internalType": "uint256",
          "name": "",
          "type": "uint256"
        }
      ],
      "payable": false,
      "stateMutability": "view",
      "type": "function"
    },
    {
      "constant": true,
      "inputs": [
        {
          "internalType": "address",
          "name": "",
          "type": "address"
        }
      ],
      "name": "amountCheck",
      "outputs": [
        {
          "internalType": "uint256",
          "name": "",
          "type": "uint256"
        }
      ],
      "payable": false,
      "stateMutability": "view",
      "type": "function"
    },
    {
      "constant": true,
      "inputs": [],
      "name": "buyer",
      "outputs": [
        {
          "internalType": "address payable",
          "name": "",
          "type": "address"
        }
      ],
      "payable": false,
      "stateMutability": "view",
      "type": "function"
    },
    {
      "constant": true,
      "inputs": [],
      "name": "contractComplete",
      "outputs": [
        {
          "internalType": "bool",
          "name": "",
          "type": "bool"
        }
      ],
      "payable": false,
      "stateMutability": "view",
      "type": "function"
    },
    {
      "constant": true,
      "inputs": [],
      "name": "deposit",
      "outputs": [
        {
          "internalType": "uint256",
          "name": "",
          "type": "uint256"
        }
      ],
      "payable": false,
      "stateMutability": "view",
      "type": "function"
    },
    {
      "constant": true,
      "inputs": [
        {
          "internalType": "address",
          "name": "",
          "type": "address"
        }
      ],
      "name": "depositCheck",
      "outputs": [
        {
          "internalType": "uint256",
          "name": "",
          "type": "uint256"
        }
      ],
      "payable": false,
      "stateMutability": "view",
      "type": "function"
    },
    {
      "constant": true,
      "inputs": [],
      "name": "notes",
      "outputs": [
        {
          "internalType": "string",
          "name": "",
          "type": "string"
        }
      ],
      "payable": false,
      "stateMutability": "view",
      "type": "function"
    },
    {
      "constant": true,
      "inputs": [],
      "name": "owner",
      "outputs": [
        {
          "internalType": "address payable",
          "name": "",
          "type": "address"
        }
      ],
      "payable": false,
      "stateMutability": "view",
      "type": "function"
    },
    {
      "constant": true,
      "inputs": [
        {
          "internalType": "uint256",
          "name": "",
          "type": "uint256"
        }
      ],
      "name": "party",
      "outputs": [
        {
          "internalType": "address",
          "name": "",
          "type": "address"
        }
      ],
      "payable": false,
      "stateMutability": "view",
      "type": "function"
    },
    {
      "constant": true,
      "inputs": [],
      "name": "seller",
      "outputs": [
        {
          "internalType": "address payable",
          "name": "",
          "type": "address"
        }
      ],
      "payable": false,
      "stateMutability": "view",
      "type": "function"
    },
    {
      "constant": true,
      "inputs": [],
      "name": "signatureCount",
      "outputs": [
        {
          "internalType": "uint8",
          "name": "",
          "type": "uint8"
        }
      ],
      "payable": false,
      "stateMutability": "view",
      "type": "function"
    },
    {
      "constant": true,
      "inputs": [
        {
          "internalType": "address",
          "name": "",
          "type": "address"
        }
      ],
      "name": "signatures",
      "outputs": [
        {
          "internalType": "uint256",
          "name": "",
          "type": "uint256"
        }
      ],
      "payable": false,
      "stateMutability": "view",
      "type": "function"
    },
    {
      "constant": true,
      "inputs": [],
      "name": "status",
      "outputs": [
        {
          "internalType": "enum EscrowFactory.Status",
          "name": "",
          "type": "uint8"
        }
      ],
      "payable": false,
      "stateMutability": "view",
      "type": "function"
    },
    {
      "constant": false,
      "inputs": [],
      "name": "buyerDeposit",
      "outputs": [],
      "payable": true,
      "stateMutability": "payable",
      "type": "function"
    },
    {
      "constant": false,
      "inputs": [],
      "name": "sellerDeposit",
      "outputs": [],
      "payable": true,
      "stateMutability": "payable",
      "type": "function"
    },
    {
      "constant": false,
      "inputs": [],
      "name": "reverseBuyerDeposit",
      "outputs": [],
      "payable": false,
      "stateMutability": "nonpayable",
      "type": "function"
    },
    {
      "constant": false,
      "inputs": [],
      "name": "reverseSellerDeposit",
      "outputs": [],
      "payable": false,
      "stateMutability": "nonpayable",
      "type": "function"
    },
    {
      "constant": false,
      "inputs": [],
      "name": "claimDeposits",
      "outputs": [],
      "payable": false,
      "stateMutability": "nonpayable",
      "type": "function"
    },
    {
      "constant": false,
      "inputs": [],
      "name": "sendAmount",
      "outputs": [],
      "payable": true,
      "stateMutability": "payable",
      "type": "function"
    },
    {
      "constant": false,
      "inputs": [],
      "name": "paySeller",
      "outputs": [],
      "payable": false,
      "stateMutability": "nonpayable",
      "type": "function"
    },
    {
      "constant": false,
      "inputs": [],
      "name": "refundBuyer",
      "outputs": [],
      "payable": false,
      "stateMutability": "nonpayable",
      "type": "function"
    },
    {
      "constant": false,
      "inputs": [
        {
          "internalType": "string",
          "name": "_notes",
          "type": "string"
        }
      ],
      "name": "requestAdminAction",
      "outputs": [],
      "payable": false,
      "stateMutability": "nonpayable",
      "type": "function"
    },
    {
      "constant": false,
      "inputs": [
        {
          "internalType": "bool",
          "name": "isAdmin",
          "type": "bool"
        },
        {
          "internalType": "uint8",
          "name": "_action",
          "type": "uint8"
        }
      ],
      "name": "adminContractTakeAction",
      "outputs": [],
      "payable": false,
      "stateMutability": "nonpayable",
      "type": "function"
    },
    {
      "constant": true,
      "inputs": [
        {
          "internalType": "address",
          "name": "a",
          "type": "address"
        }
      ],
      "name": "getIfAddressDeposited",
      "outputs": [
        {
          "internalType": "uint256",
          "name": "",
          "type": "uint256"
        }
      ],
      "payable": false,
      "stateMutability": "view",
      "type": "function"
    },
    {
      "constant": true,
      "inputs": [],
      "name": "getContractStatus",
      "outputs": [
        {
          "internalType": "string",
          "name": "",
          "type": "string"
        }
      ],
      "payable": false,
      "stateMutability": "view",
      "type": "function"
    },
    {
      "constant": true,
      "inputs": [
        {
          "internalType": "address",
          "name": "a",
          "type": "address"
        }
      ],
      "name": "getSignature",
      "outputs": [
        {
          "internalType": "uint256",
          "name": "",
          "type": "uint256"
        }
      ],
      "payable": false,
      "stateMutability": "view",
      "type": "function"
    },
    {
      "constant": true,
      "inputs": [
        {
          "internalType": "address",
          "name": "a",
          "type": "address"
        }
      ],
      "name": "getAmountCheck",
      "outputs": [
        {
          "internalType": "uint256",
          "name": "",
          "type": "uint256"
        }
      ],
      "payable": false,
      "stateMutability": "view",
      "type": "function"
    }
  ],
  "bytecode": "0x60806040523480156200001157600080fd5b506040516200403c3803806200403c833981810160405260c08110156200003757600080fd5b8101908080519060200190929190805190602001909291908051906020019092919080519060200190929190805160405193929190846401000000008211156200008057600080fd5b838201915060208201858111156200009757600080fd5b8251866001820283011164010000000082111715620000b557600080fd5b8083526020830192505050908051906020019080838360005b83811015620000eb578082015181840152602081019050620000ce565b50505050905090810190601f168015620001195780820380516001836020036101000a031916815260200191505b5060405260200180519060200190929190505050856000806101000a81548173ffffffffffffffffffffffffffffffffffffffff021916908373ffffffffffffffffffffffffffffffffffffffff16021790555084600160006101000a81548173ffffffffffffffffffffffffffffffffffffffff021916908373ffffffffffffffffffffffffffffffffffffffff16021790555083600481905550826005819055508160079080519060200190620001d4929190620003de565b506000600660016101000a81548160ff02191690836003811115620001f557fe5b02179055506000600860006101000a81548160ff02191690831515021790555060038690806001815401808255809150509060018203906000526020600020016000909192909190916101000a81548173ffffffffffffffffffffffffffffffffffffffff021916908373ffffffffffffffffffffffffffffffffffffffff1602179055505060038590806001815401808255809150509060018203906000526020600020016000909192909190916101000a81548173ffffffffffffffffffffffffffffffffffffffff021916908373ffffffffffffffffffffffffffffffffffffffff160217905550506001600960008873ffffffffffffffffffffffffffffffffffffffff1673ffffffffffffffffffffffffffffffffffffffff16815260200190815260200160002060006101000a81548160ff0219169083151502179055506001600960008773ffffffffffffffffffffffffffffffffffffffff1673ffffffffffffffffffffffffffffffffffffffff16815260200190815260200160002060006101000a81548160ff02191690831515021790555080600260006101000a81548173ffffffffffffffffffffffffffffffffffffffff021916908373ffffffffffffffffffffffffffffffffffffffff1602179055505050505050506200048d565b828054600181600116156101000203166002900490600052602060002090601f016020900481019282601f106200042157805160ff191683800117855562000452565b8280016001018555821562000452579182015b828111156200045157825182559160200191906001019062000434565b5b50905062000461919062000465565b5090565b6200048a91905b80821115620004865760008160009055506001016200046c565b5090565b90565b613b9f806200049d6000396000f3fe60806040526004361061019c5760003560e01c80638b2b3d8b116100ec578063be7e69fd1161008a578063d0e30db011610064578063d0e30db0146108a7578063e7f55ed6146108d2578063e8a61cc814610903578063f8fe98891461091a5761019c565b8063be7e69fd1461079b578063c032846b146107b2578063c792f36d146108425761019c565b8063a0c97bce116100c6578063a0c97bce1461062c578063aa8c217c14610643578063ab404ff01461066e578063bada8736146106d35761019c565b80638b2b3d8b146105c15780638da5cb5b146105cb578063a0579587146106225761019c565b8063314fd68f11610159578063537eeb5111610133578063537eeb51146104715780637150d8ae146104d657806386fef2361461052d57806389264201146105925761019c565b8063314fd68f146103a25780633bd0387b1461041d5780634c1786ea146104675761019c565b806303828aee146101a157806308551a53146102065780631432c2811461025d5780631866dc9714610274578063200d2ed214610304578063277fc0e91461033d575b600080fd5b3480156101ad57600080fd5b506101f0600480360360208110156101c457600080fd5b81019080803573ffffffffffffffffffffffffffffffffffffffff169060200190929190505050610931565b6040518082815260200191505060405180910390f35b34801561021257600080fd5b5061021b61097a565b604051808273ffffffffffffffffffffffffffffffffffffffff1673ffffffffffffffffffffffffffffffffffffffff16815260200191505060405180910390f35b34801561026957600080fd5b506102726109a0565b005b34801561028057600080fd5b50610289611124565b6040518080602001828103825283818151815260200191508051906020019080838360005b838110156102c95780820151818401526020810190506102ae565b50505050905090810190601f1680156102f65780820380516001836020036101000a031916815260200191505b509250505060405180910390f35b34801561031057600080fd5b506103196111c2565b6040518082600381111561032957fe5b60ff16815260200191505060405180910390f35b34801561034957600080fd5b5061038c6004803603602081101561036057600080fd5b81019080803573ffffffffffffffffffffffffffffffffffffffff1690602001909291905050506111d5565b6040518082815260200191505060405180910390f35b3480156103ae57600080fd5b506103db600480360360208110156103c557600080fd5b810190808035906020019092919050505061121e565b604051808273ffffffffffffffffffffffffffffffffffffffff1673ffffffffffffffffffffffffffffffffffffffff16815260200191505060405180910390f35b34801561042957600080fd5b506104656004803603604081101561044057600080fd5b81019080803515159060200190929190803560ff16906020019092919050505061125a565b005b61046f61191e565b005b34801561047d57600080fd5b506104c06004803603602081101561049457600080fd5b81019080803573ffffffffffffffffffffffffffffffffffffffff169060200190929190505050611b8f565b6040518082815260200191505060405180910390f35b3480156104e257600080fd5b506104eb611ba7565b604051808273ffffffffffffffffffffffffffffffffffffffff1673ffffffffffffffffffffffffffffffffffffffff16815260200191505060405180910390f35b34801561053957600080fd5b5061057c6004803603602081101561055057600080fd5b81019080803573ffffffffffffffffffffffffffffffffffffffff169060200190929190505050611bcc565b6040518082815260200191505060405180910390f35b34801561059e57600080fd5b506105a7611c15565b604051808215151515815260200191505060405180910390f35b6105c9611c28565b005b3480156105d757600080fd5b506105e0611fec565b604051808273ffffffffffffffffffffffffffffffffffffffff1673ffffffffffffffffffffffffffffffffffffffff16815260200191505060405180910390f35b61062a612012565b005b34801561063857600080fd5b50610641612282565b005b34801561064f57600080fd5b5061065861272a565b6040518082815260200191505060405180910390f35b34801561067a57600080fd5b506106bd6004803603602081101561069157600080fd5b81019080803573ffffffffffffffffffffffffffffffffffffffff169060200190929190505050612730565b6040518082815260200191505060405180910390f35b3480156106df57600080fd5b50610799600480360360208110156106f657600080fd5b810190808035906020019064010000000081111561071357600080fd5b82018360208201111561072557600080fd5b8035906020019184600183028401116401000000008311171561074757600080fd5b91908080601f016020809104026020016040519081016040528093929190818152602001838380828437600081840152601f19601f820116905080830192505050505050509192919290505050612748565b005b3480156107a757600080fd5b506107b0612b2d565b005b3480156107be57600080fd5b506107c7612e6d565b6040518080602001828103825283818151815260200191508051906020019080838360005b838110156108075780820151818401526020810190506107ec565b50505050905090810190601f1680156108345780820380516001836020036101000a031916815260200191505b509250505060405180910390f35b34801561084e57600080fd5b506108916004803603602081101561086557600080fd5b81019080803573ffffffffffffffffffffffffffffffffffffffff169060200190929190505050612feb565b6040518082815260200191505060405180910390f35b3480156108b357600080fd5b506108bc613003565b6040518082815260200191505060405180910390f35b3480156108de57600080fd5b506108e7613009565b604051808260ff1660ff16815260200191505060405180910390f35b34801561090f57600080fd5b5061091861301c565b005b34801561092657600080fd5b5061092f6134c4565b005b6000600b60008373ffffffffffffffffffffffffffffffffffffffff1673ffffffffffffffffffffffffffffffffffffffff168152602001908152602001600020549050919050565b600160009054906101000a900473ffffffffffffffffffffffffffffffffffffffff1681565b33600960008273ffffffffffffffffffffffffffffffffffffffff1673ffffffffffffffffffffffffffffffffffffffff16815260200190815260200160002060009054906101000a900460ff166109f757600080fd5b6001600b60008060009054906101000a900473ffffffffffffffffffffffffffffffffffffffff1673ffffffffffffffffffffffffffffffffffffffff1673ffffffffffffffffffffffffffffffffffffffff1681526020019081526020016000205414610acd576040517f08c379a00000000000000000000000000000000000000000000000000000000081526004018080602001828103825260108152602001807f6465706f7369742072657175697265640000000000000000000000000000000081525060200191505060405180910390fd5b6001600b6000600160009054906101000a900473ffffffffffffffffffffffffffffffffffffffff1673ffffffffffffffffffffffffffffffffffffffff1673ffffffffffffffffffffffffffffffffffffffff1681526020019081526020016000205414610ba4576040517f08c379a00000000000000000000000000000000000000000000000000000000081526004018080602001828103825260108152602001807f6465706f7369742072657175697265640000000000000000000000000000000081525060200191505060405180910390fd5b6000600c60008060009054906101000a900473ffffffffffffffffffffffffffffffffffffffff1673ffffffffffffffffffffffffffffffffffffffff1673ffffffffffffffffffffffffffffffffffffffff1681526020019081526020016000205414610c7a576040517f08c379a000000000000000000000000000000000000000000000000000000000815260040180806020018281038252600c8152602001807f616d6f756e74206578697374000000000000000000000000000000000000000081525060200191505060405180910390fd5b6000600a60003373ffffffffffffffffffffffffffffffffffffffff1673ffffffffffffffffffffffffffffffffffffffff1681526020019081526020016000205414610d2f576040517f08c379a000000000000000000000000000000000000000000000000000000000815260040180806020018281038252600e8152602001807f616c7265616479207369676e656400000000000000000000000000000000000081525060200191505060405180910390fd5b6001600a60003373ffffffffffffffffffffffffffffffffffffffff1673ffffffffffffffffffffffffffffffffffffffff168152602001908152602001600020819055506006600081819054906101000a900460ff168092919060010191906101000a81548160ff021916908360ff160217905550506001600660009054906101000a900460ff1660ff161415610e11577f87463abc399fbbddfcd563f22d61267e4c0402b336940699382407adce42e5a2604051808060200182810382526035815260200180613a886035913960400191505060405180910390a1611121565b6002600660009054906101000a900460ff1660ff161415611120576000809054906101000a900473ffffffffffffffffffffffffffffffffffffffff1673ffffffffffffffffffffffffffffffffffffffff166108fc6005549081150290604051600060405180830381858888f19350505050158015610e95573d6000803e3d6000fd5b50600160009054906101000a900473ffffffffffffffffffffffffffffffffffffffff1673ffffffffffffffffffffffffffffffffffffffff166108fc6005549081150290604051600060405180830381858888f19350505050158015610f00573d6000803e3d6000fd5b506000600b60008060009054906101000a900473ffffffffffffffffffffffffffffffffffffffff1673ffffffffffffffffffffffffffffffffffffffff1673ffffffffffffffffffffffffffffffffffffffff168152602001908152602001600020819055506000600b6000600160009054906101000a900473ffffffffffffffffffffffffffffffffffffffff1673ffffffffffffffffffffffffffffffffffffffff1673ffffffffffffffffffffffffffffffffffffffff168152602001908152602001600020819055506000600a60008060009054906101000a900473ffffffffffffffffffffffffffffffffffffffff1673ffffffffffffffffffffffffffffffffffffffff1673ffffffffffffffffffffffffffffffffffffffff168152602001908152602001600020819055506000600a6000600160009054906101000a900473ffffffffffffffffffffffffffffffffffffffff1673ffffffffffffffffffffffffffffffffffffffff1673ffffffffffffffffffffffffffffffffffffffff168152602001908152602001600020819055506000600660006101000a81548160ff021916908360ff1602179055507fd397a3b1b662401574a4482307d3aaaa5413f8af98a7053e3473935f4d0659ed60405180806020018281038252601f8152602001807f746865206465706f736974732068617665206265656e2072657475726e65640081525060200191505060405180910390a15b5b50565b60078054600181600116156101000203166002900480601f0160208091040260200160405190810160405280929190818152602001828054600181600116156101000203166002900480156111ba5780601f1061118f576101008083540402835291602001916111ba565b820191906000526020600020905b81548152906001019060200180831161119d57829003601f168201915b505050505081565b600660019054906101000a900460ff1681565b6000600a60008373ffffffffffffffffffffffffffffffffffffffff1673ffffffffffffffffffffffffffffffffffffffff168152602001908152602001600020549050919050565b6003818154811061122b57fe5b906000526020600020016000915054906101000a900473ffffffffffffffffffffffffffffffffffffffff1681565b81600115158115151461126c57600080fd5b60006103e8600f600554028161127e57fe5b04905060008160026005548161129057fe5b04039050600082600554039050600260009054906101000a900473ffffffffffffffffffffffffffffffffffffffff1673ffffffffffffffffffffffffffffffffffffffff166108fc829081150290604051600060405180830381858888f19350505050158015611305573d6000803e3d6000fd5b506001600b60008060009054906101000a900473ffffffffffffffffffffffffffffffffffffffff1673ffffffffffffffffffffffffffffffffffffffff1673ffffffffffffffffffffffffffffffffffffffff16815260200190815260200160002054141561143e576000809054906101000a900473ffffffffffffffffffffffffffffffffffffffff1673ffffffffffffffffffffffffffffffffffffffff166108fc839081150290604051600060405180830381858888f193505050501580156113d6573d6000803e3d6000fd5b506000600b60008060009054906101000a900473ffffffffffffffffffffffffffffffffffffffff1673ffffffffffffffffffffffffffffffffffffffff1673ffffffffffffffffffffffffffffffffffffffff168152602001908152602001600020819055505b6001600b6000600160009054906101000a900473ffffffffffffffffffffffffffffffffffffffff1673ffffffffffffffffffffffffffffffffffffffff1673ffffffffffffffffffffffffffffffffffffffff16815260200190815260200160002054141561157957600160009054906101000a900473ffffffffffffffffffffffffffffffffffffffff1673ffffffffffffffffffffffffffffffffffffffff166108fc839081150290604051600060405180830381858888f19350505050158015611510573d6000803e3d6000fd5b506000600b6000600160009054906101000a900473ffffffffffffffffffffffffffffffffffffffff1673ffffffffffffffffffffffffffffffffffffffff1673ffffffffffffffffffffffffffffffffffffffff168152602001908152602001600020819055505b6001600c60008060009054906101000a900473ffffffffffffffffffffffffffffffffffffffff1673ffffffffffffffffffffffffffffffffffffffff1673ffffffffffffffffffffffffffffffffffffffff1681526020019081526020016000205414801561160d57506003808111156115f057fe5b600660019054906101000a900460ff16600381111561160b57fe5b145b801561162a57506000600181111561162157fe5b60ff168560ff16145b15611704576000809054906101000a900473ffffffffffffffffffffffffffffffffffffffff1673ffffffffffffffffffffffffffffffffffffffff166108fc6004549081150290604051600060405180830381858888f19350505050158015611698573d6000803e3d6000fd5b506000600c60008060009054906101000a900473ffffffffffffffffffffffffffffffffffffffff1673ffffffffffffffffffffffffffffffffffffffff1673ffffffffffffffffffffffffffffffffffffffff1681526020019081526020016000208190555061188c565b6001600c60008060009054906101000a900473ffffffffffffffffffffffffffffffffffffffff1673ffffffffffffffffffffffffffffffffffffffff1673ffffffffffffffffffffffffffffffffffffffff16815260200190815260200160002054148015611798575060038081111561177b57fe5b600660019054906101000a900460ff16600381111561179657fe5b145b80156117b457506001808111156117ab57fe5b60ff168560ff16145b1561188b57600160009054906101000a900473ffffffffffffffffffffffffffffffffffffffff1673ffffffffffffffffffffffffffffffffffffffff166108fc6004549081150290604051600060405180830381858888f19350505050158015611823573d6000803e3d6000fd5b506000600c60008060009054906101000a900473ffffffffffffffffffffffffffffffffffffffff1673ffffffffffffffffffffffffffffffffffffffff1673ffffffffffffffffffffffffffffffffffffffff168152602001908152602001600020819055505b5b6001600860006101000a81548160ff0219169083151502179055506002600660016101000a81548160ff021916908360038111156118c657fe5b02179055507fe0b751eb2be5e6f7fc3fac7842f5b366e8a003ea7d61675d1b113673aaa7721c60405180806020018281038252606c815260200180613a1c606c913960800191505060405180910390a1505050505050565b600160009054906101000a900473ffffffffffffffffffffffffffffffffffffffff1673ffffffffffffffffffffffffffffffffffffffff163373ffffffffffffffffffffffffffffffffffffffff161461197857600080fd5b60055434146119ef576040517f08c379a000000000000000000000000000000000000000000000000000000000815260040180806020018281038252600f8152602001807f496e76616c6964206465706f736974000000000000000000000000000000000081525060200191505060405180910390fd5b6000600b60003373ffffffffffffffffffffffffffffffffffffffff1673ffffffffffffffffffffffffffffffffffffffff1681526020019081526020016000205414611aa4576040517f08c379a00000000000000000000000000000000000000000000000000000000081526004018080602001828103825260098152602001807f4465706f7369746564000000000000000000000000000000000000000000000081525060200191505060405180910390fd5b6001600b60003373ffffffffffffffffffffffffffffffffffffffff1673ffffffffffffffffffffffffffffffffffffffff168152602001908152602001600020819055507feaa52bf3f740eaa050012695cd117e2182b5c032c7fc36dbcdfc74189f68ab2e3334604051808373ffffffffffffffffffffffffffffffffffffffff1673ffffffffffffffffffffffffffffffffffffffff16815260200180602001838152602001828103825260098152602001807f6465706f73697465640000000000000000000000000000000000000000000000815250602001935050505060405180910390a1565b600c6020528060005260406000206000915090505481565b6000809054906101000a900473ffffffffffffffffffffffffffffffffffffffff1681565b6000600c60008373ffffffffffffffffffffffffffffffffffffffff1673ffffffffffffffffffffffffffffffffffffffff168152602001908152602001600020549050919050565b600860009054906101000a900460ff1681565b6000809054906101000a900473ffffffffffffffffffffffffffffffffffffffff1673ffffffffffffffffffffffffffffffffffffffff163373ffffffffffffffffffffffffffffffffffffffff1614611c8157600080fd5b6004543414611cf8576040517f08c379a000000000000000000000000000000000000000000000000000000000815260040180806020018281038252600e8152602001807f496e76616c696420616d6f756e7400000000000000000000000000000000000081525060200191505060405180910390fd5b6001600b60008060009054906101000a900473ffffffffffffffffffffffffffffffffffffffff1673ffffffffffffffffffffffffffffffffffffffff1673ffffffffffffffffffffffffffffffffffffffff1681526020019081526020016000205414611dce576040517f08c379a00000000000000000000000000000000000000000000000000000000081526004018080602001828103825260108152602001807f6465706f7369742072657175697265640000000000000000000000000000000081525060200191505060405180910390fd5b6001600b6000600160009054906101000a900473ffffffffffffffffffffffffffffffffffffffff1673ffffffffffffffffffffffffffffffffffffffff1673ffffffffffffffffffffffffffffffffffffffff1681526020019081526020016000205414611ea5576040517f08c379a00000000000000000000000000000000000000000000000000000000081526004018080602001828103825260108152602001807f6465706f7369742072657175697265640000000000000000000000000000000081525060200191505060405180910390fd5b6000600c60003373ffffffffffffffffffffffffffffffffffffffff1673ffffffffffffffffffffffffffffffffffffffff1681526020019081526020016000205414611f5a576040517f08c379a000000000000000000000000000000000000000000000000000000000815260040180806020018281038252600c8152602001807f616d6f756e74206578697374000000000000000000000000000000000000000081525060200191505060405180910390fd5b6001600c60003373ffffffffffffffffffffffffffffffffffffffff1673ffffffffffffffffffffffffffffffffffffffff168152602001908152602001600020819055507fdbafb049923bd24c9143b7aea787bb9133f12c9bc10e8ff7f1be6e2f13028c9760405180806020018281038252602f815260200180613abd602f913960400191505060405180910390a1565b600260009054906101000a900473ffffffffffffffffffffffffffffffffffffffff1681565b6000809054906101000a900473ffffffffffffffffffffffffffffffffffffffff1673ffffffffffffffffffffffffffffffffffffffff163373ffffffffffffffffffffffffffffffffffffffff161461206b57600080fd5b60055434146120e2576040517f08c379a000000000000000000000000000000000000000000000000000000000815260040180806020018281038252600f8152602001807f496e76616c6964206465706f736974000000000000000000000000000000000081525060200191505060405180910390fd5b6000600b60003373ffffffffffffffffffffffffffffffffffffffff1673ffffffffffffffffffffffffffffffffffffffff1681526020019081526020016000205414612197576040517f08c379a00000000000000000000000000000000000000000000000000000000081526004018080602001828103825260098152602001807f4465706f7369746564000000000000000000000000000000000000000000000081525060200191505060405180910390fd5b6001600b60003373ffffffffffffffffffffffffffffffffffffffff1673ffffffffffffffffffffffffffffffffffffffff168152602001908152602001600020819055507f0109c07b399c647a3567815a956a02e0badfd3ed527a3fdb992031fae5d005f93334604051808373ffffffffffffffffffffffffffffffffffffffff1673ffffffffffffffffffffffffffffffffffffffff16815260200180602001838152602001828103825260098152602001807f6465706f73697465640000000000000000000000000000000000000000000000815250602001935050505060405180910390a1565b6000809054906101000a900473ffffffffffffffffffffffffffffffffffffffff1673ffffffffffffffffffffffffffffffffffffffff163373ffffffffffffffffffffffffffffffffffffffff16146122db57600080fd5b6001600b60008060009054906101000a900473ffffffffffffffffffffffffffffffffffffffff1673ffffffffffffffffffffffffffffffffffffffff1673ffffffffffffffffffffffffffffffffffffffff16815260200190815260200160002054146123b1576040517f08c379a00000000000000000000000000000000000000000000000000000000081526004018080602001828103825260108152602001807f6465706f7369742072657175697265640000000000000000000000000000000081525060200191505060405180910390fd5b6001600b6000600160009054906101000a900473ffffffffffffffffffffffffffffffffffffffff1673ffffffffffffffffffffffffffffffffffffffff1673ffffffffffffffffffffffffffffffffffffffff1681526020019081526020016000205414612488576040517f08c379a00000000000000000000000000000000000000000000000000000000081526004018080602001828103825260108152602001807f6465706f7369742072657175697265640000000000000000000000000000000081525060200191505060405180910390fd5b6001600c60008060009054906101000a900473ffffffffffffffffffffffffffffffffffffffff1673ffffffffffffffffffffffffffffffffffffffff1673ffffffffffffffffffffffffffffffffffffffff168152602001908152602001600020541461255e576040517f08c379a000000000000000000000000000000000000000000000000000000000815260040180806020018281038252600f8152602001807f616d6f756e74207265717569726564000000000000000000000000000000000081525060200191505060405180910390fd5b6001600860006101000a81548160ff0219169083151502179055506002600660016101000a81548160ff0219169083600381111561259857fe5b0217905550600160009054906101000a900473ffffffffffffffffffffffffffffffffffffffff1673ffffffffffffffffffffffffffffffffffffffff166108fc6004549081150290604051600060405180830381858888f19350505050158015612607573d6000803e3d6000fd5b506000809054906101000a900473ffffffffffffffffffffffffffffffffffffffff1673ffffffffffffffffffffffffffffffffffffffff166108fc6005549081150290604051600060405180830381858888f19350505050158015612671573d6000803e3d6000fd5b50600160009054906101000a900473ffffffffffffffffffffffffffffffffffffffff1673ffffffffffffffffffffffffffffffffffffffff166108fc6005549081150290604051600060405180830381858888f193505050501580156126dc573d6000803e3d6000fd5b507fd54aabd3141f0694c3f533b346119d27c2eb3248d4f866d6bd8299c78b128daf6040518080602001828103825260538152602001806139c96053913960600191505060405180910390a1565b60045481565b600b6020528060005260406000206000915090505481565b6001600b60008060009054906101000a900473ffffffffffffffffffffffffffffffffffffffff1673ffffffffffffffffffffffffffffffffffffffff1673ffffffffffffffffffffffffffffffffffffffff168152602001908152602001600020541461281e576040517f08c379a00000000000000000000000000000000000000000000000000000000081526004018080602001828103825260108152602001807f6465706f7369742072657175697265640000000000000000000000000000000081525060200191505060405180910390fd5b6001600b6000600160009054906101000a900473ffffffffffffffffffffffffffffffffffffffff1673ffffffffffffffffffffffffffffffffffffffff1673ffffffffffffffffffffffffffffffffffffffff16815260200190815260200160002054146128f5576040517f08c379a00000000000000000000000000000000000000000000000000000000081526004018080602001828103825260108152602001807f6465706f7369742072657175697265640000000000000000000000000000000081525060200191505060405180910390fd5b6001600c60008060009054906101000a900473ffffffffffffffffffffffffffffffffffffffff1673ffffffffffffffffffffffffffffffffffffffff1673ffffffffffffffffffffffffffffffffffffffff16815260200190815260200160002054146129cb576040517f08c379a000000000000000000000000000000000000000000000000000000000815260040180806020018281038252600f8152602001807f616d6f756e74207265717569726564000000000000000000000000000000000081525060200191505060405180910390fd5b6003600660016101000a81548160ff021916908360038111156129ea57fe5b0217905550612ac960078054600181600116156101000203166002900480601f016020809104026020016040519081016040528092919081815260200182805460018160011615610100020316600290048015612a885780601f10612a5d57610100808354040283529160200191612a88565b820191906000526020600020905b815481529060010190602001808311612a6b57829003601f168201915b50505050506040518060400160405280600381526020017f200a20000000000000000000000000000000000000000000000000000000000081525083613807565b60079080519060200190612ade929190613923565b507fb9011ad8795709fdc44e4dc9cdf74ad000a963e2f1f831535863bd0f5550def8604051808060200182810382526028815260200180613b436028913960400191505060405180910390a150565b6000809054906101000a900473ffffffffffffffffffffffffffffffffffffffff1673ffffffffffffffffffffffffffffffffffffffff163373ffffffffffffffffffffffffffffffffffffffff1614612b8657600080fd5b6001600b60008060009054906101000a900473ffffffffffffffffffffffffffffffffffffffff1673ffffffffffffffffffffffffffffffffffffffff1673ffffffffffffffffffffffffffffffffffffffff1681526020019081526020016000205414612c5c576040517f08c379a00000000000000000000000000000000000000000000000000000000081526004018080602001828103825260108152602001807f6465706f7369742072657175697265640000000000000000000000000000000081525060200191505060405180910390fd5b6000600b6000600160009054906101000a900473ffffffffffffffffffffffffffffffffffffffff1673ffffffffffffffffffffffffffffffffffffffff1673ffffffffffffffffffffffffffffffffffffffff1681526020019081526020016000205414612d33576040517f08c379a00000000000000000000000000000000000000000000000000000000081526004018080602001828103825260108152602001807f6465706f7369742072657175697265640000000000000000000000000000000081525060200191505060405180910390fd5b6000600b60008060009054906101000a900473ffffffffffffffffffffffffffffffffffffffff1673ffffffffffffffffffffffffffffffffffffffff1673ffffffffffffffffffffffffffffffffffffffff168152602001908152602001600020819055506000809054906101000a900473ffffffffffffffffffffffffffffffffffffffff1673ffffffffffffffffffffffffffffffffffffffff166108fc6005549081150290604051600060405180830381858888f19350505050158015612e02573d6000803e3d6000fd5b507f022a173fa68fb425cd1264890a0951b5a57aa7f1fcdc49e3262e86c1189ec9b16040518080602001828103825260168152602001807f6275796572207265766572736564206465706f7369740000000000000000000081525060200191505060405180910390a1565b606060006003811115612e7c57fe5b600660019054906101000a900460ff166003811115612e9757fe5b1415612eda576040518060400160405280600481526020017f4f70656e000000000000000000000000000000000000000000000000000000008152509050612fe8565b60016003811115612ee757fe5b600660019054906101000a900460ff166003811115612f0257fe5b1415612f45576040518060400160405280600781526020017f50656e64696e67000000000000000000000000000000000000000000000000008152509050612fe8565b600380811115612f5157fe5b600660019054906101000a900460ff166003811115612f6c57fe5b1415612faf576040518060400160405280600e81526020017f5265717565737420416374696f6e0000000000000000000000000000000000008152509050612fe8565b6040518060400160405280600681526020017f436c6f736564000000000000000000000000000000000000000000000000000081525090505b90565b600a6020528060005260406000206000915090505481565b60055481565b600660009054906101000a900460ff1681565b600160009054906101000a900473ffffffffffffffffffffffffffffffffffffffff1673ffffffffffffffffffffffffffffffffffffffff163373ffffffffffffffffffffffffffffffffffffffff161461307657600080fd5b6001600b60008060009054906101000a900473ffffffffffffffffffffffffffffffffffffffff1673ffffffffffffffffffffffffffffffffffffffff1673ffffffffffffffffffffffffffffffffffffffff168152602001908152602001600020541461314c576040517f08c379a00000000000000000000000000000000000000000000000000000000081526004018080602001828103825260108152602001807f6465706f7369742072657175697265640000000000000000000000000000000081525060200191505060405180910390fd5b6001600b6000600160009054906101000a900473ffffffffffffffffffffffffffffffffffffffff1673ffffffffffffffffffffffffffffffffffffffff1673ffffffffffffffffffffffffffffffffffffffff1681526020019081526020016000205414613223576040517f08c379a00000000000000000000000000000000000000000000000000000000081526004018080602001828103825260108152602001807f6465706f7369742072657175697265640000000000000000000000000000000081525060200191505060405180910390fd5b6001600c60008060009054906101000a900473ffffffffffffffffffffffffffffffffffffffff1673ffffffffffffffffffffffffffffffffffffffff1673ffffffffffffffffffffffffffffffffffffffff16815260200190815260200160002054146132f9576040517f08c379a000000000000000000000000000000000000000000000000000000000815260040180806020018281038252600f8152602001807f616d6f756e74207265717569726564000000000000000000000000000000000081525060200191505060405180910390fd5b6001600860006101000a81548160ff0219169083151502179055506002600660016101000a81548160ff0219169083600381111561333357fe5b02179055506000809054906101000a900473ffffffffffffffffffffffffffffffffffffffff1673ffffffffffffffffffffffffffffffffffffffff166108fc6004549081150290604051600060405180830381858888f193505050501580156133a1573d6000803e3d6000fd5b50600160009054906101000a900473ffffffffffffffffffffffffffffffffffffffff1673ffffffffffffffffffffffffffffffffffffffff166108fc6005549081150290604051600060405180830381858888f1935050505015801561340c573d6000803e3d6000fd5b506000809054906101000a900473ffffffffffffffffffffffffffffffffffffffff1673ffffffffffffffffffffffffffffffffffffffff166108fc6005549081150290604051600060405180830381858888f19350505050158015613476573d6000803e3d6000fd5b507f1355ee9ef69549a50f8d0008c6cd588a9759815d1b30ee62ed168c2bb7a24a62604051808060200182810382526057815260200180613aec6057913960600191505060405180910390a1565b600160009054906101000a900473ffffffffffffffffffffffffffffffffffffffff1673ffffffffffffffffffffffffffffffffffffffff163373ffffffffffffffffffffffffffffffffffffffff161461351e57600080fd5b6001600b6000600160009054906101000a900473ffffffffffffffffffffffffffffffffffffffff1673ffffffffffffffffffffffffffffffffffffffff1673ffffffffffffffffffffffffffffffffffffffff16815260200190815260200160002054146135f5576040517f08c379a00000000000000000000000000000000000000000000000000000000081526004018080602001828103825260108152602001807f6465706f7369742072657175697265640000000000000000000000000000000081525060200191505060405180910390fd5b6000600b60008060009054906101000a900473ffffffffffffffffffffffffffffffffffffffff1673ffffffffffffffffffffffffffffffffffffffff1673ffffffffffffffffffffffffffffffffffffffff16815260200190815260200160002054146136cb576040517f08c379a00000000000000000000000000000000000000000000000000000000081526004018080602001828103825260108152602001807f6465706f7369742072657175697265640000000000000000000000000000000081525060200191505060405180910390fd5b6000600b6000600160009054906101000a900473ffffffffffffffffffffffffffffffffffffffff1673ffffffffffffffffffffffffffffffffffffffff1673ffffffffffffffffffffffffffffffffffffffff16815260200190815260200160002081905550600160009054906101000a900473ffffffffffffffffffffffffffffffffffffffff1673ffffffffffffffffffffffffffffffffffffffff166108fc6005549081150290604051600060405180830381858888f1935050505015801561379c573d6000803e3d6000fd5b507f68899ad50909030043672ec750f7e234201226c34f9efa036d99c5432d220a396040518080602001828103825260178152602001807f73656c6c6572207265766572736564206465706f73697400000000000000000081525060200191505060405180910390a1565b60608383836040516020018084805190602001908083835b60208310613842578051825260208201915060208101905060208303925061381f565b6001836020036101000a03801982511681845116808217855250505050505090500183805190602001908083835b602083106138935780518252602082019150602081019050602083039250613870565b6001836020036101000a03801982511681845116808217855250505050505090500182805190602001908083835b602083106138e457805182526020820191506020810190506020830392506138c1565b6001836020036101000a038019825116818451168082178552505050505050905001935050505060405160208183030381529060405290509392505050565b828054600181600116156101000203166002900490600052602060002090601f016020900481019282601f1061396457805160ff1916838001178555613992565b82800160010185558215613992579182015b82811115613991578251825591602001919060010190613976565b5b50905061399f91906139a3565b5090565b6139c591905b808211156139c15760008160009055506001016139a9565b5090565b9056fe5468652073656c6c657220686173206265656e207061696420616e6420616c6c206465706f736974732068617665206265656e2072657475726e6564202d207472616e73616374696f6e20636f6d706c65746554686520636f6e747261637420686173206265656e20636f6d706c6574656c792072657665727465642062792061646d696e2e20416c6c206465706f7369747320616e6420616d6f756e74732068617665206265656e20726566756e646564206f722070616964206f75742e746865206465706f73697420636c61696d206861732031206f7574206f662032206e6563657373617279207369676e6174757265734275796572206861732073656e7420746865207061796d656e7420616d6f756e7420746f2074686520657363726f7754686520627579657220686173206265656e20726566756e64656420616e6420616c6c206465706f736974732068617665206265656e2072657475726e6564202d207472616e73616374696f6e2063616e63656c6c6564416e20616374696f6e2066726f6d2061646d696e20686173206265656e207265717565737465642ea265627a7a72315820ad63ce9c8b8db8844bed376edbf27eae24c55d9cad5d3c0ac81119e127b82b7464736f6c63430005110032",
  "source": "pragma solidity ^0.5.16;\n\ncontract EscrowFactory {\n\tenum Status { OPEN, PENDING, CLOSED, REQUESTADMINACTION }\n    enum AdminAction { REFUNDBUYER, PAYSELLER}\n\n\t//storage\n    address payable public buyer;\n    address payable public seller;\n    address payable public owner;\n    address[] public party;\n    uint public amount;\n    uint public deposit;\n    uint8 public signatureCount;\n    Status public status;\n\tstring public notes;\n    bool public contractComplete;\n    mapping (address => bool) isAParty;\n    mapping (address => uint) public signatures;\n    mapping (address => uint) public depositCheck;\n    mapping (address => uint) public amountCheck;\n\n    //modifiers\n    //only buyer can access\n    modifier isBuyer() {\n        require(msg.sender == buyer);\n        _;\n    }\n    \n    //only seller can access\n    modifier isSeller() {\n        require(msg.sender == seller);\n        _;\n    }\n    \n    //only the parties involved in the transaction can access.\n    modifier ifIsAParty(address aParty) {\n        require(isAParty[aParty]);\n        _;\n    }\n\n    modifier isAdminCalled(bool admin) {\n        require(admin == true);\n        _;\n    }\n\n     //events\n    event BuyerDeposited(address from, string msg, uint amount);\n    event SellerDeposited(address from, string msg, uint amount);\n    event BuyerDepositReversed(string msg);\n    event SellerDepositReversed(string msg);\n    event DepositPartialClaim(string msg);\n    event DepositsClaimed(string msg);\n    event AmountSent(string msg);\n    event SellerPaid(string msg);\n    event BuyerRefunded(string msg);\n    event ContractActionCompletedByAdmin(string msg);\n    event AdminActionRequested(string msg);\n\n    constructor(address payable _buyer, address payable _seller, uint _amount, uint _deposit, string memory _notes, address payable _owner) public {\n\t\tbuyer = _buyer;\n        seller = _seller;\n        amount = _amount;\n        deposit = _deposit;\n        notes = _notes;\n        status = Status.OPEN;\n        contractComplete = false;\n        party.push(_buyer);\n        party.push(_seller);\n        isAParty[_buyer] = true;\n        isAParty[_seller] = true;\n        owner = _owner;\n\t}\n\n\t/* Deposit function for the buyer - checks that the message sender\n    is the buyer, the amount being sent is equal to the deposit amount\n    and restricts the buyer from depositing more than once  TESTED*/\n    function buyerDeposit() public payable isBuyer {\n        require(msg.value == deposit, \"Invalid deposit\"); // Require value submitted is equal to the deposit in the contract.\n        require(depositCheck[msg.sender] == 0, \"Deposited\"); // Require buyer has not deposited yet\n        depositCheck[msg.sender] = 1; // Set buyer deposited to true\n        emit BuyerDeposited(msg.sender, \"deposited\", msg.value);\n    }\n\n    /* Deposit function for the seller - checks that the message sender\n    is the seller, the amount being sent is equal to the deposit amount\n    and restricts the seller from depositing more than once  TESTED*/\n    function sellerDeposit() public payable isSeller {\n        require(msg.value == deposit, \"Invalid deposit\"); // Require value submitted is equal to the deposit in the contract.\n        require(depositCheck[msg.sender] == 0,  \"Deposited\"); // Require seller has not deposited yet\n        depositCheck[msg.sender] = 1;// Set seller deposited to true\n        emit SellerDeposited(msg.sender, \"deposited\", msg.value);\n    }\n\n    /* Function for buyer to retrieve deposit in the scenario where only the\n    buyer has interacted with the contract and the transaction is no longer\n    going ahead.*/\n    \n    function reverseBuyerDeposit() public isBuyer {\n        require(depositCheck[buyer] == 1, \"deposit required\");\n        require(depositCheck[seller] == 0, \"deposit required\");\n        depositCheck[buyer] = 0;\n        buyer.transfer(deposit);\n        emit BuyerDepositReversed(\"buyer reversed deposit\");\n    }\n\n    /* Function for seller to retrieve deposit in the scenario where only the\n    seller has interacted with the contract and the transaction is no longer\n    going ahead.*/\n    \n    function reverseSellerDeposit() public isSeller {\n        require(depositCheck[seller] == 1, \"deposit required\");\n        require(depositCheck[buyer] == 0, \"deposit required\");\n        depositCheck[seller] = 0;\n        seller.transfer(deposit);\n        emit SellerDepositReversed(\"seller reversed deposit\");\n    }\n\n    /* Function for both parties to reverse their deposits when both the buyer\n    and seller have made their deposits but no longer wish to proceed, both must\n    sign off on this by calling this function  TESTED*/\n \n    function claimDeposits() public ifIsAParty(msg.sender) {\n        require(depositCheck[buyer] == 1, \"deposit required\");\n        require(depositCheck[seller] == 1, \"deposit required\");\n        require(amountCheck[buyer] == 0, \"amount exist\");\n        require(signatures[msg.sender] == 0, \"already signed\");\n        signatures[msg.sender] = 1;\n        signatureCount ++;\n        \n        if (signatureCount == 1) {\n            emit DepositPartialClaim(\"the deposit claim has 1 out of 2 necessary signatures\");\n        } else if (signatureCount == 2) {\n            buyer.transfer(deposit);\n            seller.transfer(deposit);\n            depositCheck[buyer] = 0;\n            depositCheck[seller] = 0;\n            signatures[buyer] = 0;\n            signatures[seller] = 0;\n            signatureCount = 0;\n            emit DepositsClaimed(\"the deposits have been returned\");\n        }\n    }\n\n    /* Function to allow the buyer to send the amount which is to eventually\n    be transferred to the seller. Checks that the buyer is sending the correct\n    amount, checks that both seller and buyer have made the required deposits \n    and restricts the buyer from making multiple payments */\n    \n    function sendAmount() public payable isBuyer {\n        require(msg.value == amount, \"Invalid amount\"); // Check to see correct amount is sent.\n        require(depositCheck[buyer] == 1, \"deposit required\");\n        require(depositCheck[seller] == 1, \"deposit required\");\n        require(amountCheck[msg.sender] == 0, \"amount exist\");\n        amountCheck[msg.sender] = 1;\n        emit AmountSent(\"Buyer has sent the payment amount to the escrow\");\n    }\n\n    /* complete transaction: transferring specified amount to the seller and \n    returning deposits to both parties */\n    /* NEW FUNCTION EXTRA: This should automatically pay seller when it passes expiry time (i.e. the flight time) and then automatically return deposits. Developer fee should be collected here */\n    function paySeller() public isBuyer {\n        require(depositCheck[buyer] == 1, \"deposit required\");\n        require(depositCheck[seller] == 1, \"deposit required\");\n        require(amountCheck[buyer] == 1, \"amount required\");\n        contractComplete = true;\n        status = Status.CLOSED;\n        seller.transfer(amount);\n        buyer.transfer(deposit);\n        seller.transfer(deposit);\n        emit SellerPaid(\"The seller has been paid and all deposits have been returned - transaction complete\");\n    }\n\n    /*cancel transaction: refunding the specified amount to the buyer and \n    returning deposits to both parties */\n    /* NEW FUNCTION EXTRA: This can only be called before the expiry time. (i.e. 1 or 2 days before flight time) and then automatically return deposits. Developer fee should be collected here */\n    function refundBuyer() public isSeller {\n        require(depositCheck[buyer] == 1, \"deposit required\");\n        require(depositCheck[seller] == 1, \"deposit required\");\n        require(amountCheck[buyer] == 1, \"amount required\");\n        contractComplete = true;\n        status = Status.CLOSED;\n        buyer.transfer(amount);\n        seller.transfer(deposit);\n        buyer.transfer(deposit);\n        emit BuyerRefunded(\"The buyer has been refunded and all deposits have been returned - transaction cancelled\");\n    }\n\n    function requestAdminAction(string memory _notes) public {\n        require(depositCheck[buyer] == 1, \"deposit required\");\n        require(depositCheck[seller] == 1, \"deposit required\");\n        require(amountCheck[buyer] == 1, \"amount required\");\n        status = Status.REQUESTADMINACTION;\n        notes = append(notes, \" \\n \", _notes);\n        emit AdminActionRequested(\"An action from admin has been requested.\");\n    }\n\n    function adminContractTakeAction(bool isAdmin, uint8 _action) public isAdminCalled(isAdmin) {\n        // Charge a fee (i.e. 1-2%) for reversing the contract. Send this fee to me. And I will reimburse our employees/admins. And keep the difference.\n        uint ownerReverseFee = deposit * 15 / 1000; // 1.5% fee for reversing contract.\n        uint depositAfterFees = (deposit / 2) - ownerReverseFee ;\n        uint adminFees = deposit - ownerReverseFee;\n        owner.transfer(adminFees);\n        if (depositCheck[buyer] == 1) {\n            buyer.transfer(depositAfterFees);\n            depositCheck[buyer] = 0;\n        }\n        if (depositCheck[seller] == 1) {\n            seller.transfer(depositAfterFees);\n            depositCheck[seller] = 0;\n        }\n        if (amountCheck[buyer] == 1 && status == Status.REQUESTADMINACTION && _action == uint8(AdminAction.REFUNDBUYER)) {\n            buyer.transfer(amount);\n            amountCheck[buyer] = 0;\n        } else if (amountCheck[buyer] == 1 && status == Status.REQUESTADMINACTION && _action == uint8(AdminAction.PAYSELLER)) {\n            seller.transfer(amount);\n            amountCheck[buyer] = 0;\n        }\n        contractComplete = true;\n        status = Status.CLOSED;\n        emit ContractActionCompletedByAdmin(\"The contract has been completely reverted by admin. All deposits and amounts have been refunded or paid out.\");\n    }\n\n    function getIfAddressDeposited(address a) public view returns (uint){\n    \treturn depositCheck[a];\n    }\n\n    function getContractStatus() public view returns (string memory) {\n\t\tif (status == Status.OPEN){\n            return \"Open\";\n        } else if (status == Status.PENDING){\n            return \"Pending\";\n        } else if (status == Status.REQUESTADMINACTION) {\n            return \"Request Action\";\n        } else{\n            return \"Closed\";\n        }\n    }\n\n    function getSignature(address a) public view returns (uint) {\n    \treturn signatures[a];\n    }\n\n    function getAmountCheck(address a) public view returns (uint){\n    \treturn amountCheck[a];\n    }\n\n    function append(string memory a, string memory b, string memory c) internal pure returns (string memory) {\n        return string(abi.encodePacked(a, b, c));\n    }\n}",
  "sourcePath": "/Users/donaldlee/Developer/PointsExchange/contracts/EscrowFactory.sol",
  "compiler": {
    "name": "solc",
    "version": "0.5.17+commit.d19bba13.Emscripten.clang"
  },
  "schemaVersion": "3.3.3",
  "updatedAt": "2021-08-03T01:00:21.488Z",
  "devdoc": {
    "methods": {}
  },
  "userdoc": {
    "methods": {}
  }
}