{
  "contractName": "EscrowFactory",
  "abi": [
    {
      "anonymous": false,
      "inputs": [
        {
          "indexed": false,
          "internalType": "string",
          "name": "msg",
          "type": "string"
        }
      ],
      "name": "AmountSent",
      "type": "event"
    },
    {
      "anonymous": false,
      "inputs": [
        {
          "indexed": false,
          "internalType": "string",
          "name": "msg",
          "type": "string"
        }
      ],
      "name": "BuyerDepositReversed",
      "type": "event"
    },
    {
      "anonymous": false,
      "inputs": [
        {
          "indexed": false,
          "internalType": "address",
          "name": "from",
          "type": "address"
        },
        {
          "indexed": false,
          "internalType": "string",
          "name": "msg",
          "type": "string"
        },
        {
          "indexed": false,
          "internalType": "uint256",
          "name": "amount",
          "type": "uint256"
        }
      ],
      "name": "BuyerDeposited",
      "type": "event"
    },
    {
      "anonymous": false,
      "inputs": [
        {
          "indexed": false,
          "internalType": "string",
          "name": "msg",
          "type": "string"
        }
      ],
      "name": "BuyerRefunded",
      "type": "event"
    },
    {
      "anonymous": false,
      "inputs": [
        {
          "indexed": false,
          "internalType": "string",
          "name": "msg",
          "type": "string"
        }
      ],
      "name": "DepositPartialClaim",
      "type": "event"
    },
    {
      "anonymous": false,
      "inputs": [
        {
          "indexed": false,
          "internalType": "string",
          "name": "msg",
          "type": "string"
        }
      ],
      "name": "DepositsClaimed",
      "type": "event"
    },
    {
      "anonymous": false,
      "inputs": [
        {
          "indexed": false,
          "internalType": "string",
          "name": "msg",
          "type": "string"
        }
      ],
      "name": "SellerDepositReversed",
      "type": "event"
    },
    {
      "anonymous": false,
      "inputs": [
        {
          "indexed": false,
          "internalType": "address",
          "name": "from",
          "type": "address"
        },
        {
          "indexed": false,
          "internalType": "string",
          "name": "msg",
          "type": "string"
        },
        {
          "indexed": false,
          "internalType": "uint256",
          "name": "amount",
          "type": "uint256"
        }
      ],
      "name": "SellerDeposited",
      "type": "event"
    },
    {
      "anonymous": false,
      "inputs": [
        {
          "indexed": false,
          "internalType": "string",
          "name": "msg",
          "type": "string"
        }
      ],
      "name": "SellerPaid",
      "type": "event"
    },
    {
      "constant": true,
      "inputs": [
        {
          "internalType": "address",
          "name": "",
          "type": "address"
        },
        {
          "internalType": "uint256",
          "name": "",
          "type": "uint256"
        }
      ],
      "name": "contractsForUser",
      "outputs": [
        {
          "internalType": "address payable",
          "name": "buyer",
          "type": "address"
        },
        {
          "internalType": "address payable",
          "name": "seller",
          "type": "address"
        },
        {
          "internalType": "uint256",
          "name": "amount",
          "type": "uint256"
        },
        {
          "internalType": "uint256",
          "name": "deposit",
          "type": "uint256"
        },
        {
          "internalType": "uint256",
          "name": "signatureCount",
          "type": "uint256"
        },
        {
          "internalType": "uint256",
          "name": "depositCount",
          "type": "uint256"
        },
        {
          "internalType": "uint256",
          "name": "amountCount",
          "type": "uint256"
        },
        {
          "internalType": "enum EscrowFactory.Status",
          "name": "status",
          "type": "uint8"
        },
        {
          "internalType": "string",
          "name": "notes",
          "type": "string"
        }
      ],
      "payable": false,
      "stateMutability": "view",
      "type": "function"
    },
    {
      "constant": true,
      "inputs": [
        {
          "internalType": "address",
          "name": "",
          "type": "address"
        }
      ],
      "name": "ownerContractCount",
      "outputs": [
        {
          "internalType": "uint256",
          "name": "",
          "type": "uint256"
        }
      ],
      "payable": false,
      "stateMutability": "view",
      "type": "function"
    },
    {
      "constant": false,
      "inputs": [
        {
          "internalType": "uint256",
          "name": "contract_id",
          "type": "uint256"
        }
      ],
      "name": "buyerDeposit",
      "outputs": [],
      "payable": true,
      "stateMutability": "payable",
      "type": "function"
    },
    {
      "constant": false,
      "inputs": [
        {
          "internalType": "uint256",
          "name": "contract_id",
          "type": "uint256"
        }
      ],
      "name": "sellerDeposit",
      "outputs": [],
      "payable": true,
      "stateMutability": "payable",
      "type": "function"
    },
    {
      "constant": false,
      "inputs": [
        {
          "internalType": "uint256",
          "name": "contract_id",
          "type": "uint256"
        }
      ],
      "name": "reverseBuyerDeposit",
      "outputs": [],
      "payable": false,
      "stateMutability": "nonpayable",
      "type": "function"
    },
    {
      "constant": false,
      "inputs": [
        {
          "internalType": "uint256",
          "name": "contract_id",
          "type": "uint256"
        }
      ],
      "name": "reverseSellerDeposit",
      "outputs": [],
      "payable": false,
      "stateMutability": "nonpayable",
      "type": "function"
    },
    {
      "constant": false,
      "inputs": [
        {
          "internalType": "uint256",
          "name": "contract_id",
          "type": "uint256"
        }
      ],
      "name": "claimDeposits",
      "outputs": [],
      "payable": false,
      "stateMutability": "nonpayable",
      "type": "function"
    },
    {
      "constant": false,
      "inputs": [
        {
          "internalType": "uint256",
          "name": "contract_id",
          "type": "uint256"
        }
      ],
      "name": "sendAmount",
      "outputs": [],
      "payable": true,
      "stateMutability": "payable",
      "type": "function"
    },
    {
      "constant": false,
      "inputs": [
        {
          "internalType": "uint256",
          "name": "contract_id",
          "type": "uint256"
        }
      ],
      "name": "paySeller",
      "outputs": [],
      "payable": false,
      "stateMutability": "nonpayable",
      "type": "function"
    },
    {
      "constant": false,
      "inputs": [
        {
          "internalType": "uint256",
          "name": "contract_id",
          "type": "uint256"
        }
      ],
      "name": "refundBuyer",
      "outputs": [],
      "payable": false,
      "stateMutability": "nonpayable",
      "type": "function"
    }
  ],
  "bytecode": "0x608060405234801561001057600080fd5b5061228f806100206000396000f3fe6080604052600436106100915760003560e01c80634709384f116100595780634709384f146103115780634a47248c1461034c57806368302467146103875780636deba5f3146103c2578063fd72b6e9146103f057610091565b80630eb47922146100965780630f063dab146100c45780632cc40078146101295780633929276314610164578063429987361461019f575b600080fd5b6100c2600480360360208110156100ac57600080fd5b810190808035906020019092919050505061041e565b005b3480156100d057600080fd5b50610113600480360360208110156100e757600080fd5b81019080803573ffffffffffffffffffffffffffffffffffffffff169060200190929190505050610604565b6040518082815260200191505060405180910390f35b34801561013557600080fd5b506101626004803603602081101561014c57600080fd5b810190808035906020019092919050505061061c565b005b34801561017057600080fd5b5061019d6004803603602081101561018757600080fd5b8101908080359060200190929190505050610950565b005b3480156101ab57600080fd5b506101f8600480360360408110156101c257600080fd5b81019080803573ffffffffffffffffffffffffffffffffffffffff16906020019092919080359060200190929190505050610d07565b604051808a73ffffffffffffffffffffffffffffffffffffffff1673ffffffffffffffffffffffffffffffffffffffff1681526020018973ffffffffffffffffffffffffffffffffffffffff1673ffffffffffffffffffffffffffffffffffffffff16815260200188815260200187815260200186815260200185815260200184815260200183600281111561028a57fe5b60ff16815260200180602001828103825283818151815260200191508051906020019080838360005b838110156102ce5780820151818401526020810190506102b3565b50505050905090810190601f1680156102fb5780820380516001836020036101000a031916815260200191505b509a505050505050505050505060405180910390f35b34801561031d57600080fd5b5061034a6004803603602081101561033457600080fd5b8101908080359060200190929190505050610e54565b005b34801561035857600080fd5b506103856004803603602081101561036f57600080fd5b8101908080359060200190929190505050611541565b005b34801561039357600080fd5b506103c0600480360360208110156103aa57600080fd5b8101908080359060200190929190505050611875565b005b6103ee600480360360208110156103d857600080fd5b8101908080359060200190929190505050611c2c565b005b61041c6004803603602081101561040657600080fd5b8101908080359060200190929190505050611e12565b005b80610428816120a3565b60010160009054906101000a900473ffffffffffffffffffffffffffffffffffffffff1673ffffffffffffffffffffffffffffffffffffffff163373ffffffffffffffffffffffffffffffffffffffff161461048357600080fd5b61048c826120a3565b60030154341461049b57600080fd5b60006104a6836120a3565b600a0160003373ffffffffffffffffffffffffffffffffffffffff1673ffffffffffffffffffffffffffffffffffffffff16815260200190815260200160002054146104f157600080fd5b60016104fc836120a3565b600a0160003373ffffffffffffffffffffffffffffffffffffffff1673ffffffffffffffffffffffffffffffffffffffff16815260200190815260200160002081905550610549826120a3565b600501600081548092919060010191905055507feaa52bf3f740eaa050012695cd117e2182b5c032c7fc36dbcdfc74189f68ab2e3334604051808373ffffffffffffffffffffffffffffffffffffffff1673ffffffffffffffffffffffffffffffffffffffff16815260200180602001838152602001828103825260208152602001807f686173206d61646520746865207265717569726564206465706f736974206f66815250602001935050505060405180910390a15050565b60016020528060005260406000206000915090505481565b80610626816120a3565b60000160009054906101000a900473ffffffffffffffffffffffffffffffffffffffff1673ffffffffffffffffffffffffffffffffffffffff163373ffffffffffffffffffffffffffffffffffffffff161461068157600080fd5b600161068c836120a3565b600a01600061069a856120a3565b60000160009054906101000a900473ffffffffffffffffffffffffffffffffffffffff1673ffffffffffffffffffffffffffffffffffffffff1673ffffffffffffffffffffffffffffffffffffffff168152602001908152602001600020541461070357600080fd5b600061070e836120a3565b600a01600061071c856120a3565b60010160009054906101000a900473ffffffffffffffffffffffffffffffffffffffff1673ffffffffffffffffffffffffffffffffffffffff1673ffffffffffffffffffffffffffffffffffffffff168152602001908152602001600020541461078557600080fd5b6000610790836120a3565b600b01600061079e856120a3565b60000160009054906101000a900473ffffffffffffffffffffffffffffffffffffffff1673ffffffffffffffffffffffffffffffffffffffff1673ffffffffffffffffffffffffffffffffffffffff168152602001908152602001600020541461080757600080fd5b6000610812836120a3565b600a016000610820856120a3565b60000160009054906101000a900473ffffffffffffffffffffffffffffffffffffffff1673ffffffffffffffffffffffffffffffffffffffff1673ffffffffffffffffffffffffffffffffffffffff1681526020019081526020016000208190555061088b826120a3565b60000160009054906101000a900473ffffffffffffffffffffffffffffffffffffffff1673ffffffffffffffffffffffffffffffffffffffff166108fc6108d1846120a3565b600301549081150290604051600060405180830381858888f19350505050158015610900573d6000803e3d6000fd5b507f022a173fa68fb425cd1264890a0951b5a57aa7f1fcdc49e3262e86c1189ec9b16040518080602001828103825260248152602001806122376024913960400191505060405180910390a15050565b8061095a816120a3565b60010160009054906101000a900473ffffffffffffffffffffffffffffffffffffffff1673ffffffffffffffffffffffffffffffffffffffff163373ffffffffffffffffffffffffffffffffffffffff16146109b557600080fd5b60016109c0836120a3565b600a0160006109ce856120a3565b60000160009054906101000a900473ffffffffffffffffffffffffffffffffffffffff1673ffffffffffffffffffffffffffffffffffffffff1673ffffffffffffffffffffffffffffffffffffffff1681526020019081526020016000205414610a3757600080fd5b6001610a42836120a3565b600a016000610a50856120a3565b60010160009054906101000a900473ffffffffffffffffffffffffffffffffffffffff1673ffffffffffffffffffffffffffffffffffffffff1673ffffffffffffffffffffffffffffffffffffffff1681526020019081526020016000205414610ab957600080fd5b6001610ac4836120a3565b600b016000610ad2856120a3565b60000160009054906101000a900473ffffffffffffffffffffffffffffffffffffffff1673ffffffffffffffffffffffffffffffffffffffff1673ffffffffffffffffffffffffffffffffffffffff1681526020019081526020016000205414610b3b57600080fd5b610b44826120a3565b60000160009054906101000a900473ffffffffffffffffffffffffffffffffffffffff1673ffffffffffffffffffffffffffffffffffffffff166108fc610b8a846120a3565b600201549081150290604051600060405180830381858888f19350505050158015610bb9573d6000803e3d6000fd5b50610bc3826120a3565b60010160009054906101000a900473ffffffffffffffffffffffffffffffffffffffff1673ffffffffffffffffffffffffffffffffffffffff166108fc610c09846120a3565b600301549081150290604051600060405180830381858888f19350505050158015610c38573d6000803e3d6000fd5b50610c42826120a3565b60000160009054906101000a900473ffffffffffffffffffffffffffffffffffffffff1673ffffffffffffffffffffffffffffffffffffffff166108fc610c88846120a3565b600301549081150290604051600060405180830381858888f19350505050158015610cb7573d6000803e3d6000fd5b507f1355ee9ef69549a50f8d0008c6cd588a9759815d1b30ee62ed168c2bb7a24a626040518080602001828103825260578152602001806121e06057913960600191505060405180910390a15050565b60006020528160005260406000208181548110610d2057fe5b90600052602060002090600c0201600091509150508060000160009054906101000a900473ffffffffffffffffffffffffffffffffffffffff16908060010160009054906101000a900473ffffffffffffffffffffffffffffffffffffffff16908060020154908060030154908060040154908060050154908060060154908060070160009054906101000a900460ff1690806008018054600181600116156101000203166002900480601f016020809104026020016040519081016040528092919081815260200182805460018160011615610100020316600290048015610e4a5780601f10610e1f57610100808354040283529160200191610e4a565b820191906000526020600020905b815481529060010190602001808311610e2d57829003601f168201915b5050505050905089565b80610e5e816120a3565b60010160009054906101000a900473ffffffffffffffffffffffffffffffffffffffff1673ffffffffffffffffffffffffffffffffffffffff163373ffffffffffffffffffffffffffffffffffffffff161480610f125750610ebf816120a3565b60000160009054906101000a900473ffffffffffffffffffffffffffffffffffffffff1673ffffffffffffffffffffffffffffffffffffffff163373ffffffffffffffffffffffffffffffffffffffff16145b610f1b57600080fd5b6001610f26836120a3565b600a016000610f34856120a3565b60000160009054906101000a900473ffffffffffffffffffffffffffffffffffffffff1673ffffffffffffffffffffffffffffffffffffffff1673ffffffffffffffffffffffffffffffffffffffff1681526020019081526020016000205414610f9d57600080fd5b6001610fa8836120a3565b600a016000610fb6856120a3565b60010160009054906101000a900473ffffffffffffffffffffffffffffffffffffffff1673ffffffffffffffffffffffffffffffffffffffff1673ffffffffffffffffffffffffffffffffffffffff168152602001908152602001600020541461101f57600080fd5b600061102a836120a3565b600b016000611038856120a3565b60000160009054906101000a900473ffffffffffffffffffffffffffffffffffffffff1673ffffffffffffffffffffffffffffffffffffffff1673ffffffffffffffffffffffffffffffffffffffff16815260200190815260200160002054146110a157600080fd5b60006110ac836120a3565b60090160003373ffffffffffffffffffffffffffffffffffffffff1673ffffffffffffffffffffffffffffffffffffffff16815260200190815260200160002054146110f757600080fd5b6001611102836120a3565b60090160003373ffffffffffffffffffffffffffffffffffffffff1673ffffffffffffffffffffffffffffffffffffffff1681526020019081526020016000208190555061114f826120a3565b60040160008154809291906001019190505550600161116d836120a3565b6004015414156111c3577f87463abc399fbbddfcd563f22d61267e4c0402b336940699382407adce42e5a260405180806020018281038252603581526020018061217c6035913960400191505060405180910390a15b60026111ce836120a3565b60040154141561153d576111e1826120a3565b60000160009054906101000a900473ffffffffffffffffffffffffffffffffffffffff1673ffffffffffffffffffffffffffffffffffffffff166108fc611227846120a3565b600301549081150290604051600060405180830381858888f19350505050158015611256573d6000803e3d6000fd5b50611260826120a3565b60010160009054906101000a900473ffffffffffffffffffffffffffffffffffffffff1673ffffffffffffffffffffffffffffffffffffffff166108fc6112a6846120a3565b600301549081150290604051600060405180830381858888f193505050501580156112d5573d6000803e3d6000fd5b5060006112e1836120a3565b600a0160006112ef856120a3565b60000160009054906101000a900473ffffffffffffffffffffffffffffffffffffffff1673ffffffffffffffffffffffffffffffffffffffff1673ffffffffffffffffffffffffffffffffffffffff16815260200190815260200160002081905550600061135c836120a3565b600a01600061136a856120a3565b60010160009054906101000a900473ffffffffffffffffffffffffffffffffffffffff1673ffffffffffffffffffffffffffffffffffffffff1673ffffffffffffffffffffffffffffffffffffffff1681526020019081526020016000208190555060006113d7836120a3565b60090160006113e5856120a3565b60000160009054906101000a900473ffffffffffffffffffffffffffffffffffffffff1673ffffffffffffffffffffffffffffffffffffffff1673ffffffffffffffffffffffffffffffffffffffff168152602001908152602001600020819055506000611452836120a3565b6009016000611460856120a3565b60010160009054906101000a900473ffffffffffffffffffffffffffffffffffffffff1673ffffffffffffffffffffffffffffffffffffffff1673ffffffffffffffffffffffffffffffffffffffff1681526020019081526020016000208190555060006114cd836120a3565b600401819055507fd397a3b1b662401574a4482307d3aaaa5413f8af98a7053e3473935f4d0659ed60405180806020018281038252601f8152602001807f746865206465706f736974732068617665206265656e2072657475726e65640081525060200191505060405180910390a15b5050565b8061154b816120a3565b60010160009054906101000a900473ffffffffffffffffffffffffffffffffffffffff1673ffffffffffffffffffffffffffffffffffffffff163373ffffffffffffffffffffffffffffffffffffffff16146115a657600080fd5b60016115b1836120a3565b600a0160006115bf856120a3565b60010160009054906101000a900473ffffffffffffffffffffffffffffffffffffffff1673ffffffffffffffffffffffffffffffffffffffff1673ffffffffffffffffffffffffffffffffffffffff168152602001908152602001600020541461162857600080fd5b6000611633836120a3565b600a016000611641856120a3565b60000160009054906101000a900473ffffffffffffffffffffffffffffffffffffffff1673ffffffffffffffffffffffffffffffffffffffff1673ffffffffffffffffffffffffffffffffffffffff16815260200190815260200160002054146116aa57600080fd5b60006116b5836120a3565b600b0160006116c3856120a3565b60000160009054906101000a900473ffffffffffffffffffffffffffffffffffffffff1673ffffffffffffffffffffffffffffffffffffffff1673ffffffffffffffffffffffffffffffffffffffff168152602001908152602001600020541461172c57600080fd5b6000611737836120a3565b600a016000611745856120a3565b60010160009054906101000a900473ffffffffffffffffffffffffffffffffffffffff1673ffffffffffffffffffffffffffffffffffffffff1673ffffffffffffffffffffffffffffffffffffffff168152602001908152602001600020819055506117b0826120a3565b60010160009054906101000a900473ffffffffffffffffffffffffffffffffffffffff1673ffffffffffffffffffffffffffffffffffffffff166108fc6117f6846120a3565b600301549081150290604051600060405180830381858888f19350505050158015611825573d6000803e3d6000fd5b507f68899ad50909030043672ec750f7e234201226c34f9efa036d99c5432d220a396040518080602001828103825260258152602001806121046025913960400191505060405180910390a15050565b8061187f816120a3565b60000160009054906101000a900473ffffffffffffffffffffffffffffffffffffffff1673ffffffffffffffffffffffffffffffffffffffff163373ffffffffffffffffffffffffffffffffffffffff16146118da57600080fd5b60016118e5836120a3565b600a0160006118f3856120a3565b60000160009054906101000a900473ffffffffffffffffffffffffffffffffffffffff1673ffffffffffffffffffffffffffffffffffffffff1673ffffffffffffffffffffffffffffffffffffffff168152602001908152602001600020541461195c57600080fd5b6001611967836120a3565b600a016000611975856120a3565b60010160009054906101000a900473ffffffffffffffffffffffffffffffffffffffff1673ffffffffffffffffffffffffffffffffffffffff1673ffffffffffffffffffffffffffffffffffffffff16815260200190815260200160002054146119de57600080fd5b60016119e9836120a3565b600b0160006119f7856120a3565b60000160009054906101000a900473ffffffffffffffffffffffffffffffffffffffff1673ffffffffffffffffffffffffffffffffffffffff1673ffffffffffffffffffffffffffffffffffffffff1681526020019081526020016000205414611a6057600080fd5b611a69826120a3565b60010160009054906101000a900473ffffffffffffffffffffffffffffffffffffffff1673ffffffffffffffffffffffffffffffffffffffff166108fc611aaf846120a3565b600201549081150290604051600060405180830381858888f19350505050158015611ade573d6000803e3d6000fd5b50611ae8826120a3565b60000160009054906101000a900473ffffffffffffffffffffffffffffffffffffffff1673ffffffffffffffffffffffffffffffffffffffff166108fc611b2e846120a3565b600301549081150290604051600060405180830381858888f19350505050158015611b5d573d6000803e3d6000fd5b50611b67826120a3565b60010160009054906101000a900473ffffffffffffffffffffffffffffffffffffffff1673ffffffffffffffffffffffffffffffffffffffff166108fc611bad846120a3565b600301549081150290604051600060405180830381858888f19350505050158015611bdc573d6000803e3d6000fd5b507fd54aabd3141f0694c3f533b346119d27c2eb3248d4f866d6bd8299c78b128daf6040518080602001828103825260538152602001806121296053913960600191505060405180910390a15050565b80611c36816120a3565b60000160009054906101000a900473ffffffffffffffffffffffffffffffffffffffff1673ffffffffffffffffffffffffffffffffffffffff163373ffffffffffffffffffffffffffffffffffffffff1614611c9157600080fd5b611c9a826120a3565b600301543414611ca957600080fd5b6000611cb4836120a3565b600a0160003373ffffffffffffffffffffffffffffffffffffffff1673ffffffffffffffffffffffffffffffffffffffff1681526020019081526020016000205414611cff57600080fd5b6001611d0a836120a3565b600a0160003373ffffffffffffffffffffffffffffffffffffffff1673ffffffffffffffffffffffffffffffffffffffff16815260200190815260200160002081905550611d57826120a3565b600501600081548092919060010191905055507f0109c07b399c647a3567815a956a02e0badfd3ed527a3fdb992031fae5d005f93334604051808373ffffffffffffffffffffffffffffffffffffffff1673ffffffffffffffffffffffffffffffffffffffff16815260200180602001838152602001828103825260208152602001807f686173206d61646520746865207265717569726564206465706f736974206f66815250602001935050505060405180910390a15050565b80611e1c816120a3565b60000160009054906101000a900473ffffffffffffffffffffffffffffffffffffffff1673ffffffffffffffffffffffffffffffffffffffff163373ffffffffffffffffffffffffffffffffffffffff1614611e7757600080fd5b611e80826120a3565b600201543414611e8f57600080fd5b6001611e9a836120a3565b600a016000611ea8856120a3565b60000160009054906101000a900473ffffffffffffffffffffffffffffffffffffffff1673ffffffffffffffffffffffffffffffffffffffff1673ffffffffffffffffffffffffffffffffffffffff1681526020019081526020016000205414611f1157600080fd5b6001611f1c836120a3565b600a016000611f2a856120a3565b60010160009054906101000a900473ffffffffffffffffffffffffffffffffffffffff1673ffffffffffffffffffffffffffffffffffffffff1673ffffffffffffffffffffffffffffffffffffffff1681526020019081526020016000205414611f9357600080fd5b6000611f9e836120a3565b600b0160003373ffffffffffffffffffffffffffffffffffffffff1673ffffffffffffffffffffffffffffffffffffffff1681526020019081526020016000205414611fe957600080fd5b6001611ff4836120a3565b600b0160003373ffffffffffffffffffffffffffffffffffffffff1673ffffffffffffffffffffffffffffffffffffffff16815260200190815260200160002081905550612041826120a3565b600601600081548092919060010191905055507fdbafb049923bd24c9143b7aea787bb9133f12c9bc10e8ff7f1be6e2f13028c9760405180806020018281038252602f8152602001806121b1602f913960400191505060405180910390a15050565b60008060003373ffffffffffffffffffffffffffffffffffffffff1673ffffffffffffffffffffffffffffffffffffffff16815260200190815260200160002082815481106120ee57fe5b90600052602060002090600c0201905091905056fe7468652073656c6c657220686173207265766572736564207468656972206465706f7369745468652073656c6c657220686173206265656e207061696420616e6420616c6c206465706f736974732068617665206265656e2072657475726e6564202d207472616e73616374696f6e20636f6d706c657465746865206465706f73697420636c61696d206861732031206f7574206f662032206e6563657373617279207369676e6174757265734275796572206861732073656e7420746865207061796d656e7420616d6f756e7420746f2074686520657363726f7754686520627579657220686173206265656e20726566756e64656420616e6420616c6c206465706f736974732068617665206265656e2072657475726e6564202d207472616e73616374696f6e2063616e63656c6c656474686520627579657220686173207265766572736564207468656972206465706f736974a265627a7a72315820adc36c4f45bf85f82d52fe2766855721c55eae7b05c9351e544f34fce1d9a09764736f6c63430005100032",
  "source": "pragma solidity 0.5.16;\n\nlibrary SafeMath {\n    function mul(uint256 a, uint256 b) internal pure returns(uint256) {\n        uint256 c = a * b;\n        assert(a == 0 || c / a == b);\n        return c;\n    }\n\n    function div(uint256 a, uint256 b) internal pure returns(uint256) {\n        assert(b > 0); // Solidity automatically throws when dividing by 0\n        uint256 c = a / b;\n        assert(a == b * c + a % b); // There is no case in which this doesn't hold\n        return c;\n    }\n\n    function sub(uint256 a, uint256 b) internal pure returns(uint256) {\n        assert(b <= a);\n        return a - b;\n    }\n\n    function add(uint256 a, uint256 b) internal pure returns(uint256) {\n        uint256 c = a + b;\n        assert(c >= a);\n        return c;\n    }\n}\n\ncontract EscrowFactory {\n\tusing SafeMath for uint256;\n\n\tenum Status { OPEN, PENDING, CLOSED }\n\n\tmapping(address => EscrowContract[]) public contractsForUser;\n\tmapping(address => uint) public ownerContractCount;\n\n\t//storage\n\tstruct EscrowContract {\n\t    address payable buyer;\n\t    address payable seller;\n\t    uint amount;\n\t    uint deposit;\n\t    uint signatureCount;\n\t    uint depositCount;\n\t    uint amountCount;\n\t    Status status;\n\t    string notes;\n\t    mapping (address => uint) signatures;\n\t    mapping (address => uint) depositCheck;\n\t    mapping (address => uint) amountCheck;\n\t}\n\n\tfunction _getContract(uint contract_id) view internal returns (EscrowContract storage) {\n    \treturn contractsForUser[msg.sender][contract_id];\n    }\n\n    //modifiers\n    //only buyer can access\n    modifier isBuyer(uint contract_id) {\n        require(msg.sender == _getContract(contract_id).buyer);\n        _;\n    }\n    \n    //only seller can access\n    modifier isSeller(uint contract_id) {\n        require(msg.sender == _getContract(contract_id).seller);\n        _;\n    }\n    \n    //only the parties involved in the transaction can access.\n    modifier isPartOfContract(uint contract_id) {\n        require(msg.sender == _getContract(contract_id).seller || msg.sender == _getContract(contract_id).buyer);\n        _;\n    }\n\n     //events\n    event BuyerDeposited(address from, string msg, uint amount);\n    event SellerDeposited(address from, string msg, uint amount);\n    event BuyerDepositReversed(string msg);\n    event SellerDepositReversed(string msg);\n    event DepositPartialClaim(string msg);\n    event DepositsClaimed(string msg);\n    event AmountSent(string msg);\n    event SellerPaid(string msg);\n    event BuyerRefunded(string msg);\n\n    function _createContract(address payable _buyer, address payable _seller, uint _amount, uint _deposit, string memory notes) pure internal returns (EscrowContract memory){\n    \treturn EscrowContract(_buyer, _seller, _amount, _deposit, 0, 0, 0, Status.OPEN, notes);\n\t}\n\n\t/* Deposit function for the buyer - checks that the message sender\n    is the buyer, the amount being sent is equal to the deposit amount\n    and restricts the buyer from depositing more than once */\n    function buyerDeposit(uint contract_id) public payable isBuyer(contract_id) {\n        require(msg.value == _getContract(contract_id).deposit); // Require value submitted is equal to the deposit in the _contract.\n        require(_getContract(contract_id).depositCheck[msg.sender] == 0); // Require buyer has not deposited yet\n        _getContract(contract_id).depositCheck[msg.sender] = 1; // Set buyer deposited to true\n        _getContract(contract_id).depositCount ++; // Increase depositCount by 1\n        emit BuyerDeposited(msg.sender, \"has made the required deposit of\", msg.value);\n    }\n\n    /* Deposit function for the seller - checks that the message sender\n    is the seller, the amount being sent is equal to the deposit amount\n    and restricts the seller from depositing more than once */\n    function sellerDeposit(uint contract_id) public payable isSeller(contract_id) {\n        require(msg.value == _getContract(contract_id).deposit); // Require value submitted is equal to the deposit in the _contract.\n        require(_getContract(contract_id).depositCheck[msg.sender] == 0); // Require seller has not deposited yet\n        _getContract(contract_id).depositCheck[msg.sender] = 1;// Set seller deposited to true\n        _getContract(contract_id).depositCount ++; // Increase depositCount by 1\n        emit SellerDeposited(msg.sender, \"has made the required deposit of\", msg.value);\n    }\n\n    /* Function for buyer to retrieve deposit in the scenario where only the\n    buyer has interacted with the contract and the transaction is no longer\n    going ahead.*/\n    \n    function reverseBuyerDeposit(uint contract_id) public isBuyer(contract_id) {\n        require(_getContract(contract_id).depositCheck[_getContract(contract_id).buyer] == 1);\n        require(_getContract(contract_id).depositCheck[_getContract(contract_id).seller] == 0);\n        require(_getContract(contract_id).amountCheck[_getContract(contract_id).buyer] == 0);\n        _getContract(contract_id).depositCheck[_getContract(contract_id).buyer] = 0;\n        _getContract(contract_id).buyer.transfer(_getContract(contract_id).deposit);\n        emit BuyerDepositReversed(\"the buyer has reversed their deposit\");\n    }\n\n    /* Function for seller to retrieve deposit in the scenario where only the\n    seller has interacted with the contract and the transaction is no longer\n    going ahead.*/\n    \n    function reverseSellerDeposit(uint contract_id) public isSeller(contract_id) {\n        require(_getContract(contract_id).depositCheck[_getContract(contract_id).seller] == 1);\n        require(_getContract(contract_id).depositCheck[_getContract(contract_id).buyer] == 0);\n        require(_getContract(contract_id).amountCheck[_getContract(contract_id).buyer] == 0);\n        _getContract(contract_id).depositCheck[_getContract(contract_id).seller] = 0;\n        _getContract(contract_id).seller.transfer(_getContract(contract_id).deposit);\n        emit SellerDepositReversed(\"the seller has reversed their deposit\");\n    }\n\n    /* Function for both parties to reverse their deposits when both the buyer\n    and seller have made their deposits but no longer wish to proceed, both must\n    sign off on this by calling this function*/\n \n    function claimDeposits(uint contract_id) public isPartOfContract(contract_id) {\n        require(_getContract(contract_id).depositCheck[_getContract(contract_id).buyer] ==1);\n        require(_getContract(contract_id).depositCheck[_getContract(contract_id).seller] == 1);\n        require(_getContract(contract_id).amountCheck[_getContract(contract_id).buyer] == 0);\n        require(_getContract(contract_id).signatures[msg.sender] == 0);\n        _getContract(contract_id).signatures[msg.sender] = 1;\n        _getContract(contract_id).signatureCount ++;\n        \n        if (_getContract(contract_id).signatureCount == 1) {\n            emit DepositPartialClaim(\"the deposit claim has 1 out of 2 necessary signatures\");\n        }\n        \n        if (_getContract(contract_id).signatureCount == 2) {\n            _getContract(contract_id).buyer.transfer(_getContract(contract_id).deposit);\n            _getContract(contract_id).seller.transfer(_getContract(contract_id).deposit);\n            _getContract(contract_id).depositCheck[_getContract(contract_id).buyer] = 0;\n            _getContract(contract_id).depositCheck[_getContract(contract_id).seller] = 0;\n            _getContract(contract_id).signatures[_getContract(contract_id).buyer] = 0;\n            _getContract(contract_id).signatures[_getContract(contract_id).seller] = 0;\n            _getContract(contract_id).signatureCount = 0;\n            emit DepositsClaimed(\"the deposits have been returned\");\n        }\n    }\n\n    /* Function to allow the buyer to send the amount which is to eventually\n    be transferred to the seller. Checks that the buyer is sending the correct\n    amount, checks that both seller and buyer have made the required deposits \n    and restricts the buyer from making multiple payments */\n    \n    function sendAmount(uint contract_id) public payable isBuyer(contract_id) {\n        require(msg.value == _getContract(contract_id).amount); // Check to see correct amount is sent.\n        require(_getContract(contract_id).depositCheck[_getContract(contract_id).buyer] == 1);\n        require(_getContract(contract_id).depositCheck[_getContract(contract_id).seller] == 1);\n        require(_getContract(contract_id).amountCheck[msg.sender] == 0);\n        _getContract(contract_id).amountCheck[msg.sender] = 1;\n        _getContract(contract_id).amountCount ++; // Increase amountCount by 1\n        emit AmountSent(\"Buyer has sent the payment amount to the escrow\");\n    }\n\n    /* complete transaction: transferring specified amount to the seller and \n    returning deposits to both parties */\n    /* NEW FUNCTION EXTRA: This should automatically pay seller when it passes expiry time (i.e. the flight time) and then automatically return deposits. Developer fee should be collected here */\n    function paySeller(uint contract_id) public isBuyer(contract_id) {\n        require(_getContract(contract_id).depositCheck[_getContract(contract_id).buyer] == 1);\n        require(_getContract(contract_id).depositCheck[_getContract(contract_id).seller] == 1);\n        require(_getContract(contract_id).amountCheck[_getContract(contract_id).buyer] == 1);\n        _getContract(contract_id).seller.transfer(_getContract(contract_id).amount);\n        _getContract(contract_id).buyer.transfer(_getContract(contract_id).deposit);\n        _getContract(contract_id).seller.transfer(_getContract(contract_id).deposit);\n        emit SellerPaid(\"The seller has been paid and all deposits have been returned - transaction complete\");\n    }\n\n    /*cancel transaction: refunding the specified amount to the buyer and \n    returning deposits to both parties */\n    /* NEW FUNCTION EXTRA: This can only be called before the expiry time. (i.e. 1 or 2 days before flight time) and then automatically return deposits. Developer fee should be collected here */\n    function refundBuyer(uint contract_id) public isSeller(contract_id) {\n        require(_getContract(contract_id).depositCheck[_getContract(contract_id).buyer] == 1);\n        require(_getContract(contract_id).depositCheck[_getContract(contract_id).seller] == 1);\n        require(_getContract(contract_id).amountCheck[_getContract(contract_id).buyer] == 1);\n        _getContract(contract_id).buyer.transfer(_getContract(contract_id).amount);\n        _getContract(contract_id).seller.transfer(_getContract(contract_id).deposit);\n        _getContract(contract_id).buyer.transfer(_getContract(contract_id).deposit);\n        emit BuyerRefunded(\"The buyer has been refunded and all deposits have been returned - transaction cancelled\");\n    }\n}",
  "sourcePath": "/Users/donaldlee/Developer/PointsExchange/contracts/EscrowFactory.sol",
  "compiler": {
    "name": "solc",
    "version": "0.5.16+commit.9c3226ce.Emscripten.clang"
  },
  "schemaVersion": "3.3.3",
  "updatedAt": "2021-04-13T01:54:55.345Z",
  "networkType": "ethereum",
  "devdoc": {
    "methods": {}
  },
  "userdoc": {
    "methods": {}
  }
}