{
  "contractName": "EscrowExchange",
  "abi": [
    {
      "anonymous": false,
      "inputs": [
        {
          "indexed": false,
          "internalType": "address",
          "name": "buyer",
          "type": "address"
        },
        {
          "indexed": false,
          "internalType": "address",
          "name": "seller",
          "type": "address"
        },
        {
          "indexed": false,
          "internalType": "uint256",
          "name": "amount",
          "type": "uint256"
        },
        {
          "indexed": false,
          "internalType": "uint256",
          "name": "deposit",
          "type": "uint256"
        },
        {
          "indexed": false,
          "internalType": "uint256",
          "name": "signatureCount",
          "type": "uint256"
        },
        {
          "indexed": false,
          "internalType": "string",
          "name": "status",
          "type": "string"
        },
        {
          "indexed": false,
          "internalType": "string",
          "name": "notes",
          "type": "string"
        },
        {
          "indexed": false,
          "internalType": "bool",
          "name": "depositMade",
          "type": "bool"
        }
      ],
      "name": "ContractCreated",
      "type": "event"
    },
    {
      "constant": true,
      "inputs": [
        {
          "internalType": "address",
          "name": "",
          "type": "address"
        },
        {
          "internalType": "uint256",
          "name": "",
          "type": "uint256"
        }
      ],
      "name": "addressContractIndexExists",
      "outputs": [
        {
          "internalType": "bool",
          "name": "",
          "type": "bool"
        }
      ],
      "payable": false,
      "stateMutability": "view",
      "type": "function"
    },
    {
      "constant": true,
      "inputs": [
        {
          "internalType": "address",
          "name": "",
          "type": "address"
        },
        {
          "internalType": "uint256",
          "name": "",
          "type": "uint256"
        }
      ],
      "name": "addressToIndex",
      "outputs": [
        {
          "internalType": "uint256",
          "name": "",
          "type": "uint256"
        }
      ],
      "payable": false,
      "stateMutability": "view",
      "type": "function"
    },
    {
      "constant": true,
      "inputs": [],
      "name": "contractCount",
      "outputs": [
        {
          "internalType": "uint256",
          "name": "",
          "type": "uint256"
        }
      ],
      "payable": false,
      "stateMutability": "view",
      "type": "function"
    },
    {
      "constant": true,
      "inputs": [
        {
          "internalType": "uint256",
          "name": "",
          "type": "uint256"
        }
      ],
      "name": "contractIndexesForUsers",
      "outputs": [
        {
          "internalType": "contract EscrowFactory",
          "name": "",
          "type": "address"
        }
      ],
      "payable": false,
      "stateMutability": "view",
      "type": "function"
    },
    {
      "constant": true,
      "inputs": [
        {
          "internalType": "uint256",
          "name": "index",
          "type": "uint256"
        }
      ],
      "name": "getContractForCurrentUser",
      "outputs": [
        {
          "internalType": "address",
          "name": "",
          "type": "address"
        },
        {
          "internalType": "address",
          "name": "",
          "type": "address"
        },
        {
          "internalType": "uint256",
          "name": "",
          "type": "uint256"
        },
        {
          "internalType": "uint256",
          "name": "",
          "type": "uint256"
        },
        {
          "internalType": "uint256",
          "name": "",
          "type": "uint256"
        },
        {
          "internalType": "string",
          "name": "",
          "type": "string"
        },
        {
          "internalType": "string",
          "name": "",
          "type": "string"
        },
        {
          "internalType": "uint256",
          "name": "",
          "type": "uint256"
        },
        {
          "internalType": "uint256",
          "name": "",
          "type": "uint256"
        },
        {
          "internalType": "uint256",
          "name": "",
          "type": "uint256"
        },
        {
          "internalType": "address",
          "name": "",
          "type": "address"
        }
      ],
      "payable": false,
      "stateMutability": "view",
      "type": "function"
    },
    {
      "constant": true,
      "inputs": [],
      "name": "getContractCountForCurrentUser",
      "outputs": [
        {
          "internalType": "uint256",
          "name": "",
          "type": "uint256"
        }
      ],
      "payable": false,
      "stateMutability": "view",
      "type": "function"
    },
    {
      "constant": false,
      "inputs": [
        {
          "internalType": "address payable",
          "name": "buyer",
          "type": "address"
        },
        {
          "internalType": "address payable",
          "name": "seller",
          "type": "address"
        },
        {
          "internalType": "uint256",
          "name": "amount",
          "type": "uint256"
        },
        {
          "internalType": "uint256",
          "name": "deposit",
          "type": "uint256"
        },
        {
          "internalType": "string",
          "name": "notes",
          "type": "string"
        }
      ],
      "name": "createContract",
      "outputs": [],
      "payable": false,
      "stateMutability": "nonpayable",
      "type": "function"
    }
  ],
  "bytecode": "0x60806040526000805534801561001457600080fd5b50614bee806100246000396000f3fe60806040523480156200001157600080fd5b5060043610620000885760003560e01c80638736381a11620000635780638736381a146200012357806392646cc51462000145578063d0be31c4146200017b578063e1ab571114620001b15762000088565b80633d0beb4b146200008d57806360cc106214620000c35780636a3661a61462000103575b600080fd5b620000ab6004803603620000a5919081019062000fcb565b620001d3565b604051620000ba9190620014ac565b60405180910390f35b620000e16004803603620000db919081019062001051565b62000202565b604051620000fa9b9a999897969594939291906200135f565b60405180910390f35b6200012160048036036200011b919081019062000f30565b6200082e565b005b6200012d62000bcd565b6040516200013c9190620014ac565b60405180910390f35b6200016360048036036200015d919081019062001051565b62000bd3565b6040516200017291906200144b565b60405180910390f35b62000199600480360362000193919081019062000fcb565b62000c06565b604051620001a891906200142e565b60405180910390f35b620001bb62000c35565b604051620001ca9190620014ac565b60405180910390f35b60016020528160005260406000208181548110620001ed57fe5b90600052602060002001600091509150505481565b6000806000806000606080600080600080600260003373ffffffffffffffffffffffffffffffffffffffff1673ffffffffffffffffffffffffffffffffffffffff16815260200190815260200160002060008d815260200190815260200160002060009054906101000a900460ff16156200081e576000600360008e815260200190815260200160002060009054906101000a900473ffffffffffffffffffffffffffffffffffffffff16905060008173ffffffffffffffffffffffffffffffffffffffff1663dbd0e1b66040518163ffffffff1660e01b815260040160206040518083038186803b158015620002f857600080fd5b505afa1580156200030d573d6000803e3d6000fd5b505050506040513d601f19601f8201168201806040525062000333919081019062000f04565b905060008273ffffffffffffffffffffffffffffffffffffffff1663603daf9a6040518163ffffffff1660e01b815260040160206040518083038186803b1580156200037e57600080fd5b505afa15801562000393573d6000803e3d6000fd5b505050506040513d601f19601f82011682018060405250620003b9919081019062000f04565b905080828473ffffffffffffffffffffffffffffffffffffffff1663d321fe296040518163ffffffff1660e01b815260040160206040518083038186803b1580156200040457600080fd5b505afa15801562000419573d6000803e3d6000fd5b505050506040513d601f19601f820116820180604052506200043f91908101906200107d565b8573ffffffffffffffffffffffffffffffffffffffff1663c399ec886040518163ffffffff1660e01b815260040160206040518083038186803b1580156200048657600080fd5b505afa1580156200049b573d6000803e3d6000fd5b505050506040513d601f19601f82011682018060405250620004c191908101906200107d565b8673ffffffffffffffffffffffffffffffffffffffff166389d84af56040518163ffffffff1660e01b815260040160206040518083038186803b1580156200050857600080fd5b505afa1580156200051d573d6000803e3d6000fd5b505050506040513d601f19601f820116820180604052506200054391908101906200107d565b8773ffffffffffffffffffffffffffffffffffffffff1663c032846b6040518163ffffffff1660e01b815260040160006040518083038186803b1580156200058a57600080fd5b505afa1580156200059f573d6000803e3d6000fd5b505050506040513d6000823e3d601f19601f82011682018060405250620005ca91908101906200100c565b8873ffffffffffffffffffffffffffffffffffffffff1663b4af200d6040518163ffffffff1660e01b815260040160006040518083038186803b1580156200061157600080fd5b505afa15801562000626573d6000803e3d6000fd5b505050506040513d6000823e3d601f19601f820116820180604052506200065191908101906200100c565b8973ffffffffffffffffffffffffffffffffffffffff166303828aee336040518263ffffffff1660e01b81526004016200068c919062001244565b60206040518083038186803b158015620006a557600080fd5b505afa158015620006ba573d6000803e3d6000fd5b505050506040513d601f19601f82011682018060405250620006e091908101906200107d565b8a73ffffffffffffffffffffffffffffffffffffffff166386fef2368a6040518263ffffffff1660e01b81526004016200071b919062001227565b60206040518083038186803b1580156200073457600080fd5b505afa15801562000749573d6000803e3d6000fd5b505050506040513d601f19601f820116820180604052506200076f91908101906200107d565b8b73ffffffffffffffffffffffffffffffffffffffff1663277fc0e9336040518263ffffffff1660e01b8152600401620007aa919062001244565b60206040518083038186803b158015620007c357600080fd5b505afa158015620007d8573d6000803e3d6000fd5b505050506040513d601f19601f82011682018060405250620007fe91908101906200107d565b8c9d509d509d509d509d509d509d509d509d509d509d505050506200081f565b5b91939597999b90929496989a50565b600073ffffffffffffffffffffffffffffffffffffffff168573ffffffffffffffffffffffffffffffffffffffff161415620008a1576040517f08c379a0000000000000000000000000000000000000000000000000000000008152600401620008989062001468565b60405180910390fd5b600073ffffffffffffffffffffffffffffffffffffffff168473ffffffffffffffffffffffffffffffffffffffff16141562000914576040517f08c379a00000000000000000000000000000000000000000000000000000000081526004016200090b906200148a565b60405180910390fd5b600083116200092257600080fd5b600082116200093057600080fd5b60008585858585604051620009459062000dcb565b62000955959493929190620012fb565b604051809103906000f08015801562000972573d6000803e3d6000fd5b50905080600360008054815260200190815260200160002060006101000a81548173ffffffffffffffffffffffffffffffffffffffff021916908373ffffffffffffffffffffffffffffffffffffffff160217905550600160008773ffffffffffffffffffffffffffffffffffffffff1673ffffffffffffffffffffffffffffffffffffffff1681526020019081526020016000206000549080600181540180825580915050906001820390600052602060002001600090919290919091505550600160008673ffffffffffffffffffffffffffffffffffffffff1673ffffffffffffffffffffffffffffffffffffffff16815260200190815260200160002060005490806001815401808255809150509060018203906000526020600020016000909192909190915055506001600260008873ffffffffffffffffffffffffffffffffffffffff1673ffffffffffffffffffffffffffffffffffffffff16815260200190815260200160002060008054815260200190815260200160002060006101000a81548160ff0219169083151502179055506001600260008773ffffffffffffffffffffffffffffffffffffffff1673ffffffffffffffffffffffffffffffffffffffff16815260200190815260200160002060008054815260200190815260200160002060006101000a81548160ff0219169083151502179055506001600054016000819055507f0acd88e48e19df2f60e1fac1cc74e5cd85d20d113033e9f7ed5d60534fb3381a86868686600087600060405162000bbd979695949392919062001261565b60405180910390a1505050505050565b60005481565b60036020528060005260406000206000915054906101000a900473ffffffffffffffffffffffffffffffffffffffff1681565b60026020528160005260406000206020528060005260406000206000915091509054906101000a900460ff1681565b600080600160003373ffffffffffffffffffffffffffffffffffffffff1673ffffffffffffffffffffffffffffffffffffffff16815260200190815260200160002080549050141562000c8c576000905062000dc8565b60018060003373ffffffffffffffffffffffffffffffffffffffff1673ffffffffffffffffffffffffffffffffffffffff16815260200190815260200160002080549050141562000d2257600160003373ffffffffffffffffffffffffffffffffffffffff1673ffffffffffffffffffffffffffffffffffffffff16815260200190815260200160002080549050905062000dc8565b6000600160003373ffffffffffffffffffffffffffffffffffffffff1673ffffffffffffffffffffffffffffffffffffffff16815260200190815260200160002080549050905060018060003373ffffffffffffffffffffffffffffffffffffffff1673ffffffffffffffffffffffffffffffffffffffff168152602001908152602001600020600183038154811062000db857fe5b9060005260206000200154019150505b90565b6134f180620016bb83390190565b60008135905062000dea816200166c565b92915050565b60008151905062000e01816200166c565b92915050565b60008135905062000e188162001686565b92915050565b600082601f83011262000e3057600080fd5b813562000e4762000e4182620014f7565b620014c9565b9150808252602083016020830185838301111562000e6457600080fd5b62000e7183828462001616565b50505092915050565b600082601f83011262000e8c57600080fd5b815162000ea362000e9d82620014f7565b620014c9565b9150808252602083016020830185838301111562000ec057600080fd5b62000ecd83828462001625565b50505092915050565b60008135905062000ee781620016a0565b92915050565b60008151905062000efe81620016a0565b92915050565b60006020828403121562000f1757600080fd5b600062000f278482850162000df0565b91505092915050565b600080600080600060a0868803121562000f4957600080fd5b600062000f598882890162000e07565b955050602062000f6c8882890162000e07565b945050604062000f7f8882890162000ed6565b935050606062000f928882890162000ed6565b925050608086013567ffffffffffffffff81111562000fb057600080fd5b62000fbe8882890162000e1e565b9150509295509295909350565b6000806040838503121562000fdf57600080fd5b600062000fef8582860162000dd9565b9250506020620010028582860162000ed6565b9150509250929050565b6000602082840312156200101f57600080fd5b600082015167ffffffffffffffff8111156200103a57600080fd5b620010488482850162000e7a565b91505092915050565b6000602082840312156200106457600080fd5b6000620010748482850162000ed6565b91505092915050565b6000602082840312156200109057600080fd5b6000620010a08482850162000eed565b91505092915050565b620010b4816200159e565b82525050565b620010c58162001554565b82525050565b620010d68162001540565b82525050565b620010e78162001568565b82525050565b620010f881620015b2565b82525050565b6200110981620015da565b82525050565b60006200111c8262001524565b6200112881856200152f565b93506200113a81856020860162001625565b62001145816200165b565b840191505092915050565b60006200115f6015836200152f565b91507f496e76616c6964206275796572206164647265737300000000000000000000006000830152602082019050919050565b6000620011a16004836200152f565b91507f4f70656e000000000000000000000000000000000000000000000000000000006000830152602082019050919050565b6000620011e36016836200152f565b91507f496e76616c69642073656c6c65722061646472657373000000000000000000006000830152602082019050919050565b620012218162001594565b82525050565b60006020820190506200123e6000830184620010cb565b92915050565b60006020820190506200125b6000830184620010a9565b92915050565b60006101008201905062001279600083018a620010a9565b620012886020830189620010a9565b62001297604083018862001216565b620012a6606083018762001216565b620012b56080830186620010fe565b81810360a0830152620012c88162001192565b905081810360c0830152620012de81856200110f565b9050620012ef60e0830184620010dc565b98975050505050505050565b600060a082019050620013126000830188620010ba565b620013216020830187620010ba565b62001330604083018662001216565b6200133f606083018562001216565b81810360808301526200135381846200110f565b90509695505050505050565b60006101608201905062001377600083018e620010cb565b62001386602083018d620010cb565b62001395604083018c62001216565b620013a4606083018b62001216565b620013b3608083018a62001216565b81810360a0830152620013c781896200110f565b905081810360c0830152620013dd81886200110f565b9050620013ee60e083018762001216565b620013fe61010083018662001216565b6200140e61012083018562001216565b6200141e610140830184620010cb565b9c9b505050505050505050505050565b6000602082019050620014456000830184620010dc565b92915050565b6000602082019050620014626000830184620010ed565b92915050565b60006020820190508181036000830152620014838162001150565b9050919050565b60006020820190508181036000830152620014a581620011d4565b9050919050565b6000602082019050620014c3600083018462001216565b92915050565b6000604051905081810181811067ffffffffffffffff82111715620014ed57600080fd5b8060405250919050565b600067ffffffffffffffff8211156200150f57600080fd5b601f19601f8301169050602081019050919050565b600081519050919050565b600082825260208201905092915050565b60006200154d8262001574565b9050919050565b6000620015618262001574565b9050919050565b60008115159050919050565b600073ffffffffffffffffffffffffffffffffffffffff82169050919050565b6000819050919050565b6000620015ab82620015ee565b9050919050565b6000620015bf82620015c6565b9050919050565b6000620015d38262001574565b9050919050565b6000620015e78262001594565b9050919050565b6000620015fb8262001602565b9050919050565b60006200160f8262001574565b9050919050565b82818337600083830152505050565b60005b838110156200164557808201518184015260208101905062001628565b8381111562001655576000848401525b50505050565b6000601f19601f8301169050919050565b620016778162001540565b81146200168357600080fd5b50565b620016918162001554565b81146200169d57600080fd5b50565b620016ab8162001594565b8114620016b757600080fd5b5056fe60806040523480156200001157600080fd5b50604051620034f1380380620034f1833981810160405260a08110156200003757600080fd5b8101908080519060200190929190805190602001909291908051906020019092919080519060200190929190805160405193929190846401000000008211156200008057600080fd5b838201915060208201858111156200009757600080fd5b8251866001820283011164010000000082111715620000b557600080fd5b8083526020830192505050908051906020019080838360005b83811015620000eb578082015181840152602081019050620000ce565b50505050905090810190601f168015620001195780820380516001836020036101000a031916815260200191505b50604052505050846000806101000a81548173ffffffffffffffffffffffffffffffffffffffff021916908373ffffffffffffffffffffffffffffffffffffffff16021790555083600160006101000a81548173ffffffffffffffffffffffffffffffffffffffff021916908373ffffffffffffffffffffffffffffffffffffffff16021790555082600381905550816004819055508060079080519060200190620001c79291906200038f565b506000600660006101000a81548160ff02191690836002811115620001e857fe5b02179055506000600860006101000a81548160ff02191690831515021790555060028590806001815401808255809150509060018203906000526020600020016000909192909190916101000a81548173ffffffffffffffffffffffffffffffffffffffff021916908373ffffffffffffffffffffffffffffffffffffffff1602179055505060028490806001815401808255809150509060018203906000526020600020016000909192909190916101000a81548173ffffffffffffffffffffffffffffffffffffffff021916908373ffffffffffffffffffffffffffffffffffffffff160217905550506001600960008773ffffffffffffffffffffffffffffffffffffffff1673ffffffffffffffffffffffffffffffffffffffff16815260200190815260200160002060006101000a81548160ff0219169083151502179055506001600960008673ffffffffffffffffffffffffffffffffffffffff1673ffffffffffffffffffffffffffffffffffffffff16815260200190815260200160002060006101000a81548160ff02191690831515021790555050505050506200043e565b828054600181600116156101000203166002900490600052602060002090601f016020900481019282601f10620003d257805160ff191683800117855562000403565b8280016001018555821562000403579182015b8281111562000402578251825591602001919060010190620003e5565b5b50905062000412919062000416565b5090565b6200043b91905b80821115620004375760008160009055506001016200041d565b5090565b90565b6130a3806200044e6000396000f3fe6080604052600436106101e35760003560e01c8063a057958711610102578063c399ec8811610095578063dbd0e1b611610064578063dbd0e1b614610972578063e7f55ed6146109c9578063e8a61cc8146109f4578063f8fe988914610a0b576101e3565b8063c399ec881461088c578063c792f36d146108b7578063d0e30db01461091c578063d321fe2914610947576101e3565b8063ab404ff0116100d1578063ab404ff0146106f0578063b4af200d14610755578063be7e69fd146107e5578063c032846b146107fc576101e3565b8063a057958714610675578063a0c97bce1461067f578063a575439414610696578063aa8c217c146106c5576101e3565b8063537eeb511161017a57806386fef2361161014957806386fef236146105ac578063892642011461061157806389d84af5146106405780638b2b3d8b1461066b576101e3565b8063537eeb511461046e578063603daf9a146104d35780636f9fb98a1461052a5780637150d8ae14610555576101e3565b8063200d2ed2116101b6578063200d2ed21461034b578063277fc0e914610384578063314fd68f146103e95780634c1786ea14610464576101e3565b806303828aee146101e857806308551a531461024d5780631432c281146102a45780631866dc97146102bb575b600080fd5b3480156101f457600080fd5b506102376004803603602081101561020b57600080fd5b81019080803573ffffffffffffffffffffffffffffffffffffffff169060200190929190505050610a22565b6040518082815260200191505060405180910390f35b34801561025957600080fd5b50610262610a6b565b604051808273ffffffffffffffffffffffffffffffffffffffff1673ffffffffffffffffffffffffffffffffffffffff16815260200191505060405180910390f35b3480156102b057600080fd5b506102b9610a91565b005b3480156102c757600080fd5b506102d0611148565b6040518080602001828103825283818151815260200191508051906020019080838360005b838110156103105780820151818401526020810190506102f5565b50505050905090810190601f16801561033d5780820380516001836020036101000a031916815260200191505b509250505060405180910390f35b34801561035757600080fd5b506103606111e6565b6040518082600281111561037057fe5b60ff16815260200191505060405180910390f35b34801561039057600080fd5b506103d3600480360360208110156103a757600080fd5b81019080803573ffffffffffffffffffffffffffffffffffffffff1690602001909291905050506111f9565b6040518082815260200191505060405180910390f35b3480156103f557600080fd5b506104226004803603602081101561040c57600080fd5b8101908080359060200190929190505050611242565b604051808273ffffffffffffffffffffffffffffffffffffffff1673ffffffffffffffffffffffffffffffffffffffff16815260200191505060405180910390f35b61046c61127e565b005b34801561047a57600080fd5b506104bd6004803603602081101561049157600080fd5b81019080803573ffffffffffffffffffffffffffffffffffffffff1690602001909291905050506114ef565b6040518082815260200191505060405180910390f35b3480156104df57600080fd5b506104e8611507565b604051808273ffffffffffffffffffffffffffffffffffffffff1673ffffffffffffffffffffffffffffffffffffffff16815260200191505060405180910390f35b34801561053657600080fd5b5061053f611530565b6040518082815260200191505060405180910390f35b34801561056157600080fd5b5061056a611538565b604051808273ffffffffffffffffffffffffffffffffffffffff1673ffffffffffffffffffffffffffffffffffffffff16815260200191505060405180910390f35b3480156105b857600080fd5b506105fb600480360360208110156105cf57600080fd5b81019080803573ffffffffffffffffffffffffffffffffffffffff16906020019092919050505061155d565b6040518082815260200191505060405180910390f35b34801561061d57600080fd5b506106266115a6565b604051808215151515815260200191505060405180910390f35b34801561064c57600080fd5b506106556115b9565b6040518082815260200191505060405180910390f35b6106736115c3565b005b61067d61196a565b005b34801561068b57600080fd5b50610694611bda565b005b3480156106a257600080fd5b506106ab612041565b604051808215151515815260200191505060405180910390f35b3480156106d157600080fd5b506106da612058565b6040518082815260200191505060405180910390f35b3480156106fc57600080fd5b5061073f6004803603602081101561071357600080fd5b81019080803573ffffffffffffffffffffffffffffffffffffffff16906020019092919050505061205e565b6040518082815260200191505060405180910390f35b34801561076157600080fd5b5061076a612076565b6040518080602001828103825283818151815260200191508051906020019080838360005b838110156107aa57808201518184015260208101905061078f565b50505050905090810190601f1680156107d75780820380516001836020036101000a031916815260200191505b509250505060405180910390f35b3480156107f157600080fd5b506107fa612118565b005b34801561080857600080fd5b50610811612401565b6040518080602001828103825283818151815260200191508051906020019080838360005b83811015610851578082015181840152602081019050610836565b50505050905090810190601f16801561087e5780820380516001836020036101000a031916815260200191505b509250505060405180910390f35b34801561089857600080fd5b506108a1612515565b6040518082815260200191505060405180910390f35b3480156108c357600080fd5b50610906600480360360208110156108da57600080fd5b81019080803573ffffffffffffffffffffffffffffffffffffffff16906020019092919050505061251f565b6040518082815260200191505060405180910390f35b34801561092857600080fd5b50610931612537565b6040518082815260200191505060405180910390f35b34801561095357600080fd5b5061095c61253d565b6040518082815260200191505060405180910390f35b34801561097e57600080fd5b50610987612547565b604051808273ffffffffffffffffffffffffffffffffffffffff1673ffffffffffffffffffffffffffffffffffffffff16815260200191505060405180910390f35b3480156109d557600080fd5b506109de612571565b6040518082815260200191505060405180910390f35b348015610a0057600080fd5b50610a09612577565b005b348015610a1757600080fd5b50610a20612a44565b005b6000600b60008373ffffffffffffffffffffffffffffffffffffffff1673ffffffffffffffffffffffffffffffffffffffff168152602001908152602001600020549050919050565b600160009054906101000a900473ffffffffffffffffffffffffffffffffffffffff1681565b33600960008273ffffffffffffffffffffffffffffffffffffffff1673ffffffffffffffffffffffffffffffffffffffff16815260200190815260200160002060009054906101000a900460ff16610ae857600080fd5b6001600b60008060009054906101000a900473ffffffffffffffffffffffffffffffffffffffff1673ffffffffffffffffffffffffffffffffffffffff1673ffffffffffffffffffffffffffffffffffffffff1681526020019081526020016000205414610ba1576040517f08c379a0000000000000000000000000000000000000000000000000000000008152600401808060200182810382526032815260200180612fe76032913960400191505060405180910390fd5b6001600b6000600160009054906101000a900473ffffffffffffffffffffffffffffffffffffffff1673ffffffffffffffffffffffffffffffffffffffff1673ffffffffffffffffffffffffffffffffffffffff1681526020019081526020016000205414610c5b576040517f08c379a0000000000000000000000000000000000000000000000000000000008152600401808060200182810382526033815260200180612d676033913960400191505060405180910390fd5b6000600c60008060009054906101000a900473ffffffffffffffffffffffffffffffffffffffff1673ffffffffffffffffffffffffffffffffffffffff1673ffffffffffffffffffffffffffffffffffffffff1681526020019081526020016000205414610d14576040517f08c379a0000000000000000000000000000000000000000000000000000000008152600401808060200182810382526036815260200180612d316036913960400191505060405180910390fd5b6000600a60003373ffffffffffffffffffffffffffffffffffffffff1673ffffffffffffffffffffffffffffffffffffffff1681526020019081526020016000205414610dac576040517f08c379a000000000000000000000000000000000000000000000000000000000815260040180806020018281038252603281526020018061303d6032913960400191505060405180910390fd5b6001600a60003373ffffffffffffffffffffffffffffffffffffffff1673ffffffffffffffffffffffffffffffffffffffff1681526020019081526020016000208190555060056000815480929190600101919050555060016005541415610e5a577f87463abc399fbbddfcd563f22d61267e4c0402b336940699382407adce42e5a2604051808060200182810382526035815260200180612ed56035913960400191505060405180910390a15b60026005541415611145576000809054906101000a900473ffffffffffffffffffffffffffffffffffffffff1673ffffffffffffffffffffffffffffffffffffffff166108fc6004549081150290604051600060405180830381858888f19350505050158015610ece573d6000803e3d6000fd5b50600160009054906101000a900473ffffffffffffffffffffffffffffffffffffffff1673ffffffffffffffffffffffffffffffffffffffff166108fc6004549081150290604051600060405180830381858888f19350505050158015610f39573d6000803e3d6000fd5b506000600b60008060009054906101000a900473ffffffffffffffffffffffffffffffffffffffff1673ffffffffffffffffffffffffffffffffffffffff1673ffffffffffffffffffffffffffffffffffffffff168152602001908152602001600020819055506000600b6000600160009054906101000a900473ffffffffffffffffffffffffffffffffffffffff1673ffffffffffffffffffffffffffffffffffffffff1673ffffffffffffffffffffffffffffffffffffffff168152602001908152602001600020819055506000600a60008060009054906101000a900473ffffffffffffffffffffffffffffffffffffffff1673ffffffffffffffffffffffffffffffffffffffff1673ffffffffffffffffffffffffffffffffffffffff168152602001908152602001600020819055506000600a6000600160009054906101000a900473ffffffffffffffffffffffffffffffffffffffff1673ffffffffffffffffffffffffffffffffffffffff1673ffffffffffffffffffffffffffffffffffffffff1681526020019081526020016000208190555060006005819055507fd397a3b1b662401574a4482307d3aaaa5413f8af98a7053e3473935f4d0659ed60405180806020018281038252601f8152602001807f746865206465706f736974732068617665206265656e2072657475726e65640081525060200191505060405180910390a15b50565b60078054600181600116156101000203166002900480601f0160208091040260200160405190810160405280929190818152602001828054600181600116156101000203166002900480156111de5780601f106111b3576101008083540402835291602001916111de565b820191906000526020600020905b8154815290600101906020018083116111c157829003601f168201915b505050505081565b600660009054906101000a900460ff1681565b6000600a60008373ffffffffffffffffffffffffffffffffffffffff1673ffffffffffffffffffffffffffffffffffffffff168152602001908152602001600020549050919050565b6002818154811061124f57fe5b906000526020600020016000915054906101000a900473ffffffffffffffffffffffffffffffffffffffff1681565b600160009054906101000a900473ffffffffffffffffffffffffffffffffffffffff1673ffffffffffffffffffffffffffffffffffffffff163373ffffffffffffffffffffffffffffffffffffffff16146112d857600080fd5b600454341461134f576040517f08c379a000000000000000000000000000000000000000000000000000000000815260040180806020018281038252600f8152602001807f496e76616c6964206465706f736974000000000000000000000000000000000081525060200191505060405180910390fd5b6000600b60003373ffffffffffffffffffffffffffffffffffffffff1673ffffffffffffffffffffffffffffffffffffffff1681526020019081526020016000205414611404576040517f08c379a00000000000000000000000000000000000000000000000000000000081526004018080602001828103825260188152602001807f53656c6c657220616c7265616479206465706f7369746564000000000000000081525060200191505060405180910390fd5b6001600b60003373ffffffffffffffffffffffffffffffffffffffff1673ffffffffffffffffffffffffffffffffffffffff168152602001908152602001600020819055507feaa52bf3f740eaa050012695cd117e2182b5c032c7fc36dbcdfc74189f68ab2e3334604051808373ffffffffffffffffffffffffffffffffffffffff1673ffffffffffffffffffffffffffffffffffffffff16815260200180602001838152602001828103825260208152602001807f686173206d61646520746865207265717569726564206465706f736974206f66815250602001935050505060405180910390a1565b600c6020528060005260406000206000915090505481565b60008060009054906101000a900473ffffffffffffffffffffffffffffffffffffffff16905090565b600047905090565b6000809054906101000a900473ffffffffffffffffffffffffffffffffffffffff1681565b6000600c60008373ffffffffffffffffffffffffffffffffffffffff1673ffffffffffffffffffffffffffffffffffffffff168152602001908152602001600020549050919050565b600860009054906101000a900460ff1681565b6000600554905090565b6000809054906101000a900473ffffffffffffffffffffffffffffffffffffffff1673ffffffffffffffffffffffffffffffffffffffff163373ffffffffffffffffffffffffffffffffffffffff161461161c57600080fd5b6003543414611693576040517f08c379a000000000000000000000000000000000000000000000000000000000815260040180806020018281038252600e8152602001807f496e76616c696420616d6f756e7400000000000000000000000000000000000081525060200191505060405180910390fd5b6001600b60008060009054906101000a900473ffffffffffffffffffffffffffffffffffffffff1673ffffffffffffffffffffffffffffffffffffffff1673ffffffffffffffffffffffffffffffffffffffff1681526020019081526020016000205414611769576040517f08c379a000000000000000000000000000000000000000000000000000000000815260040180806020018281038252601f8152602001807f74686520627579657220686173206e6f74206465706f7369746564207965740081525060200191505060405180910390fd5b6001600b6000600160009054906101000a900473ffffffffffffffffffffffffffffffffffffffff1673ffffffffffffffffffffffffffffffffffffffff1673ffffffffffffffffffffffffffffffffffffffff1681526020019081526020016000205414611840576040517f08c379a00000000000000000000000000000000000000000000000000000000081526004018080602001828103825260208152602001807f7468652073656c6c657220686173206e6f74206465706f73697465642079657481525060200191505060405180910390fd5b6000600c60003373ffffffffffffffffffffffffffffffffffffffff1673ffffffffffffffffffffffffffffffffffffffff16815260200190815260200160002054146118d8576040517f08c379a0000000000000000000000000000000000000000000000000000000008152600401808060200182810382526025815260200180612e7b6025913960400191505060405180910390fd5b6001600c60003373ffffffffffffffffffffffffffffffffffffffff1673ffffffffffffffffffffffffffffffffffffffff168152602001908152602001600020819055507fdbafb049923bd24c9143b7aea787bb9133f12c9bc10e8ff7f1be6e2f13028c9760405180806020018281038252602f815260200180612f0a602f913960400191505060405180910390a1565b6000809054906101000a900473ffffffffffffffffffffffffffffffffffffffff1673ffffffffffffffffffffffffffffffffffffffff163373ffffffffffffffffffffffffffffffffffffffff16146119c357600080fd5b6004543414611a3a576040517f08c379a000000000000000000000000000000000000000000000000000000000815260040180806020018281038252600f8152602001807f496e76616c6964206465706f736974000000000000000000000000000000000081525060200191505060405180910390fd5b6000600b60003373ffffffffffffffffffffffffffffffffffffffff1673ffffffffffffffffffffffffffffffffffffffff1681526020019081526020016000205414611aef576040517f08c379a00000000000000000000000000000000000000000000000000000000081526004018080602001828103825260178152602001807f427579657220616c7265616479206465706f736974656400000000000000000081525060200191505060405180910390fd5b6001600b60003373ffffffffffffffffffffffffffffffffffffffff1673ffffffffffffffffffffffffffffffffffffffff168152602001908152602001600020819055507f0109c07b399c647a3567815a956a02e0badfd3ed527a3fdb992031fae5d005f93334604051808373ffffffffffffffffffffffffffffffffffffffff1673ffffffffffffffffffffffffffffffffffffffff16815260200180602001838152602001828103825260208152602001807f686173206d61646520746865207265717569726564206465706f736974206f66815250602001935050505060405180910390a1565b6000809054906101000a900473ffffffffffffffffffffffffffffffffffffffff1673ffffffffffffffffffffffffffffffffffffffff163373ffffffffffffffffffffffffffffffffffffffff1614611c3357600080fd5b6001600b60008060009054906101000a900473ffffffffffffffffffffffffffffffffffffffff1673ffffffffffffffffffffffffffffffffffffffff1673ffffffffffffffffffffffffffffffffffffffff1681526020019081526020016000205414611d09576040517f08c379a000000000000000000000000000000000000000000000000000000000815260040180806020018281038252601f8152602001807f74686520627579657220686173206e6f74206465706f7369746564207965740081525060200191505060405180910390fd5b6001600b6000600160009054906101000a900473ffffffffffffffffffffffffffffffffffffffff1673ffffffffffffffffffffffffffffffffffffffff1673ffffffffffffffffffffffffffffffffffffffff1681526020019081526020016000205414611de0576040517f08c379a00000000000000000000000000000000000000000000000000000000081526004018080602001828103825260208152602001807f7468652073656c6c657220686173206e6f74206465706f73697465642079657481525060200191505060405180910390fd5b6001600c60008060009054906101000a900473ffffffffffffffffffffffffffffffffffffffff1673ffffffffffffffffffffffffffffffffffffffff1673ffffffffffffffffffffffffffffffffffffffff1681526020019081526020016000205414611e99576040517f08c379a0000000000000000000000000000000000000000000000000000000008152600401808060200182810382526025815260200180612f396025913960400191505060405180910390fd5b6001600860006101000a81548160ff021916908315150217905550600160009054906101000a900473ffffffffffffffffffffffffffffffffffffffff1673ffffffffffffffffffffffffffffffffffffffff166108fc6003549081150290604051600060405180830381858888f19350505050158015611f1e573d6000803e3d6000fd5b506000809054906101000a900473ffffffffffffffffffffffffffffffffffffffff1673ffffffffffffffffffffffffffffffffffffffff166108fc6004549081150290604051600060405180830381858888f19350505050158015611f88573d6000803e3d6000fd5b50600160009054906101000a900473ffffffffffffffffffffffffffffffffffffffff1673ffffffffffffffffffffffffffffffffffffffff166108fc6004549081150290604051600060405180830381858888f19350505050158015611ff3573d6000803e3d6000fd5b507fd54aabd3141f0694c3f533b346119d27c2eb3248d4f866d6bd8299c78b128daf604051808060200182810382526053815260200180612dbf6053913960600191505060405180910390a1565b6000600860009054906101000a900460ff16905090565b60035481565b600b6020528060005260406000206000915090505481565b606060078054600181600116156101000203166002900480601f01602080910402602001604051908101604052809291908181526020018280546001816001161561010002031660029004801561210e5780601f106120e35761010080835404028352916020019161210e565b820191906000526020600020905b8154815290600101906020018083116120f157829003601f168201915b5050505050905090565b6000809054906101000a900473ffffffffffffffffffffffffffffffffffffffff1673ffffffffffffffffffffffffffffffffffffffff163373ffffffffffffffffffffffffffffffffffffffff161461217157600080fd5b6001600b60008060009054906101000a900473ffffffffffffffffffffffffffffffffffffffff1673ffffffffffffffffffffffffffffffffffffffff1673ffffffffffffffffffffffffffffffffffffffff168152602001908152602001600020541461222a576040517f08c379a0000000000000000000000000000000000000000000000000000000008152600401808060200182810382526032815260200180612fb56032913960400191505060405180910390fd5b6000600b6000600160009054906101000a900473ffffffffffffffffffffffffffffffffffffffff1673ffffffffffffffffffffffffffffffffffffffff1673ffffffffffffffffffffffffffffffffffffffff16815260200190815260200160002054146122e4576040517f08c379a0000000000000000000000000000000000000000000000000000000008152600401808060200182810382526036815260200180612e126036913960400191505060405180910390fd5b6000600b60008060009054906101000a900473ffffffffffffffffffffffffffffffffffffffff1673ffffffffffffffffffffffffffffffffffffffff1673ffffffffffffffffffffffffffffffffffffffff168152602001908152602001600020819055506000809054906101000a900473ffffffffffffffffffffffffffffffffffffffff1673ffffffffffffffffffffffffffffffffffffffff166108fc6004549081150290604051600060405180830381858888f193505050501580156123b3573d6000803e3d6000fd5b507f022a173fa68fb425cd1264890a0951b5a57aa7f1fcdc49e3262e86c1189ec9b16040518080602001828103825260248152602001806130196024913960400191505060405180910390a1565b60606000600281111561241057fe5b600660009054906101000a900460ff16600281111561242b57fe5b141561246e576040518060400160405280600481526020017f4f70656e000000000000000000000000000000000000000000000000000000008152509050612512565b6001600281111561247b57fe5b600660009054906101000a900460ff16600281111561249657fe5b14156124d9576040518060400160405280600781526020017f50656e64696e67000000000000000000000000000000000000000000000000008152509050612512565b6040518060400160405280600681526020017f436c6f736564000000000000000000000000000000000000000000000000000081525090505b90565b6000600454905090565b600a6020528060005260406000206000915090505481565b60045481565b6000600354905090565b6000600160009054906101000a900473ffffffffffffffffffffffffffffffffffffffff16905090565b60055481565b600160009054906101000a900473ffffffffffffffffffffffffffffffffffffffff1673ffffffffffffffffffffffffffffffffffffffff163373ffffffffffffffffffffffffffffffffffffffff16146125d157600080fd5b6001600b60008060009054906101000a900473ffffffffffffffffffffffffffffffffffffffff1673ffffffffffffffffffffffffffffffffffffffff1673ffffffffffffffffffffffffffffffffffffffff16815260200190815260200160002054146126a7576040517f08c379a000000000000000000000000000000000000000000000000000000000815260040180806020018281038252601f8152602001807f74686520627579657220686173206e6f74206465706f7369746564207965740081525060200191505060405180910390fd5b6001600b6000600160009054906101000a900473ffffffffffffffffffffffffffffffffffffffff1673ffffffffffffffffffffffffffffffffffffffff1673ffffffffffffffffffffffffffffffffffffffff168152602001908152602001600020541461277e576040517f08c379a00000000000000000000000000000000000000000000000000000000081526004018080602001828103825260208152602001807f7468652073656c6c657220686173206e6f74206465706f73697465642079657481525060200191505060405180910390fd5b6001600c60008060009054906101000a900473ffffffffffffffffffffffffffffffffffffffff1673ffffffffffffffffffffffffffffffffffffffff1673ffffffffffffffffffffffffffffffffffffffff1681526020019081526020016000205414612837576040517f08c379a0000000000000000000000000000000000000000000000000000000008152600401808060200182810382526025815260200180612f396025913960400191505060405180910390fd5b6000600c60008060009054906101000a900473ffffffffffffffffffffffffffffffffffffffff1673ffffffffffffffffffffffffffffffffffffffff1673ffffffffffffffffffffffffffffffffffffffff168152602001908152602001600020819055506001600860006101000a81548160ff0219169083151502179055506000809054906101000a900473ffffffffffffffffffffffffffffffffffffffff1673ffffffffffffffffffffffffffffffffffffffff166108fc6003549081150290604051600060405180830381858888f19350505050158015612921573d6000803e3d6000fd5b50600160009054906101000a900473ffffffffffffffffffffffffffffffffffffffff1673ffffffffffffffffffffffffffffffffffffffff166108fc6004549081150290604051600060405180830381858888f1935050505015801561298c573d6000803e3d6000fd5b506000809054906101000a900473ffffffffffffffffffffffffffffffffffffffff1673ffffffffffffffffffffffffffffffffffffffff166108fc6004549081150290604051600060405180830381858888f193505050501580156129f6573d6000803e3d6000fd5b507f1355ee9ef69549a50f8d0008c6cd588a9759815d1b30ee62ed168c2bb7a24a62604051808060200182810382526057815260200180612f5e6057913960600191505060405180910390a1565b600160009054906101000a900473ffffffffffffffffffffffffffffffffffffffff1673ffffffffffffffffffffffffffffffffffffffff163373ffffffffffffffffffffffffffffffffffffffff1614612a9e57600080fd5b6001600b6000600160009054906101000a900473ffffffffffffffffffffffffffffffffffffffff1673ffffffffffffffffffffffffffffffffffffffff1673ffffffffffffffffffffffffffffffffffffffff1681526020019081526020016000205414612b58576040517f08c379a0000000000000000000000000000000000000000000000000000000008152600401808060200182810382526033815260200180612e486033913960400191505060405180910390fd5b6000600b60008060009054906101000a900473ffffffffffffffffffffffffffffffffffffffff1673ffffffffffffffffffffffffffffffffffffffff1673ffffffffffffffffffffffffffffffffffffffff1681526020019081526020016000205414612c11576040517f08c379a0000000000000000000000000000000000000000000000000000000008152600401808060200182810382526035815260200180612ea06035913960400191505060405180910390fd5b6000600b6000600160009054906101000a900473ffffffffffffffffffffffffffffffffffffffff1673ffffffffffffffffffffffffffffffffffffffff1673ffffffffffffffffffffffffffffffffffffffff16815260200190815260200160002081905550600160009054906101000a900473ffffffffffffffffffffffffffffffffffffffff1673ffffffffffffffffffffffffffffffffffffffff166108fc6004549081150290604051600060405180830381858888f19350505050158015612ce2573d6000803e3d6000fd5b507f68899ad50909030043672ec750f7e234201226c34f9efa036d99c5432d220a39604051808060200182810382526025815260200180612d9a6025913960400191505060405180910390a156fe7468652062757965722068617320616c72656164792073656e7420616e20616d6f756e7420666f7220636c61696d4465706f736974737468652073656c6c657220686173206e6f74206d6164652061206465706f73697420666f7220636c61696d4465706f736974737468652073656c6c657220686173207265766572736564207468656972206465706f7369745468652073656c6c657220686173206265656e207061696420616e6420616c6c206465706f736974732068617665206265656e2072657475726e6564202d207472616e73616374696f6e20636f6d706c6574657468652073656c6c657220686173206465706f736974656420616c72656164792043414e4e4f5420726576657273654465706f7369747468652073656c6c657220686173206e6f7420646573706f73697465642043414e4e4f5420726576657273654465706f7369747468652062757965722068617320616c72656164792073656e642074686520616d6f756e7474686520627579657220686173206465706f736974656420616c72656164792043414e4e4f5420726576657273654465706f736974746865206465706f73697420636c61696d206861732031206f7574206f662032206e6563657373617279207369676e6174757265734275796572206861732073656e7420746865207061796d656e7420616d6f756e7420746f2074686520657363726f7774686520627579657220686173206e6f742073656e742074686520616d6f756e742079657454686520627579657220686173206265656e20726566756e64656420616e6420616c6c206465706f736974732068617665206265656e2072657475726e6564202d207472616e73616374696f6e2063616e63656c6c656474686520627579657220686173206e6f7420646573706f73697465642043414e4e4f5420726576657273654465706f73697474686520627579657220686173206e6f74206d6164652061206465706f73697420666f7220636c61696d4465706f7369747374686520627579657220686173207265766572736564207468656972206465706f7369747468652073656e646572206861766520616c7265616479207369676e6564206f6666206f6e20636c61696d4465706f736974a265627a7a72315820d75cfad47f33daecdb5cb5e8b6e27464d0b4b7a12efa772558f2ce41a77463fb64736f6c63430005100032a365627a7a7231582021d37dbf76213c425c78244ad58611f38a514d3772f26e124f010ea350a7ebcc6c6578706572696d656e74616cf564736f6c63430005100040",
  "source": "pragma solidity ^0.5.16;\npragma experimental ABIEncoderV2;\n\nimport \"./EscrowFactory.sol\";\n\ncontract EscrowExchange {\n\tuint public contractCount = 0;\n\tmapping(address => uint[]) public addressToIndex;\n\tmapping(address => mapping(uint => bool)) public addressContractIndexExists;\n\tmapping(uint => EscrowFactory) public contractIndexesForUsers;\n\n\t// TOFIX\n\tevent ContractCreated(address buyer, address seller, uint amount, uint deposit, uint signatureCount, string status, string notes, bool depositMade);\n\n\tfunction getContractForCurrentUser(uint index) public view returns (address, address, uint, uint, uint, string memory, string memory, uint, uint, uint, address){\n\t\tif (addressContractIndexExists[msg.sender][index]) {\n\t \t\tEscrowFactory retrieved_contract = contractIndexesForUsers[index];\n\t\t\n\t \t\taddress seller = retrieved_contract.getSeller();\n\t \t\taddress buyer = retrieved_contract.getBuyer();\n\n\t        return (buyer, \n\t        \tseller, \n\t        \tretrieved_contract.getAmount(), \n\t        \tretrieved_contract.getDeposit(), \n\t        \tretrieved_contract.getSignatureCount(),\n\t        \tretrieved_contract.getContractStatus(), \n\t        \tretrieved_contract.getNotes(),\n\t        \tretrieved_contract.getIfAddressDeposited(msg.sender),\n\t        \tretrieved_contract.getAmountCheck(buyer),\n\t        \tretrieved_contract.getSignature(msg.sender),\n\t        \taddress(retrieved_contract)\n\t        );\n\t\t}\n    }\n\n    function getContractCountForCurrentUser() external view returns (uint) {\n    \tif (addressToIndex[msg.sender].length == 0) {\n    \t\treturn 0;\n    \t} else if (addressToIndex[msg.sender].length == 1) {\n    \t\treturn addressToIndex[msg.sender].length;\n    \t} else {\n\t    \tuint lastContractId = addressToIndex[msg.sender].length; // Get the length of the user's uint addressToIndex (array of contracts)\n\t\t    return addressToIndex[msg.sender][lastContractId - 1] + 1; // To access the last contract id user made, so we don't have to iterate entire contract array. We do +1 to take into account the user's last contract.\n    \t}\n\t }\n\n    function createContract(address payable buyer, address payable seller, uint amount, uint deposit, string memory notes) public {\n    \trequire(buyer != address(0), \"Invalid buyer address\");\n    \trequire(seller != address(0), \"Invalid seller address\");\n    \trequire(amount > 0);\n    \trequire(deposit > 0);\n    \tEscrowFactory newContract = new EscrowFactory(buyer, seller, amount, deposit, notes);\n    \tcontractIndexesForUsers[contractCount] = newContract;\n    \taddressToIndex[buyer].push(contractCount);\n    \taddressToIndex[seller].push(contractCount);\n    \taddressContractIndexExists[buyer][contractCount] = true;\n    \taddressContractIndexExists[seller][contractCount] = true;\n    \tcontractCount = contractCount + 1;\n\n    \temit ContractCreated(buyer, seller, amount, deposit, 0, \"Open\", notes, false);\n    }\n}",
  "sourcePath": "/Users/donaldlee/Developer/PointsExchange/contracts/EscrowExchange.sol",
  "compiler": {
    "name": "solc",
    "version": "0.5.16+commit.9c3226ce.Emscripten.clang"
  },
  "schemaVersion": "3.3.3",
  "updatedAt": "2021-06-23T02:16:00.715Z",
  "networkType": "ethereum",
  "devdoc": {
    "methods": {}
  },
  "userdoc": {
    "methods": {}
  }
}