{
  "contractName": "EscrowExchange",
  "abi": [
    {
      "anonymous": false,
      "inputs": [
        {
          "indexed": false,
          "internalType": "address",
          "name": "buyer",
          "type": "address"
        },
        {
          "indexed": false,
          "internalType": "address",
          "name": "seller",
          "type": "address"
        },
        {
          "indexed": false,
          "internalType": "uint256",
          "name": "amount",
          "type": "uint256"
        },
        {
          "indexed": false,
          "internalType": "uint256",
          "name": "deposit",
          "type": "uint256"
        },
        {
          "indexed": false,
          "internalType": "uint256",
          "name": "signatureCount",
          "type": "uint256"
        },
        {
          "indexed": false,
          "internalType": "string",
          "name": "status",
          "type": "string"
        },
        {
          "indexed": false,
          "internalType": "string",
          "name": "notes",
          "type": "string"
        },
        {
          "indexed": false,
          "internalType": "bool",
          "name": "depositMade",
          "type": "bool"
        }
      ],
      "name": "ContractCreated",
      "type": "event"
    },
    {
      "constant": true,
      "inputs": [
        {
          "internalType": "address",
          "name": "",
          "type": "address"
        },
        {
          "internalType": "uint256",
          "name": "",
          "type": "uint256"
        }
      ],
      "name": "addressContractIndexExists",
      "outputs": [
        {
          "internalType": "bool",
          "name": "",
          "type": "bool"
        }
      ],
      "payable": false,
      "stateMutability": "view",
      "type": "function"
    },
    {
      "constant": true,
      "inputs": [
        {
          "internalType": "address",
          "name": "",
          "type": "address"
        },
        {
          "internalType": "uint256",
          "name": "",
          "type": "uint256"
        }
      ],
      "name": "addressToIndex",
      "outputs": [
        {
          "internalType": "uint256",
          "name": "",
          "type": "uint256"
        }
      ],
      "payable": false,
      "stateMutability": "view",
      "type": "function"
    },
    {
      "constant": true,
      "inputs": [],
      "name": "contractCount",
      "outputs": [
        {
          "internalType": "uint256",
          "name": "",
          "type": "uint256"
        }
      ],
      "payable": false,
      "stateMutability": "view",
      "type": "function"
    },
    {
      "constant": true,
      "inputs": [
        {
          "internalType": "uint256",
          "name": "",
          "type": "uint256"
        }
      ],
      "name": "contractIndexesForUsers",
      "outputs": [
        {
          "internalType": "contract EscrowFactory",
          "name": "",
          "type": "address"
        }
      ],
      "payable": false,
      "stateMutability": "view",
      "type": "function"
    },
    {
      "constant": true,
      "inputs": [
        {
          "internalType": "uint256",
          "name": "index",
          "type": "uint256"
        }
      ],
      "name": "getContractForCurrentUser",
      "outputs": [
        {
          "internalType": "address",
          "name": "",
          "type": "address"
        },
        {
          "internalType": "address",
          "name": "",
          "type": "address"
        },
        {
          "internalType": "uint256",
          "name": "",
          "type": "uint256"
        },
        {
          "internalType": "uint256",
          "name": "",
          "type": "uint256"
        },
        {
          "internalType": "uint256",
          "name": "",
          "type": "uint256"
        },
        {
          "internalType": "string",
          "name": "",
          "type": "string"
        },
        {
          "internalType": "string",
          "name": "",
          "type": "string"
        },
        {
          "internalType": "uint256",
          "name": "",
          "type": "uint256"
        },
        {
          "internalType": "uint256",
          "name": "",
          "type": "uint256"
        },
        {
          "internalType": "uint256",
          "name": "",
          "type": "uint256"
        },
        {
          "internalType": "address",
          "name": "",
          "type": "address"
        },
        {
          "internalType": "uint256",
          "name": "",
          "type": "uint256"
        }
      ],
      "payable": false,
      "stateMutability": "view",
      "type": "function"
    },
    {
      "constant": true,
      "inputs": [],
      "name": "getContractCountForCurrentUser",
      "outputs": [
        {
          "internalType": "uint256",
          "name": "",
          "type": "uint256"
        }
      ],
      "payable": false,
      "stateMutability": "view",
      "type": "function"
    },
    {
      "constant": false,
      "inputs": [
        {
          "internalType": "address payable",
          "name": "buyer",
          "type": "address"
        },
        {
          "internalType": "address payable",
          "name": "seller",
          "type": "address"
        },
        {
          "internalType": "uint256",
          "name": "amount",
          "type": "uint256"
        },
        {
          "internalType": "uint256",
          "name": "deposit",
          "type": "uint256"
        },
        {
          "internalType": "string",
          "name": "notes",
          "type": "string"
        }
      ],
      "name": "createContract",
      "outputs": [],
      "payable": false,
      "stateMutability": "nonpayable",
      "type": "function"
    }
  ],
  "bytecode": "0x60806040526000805534801561001457600080fd5b50614b38806100246000396000f3fe60806040523480156200001157600080fd5b5060043610620000885760003560e01c80638736381a11620000635780638736381a146200012457806392646cc51462000146578063d0be31c4146200017c578063e1ab571114620001b25762000088565b80633d0beb4b146200008d57806360cc106214620000c35780636a3661a61462000104575b600080fd5b620000ab6004803603620000a5919081019062001059565b620001d4565b604051620000ba91906200154b565b60405180910390f35b620000e16004803603620000db9190810190620010df565b62000203565b604051620000fb9c9b9a99989796959493929190620013ed565b60405180910390f35b6200012260048036036200011c919081019062000fbe565b620008bc565b005b6200012e62000c5b565b6040516200013d91906200154b565b60405180910390f35b6200016460048036036200015e9190810190620010df565b62000c61565b604051620001739190620014ea565b60405180910390f35b6200019a600480360362000194919081019062001059565b62000c94565b604051620001a99190620014cd565b60405180910390f35b620001bc62000cc3565b604051620001cb91906200154b565b60405180910390f35b60016020528160005260406000208181548110620001ee57fe5b90600052602060002001600091509150505481565b60008060008060006060806000806000806000600260003373ffffffffffffffffffffffffffffffffffffffff1673ffffffffffffffffffffffffffffffffffffffff16815260200190815260200160002060008e815260200190815260200160002060009054906101000a900460ff1615620008ac576000600360008f815260200190815260200160002060009054906101000a900473ffffffffffffffffffffffffffffffffffffffff16905060008173ffffffffffffffffffffffffffffffffffffffff1663dbd0e1b66040518163ffffffff1660e01b815260040160206040518083038186803b158015620002fb57600080fd5b505afa15801562000310573d6000803e3d6000fd5b505050506040513d601f19601f8201168201806040525062000336919081019062000f92565b90508173ffffffffffffffffffffffffffffffffffffffff1663603daf9a6040518163ffffffff1660e01b815260040160206040518083038186803b1580156200037f57600080fd5b505afa15801562000394573d6000803e3d6000fd5b505050506040513d601f19601f82011682018060405250620003ba919081019062000f92565b818373ffffffffffffffffffffffffffffffffffffffff1663d321fe296040518163ffffffff1660e01b815260040160206040518083038186803b1580156200040257600080fd5b505afa15801562000417573d6000803e3d6000fd5b505050506040513d601f19601f820116820180604052506200043d91908101906200110b565b8473ffffffffffffffffffffffffffffffffffffffff1663c399ec886040518163ffffffff1660e01b815260040160206040518083038186803b1580156200048457600080fd5b505afa15801562000499573d6000803e3d6000fd5b505050506040513d601f19601f82011682018060405250620004bf91908101906200110b565b8573ffffffffffffffffffffffffffffffffffffffff166389d84af56040518163ffffffff1660e01b815260040160206040518083038186803b1580156200050657600080fd5b505afa1580156200051b573d6000803e3d6000fd5b505050506040513d601f19601f820116820180604052506200054191908101906200110b565b8673ffffffffffffffffffffffffffffffffffffffff1663c032846b6040518163ffffffff1660e01b815260040160006040518083038186803b1580156200058857600080fd5b505afa1580156200059d573d6000803e3d6000fd5b505050506040513d6000823e3d601f19601f82011682018060405250620005c891908101906200109a565b8773ffffffffffffffffffffffffffffffffffffffff1663b4af200d6040518163ffffffff1660e01b815260040160006040518083038186803b1580156200060f57600080fd5b505afa15801562000624573d6000803e3d6000fd5b505050506040513d6000823e3d601f19601f820116820180604052506200064f91908101906200109a565b8873ffffffffffffffffffffffffffffffffffffffff166303828aee336040518263ffffffff1660e01b81526004016200068a9190620012d2565b60206040518083038186803b158015620006a357600080fd5b505afa158015620006b8573d6000803e3d6000fd5b505050506040513d601f19601f82011682018060405250620006de91908101906200110b565b8973ffffffffffffffffffffffffffffffffffffffff166386fef236336040518263ffffffff1660e01b8152600401620007199190620012d2565b60206040518083038186803b1580156200073257600080fd5b505afa15801562000747573d6000803e3d6000fd5b505050506040513d601f19601f820116820180604052506200076d91908101906200110b565b8a73ffffffffffffffffffffffffffffffffffffffff1663277fc0e9336040518263ffffffff1660e01b8152600401620007a89190620012d2565b60206040518083038186803b158015620007c157600080fd5b505afa158015620007d6573d6000803e3d6000fd5b505050506040513d601f19601f82011682018060405250620007fc91908101906200110b565b8b8c73ffffffffffffffffffffffffffffffffffffffff166303828aee8d6040518263ffffffff1660e01b8152600401620008389190620012b5565b60206040518083038186803b1580156200085157600080fd5b505afa15801562000866573d6000803e3d6000fd5b505050506040513d601f19601f820116820180604052506200088c91908101906200110b565b9d509d509d509d509d509d509d509d509d509d509d509d505050620008ad565b5b91939597999b5091939597999b565b600073ffffffffffffffffffffffffffffffffffffffff168573ffffffffffffffffffffffffffffffffffffffff1614156200092f576040517f08c379a0000000000000000000000000000000000000000000000000000000008152600401620009269062001507565b60405180910390fd5b600073ffffffffffffffffffffffffffffffffffffffff168473ffffffffffffffffffffffffffffffffffffffff161415620009a2576040517f08c379a0000000000000000000000000000000000000000000000000000000008152600401620009999062001529565b60405180910390fd5b60008311620009b057600080fd5b60008211620009be57600080fd5b60008585858585604051620009d39062000e59565b620009e395949392919062001389565b604051809103906000f08015801562000a00573d6000803e3d6000fd5b50905080600360008054815260200190815260200160002060006101000a81548173ffffffffffffffffffffffffffffffffffffffff021916908373ffffffffffffffffffffffffffffffffffffffff160217905550600160008773ffffffffffffffffffffffffffffffffffffffff1673ffffffffffffffffffffffffffffffffffffffff1681526020019081526020016000206000549080600181540180825580915050906001820390600052602060002001600090919290919091505550600160008673ffffffffffffffffffffffffffffffffffffffff1673ffffffffffffffffffffffffffffffffffffffff16815260200190815260200160002060005490806001815401808255809150509060018203906000526020600020016000909192909190915055506001600260008873ffffffffffffffffffffffffffffffffffffffff1673ffffffffffffffffffffffffffffffffffffffff16815260200190815260200160002060008054815260200190815260200160002060006101000a81548160ff0219169083151502179055506001600260008773ffffffffffffffffffffffffffffffffffffffff1673ffffffffffffffffffffffffffffffffffffffff16815260200190815260200160002060008054815260200190815260200160002060006101000a81548160ff0219169083151502179055506001600054016000819055507f0acd88e48e19df2f60e1fac1cc74e5cd85d20d113033e9f7ed5d60534fb3381a86868686600087600060405162000c4b9796959493929190620012ef565b60405180910390a1505050505050565b60005481565b60036020528060005260406000206000915054906101000a900473ffffffffffffffffffffffffffffffffffffffff1681565b60026020528160005260406000206020528060005260406000206000915091509054906101000a900460ff1681565b600080600160003373ffffffffffffffffffffffffffffffffffffffff1673ffffffffffffffffffffffffffffffffffffffff16815260200190815260200160002080549050141562000d1a576000905062000e56565b60018060003373ffffffffffffffffffffffffffffffffffffffff1673ffffffffffffffffffffffffffffffffffffffff16815260200190815260200160002080549050141562000db057600160003373ffffffffffffffffffffffffffffffffffffffff1673ffffffffffffffffffffffffffffffffffffffff16815260200190815260200160002080549050905062000e56565b6000600160003373ffffffffffffffffffffffffffffffffffffffff1673ffffffffffffffffffffffffffffffffffffffff16815260200190815260200160002080549050905060018060003373ffffffffffffffffffffffffffffffffffffffff1673ffffffffffffffffffffffffffffffffffffffff168152602001908152602001600020600183038154811062000e4657fe5b9060005260206000200154019150505b90565b61339c806200175a83390190565b60008135905062000e78816200170b565b92915050565b60008151905062000e8f816200170b565b92915050565b60008135905062000ea68162001725565b92915050565b600082601f83011262000ebe57600080fd5b813562000ed562000ecf8262001596565b62001568565b9150808252602083016020830185838301111562000ef257600080fd5b62000eff838284620016b5565b50505092915050565b600082601f83011262000f1a57600080fd5b815162000f3162000f2b8262001596565b62001568565b9150808252602083016020830185838301111562000f4e57600080fd5b62000f5b838284620016c4565b50505092915050565b60008135905062000f75816200173f565b92915050565b60008151905062000f8c816200173f565b92915050565b60006020828403121562000fa557600080fd5b600062000fb58482850162000e7e565b91505092915050565b600080600080600060a0868803121562000fd757600080fd5b600062000fe78882890162000e95565b955050602062000ffa8882890162000e95565b94505060406200100d8882890162000f64565b9350506060620010208882890162000f64565b925050608086013567ffffffffffffffff8111156200103e57600080fd5b6200104c8882890162000eac565b9150509295509295909350565b600080604083850312156200106d57600080fd5b60006200107d8582860162000e67565b9250506020620010908582860162000f64565b9150509250929050565b600060208284031215620010ad57600080fd5b600082015167ffffffffffffffff811115620010c857600080fd5b620010d68482850162000f08565b91505092915050565b600060208284031215620010f257600080fd5b6000620011028482850162000f64565b91505092915050565b6000602082840312156200111e57600080fd5b60006200112e8482850162000f7b565b91505092915050565b62001142816200163d565b82525050565b6200115381620015f3565b82525050565b6200116481620015df565b82525050565b620011758162001607565b82525050565b620011868162001651565b82525050565b620011978162001679565b82525050565b6000620011aa82620015c3565b620011b68185620015ce565b9350620011c8818560208601620016c4565b620011d381620016fa565b840191505092915050565b6000620011ed601583620015ce565b91507f496e76616c6964206275796572206164647265737300000000000000000000006000830152602082019050919050565b60006200122f600483620015ce565b91507f4f70656e000000000000000000000000000000000000000000000000000000006000830152602082019050919050565b600062001271601683620015ce565b91507f496e76616c69642073656c6c65722061646472657373000000000000000000006000830152602082019050919050565b620012af8162001633565b82525050565b6000602082019050620012cc600083018462001159565b92915050565b6000602082019050620012e9600083018462001137565b92915050565b60006101008201905062001307600083018a62001137565b62001316602083018962001137565b620013256040830188620012a4565b620013346060830187620012a4565b6200134360808301866200118c565b81810360a0830152620013568162001220565b905081810360c08301526200136c81856200119d565b90506200137d60e08301846200116a565b98975050505050505050565b600060a082019050620013a0600083018862001148565b620013af602083018762001148565b620013be6040830186620012a4565b620013cd6060830185620012a4565b8181036080830152620013e181846200119d565b90509695505050505050565b60006101808201905062001405600083018f62001159565b62001414602083018e62001159565b62001423604083018d620012a4565b62001432606083018c620012a4565b62001441608083018b620012a4565b81810360a083015262001455818a6200119d565b905081810360c08301526200146b81896200119d565b90506200147c60e0830188620012a4565b6200148c610100830187620012a4565b6200149c610120830186620012a4565b620014ac61014083018562001159565b620014bc610160830184620012a4565b9d9c50505050505050505050505050565b6000602082019050620014e460008301846200116a565b92915050565b60006020820190506200150160008301846200117b565b92915050565b600060208201905081810360008301526200152281620011de565b9050919050565b60006020820190508181036000830152620015448162001262565b9050919050565b6000602082019050620015626000830184620012a4565b92915050565b6000604051905081810181811067ffffffffffffffff821117156200158c57600080fd5b8060405250919050565b600067ffffffffffffffff821115620015ae57600080fd5b601f19601f8301169050602081019050919050565b600081519050919050565b600082825260208201905092915050565b6000620015ec8262001613565b9050919050565b6000620016008262001613565b9050919050565b60008115159050919050565b600073ffffffffffffffffffffffffffffffffffffffff82169050919050565b6000819050919050565b60006200164a826200168d565b9050919050565b60006200165e8262001665565b9050919050565b6000620016728262001613565b9050919050565b6000620016868262001633565b9050919050565b60006200169a82620016a1565b9050919050565b6000620016ae8262001613565b9050919050565b82818337600083830152505050565b60005b83811015620016e4578082015181840152602081019050620016c7565b83811115620016f4576000848401525b50505050565b6000601f19601f8301169050919050565b6200171681620015df565b81146200172257600080fd5b50565b6200173081620015f3565b81146200173c57600080fd5b50565b6200174a8162001633565b81146200175657600080fd5b5056fe60806040523480156200001157600080fd5b506040516200339c3803806200339c833981810160405260a08110156200003757600080fd5b8101908080519060200190929190805190602001909291908051906020019092919080519060200190929190805160405193929190846401000000008211156200008057600080fd5b838201915060208201858111156200009757600080fd5b8251866001820283011164010000000082111715620000b557600080fd5b8083526020830192505050908051906020019080838360005b83811015620000eb578082015181840152602081019050620000ce565b50505050905090810190601f168015620001195780820380516001836020036101000a031916815260200191505b50604052505050846000806101000a81548173ffffffffffffffffffffffffffffffffffffffff021916908373ffffffffffffffffffffffffffffffffffffffff16021790555083600160006101000a81548173ffffffffffffffffffffffffffffffffffffffff021916908373ffffffffffffffffffffffffffffffffffffffff16021790555082600381905550816004819055508060079080519060200190620001c792919062000374565b506000600660006101000a81548160ff02191690836002811115620001e857fe5b021790555060028590806001815401808255809150509060018203906000526020600020016000909192909190916101000a81548173ffffffffffffffffffffffffffffffffffffffff021916908373ffffffffffffffffffffffffffffffffffffffff1602179055505060028490806001815401808255809150509060018203906000526020600020016000909192909190916101000a81548173ffffffffffffffffffffffffffffffffffffffff021916908373ffffffffffffffffffffffffffffffffffffffff160217905550506001600860008773ffffffffffffffffffffffffffffffffffffffff1673ffffffffffffffffffffffffffffffffffffffff16815260200190815260200160002060006101000a81548160ff0219169083151502179055506001600860008673ffffffffffffffffffffffffffffffffffffffff1673ffffffffffffffffffffffffffffffffffffffff16815260200190815260200160002060006101000a81548160ff021916908315150217905550505050505062000423565b828054600181600116156101000203166002900490600052602060002090601f016020900481019282601f10620003b757805160ff1916838001178555620003e8565b82800160010185558215620003e8579182015b82811115620003e7578251825591602001919060010190620003ca565b5b509050620003f79190620003fb565b5090565b6200042091905b808211156200041c57600081600090555060010162000402565b5090565b90565b612f6980620004336000396000f3fe6080604052600436106101cd5760003560e01c8063a0579587116100f7578063c399ec8811610095578063dbd0e1b611610064578063dbd0e1b6146108fe578063e7f55ed614610955578063e8a61cc814610980578063f8fe988914610997576101cd565b8063c399ec8814610818578063c792f36d14610843578063d0e30db0146108a8578063d321fe29146108d3576101cd565b8063ab404ff0116100d1578063ab404ff01461067c578063b4af200d146106e1578063be7e69fd14610771578063c032846b14610788576101cd565b8063a057958714610630578063a0c97bce1461063a578063aa8c217c14610651576101cd565b80634c1786ea1161016f5780637150d8ae1161013e5780637150d8ae1461053f57806386fef2361461059657806389d84af5146105fb5780638b2b3d8b14610626576101cd565b80634c1786ea1461044e578063537eeb5114610458578063603daf9a146104bd5780636f9fb98a14610514576101cd565b80631866dc97116101ab5780631866dc97146102a5578063200d2ed214610335578063277fc0e91461036e578063314fd68f146103d3576101cd565b806303828aee146101d257806308551a53146102375780631432c2811461028e575b600080fd5b3480156101de57600080fd5b50610221600480360360208110156101f557600080fd5b81019080803573ffffffffffffffffffffffffffffffffffffffff1690602001909291905050506109ae565b6040518082815260200191505060405180910390f35b34801561024357600080fd5b5061024c6109f7565b604051808273ffffffffffffffffffffffffffffffffffffffff1673ffffffffffffffffffffffffffffffffffffffff16815260200191505060405180910390f35b34801561029a57600080fd5b506102a3610a1d565b005b3480156102b157600080fd5b506102ba6110d4565b6040518080602001828103825283818151815260200191508051906020019080838360005b838110156102fa5780820151818401526020810190506102df565b50505050905090810190601f1680156103275780820380516001836020036101000a031916815260200191505b509250505060405180910390f35b34801561034157600080fd5b5061034a611172565b6040518082600281111561035a57fe5b60ff16815260200191505060405180910390f35b34801561037a57600080fd5b506103bd6004803603602081101561039157600080fd5b81019080803573ffffffffffffffffffffffffffffffffffffffff169060200190929190505050611185565b6040518082815260200191505060405180910390f35b3480156103df57600080fd5b5061040c600480360360208110156103f657600080fd5b81019080803590602001909291905050506111ce565b604051808273ffffffffffffffffffffffffffffffffffffffff1673ffffffffffffffffffffffffffffffffffffffff16815260200191505060405180910390f35b61045661120a565b005b34801561046457600080fd5b506104a76004803603602081101561047b57600080fd5b81019080803573ffffffffffffffffffffffffffffffffffffffff16906020019092919050505061147b565b6040518082815260200191505060405180910390f35b3480156104c957600080fd5b506104d2611493565b604051808273ffffffffffffffffffffffffffffffffffffffff1673ffffffffffffffffffffffffffffffffffffffff16815260200191505060405180910390f35b34801561052057600080fd5b506105296114bc565b6040518082815260200191505060405180910390f35b34801561054b57600080fd5b506105546114c4565b604051808273ffffffffffffffffffffffffffffffffffffffff1673ffffffffffffffffffffffffffffffffffffffff16815260200191505060405180910390f35b3480156105a257600080fd5b506105e5600480360360208110156105b957600080fd5b81019080803573ffffffffffffffffffffffffffffffffffffffff1690602001909291905050506114e9565b6040518082815260200191505060405180910390f35b34801561060757600080fd5b50610610611532565b6040518082815260200191505060405180910390f35b61062e61153c565b005b6106386118e3565b005b34801561064657600080fd5b5061064f611b53565b005b34801561065d57600080fd5b50610666611f9f565b6040518082815260200191505060405180910390f35b34801561068857600080fd5b506106cb6004803603602081101561069f57600080fd5b81019080803573ffffffffffffffffffffffffffffffffffffffff169060200190929190505050611fa5565b6040518082815260200191505060405180910390f35b3480156106ed57600080fd5b506106f6611fbd565b6040518080602001828103825283818151815260200191508051906020019080838360005b8381101561073657808201518184015260208101905061071b565b50505050905090810190601f1680156107635780820380516001836020036101000a031916815260200191505b509250505060405180910390f35b34801561077d57600080fd5b5061078661205f565b005b34801561079457600080fd5b5061079d612348565b6040518080602001828103825283818151815260200191508051906020019080838360005b838110156107dd5780820151818401526020810190506107c2565b50505050905090810190601f16801561080a5780820380516001836020036101000a031916815260200191505b509250505060405180910390f35b34801561082457600080fd5b5061082d61245c565b6040518082815260200191505060405180910390f35b34801561084f57600080fd5b506108926004803603602081101561086657600080fd5b81019080803573ffffffffffffffffffffffffffffffffffffffff169060200190929190505050612466565b6040518082815260200191505060405180910390f35b3480156108b457600080fd5b506108bd61247e565b6040518082815260200191505060405180910390f35b3480156108df57600080fd5b506108e8612484565b6040518082815260200191505060405180910390f35b34801561090a57600080fd5b5061091361248e565b604051808273ffffffffffffffffffffffffffffffffffffffff1673ffffffffffffffffffffffffffffffffffffffff16815260200191505060405180910390f35b34801561096157600080fd5b5061096a6124b8565b6040518082815260200191505060405180910390f35b34801561098c57600080fd5b506109956124be565b005b3480156109a357600080fd5b506109ac61290a565b005b6000600a60008373ffffffffffffffffffffffffffffffffffffffff1673ffffffffffffffffffffffffffffffffffffffff168152602001908152602001600020549050919050565b600160009054906101000a900473ffffffffffffffffffffffffffffffffffffffff1681565b33600860008273ffffffffffffffffffffffffffffffffffffffff1673ffffffffffffffffffffffffffffffffffffffff16815260200190815260200160002060009054906101000a900460ff16610a7457600080fd5b6001600a60008060009054906101000a900473ffffffffffffffffffffffffffffffffffffffff1673ffffffffffffffffffffffffffffffffffffffff1673ffffffffffffffffffffffffffffffffffffffff1681526020019081526020016000205414610b2d576040517f08c379a0000000000000000000000000000000000000000000000000000000008152600401808060200182810382526032815260200180612ead6032913960400191505060405180910390fd5b6001600a6000600160009054906101000a900473ffffffffffffffffffffffffffffffffffffffff1673ffffffffffffffffffffffffffffffffffffffff1673ffffffffffffffffffffffffffffffffffffffff1681526020019081526020016000205414610be7576040517f08c379a0000000000000000000000000000000000000000000000000000000008152600401808060200182810382526033815260200180612c2d6033913960400191505060405180910390fd5b6000600b60008060009054906101000a900473ffffffffffffffffffffffffffffffffffffffff1673ffffffffffffffffffffffffffffffffffffffff1673ffffffffffffffffffffffffffffffffffffffff1681526020019081526020016000205414610ca0576040517f08c379a0000000000000000000000000000000000000000000000000000000008152600401808060200182810382526036815260200180612bf76036913960400191505060405180910390fd5b6000600960003373ffffffffffffffffffffffffffffffffffffffff1673ffffffffffffffffffffffffffffffffffffffff1681526020019081526020016000205414610d38576040517f08c379a0000000000000000000000000000000000000000000000000000000008152600401808060200182810382526032815260200180612f036032913960400191505060405180910390fd5b6001600960003373ffffffffffffffffffffffffffffffffffffffff1673ffffffffffffffffffffffffffffffffffffffff1681526020019081526020016000208190555060056000815480929190600101919050555060016005541415610de6577f87463abc399fbbddfcd563f22d61267e4c0402b336940699382407adce42e5a2604051808060200182810382526035815260200180612d9b6035913960400191505060405180910390a15b600260055414156110d1576000809054906101000a900473ffffffffffffffffffffffffffffffffffffffff1673ffffffffffffffffffffffffffffffffffffffff166108fc6004549081150290604051600060405180830381858888f19350505050158015610e5a573d6000803e3d6000fd5b50600160009054906101000a900473ffffffffffffffffffffffffffffffffffffffff1673ffffffffffffffffffffffffffffffffffffffff166108fc6004549081150290604051600060405180830381858888f19350505050158015610ec5573d6000803e3d6000fd5b506000600a60008060009054906101000a900473ffffffffffffffffffffffffffffffffffffffff1673ffffffffffffffffffffffffffffffffffffffff1673ffffffffffffffffffffffffffffffffffffffff168152602001908152602001600020819055506000600a6000600160009054906101000a900473ffffffffffffffffffffffffffffffffffffffff1673ffffffffffffffffffffffffffffffffffffffff1673ffffffffffffffffffffffffffffffffffffffff168152602001908152602001600020819055506000600960008060009054906101000a900473ffffffffffffffffffffffffffffffffffffffff1673ffffffffffffffffffffffffffffffffffffffff1673ffffffffffffffffffffffffffffffffffffffff16815260200190815260200160002081905550600060096000600160009054906101000a900473ffffffffffffffffffffffffffffffffffffffff1673ffffffffffffffffffffffffffffffffffffffff1673ffffffffffffffffffffffffffffffffffffffff1681526020019081526020016000208190555060006005819055507fd397a3b1b662401574a4482307d3aaaa5413f8af98a7053e3473935f4d0659ed60405180806020018281038252601f8152602001807f746865206465706f736974732068617665206265656e2072657475726e65640081525060200191505060405180910390a15b50565b60078054600181600116156101000203166002900480601f01602080910402602001604051908101604052809291908181526020018280546001816001161561010002031660029004801561116a5780601f1061113f5761010080835404028352916020019161116a565b820191906000526020600020905b81548152906001019060200180831161114d57829003601f168201915b505050505081565b600660009054906101000a900460ff1681565b6000600960008373ffffffffffffffffffffffffffffffffffffffff1673ffffffffffffffffffffffffffffffffffffffff168152602001908152602001600020549050919050565b600281815481106111db57fe5b906000526020600020016000915054906101000a900473ffffffffffffffffffffffffffffffffffffffff1681565b600160009054906101000a900473ffffffffffffffffffffffffffffffffffffffff1673ffffffffffffffffffffffffffffffffffffffff163373ffffffffffffffffffffffffffffffffffffffff161461126457600080fd5b60045434146112db576040517f08c379a000000000000000000000000000000000000000000000000000000000815260040180806020018281038252600f8152602001807f496e76616c6964206465706f736974000000000000000000000000000000000081525060200191505060405180910390fd5b6000600a60003373ffffffffffffffffffffffffffffffffffffffff1673ffffffffffffffffffffffffffffffffffffffff1681526020019081526020016000205414611390576040517f08c379a00000000000000000000000000000000000000000000000000000000081526004018080602001828103825260188152602001807f53656c6c657220616c7265616479206465706f7369746564000000000000000081525060200191505060405180910390fd5b6001600a60003373ffffffffffffffffffffffffffffffffffffffff1673ffffffffffffffffffffffffffffffffffffffff168152602001908152602001600020819055507feaa52bf3f740eaa050012695cd117e2182b5c032c7fc36dbcdfc74189f68ab2e3334604051808373ffffffffffffffffffffffffffffffffffffffff1673ffffffffffffffffffffffffffffffffffffffff16815260200180602001838152602001828103825260208152602001807f686173206d61646520746865207265717569726564206465706f736974206f66815250602001935050505060405180910390a1565b600b6020528060005260406000206000915090505481565b60008060009054906101000a900473ffffffffffffffffffffffffffffffffffffffff16905090565b600047905090565b6000809054906101000a900473ffffffffffffffffffffffffffffffffffffffff1681565b6000600b60008373ffffffffffffffffffffffffffffffffffffffff1673ffffffffffffffffffffffffffffffffffffffff168152602001908152602001600020549050919050565b6000600554905090565b6000809054906101000a900473ffffffffffffffffffffffffffffffffffffffff1673ffffffffffffffffffffffffffffffffffffffff163373ffffffffffffffffffffffffffffffffffffffff161461159557600080fd5b600354341461160c576040517f08c379a000000000000000000000000000000000000000000000000000000000815260040180806020018281038252600e8152602001807f496e76616c696420616d6f756e7400000000000000000000000000000000000081525060200191505060405180910390fd5b6001600a60008060009054906101000a900473ffffffffffffffffffffffffffffffffffffffff1673ffffffffffffffffffffffffffffffffffffffff1673ffffffffffffffffffffffffffffffffffffffff16815260200190815260200160002054146116e2576040517f08c379a000000000000000000000000000000000000000000000000000000000815260040180806020018281038252601f8152602001807f74686520627579657220686173206e6f74206465706f7369746564207965740081525060200191505060405180910390fd5b6001600a6000600160009054906101000a900473ffffffffffffffffffffffffffffffffffffffff1673ffffffffffffffffffffffffffffffffffffffff1673ffffffffffffffffffffffffffffffffffffffff16815260200190815260200160002054146117b9576040517f08c379a00000000000000000000000000000000000000000000000000000000081526004018080602001828103825260208152602001807f7468652073656c6c657220686173206e6f74206465706f73697465642079657481525060200191505060405180910390fd5b6000600b60003373ffffffffffffffffffffffffffffffffffffffff1673ffffffffffffffffffffffffffffffffffffffff1681526020019081526020016000205414611851576040517f08c379a0000000000000000000000000000000000000000000000000000000008152600401808060200182810382526025815260200180612d416025913960400191505060405180910390fd5b6001600b60003373ffffffffffffffffffffffffffffffffffffffff1673ffffffffffffffffffffffffffffffffffffffff168152602001908152602001600020819055507fdbafb049923bd24c9143b7aea787bb9133f12c9bc10e8ff7f1be6e2f13028c9760405180806020018281038252602f815260200180612dd0602f913960400191505060405180910390a1565b6000809054906101000a900473ffffffffffffffffffffffffffffffffffffffff1673ffffffffffffffffffffffffffffffffffffffff163373ffffffffffffffffffffffffffffffffffffffff161461193c57600080fd5b60045434146119b3576040517f08c379a000000000000000000000000000000000000000000000000000000000815260040180806020018281038252600f8152602001807f496e76616c6964206465706f736974000000000000000000000000000000000081525060200191505060405180910390fd5b6000600a60003373ffffffffffffffffffffffffffffffffffffffff1673ffffffffffffffffffffffffffffffffffffffff1681526020019081526020016000205414611a68576040517f08c379a00000000000000000000000000000000000000000000000000000000081526004018080602001828103825260178152602001807f427579657220616c7265616479206465706f736974656400000000000000000081525060200191505060405180910390fd5b6001600a60003373ffffffffffffffffffffffffffffffffffffffff1673ffffffffffffffffffffffffffffffffffffffff168152602001908152602001600020819055507f0109c07b399c647a3567815a956a02e0badfd3ed527a3fdb992031fae5d005f93334604051808373ffffffffffffffffffffffffffffffffffffffff1673ffffffffffffffffffffffffffffffffffffffff16815260200180602001838152602001828103825260208152602001807f686173206d61646520746865207265717569726564206465706f736974206f66815250602001935050505060405180910390a1565b6000809054906101000a900473ffffffffffffffffffffffffffffffffffffffff1673ffffffffffffffffffffffffffffffffffffffff163373ffffffffffffffffffffffffffffffffffffffff1614611bac57600080fd5b6001600a60008060009054906101000a900473ffffffffffffffffffffffffffffffffffffffff1673ffffffffffffffffffffffffffffffffffffffff1673ffffffffffffffffffffffffffffffffffffffff1681526020019081526020016000205414611c82576040517f08c379a000000000000000000000000000000000000000000000000000000000815260040180806020018281038252601f8152602001807f74686520627579657220686173206e6f74206465706f7369746564207965740081525060200191505060405180910390fd5b6001600a6000600160009054906101000a900473ffffffffffffffffffffffffffffffffffffffff1673ffffffffffffffffffffffffffffffffffffffff1673ffffffffffffffffffffffffffffffffffffffff1681526020019081526020016000205414611d59576040517f08c379a00000000000000000000000000000000000000000000000000000000081526004018080602001828103825260208152602001807f7468652073656c6c657220686173206e6f74206465706f73697465642079657481525060200191505060405180910390fd5b6001600b60008060009054906101000a900473ffffffffffffffffffffffffffffffffffffffff1673ffffffffffffffffffffffffffffffffffffffff1673ffffffffffffffffffffffffffffffffffffffff1681526020019081526020016000205414611e12576040517f08c379a0000000000000000000000000000000000000000000000000000000008152600401808060200182810382526025815260200180612dff6025913960400191505060405180910390fd5b600160009054906101000a900473ffffffffffffffffffffffffffffffffffffffff1673ffffffffffffffffffffffffffffffffffffffff166108fc6003549081150290604051600060405180830381858888f19350505050158015611e7c573d6000803e3d6000fd5b506000809054906101000a900473ffffffffffffffffffffffffffffffffffffffff1673ffffffffffffffffffffffffffffffffffffffff166108fc6004549081150290604051600060405180830381858888f19350505050158015611ee6573d6000803e3d6000fd5b50600160009054906101000a900473ffffffffffffffffffffffffffffffffffffffff1673ffffffffffffffffffffffffffffffffffffffff166108fc6004549081150290604051600060405180830381858888f19350505050158015611f51573d6000803e3d6000fd5b507fd54aabd3141f0694c3f533b346119d27c2eb3248d4f866d6bd8299c78b128daf604051808060200182810382526053815260200180612c856053913960600191505060405180910390a1565b60035481565b600a6020528060005260406000206000915090505481565b606060078054600181600116156101000203166002900480601f0160208091040260200160405190810160405280929190818152602001828054600181600116156101000203166002900480156120555780601f1061202a57610100808354040283529160200191612055565b820191906000526020600020905b81548152906001019060200180831161203857829003601f168201915b5050505050905090565b6000809054906101000a900473ffffffffffffffffffffffffffffffffffffffff1673ffffffffffffffffffffffffffffffffffffffff163373ffffffffffffffffffffffffffffffffffffffff16146120b857600080fd5b6001600a60008060009054906101000a900473ffffffffffffffffffffffffffffffffffffffff1673ffffffffffffffffffffffffffffffffffffffff1673ffffffffffffffffffffffffffffffffffffffff1681526020019081526020016000205414612171576040517f08c379a0000000000000000000000000000000000000000000000000000000008152600401808060200182810382526032815260200180612e7b6032913960400191505060405180910390fd5b6000600a6000600160009054906101000a900473ffffffffffffffffffffffffffffffffffffffff1673ffffffffffffffffffffffffffffffffffffffff1673ffffffffffffffffffffffffffffffffffffffff168152602001908152602001600020541461222b576040517f08c379a0000000000000000000000000000000000000000000000000000000008152600401808060200182810382526036815260200180612cd86036913960400191505060405180910390fd5b6000600a60008060009054906101000a900473ffffffffffffffffffffffffffffffffffffffff1673ffffffffffffffffffffffffffffffffffffffff1673ffffffffffffffffffffffffffffffffffffffff168152602001908152602001600020819055506000809054906101000a900473ffffffffffffffffffffffffffffffffffffffff1673ffffffffffffffffffffffffffffffffffffffff166108fc6004549081150290604051600060405180830381858888f193505050501580156122fa573d6000803e3d6000fd5b507f022a173fa68fb425cd1264890a0951b5a57aa7f1fcdc49e3262e86c1189ec9b1604051808060200182810382526024815260200180612edf6024913960400191505060405180910390a1565b60606000600281111561235757fe5b600660009054906101000a900460ff16600281111561237257fe5b14156123b5576040518060400160405280600481526020017f4f70656e000000000000000000000000000000000000000000000000000000008152509050612459565b600160028111156123c257fe5b600660009054906101000a900460ff1660028111156123dd57fe5b1415612420576040518060400160405280600781526020017f50656e64696e67000000000000000000000000000000000000000000000000008152509050612459565b6040518060400160405280600681526020017f436c6f736564000000000000000000000000000000000000000000000000000081525090505b90565b6000600454905090565b60096020528060005260406000206000915090505481565b60045481565b6000600354905090565b6000600160009054906101000a900473ffffffffffffffffffffffffffffffffffffffff16905090565b60055481565b600160009054906101000a900473ffffffffffffffffffffffffffffffffffffffff1673ffffffffffffffffffffffffffffffffffffffff163373ffffffffffffffffffffffffffffffffffffffff161461251857600080fd5b6001600a60008060009054906101000a900473ffffffffffffffffffffffffffffffffffffffff1673ffffffffffffffffffffffffffffffffffffffff1673ffffffffffffffffffffffffffffffffffffffff16815260200190815260200160002054146125ee576040517f08c379a000000000000000000000000000000000000000000000000000000000815260040180806020018281038252601f8152602001807f74686520627579657220686173206e6f74206465706f7369746564207965740081525060200191505060405180910390fd5b6001600a6000600160009054906101000a900473ffffffffffffffffffffffffffffffffffffffff1673ffffffffffffffffffffffffffffffffffffffff1673ffffffffffffffffffffffffffffffffffffffff16815260200190815260200160002054146126c5576040517f08c379a00000000000000000000000000000000000000000000000000000000081526004018080602001828103825260208152602001807f7468652073656c6c657220686173206e6f74206465706f73697465642079657481525060200191505060405180910390fd5b6001600b60008060009054906101000a900473ffffffffffffffffffffffffffffffffffffffff1673ffffffffffffffffffffffffffffffffffffffff1673ffffffffffffffffffffffffffffffffffffffff168152602001908152602001600020541461277e576040517f08c379a0000000000000000000000000000000000000000000000000000000008152600401808060200182810382526025815260200180612dff6025913960400191505060405180910390fd5b6000809054906101000a900473ffffffffffffffffffffffffffffffffffffffff1673ffffffffffffffffffffffffffffffffffffffff166108fc6003549081150290604051600060405180830381858888f193505050501580156127e7573d6000803e3d6000fd5b50600160009054906101000a900473ffffffffffffffffffffffffffffffffffffffff1673ffffffffffffffffffffffffffffffffffffffff166108fc6004549081150290604051600060405180830381858888f19350505050158015612852573d6000803e3d6000fd5b506000809054906101000a900473ffffffffffffffffffffffffffffffffffffffff1673ffffffffffffffffffffffffffffffffffffffff166108fc6004549081150290604051600060405180830381858888f193505050501580156128bc573d6000803e3d6000fd5b507f1355ee9ef69549a50f8d0008c6cd588a9759815d1b30ee62ed168c2bb7a24a62604051808060200182810382526057815260200180612e246057913960600191505060405180910390a1565b600160009054906101000a900473ffffffffffffffffffffffffffffffffffffffff1673ffffffffffffffffffffffffffffffffffffffff163373ffffffffffffffffffffffffffffffffffffffff161461296457600080fd5b6001600a6000600160009054906101000a900473ffffffffffffffffffffffffffffffffffffffff1673ffffffffffffffffffffffffffffffffffffffff1673ffffffffffffffffffffffffffffffffffffffff1681526020019081526020016000205414612a1e576040517f08c379a0000000000000000000000000000000000000000000000000000000008152600401808060200182810382526033815260200180612d0e6033913960400191505060405180910390fd5b6000600a60008060009054906101000a900473ffffffffffffffffffffffffffffffffffffffff1673ffffffffffffffffffffffffffffffffffffffff1673ffffffffffffffffffffffffffffffffffffffff1681526020019081526020016000205414612ad7576040517f08c379a0000000000000000000000000000000000000000000000000000000008152600401808060200182810382526035815260200180612d666035913960400191505060405180910390fd5b6000600a6000600160009054906101000a900473ffffffffffffffffffffffffffffffffffffffff1673ffffffffffffffffffffffffffffffffffffffff1673ffffffffffffffffffffffffffffffffffffffff16815260200190815260200160002081905550600160009054906101000a900473ffffffffffffffffffffffffffffffffffffffff1673ffffffffffffffffffffffffffffffffffffffff166108fc6004549081150290604051600060405180830381858888f19350505050158015612ba8573d6000803e3d6000fd5b507f68899ad50909030043672ec750f7e234201226c34f9efa036d99c5432d220a39604051808060200182810382526025815260200180612c606025913960400191505060405180910390a156fe7468652062757965722068617320616c72656164792073656e7420616e20616d6f756e7420666f7220636c61696d4465706f736974737468652073656c6c657220686173206e6f74206d6164652061206465706f73697420666f7220636c61696d4465706f736974737468652073656c6c657220686173207265766572736564207468656972206465706f7369745468652073656c6c657220686173206265656e207061696420616e6420616c6c206465706f736974732068617665206265656e2072657475726e6564202d207472616e73616374696f6e20636f6d706c6574657468652073656c6c657220686173206465706f736974656420616c72656164792043414e4e4f5420726576657273654465706f7369747468652073656c6c657220686173206e6f7420646573706f73697465642043414e4e4f5420726576657273654465706f7369747468652062757965722068617320616c72656164792073656e642074686520616d6f756e7474686520627579657220686173206465706f736974656420616c72656164792043414e4e4f5420726576657273654465706f736974746865206465706f73697420636c61696d206861732031206f7574206f662032206e6563657373617279207369676e6174757265734275796572206861732073656e7420746865207061796d656e7420616d6f756e7420746f2074686520657363726f7774686520627579657220686173206e6f742073656e742074686520616d6f756e742079657454686520627579657220686173206265656e20726566756e64656420616e6420616c6c206465706f736974732068617665206265656e2072657475726e6564202d207472616e73616374696f6e2063616e63656c6c656474686520627579657220686173206e6f7420646573706f73697465642043414e4e4f5420726576657273654465706f73697474686520627579657220686173206e6f74206d6164652061206465706f73697420666f7220636c61696d4465706f7369747374686520627579657220686173207265766572736564207468656972206465706f7369747468652073656e646572206861766520616c7265616479207369676e6564206f6666206f6e20636c61696d4465706f736974a265627a7a723158202f3af082539d6ece46a7d4463564840bfb62cddcd004932465aef6ec21277df964736f6c63430005100032a365627a7a723158205f0f04d785afc30c87a162638bf6f027ea422e86b7ac405dda8fd164b5dcaf8f6c6578706572696d656e74616cf564736f6c63430005100040",
  "source": "pragma solidity ^0.5.16;\npragma experimental ABIEncoderV2;\n\nimport \"./EscrowFactory.sol\";\n\ncontract EscrowExchange {\n\tuint public contractCount = 0;\n\tmapping(address => uint[]) public addressToIndex;\n\tmapping(address => mapping(uint => bool)) public addressContractIndexExists;\n\tmapping(uint => EscrowFactory) public contractIndexesForUsers;\n\n\t// TOFIX\n\tevent ContractCreated(address buyer, address seller, uint amount, uint deposit, uint signatureCount, string status, string notes, bool depositMade);\n\n\tfunction getContractForCurrentUser(uint index) public view returns (address, address, uint, uint, uint, string memory, string memory, uint, uint, uint, address, uint){\n\t\tif (addressContractIndexExists[msg.sender][index]) {\n\t \t\tEscrowFactory retrieved_contract = contractIndexesForUsers[index];\n\t\t\n\t \t\taddress seller = retrieved_contract.getSeller();\n\n\t        return (retrieved_contract.getBuyer(), \n\t        \tseller, \n\t        \tretrieved_contract.getAmount(), \n\t        \tretrieved_contract.getDeposit(), \n\t        \tretrieved_contract.getSignatureCount(),\n\t        \tretrieved_contract.getContractStatus(), \n\t        \tretrieved_contract.getNotes(),\n\t        \tretrieved_contract.getIfAddressDeposited(msg.sender),\n\t        \tretrieved_contract.getAmountCheck(msg.sender),\n\t        \tretrieved_contract.getSignature(msg.sender),\n\t        \taddress(retrieved_contract),\n\t        \tretrieved_contract.getIfAddressDeposited(seller)\n\t        );\n\t\t}\n    }\n\n    function getContractCountForCurrentUser() external view returns (uint) {\n    \tif (addressToIndex[msg.sender].length == 0) {\n    \t\treturn 0;\n    \t} else if (addressToIndex[msg.sender].length == 1) {\n    \t\treturn addressToIndex[msg.sender].length;\n    \t} else {\n\t    \tuint lastContractId = addressToIndex[msg.sender].length; // Get the length of the user's uint addressToIndex (array of contracts)\n\t\t    return addressToIndex[msg.sender][lastContractId - 1] + 1; // To access the last contract id user made, so we don't have to iterate entire contract array. We do +1 to take into account the user's last contract.\n    \t}\n\t }\n\n    function createContract(address payable buyer, address payable seller, uint amount, uint deposit, string memory notes) public {\n    \trequire(buyer != address(0), \"Invalid buyer address\");\n    \trequire(seller != address(0), \"Invalid seller address\");\n    \trequire(amount > 0);\n    \trequire(deposit > 0);\n    \tEscrowFactory newContract = new EscrowFactory(buyer, seller, amount, deposit, notes);\n    \tcontractIndexesForUsers[contractCount] = newContract;\n    \taddressToIndex[buyer].push(contractCount);\n    \taddressToIndex[seller].push(contractCount);\n    \taddressContractIndexExists[buyer][contractCount] = true;\n    \taddressContractIndexExists[seller][contractCount] = true;\n    \tcontractCount = contractCount + 1;\n\n    \temit ContractCreated(buyer, seller, amount, deposit, 0, \"Open\", notes, false);\n    }\n}",
  "sourcePath": "/Users/donaldlee/Developer/PointsExchange/contracts/EscrowExchange.sol",
  "compiler": {
    "name": "solc",
    "version": "0.5.16+commit.9c3226ce.Emscripten.clang"
  },
  "schemaVersion": "3.3.3",
  "updatedAt": "2021-06-16T00:21:49.796Z",
  "networkType": "ethereum",
  "devdoc": {
    "methods": {}
  },
  "userdoc": {
    "methods": {}
  }
}