{
  "contractName": "EscrowExchange",
  "abi": [
    {
      "inputs": [],
      "payable": false,
      "stateMutability": "nonpayable",
      "type": "constructor"
    },
    {
      "anonymous": false,
      "inputs": [
        {
          "indexed": false,
          "internalType": "address",
          "name": "buyer",
          "type": "address"
        },
        {
          "indexed": false,
          "internalType": "address",
          "name": "seller",
          "type": "address"
        },
        {
          "indexed": false,
          "internalType": "uint256",
          "name": "amount",
          "type": "uint256"
        },
        {
          "indexed": false,
          "internalType": "uint256",
          "name": "deposit",
          "type": "uint256"
        },
        {
          "indexed": false,
          "internalType": "uint256",
          "name": "signatureCount",
          "type": "uint256"
        },
        {
          "indexed": false,
          "internalType": "string",
          "name": "status",
          "type": "string"
        },
        {
          "indexed": false,
          "internalType": "string",
          "name": "notes",
          "type": "string"
        },
        {
          "indexed": false,
          "internalType": "bool",
          "name": "depositMade",
          "type": "bool"
        }
      ],
      "name": "ContractCreated",
      "type": "event"
    },
    {
      "constant": true,
      "inputs": [
        {
          "internalType": "address",
          "name": "",
          "type": "address"
        },
        {
          "internalType": "uint256",
          "name": "",
          "type": "uint256"
        }
      ],
      "name": "addressContractIndexExists",
      "outputs": [
        {
          "internalType": "bool",
          "name": "",
          "type": "bool"
        }
      ],
      "payable": false,
      "stateMutability": "view",
      "type": "function"
    },
    {
      "constant": true,
      "inputs": [
        {
          "internalType": "address",
          "name": "",
          "type": "address"
        },
        {
          "internalType": "uint256",
          "name": "",
          "type": "uint256"
        }
      ],
      "name": "addressToIndex",
      "outputs": [
        {
          "internalType": "uint256",
          "name": "",
          "type": "uint256"
        }
      ],
      "payable": false,
      "stateMutability": "view",
      "type": "function"
    },
    {
      "constant": true,
      "inputs": [],
      "name": "contractCount",
      "outputs": [
        {
          "internalType": "uint256",
          "name": "",
          "type": "uint256"
        }
      ],
      "payable": false,
      "stateMutability": "view",
      "type": "function"
    },
    {
      "constant": true,
      "inputs": [
        {
          "internalType": "uint256",
          "name": "",
          "type": "uint256"
        }
      ],
      "name": "contractIndexesForUsers",
      "outputs": [
        {
          "internalType": "contract EscrowFactory",
          "name": "",
          "type": "address"
        }
      ],
      "payable": false,
      "stateMutability": "view",
      "type": "function"
    },
    {
      "constant": true,
      "inputs": [],
      "name": "owner",
      "outputs": [
        {
          "internalType": "address payable",
          "name": "",
          "type": "address"
        }
      ],
      "payable": false,
      "stateMutability": "view",
      "type": "function"
    },
    {
      "constant": true,
      "inputs": [
        {
          "internalType": "uint256",
          "name": "index",
          "type": "uint256"
        }
      ],
      "name": "getContractForCurrentUser",
      "outputs": [
        {
          "internalType": "uint256",
          "name": "",
          "type": "uint256"
        },
        {
          "internalType": "address",
          "name": "",
          "type": "address"
        },
        {
          "internalType": "address",
          "name": "",
          "type": "address"
        },
        {
          "internalType": "uint256",
          "name": "",
          "type": "uint256"
        },
        {
          "internalType": "uint256",
          "name": "",
          "type": "uint256"
        },
        {
          "internalType": "uint256",
          "name": "",
          "type": "uint256"
        },
        {
          "internalType": "string",
          "name": "",
          "type": "string"
        },
        {
          "internalType": "string",
          "name": "",
          "type": "string"
        },
        {
          "internalType": "uint256",
          "name": "",
          "type": "uint256"
        },
        {
          "internalType": "uint256",
          "name": "",
          "type": "uint256"
        },
        {
          "internalType": "uint256",
          "name": "",
          "type": "uint256"
        },
        {
          "internalType": "address",
          "name": "",
          "type": "address"
        }
      ],
      "payable": false,
      "stateMutability": "view",
      "type": "function"
    },
    {
      "constant": true,
      "inputs": [],
      "name": "getContractCountForCurrentUser",
      "outputs": [
        {
          "internalType": "uint256",
          "name": "",
          "type": "uint256"
        }
      ],
      "payable": false,
      "stateMutability": "view",
      "type": "function"
    },
    {
      "constant": false,
      "inputs": [
        {
          "internalType": "address payable",
          "name": "buyer",
          "type": "address"
        },
        {
          "internalType": "address payable",
          "name": "seller",
          "type": "address"
        },
        {
          "internalType": "uint256",
          "name": "amount",
          "type": "uint256"
        },
        {
          "internalType": "uint256",
          "name": "deposit",
          "type": "uint256"
        },
        {
          "internalType": "string",
          "name": "notes",
          "type": "string"
        }
      ],
      "name": "createContract",
      "outputs": [],
      "payable": false,
      "stateMutability": "nonpayable",
      "type": "function"
    }
  ],
  "bytecode": "0x60806040526000805534801561001457600080fd5b5033600160006101000a81548173ffffffffffffffffffffffffffffffffffffffff021916908373ffffffffffffffffffffffffffffffffffffffff1602179055506158b8806100656000396000f3fe60806040523480156200001157600080fd5b5060043610620000945760003560e01c80638da5cb5b11620000635780638da5cb5b146200015257806392646cc51462000174578063d0be31c414620001aa578063e1ab571114620001e05762000094565b80633d0beb4b146200009957806360cc106214620000cf5780636a3661a614620001105780638736381a1462000130575b600080fd5b620000b76004803603620000b19190810190620010da565b62000202565b604051620000c691906200158a565b60405180910390f35b620000ed6004803603620000e79190810190620011a5565b62000231565b604051620001079c9b9a99989796959493929190620015a7565b60405180910390f35b6200012e60048036036200012891908101906200103f565b62000867565b005b6200013a62000c2a565b6040516200014991906200158a565b60405180910390f35b6200015c62000c30565b6040516200016b9190620013e1565b60405180910390f35b6200019260048036036200018c9190810190620011a5565b62000c56565b604051620001a1919062001529565b60405180910390f35b620001c86004803603620001c29190810190620010da565b62000c89565b604051620001d791906200150c565b60405180910390f35b620001ea62000cb8565b604051620001f991906200158a565b60405180910390f35b600260205281600052604060002081815481106200021c57fe5b90600052602060002001600091509150505481565b600080600080600080606080600080600080600360003373ffffffffffffffffffffffffffffffffffffffff1673ffffffffffffffffffffffffffffffffffffffff16815260200190815260200160002060008e815260200190815260200160002060009054906101000a900460ff161562000857576000600460008f815260200190815260200160002060009054906101000a900473ffffffffffffffffffffffffffffffffffffffff16905060008173ffffffffffffffffffffffffffffffffffffffff16637150d8ae6040518163ffffffff1660e01b815260040160206040518083038186803b1580156200032857600080fd5b505afa1580156200033d573d6000803e3d6000fd5b505050506040513d601f19601f8201168201806040525062000363919081019062001013565b90508e818373ffffffffffffffffffffffffffffffffffffffff166308551a536040518163ffffffff1660e01b815260040160206040518083038186803b158015620003ae57600080fd5b505afa158015620003c3573d6000803e3d6000fd5b505050506040513d601f19601f82011682018060405250620003e9919081019062001013565b8473ffffffffffffffffffffffffffffffffffffffff1663aa8c217c6040518163ffffffff1660e01b815260040160206040518083038186803b1580156200043057600080fd5b505afa15801562000445573d6000803e3d6000fd5b505050506040513d601f19601f820116820180604052506200046b9190810190620011d1565b8573ffffffffffffffffffffffffffffffffffffffff1663d0e30db06040518163ffffffff1660e01b815260040160206040518083038186803b158015620004b257600080fd5b505afa158015620004c7573d6000803e3d6000fd5b505050506040513d601f19601f82011682018060405250620004ed9190810190620011d1565b8673ffffffffffffffffffffffffffffffffffffffff1663e7f55ed66040518163ffffffff1660e01b815260040160206040518083038186803b1580156200053457600080fd5b505afa15801562000549573d6000803e3d6000fd5b505050506040513d601f19601f820116820180604052506200056f9190810190620011fd565b8773ffffffffffffffffffffffffffffffffffffffff1663c032846b6040518163ffffffff1660e01b815260040160006040518083038186803b158015620005b657600080fd5b505afa158015620005cb573d6000803e3d6000fd5b505050506040513d6000823e3d601f19601f82011682018060405250620005f6919081019062001160565b8873ffffffffffffffffffffffffffffffffffffffff16631866dc976040518163ffffffff1660e01b815260040160006040518083038186803b1580156200063d57600080fd5b505afa15801562000652573d6000803e3d6000fd5b505050506040513d6000823e3d601f19601f820116820180604052506200067d91908101906200111b565b8973ffffffffffffffffffffffffffffffffffffffff166303828aee336040518263ffffffff1660e01b8152600401620006b89190620013c4565b60206040518083038186803b158015620006d157600080fd5b505afa158015620006e6573d6000803e3d6000fd5b505050506040513d601f19601f820116820180604052506200070c9190810190620011d1565b8a73ffffffffffffffffffffffffffffffffffffffff166386fef2368b6040518263ffffffff1660e01b8152600401620007479190620013a7565b60206040518083038186803b1580156200076057600080fd5b505afa15801562000775573d6000803e3d6000fd5b505050506040513d601f19601f820116820180604052506200079b9190810190620011d1565b8b73ffffffffffffffffffffffffffffffffffffffff1663277fc0e9336040518263ffffffff1660e01b8152600401620007d69190620013c4565b60206040518083038186803b158015620007ef57600080fd5b505afa15801562000804573d6000803e3d6000fd5b505050506040513d601f19601f820116820180604052506200082a9190810190620011d1565b8c8999508660ff1696508494509d509d509d509d509d509d509d509d509d509d509d509d50505062000858565b5b91939597999b5091939597999b565b600073ffffffffffffffffffffffffffffffffffffffff168573ffffffffffffffffffffffffffffffffffffffff161415620008da576040517f08c379a0000000000000000000000000000000000000000000000000000000008152600401620008d19062001546565b60405180910390fd5b600073ffffffffffffffffffffffffffffffffffffffff168473ffffffffffffffffffffffffffffffffffffffff1614156200094d576040517f08c379a0000000000000000000000000000000000000000000000000000000008152600401620009449062001568565b60405180910390fd5b600083116200095b57600080fd5b600082116200096957600080fd5b60008585858585600160009054906101000a900473ffffffffffffffffffffffffffffffffffffffff16604051620009a19062000e67565b620009b29695949392919062001498565b604051809103906000f080158015620009cf573d6000803e3d6000fd5b50905080600460008054815260200190815260200160002060006101000a81548173ffffffffffffffffffffffffffffffffffffffff021916908373ffffffffffffffffffffffffffffffffffffffff160217905550600260008773ffffffffffffffffffffffffffffffffffffffff1673ffffffffffffffffffffffffffffffffffffffff1681526020019081526020016000206000549080600181540180825580915050906001820390600052602060002001600090919290919091505550600260008673ffffffffffffffffffffffffffffffffffffffff1673ffffffffffffffffffffffffffffffffffffffff16815260200190815260200160002060005490806001815401808255809150509060018203906000526020600020016000909192909190915055506001600360008873ffffffffffffffffffffffffffffffffffffffff1673ffffffffffffffffffffffffffffffffffffffff16815260200190815260200160002060008054815260200190815260200160002060006101000a81548160ff0219169083151502179055506001600360008773ffffffffffffffffffffffffffffffffffffffff1673ffffffffffffffffffffffffffffffffffffffff16815260200190815260200160002060008054815260200190815260200160002060006101000a81548160ff0219169083151502179055506001600054016000819055507f0acd88e48e19df2f60e1fac1cc74e5cd85d20d113033e9f7ed5d60534fb3381a86868686600087600060405162000c1a9796959493929190620013fe565b60405180910390a1505050505050565b60005481565b600160009054906101000a900473ffffffffffffffffffffffffffffffffffffffff1681565b60046020528060005260406000206000915054906101000a900473ffffffffffffffffffffffffffffffffffffffff1681565b60036020528160005260406000206020528060005260406000206000915091509054906101000a900460ff1681565b600080600260003373ffffffffffffffffffffffffffffffffffffffff1673ffffffffffffffffffffffffffffffffffffffff16815260200190815260200160002080549050141562000d0f576000905062000e64565b6001600260003373ffffffffffffffffffffffffffffffffffffffff1673ffffffffffffffffffffffffffffffffffffffff16815260200190815260200160002080549050141562000dbd576001600260003373ffffffffffffffffffffffffffffffffffffffff1673ffffffffffffffffffffffffffffffffffffffff16815260200190815260200160002060008154811062000da957fe5b906000526020600020015401905062000e64565b6000600260003373ffffffffffffffffffffffffffffffffffffffff1673ffffffffffffffffffffffffffffffffffffffff1681526020019081526020016000208054905090506001600260003373ffffffffffffffffffffffffffffffffffffffff1673ffffffffffffffffffffffffffffffffffffffff168152602001908152602001600020600183038154811062000e5457fe5b9060005260206000200154019150505b90565b613fa980620018cd83390190565b60008135905062000e868162001864565b92915050565b60008135905062000e9d816200187e565b92915050565b60008151905062000eb4816200187e565b92915050565b600082601f83011262000ecc57600080fd5b815162000ee362000edd82620016b5565b62001687565b9150808252602083016020830185838301111562000f0057600080fd5b62000f0d8382846200181d565b50505092915050565b600082601f83011262000f2857600080fd5b813562000f3f62000f3982620016e2565b62001687565b9150808252602083016020830185838301111562000f5c57600080fd5b62000f698382846200180e565b50505092915050565b600082601f83011262000f8457600080fd5b815162000f9b62000f9582620016e2565b62001687565b9150808252602083016020830185838301111562000fb857600080fd5b62000fc58382846200181d565b50505092915050565b60008135905062000fdf8162001898565b92915050565b60008151905062000ff68162001898565b92915050565b6000815190506200100d81620018b2565b92915050565b6000602082840312156200102657600080fd5b6000620010368482850162000ea3565b91505092915050565b600080600080600060a086880312156200105857600080fd5b6000620010688882890162000e8c565b95505060206200107b8882890162000e8c565b94505060406200108e8882890162000fce565b9350506060620010a18882890162000fce565b925050608086013567ffffffffffffffff811115620010bf57600080fd5b620010cd8882890162000f16565b9150509295509295909350565b60008060408385031215620010ee57600080fd5b6000620010fe8582860162000e75565b9250506020620011118582860162000fce565b9150509250929050565b6000602082840312156200112e57600080fd5b600082015167ffffffffffffffff8111156200114957600080fd5b620011578482850162000eba565b91505092915050565b6000602082840312156200117357600080fd5b600082015167ffffffffffffffff8111156200118e57600080fd5b6200119c8482850162000f72565b91505092915050565b600060208284031215620011b857600080fd5b6000620011c88482850162000fce565b91505092915050565b600060208284031215620011e457600080fd5b6000620011f48482850162000fe5565b91505092915050565b6000602082840312156200121057600080fd5b6000620012208482850162000ffc565b91505092915050565b620012348162001796565b82525050565b62001245816200173f565b82525050565b62001256816200172b565b82525050565b620012678162001753565b82525050565b6200127881620017aa565b82525050565b6200128981620017d2565b82525050565b60006200129c826200170f565b620012a881856200171a565b9350620012ba8185602086016200181d565b620012c58162001853565b840191505092915050565b6000620012df600d836200171a565b91507f496e76616c6964206275796572000000000000000000000000000000000000006000830152602082019050919050565b600062001321600e836200171a565b91507f496e76616c69642073656c6c65720000000000000000000000000000000000006000830152602082019050919050565b6000620013636004836200171a565b91507f4f70656e000000000000000000000000000000000000000000000000000000006000830152602082019050919050565b620013a1816200177f565b82525050565b6000602082019050620013be60008301846200124b565b92915050565b6000602082019050620013db600083018462001229565b92915050565b6000602082019050620013f860008301846200123a565b92915050565b60006101008201905062001416600083018a62001229565b62001425602083018962001229565b62001434604083018862001396565b62001443606083018762001396565b6200145260808301866200127e565b81810360a0830152620014658162001354565b905081810360c08301526200147b81856200128f565b90506200148c60e08301846200125c565b98975050505050505050565b600060c082019050620014af60008301896200123a565b620014be60208301886200123a565b620014cd604083018762001396565b620014dc606083018662001396565b8181036080830152620014f081856200128f565b90506200150160a08301846200123a565b979650505050505050565b60006020820190506200152360008301846200125c565b92915050565b60006020820190506200154060008301846200126d565b92915050565b600060208201905081810360008301526200156181620012d0565b9050919050565b60006020820190508181036000830152620015838162001312565b9050919050565b6000602082019050620015a1600083018462001396565b92915050565b600061018082019050620015bf600083018f62001396565b620015ce602083018e6200124b565b620015dd604083018d6200124b565b620015ec606083018c62001396565b620015fb608083018b62001396565b6200160a60a083018a62001396565b81810360c08301526200161e81896200128f565b905081810360e08301526200163481886200128f565b90506200164661010083018762001396565b6200165661012083018662001396565b6200166661014083018562001396565b620016766101608301846200124b565b9d9c50505050505050505050505050565b6000604051905081810181811067ffffffffffffffff82111715620016ab57600080fd5b8060405250919050565b600067ffffffffffffffff821115620016cd57600080fd5b601f19601f8301169050602081019050919050565b600067ffffffffffffffff821115620016fa57600080fd5b601f19601f8301169050602081019050919050565b600081519050919050565b600082825260208201905092915050565b600062001738826200175f565b9050919050565b60006200174c826200175f565b9050919050565b60008115159050919050565b600073ffffffffffffffffffffffffffffffffffffffff82169050919050565b6000819050919050565b600060ff82169050919050565b6000620017a382620017e6565b9050919050565b6000620017b782620017be565b9050919050565b6000620017cb826200175f565b9050919050565b6000620017df826200177f565b9050919050565b6000620017f382620017fa565b9050919050565b600062001807826200175f565b9050919050565b82818337600083830152505050565b60005b838110156200183d57808201518184015260208101905062001820565b838111156200184d576000848401525b50505050565b6000601f19601f8301169050919050565b6200186f816200172b565b81146200187b57600080fd5b50565b62001889816200173f565b81146200189557600080fd5b50565b620018a3816200177f565b8114620018af57600080fd5b50565b620018bd8162001789565b8114620018c957600080fd5b5056fe60806040523480156200001157600080fd5b5060405162003fa938038062003fa9833981810160405260c08110156200003757600080fd5b8101908080519060200190929190805190602001909291908051906020019092919080519060200190929190805160405193929190846401000000008211156200008057600080fd5b838201915060208201858111156200009757600080fd5b8251866001820283011164010000000082111715620000b557600080fd5b8083526020830192505050908051906020019080838360005b83811015620000eb578082015181840152602081019050620000ce565b50505050905090810190601f168015620001195780820380516001836020036101000a031916815260200191505b5060405260200180519060200190929190505050856000806101000a81548173ffffffffffffffffffffffffffffffffffffffff021916908373ffffffffffffffffffffffffffffffffffffffff16021790555084600160006101000a81548173ffffffffffffffffffffffffffffffffffffffff021916908373ffffffffffffffffffffffffffffffffffffffff16021790555083600481905550826005819055508160079080519060200190620001d4929190620003de565b506000600660016101000a81548160ff02191690836003811115620001f557fe5b02179055506000600860006101000a81548160ff02191690831515021790555060038690806001815401808255809150509060018203906000526020600020016000909192909190916101000a81548173ffffffffffffffffffffffffffffffffffffffff021916908373ffffffffffffffffffffffffffffffffffffffff1602179055505060038590806001815401808255809150509060018203906000526020600020016000909192909190916101000a81548173ffffffffffffffffffffffffffffffffffffffff021916908373ffffffffffffffffffffffffffffffffffffffff160217905550506001600960008873ffffffffffffffffffffffffffffffffffffffff1673ffffffffffffffffffffffffffffffffffffffff16815260200190815260200160002060006101000a81548160ff0219169083151502179055506001600960008773ffffffffffffffffffffffffffffffffffffffff1673ffffffffffffffffffffffffffffffffffffffff16815260200190815260200160002060006101000a81548160ff02191690831515021790555080600260006101000a81548173ffffffffffffffffffffffffffffffffffffffff021916908373ffffffffffffffffffffffffffffffffffffffff1602179055505050505050506200048d565b828054600181600116156101000203166002900490600052602060002090601f016020900481019282601f106200042157805160ff191683800117855562000452565b8280016001018555821562000452579182015b828111156200045157825182559160200191906001019062000434565b5b50905062000461919062000465565b5090565b6200048a91905b80821115620004865760008160009055506001016200046c565b5090565b90565b613b0c806200049d6000396000f3fe60806040526004361061019c5760003560e01c80638b2b3d8b116100ec578063be7e69fd1161008a578063d0e30db011610064578063d0e30db0146108a7578063e7f55ed6146108d2578063e8a61cc814610903578063f8fe98891461091a5761019c565b8063be7e69fd1461079b578063c032846b146107b2578063c792f36d146108425761019c565b8063a0c97bce116100c6578063a0c97bce1461062c578063aa8c217c14610643578063ab404ff01461066e578063bada8736146106d35761019c565b80638b2b3d8b146105c15780638da5cb5b146105cb578063a0579587146106225761019c565b8063314fd68f11610159578063537eeb5111610133578063537eeb51146104715780637150d8ae146104d657806386fef2361461052d57806389264201146105925761019c565b8063314fd68f146103a25780633bd0387b1461041d5780634c1786ea146104675761019c565b806303828aee146101a157806308551a53146102065780631432c2811461025d5780631866dc9714610274578063200d2ed214610304578063277fc0e91461033d575b600080fd5b3480156101ad57600080fd5b506101f0600480360360208110156101c457600080fd5b81019080803573ffffffffffffffffffffffffffffffffffffffff169060200190929190505050610931565b6040518082815260200191505060405180910390f35b34801561021257600080fd5b5061021b61097a565b604051808273ffffffffffffffffffffffffffffffffffffffff1673ffffffffffffffffffffffffffffffffffffffff16815260200191505060405180910390f35b34801561026957600080fd5b506102726109a0565b005b34801561028057600080fd5b50610289611124565b6040518080602001828103825283818151815260200191508051906020019080838360005b838110156102c95780820151818401526020810190506102ae565b50505050905090810190601f1680156102f65780820380516001836020036101000a031916815260200191505b509250505060405180910390f35b34801561031057600080fd5b506103196111c2565b6040518082600381111561032957fe5b60ff16815260200191505060405180910390f35b34801561034957600080fd5b5061038c6004803603602081101561036057600080fd5b81019080803573ffffffffffffffffffffffffffffffffffffffff1690602001909291905050506111d5565b6040518082815260200191505060405180910390f35b3480156103ae57600080fd5b506103db600480360360208110156103c557600080fd5b810190808035906020019092919050505061121e565b604051808273ffffffffffffffffffffffffffffffffffffffff1673ffffffffffffffffffffffffffffffffffffffff16815260200191505060405180910390f35b34801561042957600080fd5b506104656004803603604081101561044057600080fd5b81019080803515159060200190929190803560ff16906020019092919050505061125a565b005b61046f6118df565b005b34801561047d57600080fd5b506104c06004803603602081101561049457600080fd5b81019080803573ffffffffffffffffffffffffffffffffffffffff169060200190929190505050611b50565b6040518082815260200191505060405180910390f35b3480156104e257600080fd5b506104eb611b68565b604051808273ffffffffffffffffffffffffffffffffffffffff1673ffffffffffffffffffffffffffffffffffffffff16815260200191505060405180910390f35b34801561053957600080fd5b5061057c6004803603602081101561055057600080fd5b81019080803573ffffffffffffffffffffffffffffffffffffffff169060200190929190505050611b8d565b6040518082815260200191505060405180910390f35b34801561059e57600080fd5b506105a7611bd6565b604051808215151515815260200191505060405180910390f35b6105c9611be9565b005b3480156105d757600080fd5b506105e0611fad565b604051808273ffffffffffffffffffffffffffffffffffffffff1673ffffffffffffffffffffffffffffffffffffffff16815260200191505060405180910390f35b61062a611fd3565b005b34801561063857600080fd5b50610641612243565b005b34801561064f57600080fd5b506106586126c7565b6040518082815260200191505060405180910390f35b34801561067a57600080fd5b506106bd6004803603602081101561069157600080fd5b81019080803573ffffffffffffffffffffffffffffffffffffffff1690602001909291905050506126cd565b6040518082815260200191505060405180910390f35b3480156106df57600080fd5b50610799600480360360208110156106f657600080fd5b810190808035906020019064010000000081111561071357600080fd5b82018360208201111561072557600080fd5b8035906020019184600183028401116401000000008311171561074757600080fd5b91908080601f016020809104026020016040519081016040528093929190818152602001838380828437600081840152601f19601f8201169050808301925050505050505091929192905050506126e5565b005b3480156107a757600080fd5b506107b0612aca565b005b3480156107be57600080fd5b506107c7612e0a565b6040518080602001828103825283818151815260200191508051906020019080838360005b838110156108075780820151818401526020810190506107ec565b50505050905090810190601f1680156108345780820380516001836020036101000a031916815260200191505b509250505060405180910390f35b34801561084e57600080fd5b506108916004803603602081101561086557600080fd5b81019080803573ffffffffffffffffffffffffffffffffffffffff169060200190929190505050612f88565b6040518082815260200191505060405180910390f35b3480156108b357600080fd5b506108bc612fa0565b6040518082815260200191505060405180910390f35b3480156108de57600080fd5b506108e7612fa6565b604051808260ff1660ff16815260200191505060405180910390f35b34801561090f57600080fd5b50610918612fb9565b005b34801561092657600080fd5b5061092f61343d565b005b6000600b60008373ffffffffffffffffffffffffffffffffffffffff1673ffffffffffffffffffffffffffffffffffffffff168152602001908152602001600020549050919050565b600160009054906101000a900473ffffffffffffffffffffffffffffffffffffffff1681565b33600960008273ffffffffffffffffffffffffffffffffffffffff1673ffffffffffffffffffffffffffffffffffffffff16815260200190815260200160002060009054906101000a900460ff166109f757600080fd5b6001600b60008060009054906101000a900473ffffffffffffffffffffffffffffffffffffffff1673ffffffffffffffffffffffffffffffffffffffff1673ffffffffffffffffffffffffffffffffffffffff1681526020019081526020016000205414610acd576040517f08c379a00000000000000000000000000000000000000000000000000000000081526004018080602001828103825260108152602001807f6465706f7369742072657175697265640000000000000000000000000000000081525060200191505060405180910390fd5b6001600b6000600160009054906101000a900473ffffffffffffffffffffffffffffffffffffffff1673ffffffffffffffffffffffffffffffffffffffff1673ffffffffffffffffffffffffffffffffffffffff1681526020019081526020016000205414610ba4576040517f08c379a00000000000000000000000000000000000000000000000000000000081526004018080602001828103825260108152602001807f6465706f7369742072657175697265640000000000000000000000000000000081525060200191505060405180910390fd5b6000600c60008060009054906101000a900473ffffffffffffffffffffffffffffffffffffffff1673ffffffffffffffffffffffffffffffffffffffff1673ffffffffffffffffffffffffffffffffffffffff1681526020019081526020016000205414610c7a576040517f08c379a000000000000000000000000000000000000000000000000000000000815260040180806020018281038252600c8152602001807f616d6f756e74206578697374000000000000000000000000000000000000000081525060200191505060405180910390fd5b6000600a60003373ffffffffffffffffffffffffffffffffffffffff1673ffffffffffffffffffffffffffffffffffffffff1681526020019081526020016000205414610d2f576040517f08c379a000000000000000000000000000000000000000000000000000000000815260040180806020018281038252600e8152602001807f616c7265616479207369676e656400000000000000000000000000000000000081525060200191505060405180910390fd5b6001600a60003373ffffffffffffffffffffffffffffffffffffffff1673ffffffffffffffffffffffffffffffffffffffff168152602001908152602001600020819055506006600081819054906101000a900460ff168092919060010191906101000a81548160ff021916908360ff160217905550506001600660009054906101000a900460ff1660ff161415610e11577f87463abc399fbbddfcd563f22d61267e4c0402b336940699382407adce42e5a26040518080602001828103825260358152602001806139956035913960400191505060405180910390a1611121565b6002600660009054906101000a900460ff1660ff161415611120576000809054906101000a900473ffffffffffffffffffffffffffffffffffffffff1673ffffffffffffffffffffffffffffffffffffffff166108fc6005549081150290604051600060405180830381858888f19350505050158015610e95573d6000803e3d6000fd5b50600160009054906101000a900473ffffffffffffffffffffffffffffffffffffffff1673ffffffffffffffffffffffffffffffffffffffff166108fc6005549081150290604051600060405180830381858888f19350505050158015610f00573d6000803e3d6000fd5b506000600b60008060009054906101000a900473ffffffffffffffffffffffffffffffffffffffff1673ffffffffffffffffffffffffffffffffffffffff1673ffffffffffffffffffffffffffffffffffffffff168152602001908152602001600020819055506000600b6000600160009054906101000a900473ffffffffffffffffffffffffffffffffffffffff1673ffffffffffffffffffffffffffffffffffffffff1673ffffffffffffffffffffffffffffffffffffffff168152602001908152602001600020819055506000600a60008060009054906101000a900473ffffffffffffffffffffffffffffffffffffffff1673ffffffffffffffffffffffffffffffffffffffff1673ffffffffffffffffffffffffffffffffffffffff168152602001908152602001600020819055506000600a6000600160009054906101000a900473ffffffffffffffffffffffffffffffffffffffff1673ffffffffffffffffffffffffffffffffffffffff1673ffffffffffffffffffffffffffffffffffffffff168152602001908152602001600020819055506000600660006101000a81548160ff021916908360ff1602179055507fd397a3b1b662401574a4482307d3aaaa5413f8af98a7053e3473935f4d0659ed60405180806020018281038252601f8152602001807f746865206465706f736974732068617665206265656e2072657475726e65640081525060200191505060405180910390a15b5b50565b60078054600181600116156101000203166002900480601f0160208091040260200160405190810160405280929190818152602001828054600181600116156101000203166002900480156111ba5780601f1061118f576101008083540402835291602001916111ba565b820191906000526020600020905b81548152906001019060200180831161119d57829003601f168201915b505050505081565b600660019054906101000a900460ff1681565b6000600a60008373ffffffffffffffffffffffffffffffffffffffff1673ffffffffffffffffffffffffffffffffffffffff168152602001908152602001600020549050919050565b6003818154811061122b57fe5b906000526020600020016000915054906101000a900473ffffffffffffffffffffffffffffffffffffffff1681565b81600115158115151461126c57600080fd5b60006103e8600f600554028161127e57fe5b04905060008160026005548161129057fe5b04039050600082600554039050600260009054906101000a900473ffffffffffffffffffffffffffffffffffffffff1673ffffffffffffffffffffffffffffffffffffffff166108fc829081150290604051600060405180830381858888f19350505050158015611305573d6000803e3d6000fd5b506001600b60008060009054906101000a900473ffffffffffffffffffffffffffffffffffffffff1673ffffffffffffffffffffffffffffffffffffffff1673ffffffffffffffffffffffffffffffffffffffff16815260200190815260200160002054141561143e576000809054906101000a900473ffffffffffffffffffffffffffffffffffffffff1673ffffffffffffffffffffffffffffffffffffffff166108fc839081150290604051600060405180830381858888f193505050501580156113d6573d6000803e3d6000fd5b506000600b60008060009054906101000a900473ffffffffffffffffffffffffffffffffffffffff1673ffffffffffffffffffffffffffffffffffffffff1673ffffffffffffffffffffffffffffffffffffffff168152602001908152602001600020819055505b6001600b6000600160009054906101000a900473ffffffffffffffffffffffffffffffffffffffff1673ffffffffffffffffffffffffffffffffffffffff1673ffffffffffffffffffffffffffffffffffffffff16815260200190815260200160002054141561157957600160009054906101000a900473ffffffffffffffffffffffffffffffffffffffff1673ffffffffffffffffffffffffffffffffffffffff166108fc839081150290604051600060405180830381858888f19350505050158015611510573d6000803e3d6000fd5b506000600b6000600160009054906101000a900473ffffffffffffffffffffffffffffffffffffffff1673ffffffffffffffffffffffffffffffffffffffff1673ffffffffffffffffffffffffffffffffffffffff168152602001908152602001600020819055505b6001600c60008060009054906101000a900473ffffffffffffffffffffffffffffffffffffffff1673ffffffffffffffffffffffffffffffffffffffff1673ffffffffffffffffffffffffffffffffffffffff1681526020019081526020016000205414801561160d57506003808111156115f057fe5b600660019054906101000a900460ff16600381111561160b57fe5b145b801561162a57506000600181111561162157fe5b60ff168560ff16145b15611704576000809054906101000a900473ffffffffffffffffffffffffffffffffffffffff1673ffffffffffffffffffffffffffffffffffffffff166108fc6004549081150290604051600060405180830381858888f19350505050158015611698573d6000803e3d6000fd5b506000600c60008060009054906101000a900473ffffffffffffffffffffffffffffffffffffffff1673ffffffffffffffffffffffffffffffffffffffff1673ffffffffffffffffffffffffffffffffffffffff1681526020019081526020016000208190555061188c565b6001600c60008060009054906101000a900473ffffffffffffffffffffffffffffffffffffffff1673ffffffffffffffffffffffffffffffffffffffff1673ffffffffffffffffffffffffffffffffffffffff16815260200190815260200160002054148015611798575060038081111561177b57fe5b600660019054906101000a900460ff16600381111561179657fe5b145b80156117b457506001808111156117ab57fe5b60ff168560ff16145b1561188b57600160009054906101000a900473ffffffffffffffffffffffffffffffffffffffff1673ffffffffffffffffffffffffffffffffffffffff166108fc6004549081150290604051600060405180830381858888f19350505050158015611823573d6000803e3d6000fd5b506000600c60008060009054906101000a900473ffffffffffffffffffffffffffffffffffffffff1673ffffffffffffffffffffffffffffffffffffffff1673ffffffffffffffffffffffffffffffffffffffff168152602001908152602001600020819055505b5b7fe0b751eb2be5e6f7fc3fac7842f5b366e8a003ea7d61675d1b113673aaa7721c604051808060200182810382526060815260200180613a506060913960600191505060405180910390a1505050505050565b600160009054906101000a900473ffffffffffffffffffffffffffffffffffffffff1673ffffffffffffffffffffffffffffffffffffffff163373ffffffffffffffffffffffffffffffffffffffff161461193957600080fd5b60055434146119b0576040517f08c379a000000000000000000000000000000000000000000000000000000000815260040180806020018281038252600f8152602001807f496e76616c6964206465706f736974000000000000000000000000000000000081525060200191505060405180910390fd5b6000600b60003373ffffffffffffffffffffffffffffffffffffffff1673ffffffffffffffffffffffffffffffffffffffff1681526020019081526020016000205414611a65576040517f08c379a00000000000000000000000000000000000000000000000000000000081526004018080602001828103825260098152602001807f4465706f7369746564000000000000000000000000000000000000000000000081525060200191505060405180910390fd5b6001600b60003373ffffffffffffffffffffffffffffffffffffffff1673ffffffffffffffffffffffffffffffffffffffff168152602001908152602001600020819055507feaa52bf3f740eaa050012695cd117e2182b5c032c7fc36dbcdfc74189f68ab2e3334604051808373ffffffffffffffffffffffffffffffffffffffff1673ffffffffffffffffffffffffffffffffffffffff16815260200180602001838152602001828103825260098152602001807f6465706f73697465640000000000000000000000000000000000000000000000815250602001935050505060405180910390a1565b600c6020528060005260406000206000915090505481565b6000809054906101000a900473ffffffffffffffffffffffffffffffffffffffff1681565b6000600c60008373ffffffffffffffffffffffffffffffffffffffff1673ffffffffffffffffffffffffffffffffffffffff168152602001908152602001600020549050919050565b600860009054906101000a900460ff1681565b6000809054906101000a900473ffffffffffffffffffffffffffffffffffffffff1673ffffffffffffffffffffffffffffffffffffffff163373ffffffffffffffffffffffffffffffffffffffff1614611c4257600080fd5b6004543414611cb9576040517f08c379a000000000000000000000000000000000000000000000000000000000815260040180806020018281038252600e8152602001807f496e76616c696420616d6f756e7400000000000000000000000000000000000081525060200191505060405180910390fd5b6001600b60008060009054906101000a900473ffffffffffffffffffffffffffffffffffffffff1673ffffffffffffffffffffffffffffffffffffffff1673ffffffffffffffffffffffffffffffffffffffff1681526020019081526020016000205414611d8f576040517f08c379a00000000000000000000000000000000000000000000000000000000081526004018080602001828103825260108152602001807f6465706f7369742072657175697265640000000000000000000000000000000081525060200191505060405180910390fd5b6001600b6000600160009054906101000a900473ffffffffffffffffffffffffffffffffffffffff1673ffffffffffffffffffffffffffffffffffffffff1673ffffffffffffffffffffffffffffffffffffffff1681526020019081526020016000205414611e66576040517f08c379a00000000000000000000000000000000000000000000000000000000081526004018080602001828103825260108152602001807f6465706f7369742072657175697265640000000000000000000000000000000081525060200191505060405180910390fd5b6000600c60003373ffffffffffffffffffffffffffffffffffffffff1673ffffffffffffffffffffffffffffffffffffffff1681526020019081526020016000205414611f1b576040517f08c379a000000000000000000000000000000000000000000000000000000000815260040180806020018281038252600c8152602001807f616d6f756e74206578697374000000000000000000000000000000000000000081525060200191505060405180910390fd5b6001600c60003373ffffffffffffffffffffffffffffffffffffffff1673ffffffffffffffffffffffffffffffffffffffff168152602001908152602001600020819055507fdbafb049923bd24c9143b7aea787bb9133f12c9bc10e8ff7f1be6e2f13028c9760405180806020018281038252602f8152602001806139ca602f913960400191505060405180910390a1565b600260009054906101000a900473ffffffffffffffffffffffffffffffffffffffff1681565b6000809054906101000a900473ffffffffffffffffffffffffffffffffffffffff1673ffffffffffffffffffffffffffffffffffffffff163373ffffffffffffffffffffffffffffffffffffffff161461202c57600080fd5b60055434146120a3576040517f08c379a000000000000000000000000000000000000000000000000000000000815260040180806020018281038252600f8152602001807f496e76616c6964206465706f736974000000000000000000000000000000000081525060200191505060405180910390fd5b6000600b60003373ffffffffffffffffffffffffffffffffffffffff1673ffffffffffffffffffffffffffffffffffffffff1681526020019081526020016000205414612158576040517f08c379a00000000000000000000000000000000000000000000000000000000081526004018080602001828103825260098152602001807f4465706f7369746564000000000000000000000000000000000000000000000081525060200191505060405180910390fd5b6001600b60003373ffffffffffffffffffffffffffffffffffffffff1673ffffffffffffffffffffffffffffffffffffffff168152602001908152602001600020819055507f0109c07b399c647a3567815a956a02e0badfd3ed527a3fdb992031fae5d005f93334604051808373ffffffffffffffffffffffffffffffffffffffff1673ffffffffffffffffffffffffffffffffffffffff16815260200180602001838152602001828103825260098152602001807f6465706f73697465640000000000000000000000000000000000000000000000815250602001935050505060405180910390a1565b6000809054906101000a900473ffffffffffffffffffffffffffffffffffffffff1673ffffffffffffffffffffffffffffffffffffffff163373ffffffffffffffffffffffffffffffffffffffff161461229c57600080fd5b6001600b60008060009054906101000a900473ffffffffffffffffffffffffffffffffffffffff1673ffffffffffffffffffffffffffffffffffffffff1673ffffffffffffffffffffffffffffffffffffffff1681526020019081526020016000205414612372576040517f08c379a00000000000000000000000000000000000000000000000000000000081526004018080602001828103825260108152602001807f6465706f7369742072657175697265640000000000000000000000000000000081525060200191505060405180910390fd5b6001600b6000600160009054906101000a900473ffffffffffffffffffffffffffffffffffffffff1673ffffffffffffffffffffffffffffffffffffffff1673ffffffffffffffffffffffffffffffffffffffff1681526020019081526020016000205414612449576040517f08c379a00000000000000000000000000000000000000000000000000000000081526004018080602001828103825260108152602001807f6465706f7369742072657175697265640000000000000000000000000000000081525060200191505060405180910390fd5b6001600c60008060009054906101000a900473ffffffffffffffffffffffffffffffffffffffff1673ffffffffffffffffffffffffffffffffffffffff1673ffffffffffffffffffffffffffffffffffffffff168152602001908152602001600020541461251f576040517f08c379a000000000000000000000000000000000000000000000000000000000815260040180806020018281038252600f8152602001807f616d6f756e74207265717569726564000000000000000000000000000000000081525060200191505060405180910390fd5b6001600860006101000a81548160ff021916908315150217905550600160009054906101000a900473ffffffffffffffffffffffffffffffffffffffff1673ffffffffffffffffffffffffffffffffffffffff166108fc6004549081150290604051600060405180830381858888f193505050501580156125a4573d6000803e3d6000fd5b506000809054906101000a900473ffffffffffffffffffffffffffffffffffffffff1673ffffffffffffffffffffffffffffffffffffffff166108fc6005549081150290604051600060405180830381858888f1935050505015801561260e573d6000803e3d6000fd5b50600160009054906101000a900473ffffffffffffffffffffffffffffffffffffffff1673ffffffffffffffffffffffffffffffffffffffff166108fc6005549081150290604051600060405180830381858888f19350505050158015612679573d6000803e3d6000fd5b507fd54aabd3141f0694c3f533b346119d27c2eb3248d4f866d6bd8299c78b128daf6040518080602001828103825260538152602001806139426053913960600191505060405180910390a1565b60045481565b600b6020528060005260406000206000915090505481565b6001600b60008060009054906101000a900473ffffffffffffffffffffffffffffffffffffffff1673ffffffffffffffffffffffffffffffffffffffff1673ffffffffffffffffffffffffffffffffffffffff16815260200190815260200160002054146127bb576040517f08c379a00000000000000000000000000000000000000000000000000000000081526004018080602001828103825260108152602001807f6465706f7369742072657175697265640000000000000000000000000000000081525060200191505060405180910390fd5b6001600b6000600160009054906101000a900473ffffffffffffffffffffffffffffffffffffffff1673ffffffffffffffffffffffffffffffffffffffff1673ffffffffffffffffffffffffffffffffffffffff1681526020019081526020016000205414612892576040517f08c379a00000000000000000000000000000000000000000000000000000000081526004018080602001828103825260108152602001807f6465706f7369742072657175697265640000000000000000000000000000000081525060200191505060405180910390fd5b6001600c60008060009054906101000a900473ffffffffffffffffffffffffffffffffffffffff1673ffffffffffffffffffffffffffffffffffffffff1673ffffffffffffffffffffffffffffffffffffffff1681526020019081526020016000205414612968576040517f08c379a000000000000000000000000000000000000000000000000000000000815260040180806020018281038252600f8152602001807f616d6f756e74207265717569726564000000000000000000000000000000000081525060200191505060405180910390fd5b6003600660016101000a81548160ff0219169083600381111561298757fe5b0217905550612a6660078054600181600116156101000203166002900480601f016020809104026020016040519081016040528092919081815260200182805460018160011615610100020316600290048015612a255780601f106129fa57610100808354040283529160200191612a25565b820191906000526020600020905b815481529060010190602001808311612a0857829003601f168201915b50505050506040518060400160405280600381526020017f200a20000000000000000000000000000000000000000000000000000000000081525083613780565b60079080519060200190612a7b92919061389c565b507fb9011ad8795709fdc44e4dc9cdf74ad000a963e2f1f831535863bd0f5550def8604051808060200182810382526028815260200180613ab06028913960400191505060405180910390a150565b6000809054906101000a900473ffffffffffffffffffffffffffffffffffffffff1673ffffffffffffffffffffffffffffffffffffffff163373ffffffffffffffffffffffffffffffffffffffff1614612b2357600080fd5b6001600b60008060009054906101000a900473ffffffffffffffffffffffffffffffffffffffff1673ffffffffffffffffffffffffffffffffffffffff1673ffffffffffffffffffffffffffffffffffffffff1681526020019081526020016000205414612bf9576040517f08c379a00000000000000000000000000000000000000000000000000000000081526004018080602001828103825260108152602001807f6465706f7369742072657175697265640000000000000000000000000000000081525060200191505060405180910390fd5b6000600b6000600160009054906101000a900473ffffffffffffffffffffffffffffffffffffffff1673ffffffffffffffffffffffffffffffffffffffff1673ffffffffffffffffffffffffffffffffffffffff1681526020019081526020016000205414612cd0576040517f08c379a00000000000000000000000000000000000000000000000000000000081526004018080602001828103825260108152602001807f6465706f7369742072657175697265640000000000000000000000000000000081525060200191505060405180910390fd5b6000600b60008060009054906101000a900473ffffffffffffffffffffffffffffffffffffffff1673ffffffffffffffffffffffffffffffffffffffff1673ffffffffffffffffffffffffffffffffffffffff168152602001908152602001600020819055506000809054906101000a900473ffffffffffffffffffffffffffffffffffffffff1673ffffffffffffffffffffffffffffffffffffffff166108fc6005549081150290604051600060405180830381858888f19350505050158015612d9f573d6000803e3d6000fd5b507f022a173fa68fb425cd1264890a0951b5a57aa7f1fcdc49e3262e86c1189ec9b16040518080602001828103825260168152602001807f6275796572207265766572736564206465706f7369740000000000000000000081525060200191505060405180910390a1565b606060006003811115612e1957fe5b600660019054906101000a900460ff166003811115612e3457fe5b1415612e77576040518060400160405280600481526020017f4f70656e000000000000000000000000000000000000000000000000000000008152509050612f85565b60016003811115612e8457fe5b600660019054906101000a900460ff166003811115612e9f57fe5b1415612ee2576040518060400160405280600781526020017f50656e64696e67000000000000000000000000000000000000000000000000008152509050612f85565b600380811115612eee57fe5b600660019054906101000a900460ff166003811115612f0957fe5b1415612f4c576040518060400160405280600e81526020017f5265717565737420416374696f6e0000000000000000000000000000000000008152509050612f85565b6040518060400160405280600681526020017f436c6f736564000000000000000000000000000000000000000000000000000081525090505b90565b600a6020528060005260406000206000915090505481565b60055481565b600660009054906101000a900460ff1681565b600160009054906101000a900473ffffffffffffffffffffffffffffffffffffffff1673ffffffffffffffffffffffffffffffffffffffff163373ffffffffffffffffffffffffffffffffffffffff161461301357600080fd5b6001600b60008060009054906101000a900473ffffffffffffffffffffffffffffffffffffffff1673ffffffffffffffffffffffffffffffffffffffff1673ffffffffffffffffffffffffffffffffffffffff16815260200190815260200160002054146130e9576040517f08c379a00000000000000000000000000000000000000000000000000000000081526004018080602001828103825260108152602001807f6465706f7369742072657175697265640000000000000000000000000000000081525060200191505060405180910390fd5b6001600b6000600160009054906101000a900473ffffffffffffffffffffffffffffffffffffffff1673ffffffffffffffffffffffffffffffffffffffff1673ffffffffffffffffffffffffffffffffffffffff16815260200190815260200160002054146131c0576040517f08c379a00000000000000000000000000000000000000000000000000000000081526004018080602001828103825260108152602001807f6465706f7369742072657175697265640000000000000000000000000000000081525060200191505060405180910390fd5b6001600c60008060009054906101000a900473ffffffffffffffffffffffffffffffffffffffff1673ffffffffffffffffffffffffffffffffffffffff1673ffffffffffffffffffffffffffffffffffffffff1681526020019081526020016000205414613296576040517f08c379a000000000000000000000000000000000000000000000000000000000815260040180806020018281038252600f8152602001807f616d6f756e74207265717569726564000000000000000000000000000000000081525060200191505060405180910390fd5b6001600860006101000a81548160ff0219169083151502179055506000809054906101000a900473ffffffffffffffffffffffffffffffffffffffff1673ffffffffffffffffffffffffffffffffffffffff166108fc6004549081150290604051600060405180830381858888f1935050505015801561331a573d6000803e3d6000fd5b50600160009054906101000a900473ffffffffffffffffffffffffffffffffffffffff1673ffffffffffffffffffffffffffffffffffffffff166108fc6005549081150290604051600060405180830381858888f19350505050158015613385573d6000803e3d6000fd5b506000809054906101000a900473ffffffffffffffffffffffffffffffffffffffff1673ffffffffffffffffffffffffffffffffffffffff166108fc6005549081150290604051600060405180830381858888f193505050501580156133ef573d6000803e3d6000fd5b507f1355ee9ef69549a50f8d0008c6cd588a9759815d1b30ee62ed168c2bb7a24a626040518080602001828103825260578152602001806139f96057913960600191505060405180910390a1565b600160009054906101000a900473ffffffffffffffffffffffffffffffffffffffff1673ffffffffffffffffffffffffffffffffffffffff163373ffffffffffffffffffffffffffffffffffffffff161461349757600080fd5b6001600b6000600160009054906101000a900473ffffffffffffffffffffffffffffffffffffffff1673ffffffffffffffffffffffffffffffffffffffff1673ffffffffffffffffffffffffffffffffffffffff168152602001908152602001600020541461356e576040517f08c379a00000000000000000000000000000000000000000000000000000000081526004018080602001828103825260108152602001807f6465706f7369742072657175697265640000000000000000000000000000000081525060200191505060405180910390fd5b6000600b60008060009054906101000a900473ffffffffffffffffffffffffffffffffffffffff1673ffffffffffffffffffffffffffffffffffffffff1673ffffffffffffffffffffffffffffffffffffffff1681526020019081526020016000205414613644576040517f08c379a00000000000000000000000000000000000000000000000000000000081526004018080602001828103825260108152602001807f6465706f7369742072657175697265640000000000000000000000000000000081525060200191505060405180910390fd5b6000600b6000600160009054906101000a900473ffffffffffffffffffffffffffffffffffffffff1673ffffffffffffffffffffffffffffffffffffffff1673ffffffffffffffffffffffffffffffffffffffff16815260200190815260200160002081905550600160009054906101000a900473ffffffffffffffffffffffffffffffffffffffff1673ffffffffffffffffffffffffffffffffffffffff166108fc6005549081150290604051600060405180830381858888f19350505050158015613715573d6000803e3d6000fd5b507f68899ad50909030043672ec750f7e234201226c34f9efa036d99c5432d220a396040518080602001828103825260178152602001807f73656c6c6572207265766572736564206465706f73697400000000000000000081525060200191505060405180910390a1565b60608383836040516020018084805190602001908083835b602083106137bb5780518252602082019150602081019050602083039250613798565b6001836020036101000a03801982511681845116808217855250505050505090500183805190602001908083835b6020831061380c57805182526020820191506020810190506020830392506137e9565b6001836020036101000a03801982511681845116808217855250505050505090500182805190602001908083835b6020831061385d578051825260208201915060208101905060208303925061383a565b6001836020036101000a038019825116818451168082178552505050505050905001935050505060405160208183030381529060405290509392505050565b828054600181600116156101000203166002900490600052602060002090601f016020900481019282601f106138dd57805160ff191683800117855561390b565b8280016001018555821561390b579182015b8281111561390a5782518255916020019190600101906138ef565b5b509050613918919061391c565b5090565b61393e91905b8082111561393a576000816000905550600101613922565b5090565b9056fe5468652073656c6c657220686173206265656e207061696420616e6420616c6c206465706f736974732068617665206265656e2072657475726e6564202d207472616e73616374696f6e20636f6d706c657465746865206465706f73697420636c61696d206861732031206f7574206f662032206e6563657373617279207369676e6174757265734275796572206861732073656e7420746865207061796d656e7420616d6f756e7420746f2074686520657363726f7754686520627579657220686173206265656e20726566756e64656420616e6420616c6c206465706f736974732068617665206265656e2072657475726e6564202d207472616e73616374696f6e2063616e63656c6c656454686520636f6e747261637420686173206265656e20636f6d706c6574656c792072657665727465642062792061646d696e2e20416c6c206465706f7369747320616e6420616d6f756e74732068617665206265656e20726566756e6465642e416e20616374696f6e2066726f6d2061646d696e20686173206265656e207265717565737465642ea265627a7a723158205436275e0186c118890c05abbb74d4c93ac57e8d11ddbecc3829b63eadc347b064736f6c63430005110032a365627a7a7231582082f454627afe8cc83a8c26f7f056002dcd29cec3fb1fa745903cf2062b62e7e76c6578706572696d656e74616cf564736f6c63430005110040",
  "source": "pragma solidity ^0.5.16;\npragma experimental ABIEncoderV2;\n\nimport \"./EscrowFactory.sol\";\n\ncontract EscrowExchange {\n\tuint public contractCount = 0;\n\taddress payable public owner;\n\tmapping(address => uint[]) public addressToIndex; // i.e. [0, 4, 5, 6, 8, 10] contract indices\n\tmapping(address => mapping(uint => bool)) public addressContractIndexExists; // Booleans to check whether an contract index (i.e. contract id) exists for this user.\n\tmapping(uint => EscrowFactory) public contractIndexesForUsers; // Map of id to the contract. Used to retrieve the contract\n\n\tevent ContractCreated(address buyer, address seller, uint amount, uint deposit, uint signatureCount, string status, string notes, bool depositMade);\n\n\tconstructor() public {\n\t\towner = msg.sender;\n\t}\n\n\tfunction getContractForCurrentUser(uint index) public view returns (uint, address, address, uint, uint, uint, string memory, string memory, uint, uint, uint, address){\n\t\tif (addressContractIndexExists[msg.sender][index]) {\n\t \t\tEscrowFactory retrieved_contract = contractIndexesForUsers[index];\n\t\t\n\t \t\taddress buyer = retrieved_contract.buyer();\n\n\t        return ( index,\n\t        \tbuyer, \n\t        \tretrieved_contract.seller(), \n\t        \tretrieved_contract.amount(),\n\t        \tretrieved_contract.deposit(), \n\t        \tretrieved_contract.signatureCount(),\n\t        \tretrieved_contract.getContractStatus(), \n\t        \tretrieved_contract.notes(),\n\t        \tretrieved_contract.getIfAddressDeposited(msg.sender),\n\t        \tretrieved_contract.getAmountCheck(buyer),\n\t        \tretrieved_contract.getSignature(msg.sender),\n\t        \taddress(retrieved_contract)\n\t        );\n\t\t}\n    }\n\n    /* PURPOSE: Return the index of the last contract for the user, so we know how many to iterate up to.\n\t\tIf statement - the sender has no contracts, return 0, so we don't iterate.\n\t\tElse if statement - the sender has 1 contract, get the contract id, and iterate up to that id to get the contract details\n\t\tElse statement - sender has multiple contracts, get the contract id of the last contract in the array, we will iterate up to that contract id to get all their contracts.\n    */\n    function getContractCountForCurrentUser() external view returns (uint) {\n    \tif (addressToIndex[msg.sender].length == 0) {\n    \t\treturn 0;\n    \t} else if (addressToIndex[msg.sender].length == 1) {\n    \t\treturn addressToIndex[msg.sender][0] + 1;\n    \t} else {\n\t    \tuint lastContractId = addressToIndex[msg.sender].length; // Get the length of the user's uint addressToIndex (array of contracts)\n\t\t    return addressToIndex[msg.sender][lastContractId - 1] + 1; // To access the last contract id user made, so we don't have to iterate entire contract array. We do +1 to take into account the user's last contract.\n    \t}\n\t }\n\n    function createContract(address payable buyer, address payable seller, uint amount, uint deposit, string memory notes) public {\n    \trequire(buyer != address(0), \"Invalid buyer\");\n    \trequire(seller != address(0), \"Invalid seller\");\n    \trequire(amount > 0);\n    \trequire(deposit > 0);\n    \tEscrowFactory newContract = new EscrowFactory(buyer, seller, amount, deposit, notes, owner);\n    \tcontractIndexesForUsers[contractCount] = newContract;\n    \taddressToIndex[buyer].push(contractCount);\n    \taddressToIndex[seller].push(contractCount);\n    \taddressContractIndexExists[buyer][contractCount] = true;\n    \taddressContractIndexExists[seller][contractCount] = true;\n    \tcontractCount = contractCount + 1;\n\n    \temit ContractCreated(buyer, seller, amount, deposit, 0, \"Open\", notes, false);\n    }\n}",
  "sourcePath": "/Users/donaldlee/Developer/PointsExchange/contracts/EscrowExchange.sol",
  "compiler": {
    "name": "solc",
    "version": "0.5.17+commit.d19bba13.Emscripten.clang"
  },
  "schemaVersion": "3.3.3",
  "updatedAt": "2021-07-22T01:00:50.860Z",
  "networkType": "ethereum",
  "devdoc": {
    "methods": {}
  },
  "userdoc": {
    "methods": {}
  }
}