{
  "contractName": "EscrowFactory",
  "abi": [
    {
      "inputs": [
        {
          "internalType": "address payable",
          "name": "_buyer",
          "type": "address"
        },
        {
          "internalType": "address payable",
          "name": "_seller",
          "type": "address"
        },
        {
          "internalType": "uint256",
          "name": "_amount",
          "type": "uint256"
        },
        {
          "internalType": "uint256",
          "name": "_deposit",
          "type": "uint256"
        },
        {
          "internalType": "string",
          "name": "_notes",
          "type": "string"
        }
      ],
      "payable": false,
      "stateMutability": "nonpayable",
      "type": "constructor"
    },
    {
      "anonymous": false,
      "inputs": [
        {
          "indexed": false,
          "internalType": "string",
          "name": "msg",
          "type": "string"
        }
      ],
      "name": "AmountSent",
      "type": "event"
    },
    {
      "anonymous": false,
      "inputs": [
        {
          "indexed": false,
          "internalType": "string",
          "name": "msg",
          "type": "string"
        }
      ],
      "name": "BuyerDepositReversed",
      "type": "event"
    },
    {
      "anonymous": false,
      "inputs": [
        {
          "indexed": false,
          "internalType": "address",
          "name": "from",
          "type": "address"
        },
        {
          "indexed": false,
          "internalType": "string",
          "name": "msg",
          "type": "string"
        },
        {
          "indexed": false,
          "internalType": "uint256",
          "name": "amount",
          "type": "uint256"
        }
      ],
      "name": "BuyerDeposited",
      "type": "event"
    },
    {
      "anonymous": false,
      "inputs": [
        {
          "indexed": false,
          "internalType": "string",
          "name": "msg",
          "type": "string"
        }
      ],
      "name": "BuyerRefunded",
      "type": "event"
    },
    {
      "anonymous": false,
      "inputs": [
        {
          "indexed": false,
          "internalType": "string",
          "name": "msg",
          "type": "string"
        }
      ],
      "name": "DepositPartialClaim",
      "type": "event"
    },
    {
      "anonymous": false,
      "inputs": [
        {
          "indexed": false,
          "internalType": "string",
          "name": "msg",
          "type": "string"
        }
      ],
      "name": "DepositsClaimed",
      "type": "event"
    },
    {
      "anonymous": false,
      "inputs": [
        {
          "indexed": false,
          "internalType": "string",
          "name": "msg",
          "type": "string"
        }
      ],
      "name": "SellerDepositReversed",
      "type": "event"
    },
    {
      "anonymous": false,
      "inputs": [
        {
          "indexed": false,
          "internalType": "address",
          "name": "from",
          "type": "address"
        },
        {
          "indexed": false,
          "internalType": "string",
          "name": "msg",
          "type": "string"
        },
        {
          "indexed": false,
          "internalType": "uint256",
          "name": "amount",
          "type": "uint256"
        }
      ],
      "name": "SellerDeposited",
      "type": "event"
    },
    {
      "anonymous": false,
      "inputs": [
        {
          "indexed": false,
          "internalType": "string",
          "name": "msg",
          "type": "string"
        }
      ],
      "name": "SellerPaid",
      "type": "event"
    },
    {
      "constant": true,
      "inputs": [],
      "name": "amount",
      "outputs": [
        {
          "internalType": "uint256",
          "name": "",
          "type": "uint256"
        }
      ],
      "payable": false,
      "stateMutability": "view",
      "type": "function"
    },
    {
      "constant": true,
      "inputs": [
        {
          "internalType": "address",
          "name": "",
          "type": "address"
        }
      ],
      "name": "amountCheck",
      "outputs": [
        {
          "internalType": "uint256",
          "name": "",
          "type": "uint256"
        }
      ],
      "payable": false,
      "stateMutability": "view",
      "type": "function"
    },
    {
      "constant": true,
      "inputs": [],
      "name": "buyer",
      "outputs": [
        {
          "internalType": "address payable",
          "name": "",
          "type": "address"
        }
      ],
      "payable": false,
      "stateMutability": "view",
      "type": "function"
    },
    {
      "constant": true,
      "inputs": [],
      "name": "deposit",
      "outputs": [
        {
          "internalType": "uint256",
          "name": "",
          "type": "uint256"
        }
      ],
      "payable": false,
      "stateMutability": "view",
      "type": "function"
    },
    {
      "constant": true,
      "inputs": [
        {
          "internalType": "address",
          "name": "",
          "type": "address"
        }
      ],
      "name": "depositCheck",
      "outputs": [
        {
          "internalType": "uint256",
          "name": "",
          "type": "uint256"
        }
      ],
      "payable": false,
      "stateMutability": "view",
      "type": "function"
    },
    {
      "constant": true,
      "inputs": [],
      "name": "notes",
      "outputs": [
        {
          "internalType": "string",
          "name": "",
          "type": "string"
        }
      ],
      "payable": false,
      "stateMutability": "view",
      "type": "function"
    },
    {
      "constant": true,
      "inputs": [
        {
          "internalType": "uint256",
          "name": "",
          "type": "uint256"
        }
      ],
      "name": "party",
      "outputs": [
        {
          "internalType": "address",
          "name": "",
          "type": "address"
        }
      ],
      "payable": false,
      "stateMutability": "view",
      "type": "function"
    },
    {
      "constant": true,
      "inputs": [],
      "name": "seller",
      "outputs": [
        {
          "internalType": "address payable",
          "name": "",
          "type": "address"
        }
      ],
      "payable": false,
      "stateMutability": "view",
      "type": "function"
    },
    {
      "constant": true,
      "inputs": [],
      "name": "signatureCount",
      "outputs": [
        {
          "internalType": "uint256",
          "name": "",
          "type": "uint256"
        }
      ],
      "payable": false,
      "stateMutability": "view",
      "type": "function"
    },
    {
      "constant": true,
      "inputs": [
        {
          "internalType": "address",
          "name": "",
          "type": "address"
        }
      ],
      "name": "signatures",
      "outputs": [
        {
          "internalType": "uint256",
          "name": "",
          "type": "uint256"
        }
      ],
      "payable": false,
      "stateMutability": "view",
      "type": "function"
    },
    {
      "constant": true,
      "inputs": [],
      "name": "status",
      "outputs": [
        {
          "internalType": "enum EscrowFactory.Status",
          "name": "",
          "type": "uint8"
        }
      ],
      "payable": false,
      "stateMutability": "view",
      "type": "function"
    },
    {
      "constant": false,
      "inputs": [],
      "name": "buyerDeposit",
      "outputs": [],
      "payable": true,
      "stateMutability": "payable",
      "type": "function"
    },
    {
      "constant": false,
      "inputs": [],
      "name": "sellerDeposit",
      "outputs": [],
      "payable": true,
      "stateMutability": "payable",
      "type": "function"
    },
    {
      "constant": false,
      "inputs": [],
      "name": "reverseBuyerDeposit",
      "outputs": [],
      "payable": false,
      "stateMutability": "nonpayable",
      "type": "function"
    },
    {
      "constant": false,
      "inputs": [],
      "name": "reverseSellerDeposit",
      "outputs": [],
      "payable": false,
      "stateMutability": "nonpayable",
      "type": "function"
    },
    {
      "constant": false,
      "inputs": [],
      "name": "claimDeposits",
      "outputs": [],
      "payable": false,
      "stateMutability": "nonpayable",
      "type": "function"
    },
    {
      "constant": false,
      "inputs": [],
      "name": "sendAmount",
      "outputs": [],
      "payable": true,
      "stateMutability": "payable",
      "type": "function"
    },
    {
      "constant": false,
      "inputs": [],
      "name": "paySeller",
      "outputs": [],
      "payable": false,
      "stateMutability": "nonpayable",
      "type": "function"
    },
    {
      "constant": false,
      "inputs": [],
      "name": "refundBuyer",
      "outputs": [],
      "payable": false,
      "stateMutability": "nonpayable",
      "type": "function"
    },
    {
      "constant": true,
      "inputs": [],
      "name": "getBuyer",
      "outputs": [
        {
          "internalType": "address",
          "name": "",
          "type": "address"
        }
      ],
      "payable": false,
      "stateMutability": "view",
      "type": "function"
    },
    {
      "constant": true,
      "inputs": [],
      "name": "getSeller",
      "outputs": [
        {
          "internalType": "address",
          "name": "",
          "type": "address"
        }
      ],
      "payable": false,
      "stateMutability": "view",
      "type": "function"
    },
    {
      "constant": true,
      "inputs": [],
      "name": "getAmount",
      "outputs": [
        {
          "internalType": "uint256",
          "name": "",
          "type": "uint256"
        }
      ],
      "payable": false,
      "stateMutability": "view",
      "type": "function"
    },
    {
      "constant": true,
      "inputs": [],
      "name": "getDeposit",
      "outputs": [
        {
          "internalType": "uint256",
          "name": "",
          "type": "uint256"
        }
      ],
      "payable": false,
      "stateMutability": "view",
      "type": "function"
    },
    {
      "constant": true,
      "inputs": [],
      "name": "getSignatureCount",
      "outputs": [
        {
          "internalType": "uint256",
          "name": "",
          "type": "uint256"
        }
      ],
      "payable": false,
      "stateMutability": "view",
      "type": "function"
    },
    {
      "constant": true,
      "inputs": [],
      "name": "getNotes",
      "outputs": [
        {
          "internalType": "string",
          "name": "",
          "type": "string"
        }
      ],
      "payable": false,
      "stateMutability": "view",
      "type": "function"
    },
    {
      "constant": true,
      "inputs": [
        {
          "internalType": "address",
          "name": "a",
          "type": "address"
        }
      ],
      "name": "getIfAddressDeposited",
      "outputs": [
        {
          "internalType": "uint256",
          "name": "",
          "type": "uint256"
        }
      ],
      "payable": false,
      "stateMutability": "view",
      "type": "function"
    },
    {
      "constant": true,
      "inputs": [],
      "name": "getContractStatus",
      "outputs": [
        {
          "internalType": "string",
          "name": "",
          "type": "string"
        }
      ],
      "payable": false,
      "stateMutability": "view",
      "type": "function"
    },
    {
      "constant": true,
      "inputs": [
        {
          "internalType": "address",
          "name": "a",
          "type": "address"
        }
      ],
      "name": "getSignature",
      "outputs": [
        {
          "internalType": "uint256",
          "name": "",
          "type": "uint256"
        }
      ],
      "payable": false,
      "stateMutability": "view",
      "type": "function"
    },
    {
      "constant": true,
      "inputs": [
        {
          "internalType": "address",
          "name": "a",
          "type": "address"
        }
      ],
      "name": "getAmountCheck",
      "outputs": [
        {
          "internalType": "uint256",
          "name": "",
          "type": "uint256"
        }
      ],
      "payable": false,
      "stateMutability": "view",
      "type": "function"
    }
  ],
  "bytecode": "0x60806040523480156200001157600080fd5b5060405162002fb238038062002fb2833981810160405260a08110156200003757600080fd5b8101908080519060200190929190805190602001909291908051906020019092919080519060200190929190805160405193929190846401000000008211156200008057600080fd5b838201915060208201858111156200009757600080fd5b8251866001820283011164010000000082111715620000b557600080fd5b8083526020830192505050908051906020019080838360005b83811015620000eb578082015181840152602081019050620000ce565b50505050905090810190601f168015620001195780820380516001836020036101000a031916815260200191505b50604052505050846000806101000a81548173ffffffffffffffffffffffffffffffffffffffff021916908373ffffffffffffffffffffffffffffffffffffffff16021790555083600160006101000a81548173ffffffffffffffffffffffffffffffffffffffff021916908373ffffffffffffffffffffffffffffffffffffffff16021790555082600381905550816004819055508060079080519060200190620001c792919062000374565b506000600660006101000a81548160ff02191690836002811115620001e857fe5b021790555060028590806001815401808255809150509060018203906000526020600020016000909192909190916101000a81548173ffffffffffffffffffffffffffffffffffffffff021916908373ffffffffffffffffffffffffffffffffffffffff1602179055505060028490806001815401808255809150509060018203906000526020600020016000909192909190916101000a81548173ffffffffffffffffffffffffffffffffffffffff021916908373ffffffffffffffffffffffffffffffffffffffff160217905550506001600860008773ffffffffffffffffffffffffffffffffffffffff1673ffffffffffffffffffffffffffffffffffffffff16815260200190815260200160002060006101000a81548160ff0219169083151502179055506001600860008673ffffffffffffffffffffffffffffffffffffffff1673ffffffffffffffffffffffffffffffffffffffff16815260200190815260200160002060006101000a81548160ff021916908315150217905550505050505062000423565b828054600181600116156101000203166002900490600052602060002090601f016020900481019282601f10620003b757805160ff1916838001178555620003e8565b82800160010185558215620003e8579182015b82811115620003e7578251825591602001919060010190620003ca565b5b509050620003f79190620003fb565b5090565b6200042091905b808211156200041c57600081600090555060010162000402565b5090565b90565b612b7f80620004336000396000f3fe6080604052600436106101c25760003560e01c8063a0579587116100f7578063c399ec8811610095578063dbd0e1b611610064578063dbd0e1b6146108c8578063e7f55ed61461091f578063e8a61cc81461094a578063f8fe988914610961576101c2565b8063c399ec88146107e2578063c792f36d1461080d578063d0e30db014610872578063d321fe291461089d576101c2565b8063ab404ff0116100d1578063ab404ff014610646578063b4af200d146106ab578063be7e69fd1461073b578063c032846b14610752576101c2565b8063a0579587146105fa578063a0c97bce14610604578063aa8c217c1461061b576101c2565b80634c1786ea116101645780637150d8ae1161013e5780637150d8ae1461050957806386fef2361461056057806389d84af5146105c55780638b2b3d8b146105f0576101c2565b80634c1786ea14610443578063537eeb511461044d578063603daf9a146104b2576101c2565b80631866dc97116101a05780631866dc971461029a578063200d2ed21461032a578063277fc0e914610363578063314fd68f146103c8576101c2565b806303828aee146101c757806308551a531461022c5780631432c28114610283575b600080fd5b3480156101d357600080fd5b50610216600480360360208110156101ea57600080fd5b81019080803573ffffffffffffffffffffffffffffffffffffffff169060200190929190505050610978565b6040518082815260200191505060405180910390f35b34801561023857600080fd5b506102416109c1565b604051808273ffffffffffffffffffffffffffffffffffffffff1673ffffffffffffffffffffffffffffffffffffffff16815260200191505060405180910390f35b34801561028f57600080fd5b506102986109e7565b005b3480156102a657600080fd5b506102af61109e565b6040518080602001828103825283818151815260200191508051906020019080838360005b838110156102ef5780820151818401526020810190506102d4565b50505050905090810190601f16801561031c5780820380516001836020036101000a031916815260200191505b509250505060405180910390f35b34801561033657600080fd5b5061033f61113c565b6040518082600281111561034f57fe5b60ff16815260200191505060405180910390f35b34801561036f57600080fd5b506103b26004803603602081101561038657600080fd5b81019080803573ffffffffffffffffffffffffffffffffffffffff16906020019092919050505061114f565b6040518082815260200191505060405180910390f35b3480156103d457600080fd5b50610401600480360360208110156103eb57600080fd5b8101908080359060200190929190505050611198565b604051808273ffffffffffffffffffffffffffffffffffffffff1673ffffffffffffffffffffffffffffffffffffffff16815260200191505060405180910390f35b61044b6111d4565b005b34801561045957600080fd5b5061049c6004803603602081101561047057600080fd5b81019080803573ffffffffffffffffffffffffffffffffffffffff169060200190929190505050611445565b6040518082815260200191505060405180910390f35b3480156104be57600080fd5b506104c761145d565b604051808273ffffffffffffffffffffffffffffffffffffffff1673ffffffffffffffffffffffffffffffffffffffff16815260200191505060405180910390f35b34801561051557600080fd5b5061051e611486565b604051808273ffffffffffffffffffffffffffffffffffffffff1673ffffffffffffffffffffffffffffffffffffffff16815260200191505060405180910390f35b34801561056c57600080fd5b506105af6004803603602081101561058357600080fd5b81019080803573ffffffffffffffffffffffffffffffffffffffff1690602001909291905050506114ab565b6040518082815260200191505060405180910390f35b3480156105d157600080fd5b506105da6114f4565b6040518082815260200191505060405180910390f35b6105f86114fe565b005b61060261171e565b005b34801561061057600080fd5b5061061961198e565b005b34801561062757600080fd5b50610630611cbc565b6040518082815260200191505060405180910390f35b34801561065257600080fd5b506106956004803603602081101561066957600080fd5b81019080803573ffffffffffffffffffffffffffffffffffffffff169060200190929190505050611cc2565b6040518082815260200191505060405180910390f35b3480156106b757600080fd5b506106c0611cda565b6040518080602001828103825283818151815260200191508051906020019080838360005b838110156107005780820151818401526020810190506106e5565b50505050905090810190601f16801561072d5780820380516001836020036101000a031916815260200191505b509250505060405180910390f35b34801561074757600080fd5b50610750611d7c565b005b34801561075e57600080fd5b5061076761211e565b6040518080602001828103825283818151815260200191508051906020019080838360005b838110156107a757808201518184015260208101905061078c565b50505050905090810190601f1680156107d45780820380516001836020036101000a031916815260200191505b509250505060405180910390f35b3480156107ee57600080fd5b506107f7612232565b6040518082815260200191505060405180910390f35b34801561081957600080fd5b5061085c6004803603602081101561083057600080fd5b81019080803573ffffffffffffffffffffffffffffffffffffffff16906020019092919050505061223c565b6040518082815260200191505060405180910390f35b34801561087e57600080fd5b50610887612254565b6040518082815260200191505060405180910390f35b3480156108a957600080fd5b506108b261225a565b6040518082815260200191505060405180910390f35b3480156108d457600080fd5b506108dd612264565b604051808273ffffffffffffffffffffffffffffffffffffffff1673ffffffffffffffffffffffffffffffffffffffff16815260200191505060405180910390f35b34801561092b57600080fd5b5061093461228e565b6040518082815260200191505060405180910390f35b34801561095657600080fd5b5061095f612294565b005b34801561096d57600080fd5b506109766125c2565b005b6000600a60008373ffffffffffffffffffffffffffffffffffffffff1673ffffffffffffffffffffffffffffffffffffffff168152602001908152602001600020549050919050565b600160009054906101000a900473ffffffffffffffffffffffffffffffffffffffff1681565b33600860008273ffffffffffffffffffffffffffffffffffffffff1673ffffffffffffffffffffffffffffffffffffffff16815260200190815260200160002060009054906101000a900460ff16610a3e57600080fd5b6001600a60008060009054906101000a900473ffffffffffffffffffffffffffffffffffffffff1673ffffffffffffffffffffffffffffffffffffffff1673ffffffffffffffffffffffffffffffffffffffff1681526020019081526020016000205414610af7576040517f08c379a0000000000000000000000000000000000000000000000000000000008152600401808060200182810382526032815260200180612ac36032913960400191505060405180910390fd5b6001600a6000600160009054906101000a900473ffffffffffffffffffffffffffffffffffffffff1673ffffffffffffffffffffffffffffffffffffffff1673ffffffffffffffffffffffffffffffffffffffff1681526020019081526020016000205414610bb1576040517f08c379a00000000000000000000000000000000000000000000000000000000081526004018080602001828103825260338152602001806128ba6033913960400191505060405180910390fd5b6000600b60008060009054906101000a900473ffffffffffffffffffffffffffffffffffffffff1673ffffffffffffffffffffffffffffffffffffffff1673ffffffffffffffffffffffffffffffffffffffff1681526020019081526020016000205414610c6a576040517f08c379a00000000000000000000000000000000000000000000000000000000081526004018080602001828103825260368152602001806128846036913960400191505060405180910390fd5b6000600960003373ffffffffffffffffffffffffffffffffffffffff1673ffffffffffffffffffffffffffffffffffffffff1681526020019081526020016000205414610d02576040517f08c379a0000000000000000000000000000000000000000000000000000000008152600401808060200182810382526032815260200180612b196032913960400191505060405180910390fd5b6001600960003373ffffffffffffffffffffffffffffffffffffffff1673ffffffffffffffffffffffffffffffffffffffff1681526020019081526020016000208190555060056000815480929190600101919050555060016005541415610db0577f87463abc399fbbddfcd563f22d61267e4c0402b336940699382407adce42e5a260405180806020018281038252603581526020018061299b6035913960400191505060405180910390a15b6002600554141561109b576000809054906101000a900473ffffffffffffffffffffffffffffffffffffffff1673ffffffffffffffffffffffffffffffffffffffff166108fc6004549081150290604051600060405180830381858888f19350505050158015610e24573d6000803e3d6000fd5b50600160009054906101000a900473ffffffffffffffffffffffffffffffffffffffff1673ffffffffffffffffffffffffffffffffffffffff166108fc6004549081150290604051600060405180830381858888f19350505050158015610e8f573d6000803e3d6000fd5b506000600a60008060009054906101000a900473ffffffffffffffffffffffffffffffffffffffff1673ffffffffffffffffffffffffffffffffffffffff1673ffffffffffffffffffffffffffffffffffffffff168152602001908152602001600020819055506000600a6000600160009054906101000a900473ffffffffffffffffffffffffffffffffffffffff1673ffffffffffffffffffffffffffffffffffffffff1673ffffffffffffffffffffffffffffffffffffffff168152602001908152602001600020819055506000600960008060009054906101000a900473ffffffffffffffffffffffffffffffffffffffff1673ffffffffffffffffffffffffffffffffffffffff1673ffffffffffffffffffffffffffffffffffffffff16815260200190815260200160002081905550600060096000600160009054906101000a900473ffffffffffffffffffffffffffffffffffffffff1673ffffffffffffffffffffffffffffffffffffffff1673ffffffffffffffffffffffffffffffffffffffff1681526020019081526020016000208190555060006005819055507fd397a3b1b662401574a4482307d3aaaa5413f8af98a7053e3473935f4d0659ed60405180806020018281038252601f8152602001807f746865206465706f736974732068617665206265656e2072657475726e65640081525060200191505060405180910390a15b50565b60078054600181600116156101000203166002900480601f0160208091040260200160405190810160405280929190818152602001828054600181600116156101000203166002900480156111345780601f1061110957610100808354040283529160200191611134565b820191906000526020600020905b81548152906001019060200180831161111757829003601f168201915b505050505081565b600660009054906101000a900460ff1681565b6000600960008373ffffffffffffffffffffffffffffffffffffffff1673ffffffffffffffffffffffffffffffffffffffff168152602001908152602001600020549050919050565b600281815481106111a557fe5b906000526020600020016000915054906101000a900473ffffffffffffffffffffffffffffffffffffffff1681565b600160009054906101000a900473ffffffffffffffffffffffffffffffffffffffff1673ffffffffffffffffffffffffffffffffffffffff163373ffffffffffffffffffffffffffffffffffffffff161461122e57600080fd5b60045434146112a5576040517f08c379a000000000000000000000000000000000000000000000000000000000815260040180806020018281038252600f8152602001807f496e76616c6964206465706f736974000000000000000000000000000000000081525060200191505060405180910390fd5b6000600a60003373ffffffffffffffffffffffffffffffffffffffff1673ffffffffffffffffffffffffffffffffffffffff168152602001908152602001600020541461135a576040517f08c379a00000000000000000000000000000000000000000000000000000000081526004018080602001828103825260188152602001807f53656c6c657220616c7265616479206465706f7369746564000000000000000081525060200191505060405180910390fd5b6001600a60003373ffffffffffffffffffffffffffffffffffffffff1673ffffffffffffffffffffffffffffffffffffffff168152602001908152602001600020819055507feaa52bf3f740eaa050012695cd117e2182b5c032c7fc36dbcdfc74189f68ab2e3334604051808373ffffffffffffffffffffffffffffffffffffffff1673ffffffffffffffffffffffffffffffffffffffff16815260200180602001838152602001828103825260208152602001807f686173206d61646520746865207265717569726564206465706f736974206f66815250602001935050505060405180910390a1565b600b6020528060005260406000206000915090505481565b60008060009054906101000a900473ffffffffffffffffffffffffffffffffffffffff16905090565b6000809054906101000a900473ffffffffffffffffffffffffffffffffffffffff1681565b6000600b60008373ffffffffffffffffffffffffffffffffffffffff1673ffffffffffffffffffffffffffffffffffffffff168152602001908152602001600020549050919050565b6000600554905090565b6000809054906101000a900473ffffffffffffffffffffffffffffffffffffffff1673ffffffffffffffffffffffffffffffffffffffff163373ffffffffffffffffffffffffffffffffffffffff161461155757600080fd5b600354341461156557600080fd5b6001600a60008060009054906101000a900473ffffffffffffffffffffffffffffffffffffffff1673ffffffffffffffffffffffffffffffffffffffff1673ffffffffffffffffffffffffffffffffffffffff16815260200190815260200160002054146115d257600080fd5b6001600a6000600160009054906101000a900473ffffffffffffffffffffffffffffffffffffffff1673ffffffffffffffffffffffffffffffffffffffff1673ffffffffffffffffffffffffffffffffffffffff168152602001908152602001600020541461164057600080fd5b6000600b60003373ffffffffffffffffffffffffffffffffffffffff1673ffffffffffffffffffffffffffffffffffffffff168152602001908152602001600020541461168c57600080fd5b6001600b60003373ffffffffffffffffffffffffffffffffffffffff1673ffffffffffffffffffffffffffffffffffffffff168152602001908152602001600020819055507fdbafb049923bd24c9143b7aea787bb9133f12c9bc10e8ff7f1be6e2f13028c9760405180806020018281038252602f8152602001806129d0602f913960400191505060405180910390a1565b6000809054906101000a900473ffffffffffffffffffffffffffffffffffffffff1673ffffffffffffffffffffffffffffffffffffffff163373ffffffffffffffffffffffffffffffffffffffff161461177757600080fd5b60045434146117ee576040517f08c379a000000000000000000000000000000000000000000000000000000000815260040180806020018281038252600f8152602001807f496e76616c6964206465706f736974000000000000000000000000000000000081525060200191505060405180910390fd5b6000600a60003373ffffffffffffffffffffffffffffffffffffffff1673ffffffffffffffffffffffffffffffffffffffff16815260200190815260200160002054146118a3576040517f08c379a00000000000000000000000000000000000000000000000000000000081526004018080602001828103825260178152602001807f427579657220616c7265616479206465706f736974656400000000000000000081525060200191505060405180910390fd5b6001600a60003373ffffffffffffffffffffffffffffffffffffffff1673ffffffffffffffffffffffffffffffffffffffff168152602001908152602001600020819055507f0109c07b399c647a3567815a956a02e0badfd3ed527a3fdb992031fae5d005f93334604051808373ffffffffffffffffffffffffffffffffffffffff1673ffffffffffffffffffffffffffffffffffffffff16815260200180602001838152602001828103825260208152602001807f686173206d61646520746865207265717569726564206465706f736974206f66815250602001935050505060405180910390a1565b6000809054906101000a900473ffffffffffffffffffffffffffffffffffffffff1673ffffffffffffffffffffffffffffffffffffffff163373ffffffffffffffffffffffffffffffffffffffff16146119e757600080fd5b6001600a60008060009054906101000a900473ffffffffffffffffffffffffffffffffffffffff1673ffffffffffffffffffffffffffffffffffffffff1673ffffffffffffffffffffffffffffffffffffffff1681526020019081526020016000205414611a5457600080fd5b6001600a6000600160009054906101000a900473ffffffffffffffffffffffffffffffffffffffff1673ffffffffffffffffffffffffffffffffffffffff1673ffffffffffffffffffffffffffffffffffffffff1681526020019081526020016000205414611ac257600080fd5b6001600b60008060009054906101000a900473ffffffffffffffffffffffffffffffffffffffff1673ffffffffffffffffffffffffffffffffffffffff1673ffffffffffffffffffffffffffffffffffffffff1681526020019081526020016000205414611b2f57600080fd5b600160009054906101000a900473ffffffffffffffffffffffffffffffffffffffff1673ffffffffffffffffffffffffffffffffffffffff166108fc6003549081150290604051600060405180830381858888f19350505050158015611b99573d6000803e3d6000fd5b506000809054906101000a900473ffffffffffffffffffffffffffffffffffffffff1673ffffffffffffffffffffffffffffffffffffffff166108fc6004549081150290604051600060405180830381858888f19350505050158015611c03573d6000803e3d6000fd5b50600160009054906101000a900473ffffffffffffffffffffffffffffffffffffffff1673ffffffffffffffffffffffffffffffffffffffff166108fc6004549081150290604051600060405180830381858888f19350505050158015611c6e573d6000803e3d6000fd5b507fd54aabd3141f0694c3f533b346119d27c2eb3248d4f866d6bd8299c78b128daf6040518080602001828103825260538152602001806129126053913960600191505060405180910390a1565b60035481565b600a6020528060005260406000206000915090505481565b606060078054600181600116156101000203166002900480601f016020809104026020016040519081016040528092919081815260200182805460018160011615610100020316600290048015611d725780601f10611d4757610100808354040283529160200191611d72565b820191906000526020600020905b815481529060010190602001808311611d5557829003601f168201915b5050505050905090565b6000809054906101000a900473ffffffffffffffffffffffffffffffffffffffff1673ffffffffffffffffffffffffffffffffffffffff163373ffffffffffffffffffffffffffffffffffffffff1614611dd557600080fd5b6001600a60008060009054906101000a900473ffffffffffffffffffffffffffffffffffffffff1673ffffffffffffffffffffffffffffffffffffffff1673ffffffffffffffffffffffffffffffffffffffff1681526020019081526020016000205414611e8e576040517f08c379a0000000000000000000000000000000000000000000000000000000008152600401808060200182810382526032815260200180612a916032913960400191505060405180910390fd5b6000600a6000600160009054906101000a900473ffffffffffffffffffffffffffffffffffffffff1673ffffffffffffffffffffffffffffffffffffffff1673ffffffffffffffffffffffffffffffffffffffff1681526020019081526020016000205414611f48576040517f08c379a00000000000000000000000000000000000000000000000000000000081526004018080602001828103825260368152602001806129656036913960400191505060405180910390fd5b6000600b60008060009054906101000a900473ffffffffffffffffffffffffffffffffffffffff1673ffffffffffffffffffffffffffffffffffffffff1673ffffffffffffffffffffffffffffffffffffffff1681526020019081526020016000205414612001576040517f08c379a000000000000000000000000000000000000000000000000000000000815260040180806020018281038252603b815260200180612a56603b913960400191505060405180910390fd5b6000600a60008060009054906101000a900473ffffffffffffffffffffffffffffffffffffffff1673ffffffffffffffffffffffffffffffffffffffff1673ffffffffffffffffffffffffffffffffffffffff168152602001908152602001600020819055506000809054906101000a900473ffffffffffffffffffffffffffffffffffffffff1673ffffffffffffffffffffffffffffffffffffffff166108fc6004549081150290604051600060405180830381858888f193505050501580156120d0573d6000803e3d6000fd5b507f022a173fa68fb425cd1264890a0951b5a57aa7f1fcdc49e3262e86c1189ec9b1604051808060200182810382526024815260200180612af56024913960400191505060405180910390a1565b60606000600281111561212d57fe5b600660009054906101000a900460ff16600281111561214857fe5b141561218b576040518060400160405280600481526020017f4f70656e00000000000000000000000000000000000000000000000000000000815250905061222f565b6001600281111561219857fe5b600660009054906101000a900460ff1660028111156121b357fe5b14156121f6576040518060400160405280600781526020017f50656e64696e6700000000000000000000000000000000000000000000000000815250905061222f565b6040518060400160405280600681526020017f436c6f736564000000000000000000000000000000000000000000000000000081525090505b90565b6000600454905090565b60096020528060005260406000206000915090505481565b60045481565b6000600354905090565b6000600160009054906101000a900473ffffffffffffffffffffffffffffffffffffffff16905090565b60055481565b600160009054906101000a900473ffffffffffffffffffffffffffffffffffffffff1673ffffffffffffffffffffffffffffffffffffffff163373ffffffffffffffffffffffffffffffffffffffff16146122ee57600080fd5b6001600a60008060009054906101000a900473ffffffffffffffffffffffffffffffffffffffff1673ffffffffffffffffffffffffffffffffffffffff1673ffffffffffffffffffffffffffffffffffffffff168152602001908152602001600020541461235b57600080fd5b6001600a6000600160009054906101000a900473ffffffffffffffffffffffffffffffffffffffff1673ffffffffffffffffffffffffffffffffffffffff1673ffffffffffffffffffffffffffffffffffffffff16815260200190815260200160002054146123c957600080fd5b6001600b60008060009054906101000a900473ffffffffffffffffffffffffffffffffffffffff1673ffffffffffffffffffffffffffffffffffffffff1673ffffffffffffffffffffffffffffffffffffffff168152602001908152602001600020541461243657600080fd5b6000809054906101000a900473ffffffffffffffffffffffffffffffffffffffff1673ffffffffffffffffffffffffffffffffffffffff166108fc6003549081150290604051600060405180830381858888f1935050505015801561249f573d6000803e3d6000fd5b50600160009054906101000a900473ffffffffffffffffffffffffffffffffffffffff1673ffffffffffffffffffffffffffffffffffffffff166108fc6004549081150290604051600060405180830381858888f1935050505015801561250a573d6000803e3d6000fd5b506000809054906101000a900473ffffffffffffffffffffffffffffffffffffffff1673ffffffffffffffffffffffffffffffffffffffff166108fc6004549081150290604051600060405180830381858888f19350505050158015612574573d6000803e3d6000fd5b507f1355ee9ef69549a50f8d0008c6cd588a9759815d1b30ee62ed168c2bb7a24a626040518080602001828103825260578152602001806129ff6057913960600191505060405180910390a1565b600160009054906101000a900473ffffffffffffffffffffffffffffffffffffffff1673ffffffffffffffffffffffffffffffffffffffff163373ffffffffffffffffffffffffffffffffffffffff161461261c57600080fd5b6001600a6000600160009054906101000a900473ffffffffffffffffffffffffffffffffffffffff1673ffffffffffffffffffffffffffffffffffffffff1673ffffffffffffffffffffffffffffffffffffffff168152602001908152602001600020541461268a57600080fd5b6000600a60008060009054906101000a900473ffffffffffffffffffffffffffffffffffffffff1673ffffffffffffffffffffffffffffffffffffffff1673ffffffffffffffffffffffffffffffffffffffff16815260200190815260200160002054146126f757600080fd5b6000600b60008060009054906101000a900473ffffffffffffffffffffffffffffffffffffffff1673ffffffffffffffffffffffffffffffffffffffff1673ffffffffffffffffffffffffffffffffffffffff168152602001908152602001600020541461276457600080fd5b6000600a6000600160009054906101000a900473ffffffffffffffffffffffffffffffffffffffff1673ffffffffffffffffffffffffffffffffffffffff1673ffffffffffffffffffffffffffffffffffffffff16815260200190815260200160002081905550600160009054906101000a900473ffffffffffffffffffffffffffffffffffffffff1673ffffffffffffffffffffffffffffffffffffffff166108fc6004549081150290604051600060405180830381858888f19350505050158015612835573d6000803e3d6000fd5b507f68899ad50909030043672ec750f7e234201226c34f9efa036d99c5432d220a396040518080602001828103825260258152602001806128ed6025913960400191505060405180910390a156fe7468652062757965722068617320616c72656164792073656e7420616e20616d6f756e7420666f7220636c61696d4465706f736974737468652073656c6c657220686173206e6f74206d6164652061206465706f73697420666f7220636c61696d4465706f736974737468652073656c6c657220686173207265766572736564207468656972206465706f7369745468652073656c6c657220686173206265656e207061696420616e6420616c6c206465706f736974732068617665206265656e2072657475726e6564202d207472616e73616374696f6e20636f6d706c6574657468652073656c6c657220686173206465706f736974656420616c72656164792043414e4e4f5420726576657273654465706f736974746865206465706f73697420636c61696d206861732031206f7574206f662032206e6563657373617279207369676e6174757265734275796572206861732073656e7420746865207061796d656e7420616d6f756e7420746f2074686520657363726f7754686520627579657220686173206265656e20726566756e64656420616e6420616c6c206465706f736974732068617665206265656e2072657475726e6564202d207472616e73616374696f6e2063616e63656c6c65647468652062757965722068617320616c72656164792073656e742074686520616d6f756e742043414e4e4f5420726576657273654465706f73697474686520627579657220686173206e6f7420646573706f73697465642043414e4e4f5420726576657273654465706f73697474686520627579657220686173206e6f74206d6164652061206465706f73697420666f7220636c61696d4465706f7369747374686520627579657220686173207265766572736564207468656972206465706f7369747468652073656e646572206861766520616c7265616479207369676e6564206f6666206f6e20636c61696d4465706f736974a265627a7a72315820db2efcaed111dd2d636376b2e9569fe35148003b4c5cc53cbc17f752ef0e34db64736f6c63430005100032",
  "source": "pragma solidity 0.5.16;\n\nlibrary SafeMath {\n    function mul(uint256 a, uint256 b) internal pure returns(uint256) {\n        uint256 c = a * b;\n        assert(a == 0 || c / a == b);\n        return c;\n    }\n\n    function div(uint256 a, uint256 b) internal pure returns(uint256) {\n        assert(b > 0); // Solidity automatically throws when dividing by 0\n        uint256 c = a / b;\n        assert(a == b * c + a % b); // There is no case in which this doesn't hold\n        return c;\n    }\n\n    function sub(uint256 a, uint256 b) internal pure returns(uint256) {\n        assert(b <= a);\n        return a - b;\n    }\n\n    function add(uint256 a, uint256 b) internal pure returns(uint256) {\n        uint256 c = a + b;\n        assert(c >= a);\n        return c;\n    }\n}\n\ncontract EscrowFactory {\n\tusing SafeMath for uint256;\n\n\tenum Status { OPEN, PENDING, CLOSED }\n\n\t//storage\n    address payable public buyer;\n    address payable public seller;\n    address[] public party;\n    uint public amount;\n    uint public deposit;\n    uint public signatureCount;\n    Status public status;\n\tstring public notes;\n    mapping (address => bool) isAParty;\n    mapping (address => uint) public signatures;\n    mapping (address => uint) public depositCheck;\n    mapping (address => uint) public amountCheck;\n\n    //modifiers\n    //only buyer can access\n    modifier isBuyer() {\n        require(msg.sender == buyer);\n        _;\n    }\n    \n    //only seller can access\n    modifier isSeller() {\n        require(msg.sender == seller);\n        _;\n    }\n    \n    //only the parties involved in the transaction can access.\n    modifier ifIsAParty(address aParty) {\n        require(isAParty[aParty]);\n        _;\n    }\n\n     //events\n    event BuyerDeposited(address from, string msg, uint amount);\n    event SellerDeposited(address from, string msg, uint amount);\n    event BuyerDepositReversed(string msg);\n    event SellerDepositReversed(string msg);\n    event DepositPartialClaim(string msg);\n    event DepositsClaimed(string msg);\n    event AmountSent(string msg);\n    event SellerPaid(string msg);\n    event BuyerRefunded(string msg);\n\n    constructor(address payable _buyer, address payable _seller, uint _amount, uint _deposit, string memory _notes) public {\n\t\tbuyer = _buyer;\n        seller = _seller;\n        amount = _amount;\n        deposit = _deposit;\n        notes = _notes;\n        status = Status.OPEN;\n        party.push(_buyer);\n        party.push(_seller);\n        isAParty[_buyer] = true;\n        isAParty[_seller] = true;\n\t}\n\n\t/* Deposit function for the buyer - checks that the message sender\n    is the buyer, the amount being sent is equal to the deposit amount\n    and restricts the buyer from depositing more than once  TESTED*/\n    function buyerDeposit() public payable isBuyer {\n        require(msg.value == deposit, \"Invalid deposit\"); // Require value submitted is equal to the deposit in the contract.\n        require(depositCheck[msg.sender] == 0, \"Buyer already deposited\"); // Require buyer has not deposited yet\n        depositCheck[msg.sender] = 1; // Set buyer deposited to true\n        emit BuyerDeposited(msg.sender, \"has made the required deposit of\", msg.value);\n    }\n\n    /* Deposit function for the seller - checks that the message sender\n    is the seller, the amount being sent is equal to the deposit amount\n    and restricts the seller from depositing more than once  TESTED*/\n    function sellerDeposit() public payable isSeller {\n        require(msg.value == deposit, \"Invalid deposit\"); // Require value submitted is equal to the deposit in the contract.\n        require(depositCheck[msg.sender] == 0,  \"Seller already deposited\"); // Require seller has not deposited yet\n        depositCheck[msg.sender] = 1;// Set seller deposited to true\n        emit SellerDeposited(msg.sender, \"has made the required deposit of\", msg.value);\n    }\n\n    /* Function for buyer to retrieve deposit in the scenario where only the\n    buyer has interacted with the contract and the transaction is no longer\n    going ahead.*/\n    \n    function reverseBuyerDeposit() public isBuyer {\n        require(depositCheck[buyer] == 1, \"the buyer has not desposited CANNOT reverseDeposit\");\n        require(depositCheck[seller] == 0, \"the seller has deposited already CANNOT reverseDeposit\");\n        require(amountCheck[buyer] == 0, \"the buyer has already sent the amount CANNOT reverseDeposit\"); // To Do: Write a amountcheck test\n        depositCheck[buyer] = 0;\n        buyer.transfer(deposit);\n        emit BuyerDepositReversed(\"the buyer has reversed their deposit\");\n    }\n\n    /* Function for seller to retrieve deposit in the scenario where only the\n    seller has interacted with the contract and the transaction is no longer\n    going ahead.*/\n    \n    function reverseSellerDeposit() public isSeller {\n        require(depositCheck[seller] == 1);\n        require(depositCheck[buyer] == 0);\n        require(amountCheck[buyer] == 0);\n        depositCheck[seller] = 0;\n        seller.transfer(deposit);\n        emit SellerDepositReversed(\"the seller has reversed their deposit\");\n    }\n\n    /* Function for both parties to reverse their deposits when both the buyer\n    and seller have made their deposits but no longer wish to proceed, both must\n    sign off on this by calling this function  TESTED*/\n \n    function claimDeposits() public ifIsAParty(msg.sender) {\n        require(depositCheck[buyer] == 1, \"the buyer has not made a deposit for claimDeposits\");\n        require(depositCheck[seller] == 1, \"the seller has not made a deposit for claimDeposits\");\n        require(amountCheck[buyer] == 0, \"the buyer has already sent an amount for claimDeposits\"); // TODO TEST\n        require(signatures[msg.sender] == 0, \"the sender have already signed off on claimDeposit\");\n        signatures[msg.sender] = 1;\n        signatureCount ++;\n        \n        if (signatureCount == 1) {\n            emit DepositPartialClaim(\"the deposit claim has 1 out of 2 necessary signatures\");\n        }\n        \n        if (signatureCount == 2) {\n            buyer.transfer(deposit);\n            seller.transfer(deposit);\n            depositCheck[buyer] = 0;\n            depositCheck[seller] = 0;\n            signatures[buyer] = 0;\n            signatures[seller] = 0;\n            signatureCount = 0;\n            emit DepositsClaimed(\"the deposits have been returned\");\n        }\n    }\n\n    /* Function to allow the buyer to send the amount which is to eventually\n    be transferred to the seller. Checks that the buyer is sending the correct\n    amount, checks that both seller and buyer have made the required deposits \n    and restricts the buyer from making multiple payments */\n    \n    function sendAmount() public payable isBuyer {\n        require(msg.value == amount); // Check to see correct amount is sent.\n        require(depositCheck[buyer] == 1);\n        require(depositCheck[seller] == 1);\n        require(amountCheck[msg.sender] == 0);\n        amountCheck[msg.sender] = 1;\n        emit AmountSent(\"Buyer has sent the payment amount to the escrow\");\n    }\n\n    /* complete transaction: transferring specified amount to the seller and \n    returning deposits to both parties */\n    /* NEW FUNCTION EXTRA: This should automatically pay seller when it passes expiry time (i.e. the flight time) and then automatically return deposits. Developer fee should be collected here */\n    function paySeller() public isBuyer {\n        require(depositCheck[buyer] == 1);\n        require(depositCheck[seller] == 1);\n        require(amountCheck[buyer] == 1);\n        seller.transfer(amount);\n        buyer.transfer(deposit);\n        seller.transfer(deposit);\n        emit SellerPaid(\"The seller has been paid and all deposits have been returned - transaction complete\");\n    }\n\n    /*cancel transaction: refunding the specified amount to the buyer and \n    returning deposits to both parties */\n    /* NEW FUNCTION EXTRA: This can only be called before the expiry time. (i.e. 1 or 2 days before flight time) and then automatically return deposits. Developer fee should be collected here */\n    function refundBuyer() public isSeller {\n        require(depositCheck[buyer] == 1);\n        require(depositCheck[seller] == 1);\n        require(amountCheck[buyer] == 1);\n        buyer.transfer(amount);\n        seller.transfer(deposit);\n        buyer.transfer(deposit);\n        emit BuyerRefunded(\"The buyer has been refunded and all deposits have been returned - transaction cancelled\");\n    }\n\n    function getBuyer() public view returns (address){\n    \treturn buyer;\n    }\n\n    function getSeller() public view returns (address){\n    \treturn seller;\n    }\n\n    function getAmount() public view returns (uint){\n    \treturn amount;\n    }\n\n    function getDeposit() public view returns (uint){\n    \treturn deposit;\n    }\n\n    function getSignatureCount() public view returns (uint){\n    \treturn signatureCount;\n    }\n\n    function getNotes() public view returns (string memory){\n    \treturn notes;\n    }\n\n    function getIfAddressDeposited(address a) public view returns (uint){\n    \treturn depositCheck[a];\n    }\n\n    function getContractStatus() public view returns (string memory) {\n\t\tif (status == Status.OPEN){\n            return \"Open\";\n        } else if (status == Status.PENDING){\n            return \"Pending\";\n        } else{\n            return \"Closed\";\n        }\n    }\n\n    function getSignature(address a) public view returns (uint) {\n    \treturn signatures[a];\n    }\n\n    function getAmountCheck(address a) public view returns (uint){\n    \treturn amountCheck[a];\n    }\n}",
  "sourcePath": "/Users/donaldlee/Developer/PointsExchange/contracts/EscrowFactory.sol",
  "compiler": {
    "name": "solc",
    "version": "0.5.16+commit.9c3226ce.Emscripten.clang"
  },
  "schemaVersion": "3.3.3",
  "updatedAt": "2021-06-09T01:24:35.038Z",
  "devdoc": {
    "methods": {}
  },
  "userdoc": {
    "methods": {}
  }
}