{
  "contractName": "EscrowExchange",
  "abi": [
    {
      "inputs": [],
      "payable": false,
      "stateMutability": "nonpayable",
      "type": "constructor"
    },
    {
      "constant": true,
      "inputs": [],
      "name": "contractCount",
      "outputs": [
        {
          "internalType": "uint256",
          "name": "",
          "type": "uint256"
        }
      ],
      "payable": false,
      "stateMutability": "view",
      "type": "function"
    },
    {
      "constant": true,
      "inputs": [
        {
          "internalType": "address",
          "name": "",
          "type": "address"
        },
        {
          "internalType": "uint256",
          "name": "",
          "type": "uint256"
        }
      ],
      "name": "contractsForUser",
      "outputs": [
        {
          "internalType": "string",
          "name": "_address",
          "type": "string"
        },
        {
          "internalType": "enum EscrowExchange.Status",
          "name": "_status",
          "type": "uint8"
        }
      ],
      "payable": false,
      "stateMutability": "view",
      "type": "function"
    },
    {
      "constant": true,
      "inputs": [],
      "name": "getContractsForCurrentUser",
      "outputs": [
        {
          "components": [
            {
              "internalType": "string",
              "name": "_address",
              "type": "string"
            },
            {
              "internalType": "enum EscrowExchange.Status",
              "name": "_status",
              "type": "uint8"
            }
          ],
          "internalType": "struct EscrowExchange.EscrowContracts[]",
          "name": "",
          "type": "tuple[]"
        }
      ],
      "payable": false,
      "stateMutability": "view",
      "type": "function"
    },
    {
      "constant": false,
      "inputs": [
        {
          "internalType": "address",
          "name": "_buyer",
          "type": "address"
        },
        {
          "internalType": "address",
          "name": "_seller",
          "type": "address"
        },
        {
          "internalType": "string",
          "name": "_contractAddress",
          "type": "string"
        }
      ],
      "name": "addContractAddressToRegistry",
      "outputs": [],
      "payable": false,
      "stateMutability": "nonpayable",
      "type": "function"
    }
  ],
  "bytecode": "0x60806040526000805534801561001457600080fd5b50610a86806100246000396000f3fe608060405234801561001057600080fd5b506004361061004c5760003560e01c80631cd6865f14610051578063429987361461006f57806386151ebc146100a05780638736381a146100bc575b600080fd5b6100596100da565b6040516100669190610828565b60405180910390f35b61008960048036036100849190810190610687565b610245565b60405161009792919061084a565b60405180910390f35b6100ba60048036036100b59190810190610620565b610328565b005b6100c46104d2565b6040516100d1919061087a565b60405180910390f35b6060600160003373ffffffffffffffffffffffffffffffffffffffff1673ffffffffffffffffffffffffffffffffffffffff168152602001908152602001600020805480602002602001604051908101604052809291908181526020016000905b8282101561023c5783829060005260206000209060020201604051806040016040529081600082018054600181600116156101000203166002900480601f0160208091040260200160405190810160405280929190818152602001828054600181600116156101000203166002900480156101f75780601f106101cc576101008083540402835291602001916101f7565b820191906000526020600020905b8154815290600101906020018083116101da57829003601f168201915b505050505081526020016001820160009054906101000a900460ff16600281111561021e57fe5b600281111561022957fe5b815250508152602001906001019061013b565b50505050905090565b6001602052816000526040600020818154811061025e57fe5b906000526020600020906002020160009150915050806000018054600181600116156101000203166002900480601f01602080910402602001604051908101604052809291908181526020018280546001816001161561010002031660029004801561030b5780601f106102e05761010080835404028352916020019161030b565b820191906000526020600020905b8154815290600101906020018083116102ee57829003601f168201915b5050505050908060010160009054906101000a900460ff16905082565b60008081548092919060010191905055506103416104d8565b60405180604001604052808381526020016000600281111561035f57fe5b8152509050600160008573ffffffffffffffffffffffffffffffffffffffff1673ffffffffffffffffffffffffffffffffffffffff168152602001908152602001600020819080600181540180825580915050906001820390600052602060002090600202016000909192909190915060008201518160000190805190602001906103eb9291906104fd565b5060208201518160010160006101000a81548160ff0219169083600281111561041057fe5b0217905550505050600160008473ffffffffffffffffffffffffffffffffffffffff1673ffffffffffffffffffffffffffffffffffffffff1681526020019081526020016000208190806001815401808255809150509060018203906000526020600020906002020160009091929091909150600082015181600001908051906020019061049f9291906104fd565b5060208201518160010160006101000a81548160ff021916908360028111156104c457fe5b021790555050505050505050565b60005481565b604051806040016040528060608152602001600060028111156104f757fe5b81525090565b828054600181600116156101000203166002900490600052602060002090601f016020900481019282601f1061053e57805160ff191683800117855561056c565b8280016001018555821561056c579182015b8281111561056b578251825591602001919060010190610550565b5b509050610579919061057d565b5090565b61059f91905b8082111561059b576000816000905550600101610583565b5090565b90565b6000813590506105b181610a15565b92915050565b600082601f8301126105c857600080fd5b81356105db6105d6826108c2565b610895565b915080825260208301602083018583830111156105f757600080fd5b6106028382846109b5565b50505092915050565b60008135905061061a81610a2c565b92915050565b60008060006060848603121561063557600080fd5b6000610643868287016105a2565b9350506020610654868287016105a2565b925050604084013567ffffffffffffffff81111561067157600080fd5b61067d868287016105b7565b9150509250925092565b6000806040838503121561069a57600080fd5b60006106a8858286016105a2565b92505060206106b98582860161060b565b9150509250929050565b60006106cf83836107dc565b905092915050565b60006106e2826108fe565b6106ec8185610921565b9350836020820285016106fe856108ee565b8060005b8581101561073a578484038952815161071b85826106c3565b945061072683610914565b925060208a01995050600181019050610702565b50829750879550505050505092915050565b610755816109a3565b82525050565b610764816109a3565b82525050565b600061077582610909565b61077f8185610932565b935061078f8185602086016109c4565b610798816109f7565b840191505092915050565b60006107ae82610909565b6107b88185610943565b93506107c88185602086016109c4565b6107d1816109f7565b840191505092915050565b600060408301600083015184820360008601526107f9828261076a565b915050602083015161080e602086018261074c565b508091505092915050565b61082281610999565b82525050565b6000602082019050818103600083015261084281846106d7565b905092915050565b6000604082019050818103600083015261086481856107a3565b9050610873602083018461075b565b9392505050565b600060208201905061088f6000830184610819565b92915050565b6000604051905081810181811067ffffffffffffffff821117156108b857600080fd5b8060405250919050565b600067ffffffffffffffff8211156108d957600080fd5b601f19601f8301169050602081019050919050565b6000819050602082019050919050565b600081519050919050565b600081519050919050565b6000602082019050919050565b600082825260208201905092915050565b600082825260208201905092915050565b600082825260208201905092915050565b600061095f82610979565b9050919050565b600081905061097482610a08565b919050565b600073ffffffffffffffffffffffffffffffffffffffff82169050919050565b6000819050919050565b60006109ae82610966565b9050919050565b82818337600083830152505050565b60005b838110156109e25780820151818401526020810190506109c7565b838111156109f1576000848401525b50505050565b6000601f19601f8301169050919050565b60038110610a1257fe5b50565b610a1e81610954565b8114610a2957600080fd5b50565b610a3581610999565b8114610a4057600080fd5b5056fea365627a7a72315820d40e73ee76fe6f840d9923519f75e954ef941f134bfdde687ae28c99a80ff5af6c6578706572696d656e74616cf564736f6c63430005100040",
  "source": "pragma solidity ^0.5.16;\npragma experimental ABIEncoderV2;\n\nimport \"./Escrow.sol\";\n\ncontract EscrowExchange {\n\tuint public contractCount = 0;\n\n\tmapping(address => EscrowContracts[]) public contractsForUser;\n\n\tenum Status { OPEN, PENDING, CLOSED }\n\n\tstruct EscrowContracts {\n\t    string _address;\n\t    Status _status;\n\t}\n\n\tconstructor() public {\n\t}\n\n\tfunction getContractsForCurrentUser() public view returns (EscrowContracts[] memory){\n        return contractsForUser[msg.sender];\n    }\n\n    function addContractAddressToRegistry (address _buyer, address _seller, string memory _contractAddress) public {\n    \tcontractCount++;\n    \tEscrowContracts memory _contract = EscrowContracts(_contractAddress, Status.OPEN);\n        contractsForUser[_buyer].push(_contract);\n        contractsForUser[_seller].push(_contract);\n    }\n}",
  "sourcePath": "/Users/donaldlee/Developer/PointsExchange/contracts/EscrowExchange.sol",
  "compiler": {
    "name": "solc",
    "version": "0.5.16+commit.9c3226ce.Emscripten.clang"
  },
  "schemaVersion": "3.3.3",
  "updatedAt": "2021-03-12T01:21:43.331Z",
  "networkType": "ethereum",
  "devdoc": {
    "methods": {}
  },
  "userdoc": {
    "methods": {}
  }
}