{
  "contractName": "EscrowExchange",
  "abi": [
    {
      "inputs": [],
      "payable": false,
      "stateMutability": "nonpayable",
      "type": "constructor"
    },
    {
      "anonymous": false,
      "inputs": [
        {
          "indexed": false,
          "internalType": "address",
          "name": "buyer",
          "type": "address"
        },
        {
          "indexed": false,
          "internalType": "address",
          "name": "seller",
          "type": "address"
        },
        {
          "indexed": false,
          "internalType": "uint256",
          "name": "amount",
          "type": "uint256"
        },
        {
          "indexed": false,
          "internalType": "uint256",
          "name": "deposit",
          "type": "uint256"
        },
        {
          "indexed": false,
          "internalType": "uint256",
          "name": "signatureCount",
          "type": "uint256"
        },
        {
          "indexed": false,
          "internalType": "string",
          "name": "status",
          "type": "string"
        },
        {
          "indexed": false,
          "internalType": "string",
          "name": "notes",
          "type": "string"
        },
        {
          "indexed": false,
          "internalType": "bool",
          "name": "depositMade",
          "type": "bool"
        }
      ],
      "name": "ContractCreated",
      "type": "event"
    },
    {
      "constant": true,
      "inputs": [
        {
          "internalType": "address",
          "name": "",
          "type": "address"
        },
        {
          "internalType": "uint256",
          "name": "",
          "type": "uint256"
        }
      ],
      "name": "addressContractIndexExists",
      "outputs": [
        {
          "internalType": "bool",
          "name": "",
          "type": "bool"
        }
      ],
      "payable": false,
      "stateMutability": "view",
      "type": "function"
    },
    {
      "constant": true,
      "inputs": [
        {
          "internalType": "address",
          "name": "",
          "type": "address"
        },
        {
          "internalType": "uint256",
          "name": "",
          "type": "uint256"
        }
      ],
      "name": "addressToIndex",
      "outputs": [
        {
          "internalType": "uint256",
          "name": "",
          "type": "uint256"
        }
      ],
      "payable": false,
      "stateMutability": "view",
      "type": "function"
    },
    {
      "constant": true,
      "inputs": [],
      "name": "contractCount",
      "outputs": [
        {
          "internalType": "uint256",
          "name": "",
          "type": "uint256"
        }
      ],
      "payable": false,
      "stateMutability": "view",
      "type": "function"
    },
    {
      "constant": true,
      "inputs": [
        {
          "internalType": "uint256",
          "name": "",
          "type": "uint256"
        }
      ],
      "name": "contractIndexesForUsers",
      "outputs": [
        {
          "internalType": "contract EscrowFactory",
          "name": "",
          "type": "address"
        }
      ],
      "payable": false,
      "stateMutability": "view",
      "type": "function"
    },
    {
      "constant": true,
      "inputs": [
        {
          "internalType": "address",
          "name": "",
          "type": "address"
        }
      ],
      "name": "isAdmin",
      "outputs": [
        {
          "internalType": "bool",
          "name": "",
          "type": "bool"
        }
      ],
      "payable": false,
      "stateMutability": "view",
      "type": "function"
    },
    {
      "constant": true,
      "inputs": [],
      "name": "owner",
      "outputs": [
        {
          "internalType": "address payable",
          "name": "",
          "type": "address"
        }
      ],
      "payable": false,
      "stateMutability": "view",
      "type": "function"
    },
    {
      "constant": true,
      "inputs": [
        {
          "internalType": "uint256",
          "name": "index",
          "type": "uint256"
        }
      ],
      "name": "getContractForCurrentUser",
      "outputs": [
        {
          "internalType": "address",
          "name": "",
          "type": "address"
        },
        {
          "internalType": "address",
          "name": "",
          "type": "address"
        },
        {
          "internalType": "uint256",
          "name": "",
          "type": "uint256"
        },
        {
          "internalType": "uint256",
          "name": "",
          "type": "uint256"
        },
        {
          "internalType": "uint256",
          "name": "",
          "type": "uint256"
        },
        {
          "internalType": "string",
          "name": "",
          "type": "string"
        },
        {
          "internalType": "string",
          "name": "",
          "type": "string"
        },
        {
          "internalType": "uint256",
          "name": "",
          "type": "uint256"
        },
        {
          "internalType": "uint256",
          "name": "",
          "type": "uint256"
        },
        {
          "internalType": "uint256",
          "name": "",
          "type": "uint256"
        },
        {
          "internalType": "address",
          "name": "",
          "type": "address"
        }
      ],
      "payable": false,
      "stateMutability": "view",
      "type": "function"
    },
    {
      "constant": true,
      "inputs": [],
      "name": "getContractCountForCurrentUser",
      "outputs": [
        {
          "internalType": "uint256",
          "name": "",
          "type": "uint256"
        }
      ],
      "payable": false,
      "stateMutability": "view",
      "type": "function"
    },
    {
      "constant": false,
      "inputs": [
        {
          "internalType": "address payable",
          "name": "buyer",
          "type": "address"
        },
        {
          "internalType": "address payable",
          "name": "seller",
          "type": "address"
        },
        {
          "internalType": "uint256",
          "name": "amount",
          "type": "uint256"
        },
        {
          "internalType": "uint256",
          "name": "deposit",
          "type": "uint256"
        },
        {
          "internalType": "string",
          "name": "notes",
          "type": "string"
        }
      ],
      "name": "createContract",
      "outputs": [],
      "payable": false,
      "stateMutability": "nonpayable",
      "type": "function"
    },
    {
      "constant": false,
      "inputs": [
        {
          "internalType": "uint256",
          "name": "index",
          "type": "uint256"
        },
        {
          "internalType": "uint8",
          "name": "action",
          "type": "uint8"
        }
      ],
      "name": "adminContractTakeAction",
      "outputs": [],
      "payable": false,
      "stateMutability": "nonpayable",
      "type": "function"
    },
    {
      "constant": false,
      "inputs": [
        {
          "internalType": "bool",
          "name": "state",
          "type": "bool"
        },
        {
          "internalType": "address",
          "name": "newAdmin",
          "type": "address"
        }
      ],
      "name": "setAdmin",
      "outputs": [],
      "payable": false,
      "stateMutability": "nonpayable",
      "type": "function"
    },
    {
      "constant": true,
      "inputs": [
        {
          "internalType": "address",
          "name": "admin",
          "type": "address"
        }
      ],
      "name": "getAdmin",
      "outputs": [
        {
          "internalType": "bool",
          "name": "",
          "type": "bool"
        }
      ],
      "payable": false,
      "stateMutability": "view",
      "type": "function"
    }
  ],
  "bytecode": "0x60806040526000805534801561001457600080fd5b5033600160006101000a81548173ffffffffffffffffffffffffffffffffffffffff021916908373ffffffffffffffffffffffffffffffffffffffff160217905550615e85806100656000396000f3fe60806040523480156200001157600080fd5b5060043610620000c45760003560e01c80638da5cb5b116200007b5780638da5cb5b14620001ed57806392646cc5146200020f5780639a3101711462000245578063d0be31c41462000265578063e1ab5711146200029b578063f3dae9a514620002bd57620000c4565b806324d7806c14620000c95780633d0beb4b14620000ff57806360cc1062146200013557806364efb22b14620001755780636a3661a614620001ab5780638736381a14620001cb575b600080fd5b620000e76004803603620000e19190810190620013fd565b620002dd565b604051620000f6919062001a7b565b60405180910390f35b6200011d6004803603620001179190810190620014f0565b620002fd565b6040516200012c919062001b48565b60405180910390f35b6200015360048036036200014d9190810190620015b7565b6200032c565b6040516200016c9b9a99989796959493929190620019ac565b60405180910390f35b6200019360048036036200018d9190810190620013fd565b62000958565b604051620001a2919062001a7b565b60405180910390f35b620001c96004803603620001c3919081019062001455565b620009ae565b005b620001d562000d71565b604051620001e4919062001b48565b60405180910390f35b620001f762000d77565b60405162000206919062001881565b60405180910390f35b6200022d6004803603620002279190810190620015b7565b62000d9d565b6040516200023c919062001ac5565b60405180910390f35b6200026360048036036200025d919081019062001531565b62000dd0565b005b6200028360048036036200027d9190810190620014f0565b62000f1a565b60405162000292919062001a7b565b60405180910390f35b620002a562000f49565b604051620002b4919062001b48565b60405180910390f35b620002db6004803603620002d591908101906200160f565b620010f8565b005b60026020528060005260406000206000915054906101000a900460ff1681565b600360205281600052604060002081815481106200031757fe5b90600052602060002001600091509150505481565b6000806000806000606080600080600080600460003373ffffffffffffffffffffffffffffffffffffffff1673ffffffffffffffffffffffffffffffffffffffff16815260200190815260200160002060008d815260200190815260200160002060009054906101000a900460ff161562000948576000600560008e815260200190815260200160002060009054906101000a900473ffffffffffffffffffffffffffffffffffffffff16905060008173ffffffffffffffffffffffffffffffffffffffff1663dbd0e1b66040518163ffffffff1660e01b815260040160206040518083038186803b1580156200042257600080fd5b505afa15801562000437573d6000803e3d6000fd5b505050506040513d601f19601f820116820180604052506200045d919081019062001429565b905060008273ffffffffffffffffffffffffffffffffffffffff1663603daf9a6040518163ffffffff1660e01b815260040160206040518083038186803b158015620004a857600080fd5b505afa158015620004bd573d6000803e3d6000fd5b505050506040513d601f19601f82011682018060405250620004e3919081019062001429565b905080828473ffffffffffffffffffffffffffffffffffffffff1663d321fe296040518163ffffffff1660e01b815260040160206040518083038186803b1580156200052e57600080fd5b505afa15801562000543573d6000803e3d6000fd5b505050506040513d601f19601f82011682018060405250620005699190810190620015e3565b8573ffffffffffffffffffffffffffffffffffffffff1663c399ec886040518163ffffffff1660e01b815260040160206040518083038186803b158015620005b057600080fd5b505afa158015620005c5573d6000803e3d6000fd5b505050506040513d601f19601f82011682018060405250620005eb9190810190620015e3565b8673ffffffffffffffffffffffffffffffffffffffff166389d84af56040518163ffffffff1660e01b815260040160206040518083038186803b1580156200063257600080fd5b505afa15801562000647573d6000803e3d6000fd5b505050506040513d601f19601f820116820180604052506200066d9190810190620015e3565b8773ffffffffffffffffffffffffffffffffffffffff1663c032846b6040518163ffffffff1660e01b815260040160006040518083038186803b158015620006b457600080fd5b505afa158015620006c9573d6000803e3d6000fd5b505050506040513d6000823e3d601f19601f82011682018060405250620006f4919081019062001572565b8873ffffffffffffffffffffffffffffffffffffffff1663b4af200d6040518163ffffffff1660e01b815260040160006040518083038186803b1580156200073b57600080fd5b505afa15801562000750573d6000803e3d6000fd5b505050506040513d6000823e3d601f19601f820116820180604052506200077b919081019062001572565b8973ffffffffffffffffffffffffffffffffffffffff166303828aee336040518263ffffffff1660e01b8152600401620007b6919062001864565b60206040518083038186803b158015620007cf57600080fd5b505afa158015620007e4573d6000803e3d6000fd5b505050506040513d601f19601f820116820180604052506200080a9190810190620015e3565b8a73ffffffffffffffffffffffffffffffffffffffff166386fef2368a6040518263ffffffff1660e01b815260040162000845919062001847565b60206040518083038186803b1580156200085e57600080fd5b505afa15801562000873573d6000803e3d6000fd5b505050506040513d601f19601f82011682018060405250620008999190810190620015e3565b8b73ffffffffffffffffffffffffffffffffffffffff1663277fc0e9336040518263ffffffff1660e01b8152600401620008d4919062001864565b60206040518083038186803b158015620008ed57600080fd5b505afa15801562000902573d6000803e3d6000fd5b505050506040513d601f19601f82011682018060405250620009289190810190620015e3565b8c9d509d509d509d509d509d509d509d509d509d509d5050505062000949565b5b91939597999b90929496989a50565b6000600260008373ffffffffffffffffffffffffffffffffffffffff1673ffffffffffffffffffffffffffffffffffffffff16815260200190815260200160002060009054906101000a900460ff169050919050565b600073ffffffffffffffffffffffffffffffffffffffff168573ffffffffffffffffffffffffffffffffffffffff16141562000a21576040517f08c379a000000000000000000000000000000000000000000000000000000000815260040162000a189062001ae2565b60405180910390fd5b600073ffffffffffffffffffffffffffffffffffffffff168473ffffffffffffffffffffffffffffffffffffffff16141562000a94576040517f08c379a000000000000000000000000000000000000000000000000000000000815260040162000a8b9062001b26565b60405180910390fd5b6000831162000aa257600080fd5b6000821162000ab057600080fd5b60008585858585600160009054906101000a900473ffffffffffffffffffffffffffffffffffffffff1660405162000ae89062001296565b62000af99695949392919062001938565b604051809103906000f08015801562000b16573d6000803e3d6000fd5b50905080600560008054815260200190815260200160002060006101000a81548173ffffffffffffffffffffffffffffffffffffffff021916908373ffffffffffffffffffffffffffffffffffffffff160217905550600360008773ffffffffffffffffffffffffffffffffffffffff1673ffffffffffffffffffffffffffffffffffffffff1681526020019081526020016000206000549080600181540180825580915050906001820390600052602060002001600090919290919091505550600360008673ffffffffffffffffffffffffffffffffffffffff1673ffffffffffffffffffffffffffffffffffffffff16815260200190815260200160002060005490806001815401808255809150509060018203906000526020600020016000909192909190915055506001600460008873ffffffffffffffffffffffffffffffffffffffff1673ffffffffffffffffffffffffffffffffffffffff16815260200190815260200160002060008054815260200190815260200160002060006101000a81548160ff0219169083151502179055506001600460008773ffffffffffffffffffffffffffffffffffffffff1673ffffffffffffffffffffffffffffffffffffffff16815260200190815260200160002060008054815260200190815260200160002060006101000a81548160ff0219169083151502179055506001600054016000819055507f0acd88e48e19df2f60e1fac1cc74e5cd85d20d113033e9f7ed5d60534fb3381a86868686600087600060405162000d6197969594939291906200189e565b60405180910390a1505050505050565b60005481565b600160009054906101000a900473ffffffffffffffffffffffffffffffffffffffff1681565b60056020528060005260406000206000915054906101000a900473ffffffffffffffffffffffffffffffffffffffff1681565b600160009054906101000a900473ffffffffffffffffffffffffffffffffffffffff1673ffffffffffffffffffffffffffffffffffffffff163373ffffffffffffffffffffffffffffffffffffffff16148062000e7d575060011515600260003373ffffffffffffffffffffffffffffffffffffffff1673ffffffffffffffffffffffffffffffffffffffff16815260200190815260200160002060009054906101000a900460ff161515145b62000ebf576040517f08c379a000000000000000000000000000000000000000000000000000000000815260040162000eb69062001b04565b60405180910390fd5b81600260008373ffffffffffffffffffffffffffffffffffffffff1673ffffffffffffffffffffffffffffffffffffffff16815260200190815260200160002060006101000a81548160ff0219169083151502179055505050565b60046020528160005260406000206020528060005260406000206000915091509054906101000a900460ff1681565b600080600360003373ffffffffffffffffffffffffffffffffffffffff1673ffffffffffffffffffffffffffffffffffffffff16815260200190815260200160002080549050141562000fa05760009050620010f5565b6001600360003373ffffffffffffffffffffffffffffffffffffffff1673ffffffffffffffffffffffffffffffffffffffff1681526020019081526020016000208054905014156200104e576001600360003373ffffffffffffffffffffffffffffffffffffffff1673ffffffffffffffffffffffffffffffffffffffff1681526020019081526020016000206000815481106200103a57fe5b9060005260206000200154019050620010f5565b6000600360003373ffffffffffffffffffffffffffffffffffffffff1673ffffffffffffffffffffffffffffffffffffffff1681526020019081526020016000208054905090506001600360003373ffffffffffffffffffffffffffffffffffffffff1673ffffffffffffffffffffffffffffffffffffffff1681526020019081526020016000206001830381548110620010e557fe5b9060005260206000200154019150505b90565b600160009054906101000a900473ffffffffffffffffffffffffffffffffffffffff1673ffffffffffffffffffffffffffffffffffffffff163373ffffffffffffffffffffffffffffffffffffffff161480620011a5575060011515600260003373ffffffffffffffffffffffffffffffffffffffff1673ffffffffffffffffffffffffffffffffffffffff16815260200190815260200160002060009054906101000a900460ff161515145b620011e7576040517f08c379a0000000000000000000000000000000000000000000000000000000008152600401620011de9062001b04565b60405180910390fd5b60006005600084815260200190815260200160002060009054906101000a900473ffffffffffffffffffffffffffffffffffffffff1690508073ffffffffffffffffffffffffffffffffffffffff16633bd0387b6001846040518363ffffffff1660e01b81526004016200125d92919062001a98565b600060405180830381600087803b1580156200127857600080fd5b505af11580156200128d573d6000803e3d6000fd5b50505050505050565b6140ab8062001d9883390190565b600081359050620012b58162001d15565b92915050565b600081519050620012cc8162001d15565b92915050565b600081359050620012e38162001d2f565b92915050565b600081359050620012fa8162001d49565b92915050565b600082601f8301126200131257600080fd5b813562001329620013238262001b93565b62001b65565b915080825260208301602083018583830111156200134657600080fd5b6200135383828462001cbf565b50505092915050565b600082601f8301126200136e57600080fd5b8151620013856200137f8262001b93565b62001b65565b91508082526020830160208301858383011115620013a257600080fd5b620013af83828462001cce565b50505092915050565b600081359050620013c98162001d63565b92915050565b600081519050620013e08162001d63565b92915050565b600081359050620013f78162001d7d565b92915050565b6000602082840312156200141057600080fd5b60006200142084828501620012a4565b91505092915050565b6000602082840312156200143c57600080fd5b60006200144c84828501620012bb565b91505092915050565b600080600080600060a086880312156200146e57600080fd5b60006200147e88828901620012d2565b95505060206200149188828901620012d2565b9450506040620014a488828901620013b8565b9350506060620014b788828901620013b8565b925050608086013567ffffffffffffffff811115620014d557600080fd5b620014e38882890162001300565b9150509295509295909350565b600080604083850312156200150457600080fd5b60006200151485828601620012a4565b92505060206200152785828601620013b8565b9150509250929050565b600080604083850312156200154557600080fd5b60006200155585828601620012e9565b92505060206200156885828601620012a4565b9150509250929050565b6000602082840312156200158557600080fd5b600082015167ffffffffffffffff811115620015a057600080fd5b620015ae848285016200135c565b91505092915050565b600060208284031215620015ca57600080fd5b6000620015da84828501620013b8565b91505092915050565b600060208284031215620015f657600080fd5b60006200160684828501620013cf565b91505092915050565b600080604083850312156200162357600080fd5b60006200163385828601620013b8565b92505060206200164685828601620013e6565b9150509250929050565b6200165b8162001c47565b82525050565b6200166c8162001bf0565b82525050565b6200167d8162001bdc565b82525050565b6200168e8162001c04565b82525050565b6200169f8162001c5b565b82525050565b620016b08162001c83565b82525050565b6000620016c38262001bc0565b620016cf818562001bcb565b9350620016e181856020860162001cce565b620016ec8162001d04565b840191505092915050565b60006200170660158362001bcb565b91507f496e76616c6964206275796572206164647265737300000000000000000000006000830152602082019050919050565b60006200174860358362001bcb565b91507f6f6e6c7920616e2061646d696e6973747261746f7220697320616c6c6f77656460008301527f20746f2072756e20746869732066756e6374696f6e00000000000000000000006020830152604082019050919050565b6000620017b060048362001bcb565b91507f4f70656e000000000000000000000000000000000000000000000000000000006000830152602082019050919050565b6000620017f260168362001bcb565b91507f496e76616c69642073656c6c65722061646472657373000000000000000000006000830152602082019050919050565b620018308162001c30565b82525050565b620018418162001c3a565b82525050565b60006020820190506200185e600083018462001672565b92915050565b60006020820190506200187b600083018462001650565b92915050565b600060208201905062001898600083018462001661565b92915050565b600061010082019050620018b6600083018a62001650565b620018c5602083018962001650565b620018d4604083018862001825565b620018e3606083018762001825565b620018f26080830186620016a5565b81810360a08301526200190581620017a1565b905081810360c08301526200191b8185620016b6565b90506200192c60e083018462001683565b98975050505050505050565b600060c0820190506200194f600083018962001661565b6200195e602083018862001661565b6200196d604083018762001825565b6200197c606083018662001825565b8181036080830152620019908185620016b6565b9050620019a160a083018462001661565b979650505050505050565b600061016082019050620019c4600083018e62001672565b620019d3602083018d62001672565b620019e2604083018c62001825565b620019f1606083018b62001825565b62001a00608083018a62001825565b81810360a083015262001a148189620016b6565b905081810360c083015262001a2a8188620016b6565b905062001a3b60e083018762001825565b62001a4b61010083018662001825565b62001a5b61012083018562001825565b62001a6b61014083018462001672565b9c9b505050505050505050505050565b600060208201905062001a92600083018462001683565b92915050565b600060408201905062001aaf600083018562001683565b62001abe602083018462001836565b9392505050565b600060208201905062001adc600083018462001694565b92915050565b6000602082019050818103600083015262001afd81620016f7565b9050919050565b6000602082019050818103600083015262001b1f8162001739565b9050919050565b6000602082019050818103600083015262001b4181620017e3565b9050919050565b600060208201905062001b5f600083018462001825565b92915050565b6000604051905081810181811067ffffffffffffffff8211171562001b8957600080fd5b8060405250919050565b600067ffffffffffffffff82111562001bab57600080fd5b601f19601f8301169050602081019050919050565b600081519050919050565b600082825260208201905092915050565b600062001be98262001c10565b9050919050565b600062001bfd8262001c10565b9050919050565b60008115159050919050565b600073ffffffffffffffffffffffffffffffffffffffff82169050919050565b6000819050919050565b600060ff82169050919050565b600062001c548262001c97565b9050919050565b600062001c688262001c6f565b9050919050565b600062001c7c8262001c10565b9050919050565b600062001c908262001c30565b9050919050565b600062001ca48262001cab565b9050919050565b600062001cb88262001c10565b9050919050565b82818337600083830152505050565b60005b8381101562001cee57808201518184015260208101905062001cd1565b8381111562001cfe576000848401525b50505050565b6000601f19601f8301169050919050565b62001d208162001bdc565b811462001d2c57600080fd5b50565b62001d3a8162001bf0565b811462001d4657600080fd5b50565b62001d548162001c04565b811462001d6057600080fd5b50565b62001d6e8162001c30565b811462001d7a57600080fd5b50565b62001d888162001c3a565b811462001d9457600080fd5b5056fe60806040523480156200001157600080fd5b50604051620040ab380380620040ab833981810160405260c08110156200003757600080fd5b8101908080519060200190929190805190602001909291908051906020019092919080519060200190929190805160405193929190846401000000008211156200008057600080fd5b838201915060208201858111156200009757600080fd5b8251866001820283011164010000000082111715620000b557600080fd5b8083526020830192505050908051906020019080838360005b83811015620000eb578082015181840152602081019050620000ce565b50505050905090810190601f168015620001195780820380516001836020036101000a031916815260200191505b5060405260200180519060200190929190505050856000806101000a81548173ffffffffffffffffffffffffffffffffffffffff021916908373ffffffffffffffffffffffffffffffffffffffff16021790555084600160006101000a81548173ffffffffffffffffffffffffffffffffffffffff021916908373ffffffffffffffffffffffffffffffffffffffff16021790555083600481905550826005819055508160089080519060200190620001d4929190620003de565b506000600760006101000a81548160ff02191690836003811115620001f557fe5b02179055506000600960006101000a81548160ff02191690831515021790555060038690806001815401808255809150509060018203906000526020600020016000909192909190916101000a81548173ffffffffffffffffffffffffffffffffffffffff021916908373ffffffffffffffffffffffffffffffffffffffff1602179055505060038590806001815401808255809150509060018203906000526020600020016000909192909190916101000a81548173ffffffffffffffffffffffffffffffffffffffff021916908373ffffffffffffffffffffffffffffffffffffffff160217905550506001600a60008873ffffffffffffffffffffffffffffffffffffffff1673ffffffffffffffffffffffffffffffffffffffff16815260200190815260200160002060006101000a81548160ff0219169083151502179055506001600a60008773ffffffffffffffffffffffffffffffffffffffff1673ffffffffffffffffffffffffffffffffffffffff16815260200190815260200160002060006101000a81548160ff02191690831515021790555080600260006101000a81548173ffffffffffffffffffffffffffffffffffffffff021916908373ffffffffffffffffffffffffffffffffffffffff1602179055505050505050506200048d565b828054600181600116156101000203166002900490600052602060002090601f016020900481019282601f106200042157805160ff191683800117855562000452565b8280016001018555821562000452579182015b828111156200045157825182559160200191906001019062000434565b5b50905062000461919062000465565b5090565b6200048a91905b80821115620004865760008160009055506001016200046c565b5090565b90565b613c0e806200049d6000396000f3fe60806040526004361061020f5760003560e01c80638b2b3d8b11610118578063c032846b116100a0578063d321fe291161006f578063d321fe2914610a82578063dbd0e1b614610aad578063e7f55ed614610b04578063e8a61cc814610b2f578063f8fe988914610b465761020f565b8063c032846b14610937578063c399ec88146109c7578063c792f36d146109f2578063d0e30db014610a575761020f565b8063a5754394116100e7578063a5754394146107d1578063aa8c217c14610800578063ab404ff01461082b578063b4af200d14610890578063be7e69fd146109205761020f565b80638b2b3d8b1461074f5780638da5cb5b14610759578063a0579587146107b0578063a0c97bce146107ba5761020f565b80634c1786ea1161019b5780637150d8ae1161016a5780637150d8ae146105e257806386fef23614610639578063892642011461069e578063893d20e8146106cd57806389d84af5146107245761020f565b80634c1786ea146104f1578063537eeb51146104fb578063603daf9a146105605780636f9fb98a146105b75761020f565b8063200d2ed2116101e2578063200d2ed214610377578063277fc0e9146103b0578063314fd68f1461041557806332d7c52b146104905780633bd0387b146104a75761020f565b806303828aee1461021457806308551a53146102795780631432c281146102d05780631866dc97146102e7575b600080fd5b34801561022057600080fd5b506102636004803603602081101561023757600080fd5b81019080803573ffffffffffffffffffffffffffffffffffffffff169060200190929190505050610b5d565b6040518082815260200191505060405180910390f35b34801561028557600080fd5b5061028e610ba6565b604051808273ffffffffffffffffffffffffffffffffffffffff1673ffffffffffffffffffffffffffffffffffffffff16815260200191505060405180910390f35b3480156102dc57600080fd5b506102e5610bcc565b005b3480156102f357600080fd5b506102fc611283565b6040518080602001828103825283818151815260200191508051906020019080838360005b8381101561033c578082015181840152602081019050610321565b50505050905090810190601f1680156103695780820380516001836020036101000a031916815260200191505b509250505060405180910390f35b34801561038357600080fd5b5061038c611321565b6040518082600381111561039c57fe5b60ff16815260200191505060405180910390f35b3480156103bc57600080fd5b506103ff600480360360208110156103d357600080fd5b81019080803573ffffffffffffffffffffffffffffffffffffffff169060200190929190505050611334565b6040518082815260200191505060405180910390f35b34801561042157600080fd5b5061044e6004803603602081101561043857600080fd5b810190808035906020019092919050505061137d565b604051808273ffffffffffffffffffffffffffffffffffffffff1673ffffffffffffffffffffffffffffffffffffffff16815260200191505060405180910390f35b34801561049c57600080fd5b506104a56113b9565b005b3480156104b357600080fd5b506104ef600480360360408110156104ca57600080fd5b81019080803515159060200190929190803560ff1690602001909291905050506116e9565b005b6104f9611d0d565b005b34801561050757600080fd5b5061054a6004803603602081101561051e57600080fd5b81019080803573ffffffffffffffffffffffffffffffffffffffff169060200190929190505050611f7e565b6040518082815260200191505060405180910390f35b34801561056c57600080fd5b50610575611f96565b604051808273ffffffffffffffffffffffffffffffffffffffff1673ffffffffffffffffffffffffffffffffffffffff16815260200191505060405180910390f35b3480156105c357600080fd5b506105cc611fbf565b6040518082815260200191505060405180910390f35b3480156105ee57600080fd5b506105f7611fc7565b604051808273ffffffffffffffffffffffffffffffffffffffff1673ffffffffffffffffffffffffffffffffffffffff16815260200191505060405180910390f35b34801561064557600080fd5b506106886004803603602081101561065c57600080fd5b81019080803573ffffffffffffffffffffffffffffffffffffffff169060200190929190505050611fec565b6040518082815260200191505060405180910390f35b3480156106aa57600080fd5b506106b3612035565b604051808215151515815260200191505060405180910390f35b3480156106d957600080fd5b506106e2612048565b604051808273ffffffffffffffffffffffffffffffffffffffff1673ffffffffffffffffffffffffffffffffffffffff16815260200191505060405180910390f35b34801561073057600080fd5b50610739612072565b6040518082815260200191505060405180910390f35b61075761207c565b005b34801561076557600080fd5b5061076e612423565b604051808273ffffffffffffffffffffffffffffffffffffffff1673ffffffffffffffffffffffffffffffffffffffff16815260200191505060405180910390f35b6107b8612449565b005b3480156107c657600080fd5b506107cf6126b9565b005b3480156107dd57600080fd5b506107e6612b20565b604051808215151515815260200191505060405180910390f35b34801561080c57600080fd5b50610815612b37565b6040518082815260200191505060405180910390f35b34801561083757600080fd5b5061087a6004803603602081101561084e57600080fd5b81019080803573ffffffffffffffffffffffffffffffffffffffff169060200190929190505050612b3d565b6040518082815260200191505060405180910390f35b34801561089c57600080fd5b506108a5612b55565b6040518080602001828103825283818151815260200191508051906020019080838360005b838110156108e55780820151818401526020810190506108ca565b50505050905090810190601f1680156109125780820380516001836020036101000a031916815260200191505b509250505060405180910390f35b34801561092c57600080fd5b50610935612bf7565b005b34801561094357600080fd5b5061094c612ee0565b6040518080602001828103825283818151815260200191508051906020019080838360005b8381101561098c578082015181840152602081019050610971565b50505050905090810190601f1680156109b95780820380516001836020036101000a031916815260200191505b509250505060405180910390f35b3480156109d357600080fd5b506109dc61305e565b6040518082815260200191505060405180910390f35b3480156109fe57600080fd5b50610a4160048036036020811015610a1557600080fd5b81019080803573ffffffffffffffffffffffffffffffffffffffff169060200190929190505050613068565b6040518082815260200191505060405180910390f35b348015610a6357600080fd5b50610a6c613080565b6040518082815260200191505060405180910390f35b348015610a8e57600080fd5b50610a97613086565b6040518082815260200191505060405180910390f35b348015610ab957600080fd5b50610ac2613090565b604051808273ffffffffffffffffffffffffffffffffffffffff1673ffffffffffffffffffffffffffffffffffffffff16815260200191505060405180910390f35b348015610b1057600080fd5b50610b196130ba565b6040518082815260200191505060405180910390f35b348015610b3b57600080fd5b50610b446130c0565b005b348015610b5257600080fd5b50610b5b613527565b005b6000600c60008373ffffffffffffffffffffffffffffffffffffffff1673ffffffffffffffffffffffffffffffffffffffff168152602001908152602001600020549050919050565b600160009054906101000a900473ffffffffffffffffffffffffffffffffffffffff1681565b33600a60008273ffffffffffffffffffffffffffffffffffffffff1673ffffffffffffffffffffffffffffffffffffffff16815260200190815260200160002060009054906101000a900460ff16610c2357600080fd5b6001600c60008060009054906101000a900473ffffffffffffffffffffffffffffffffffffffff1673ffffffffffffffffffffffffffffffffffffffff1673ffffffffffffffffffffffffffffffffffffffff1681526020019081526020016000205414610cdc576040517f08c379a0000000000000000000000000000000000000000000000000000000008152600401808060200182810382526032815260200180613aca6032913960400191505060405180910390fd5b6001600c6000600160009054906101000a900473ffffffffffffffffffffffffffffffffffffffff1673ffffffffffffffffffffffffffffffffffffffff1673ffffffffffffffffffffffffffffffffffffffff1681526020019081526020016000205414610d96576040517f08c379a000000000000000000000000000000000000000000000000000000000815260040180806020018281038252603381526020018061384a6033913960400191505060405180910390fd5b6000600d60008060009054906101000a900473ffffffffffffffffffffffffffffffffffffffff1673ffffffffffffffffffffffffffffffffffffffff1673ffffffffffffffffffffffffffffffffffffffff1681526020019081526020016000205414610e4f576040517f08c379a00000000000000000000000000000000000000000000000000000000081526004018080602001828103825260368152602001806138146036913960400191505060405180910390fd5b6000600b60003373ffffffffffffffffffffffffffffffffffffffff1673ffffffffffffffffffffffffffffffffffffffff1681526020019081526020016000205414610ee7576040517f08c379a0000000000000000000000000000000000000000000000000000000008152600401808060200182810382526032815260200180613b806032913960400191505060405180910390fd5b6001600b60003373ffffffffffffffffffffffffffffffffffffffff1673ffffffffffffffffffffffffffffffffffffffff1681526020019081526020016000208190555060066000815480929190600101919050555060016006541415610f95577f87463abc399fbbddfcd563f22d61267e4c0402b336940699382407adce42e5a26040518080602001828103825260358152602001806139b86035913960400191505060405180910390a15b60026006541415611280576000809054906101000a900473ffffffffffffffffffffffffffffffffffffffff1673ffffffffffffffffffffffffffffffffffffffff166108fc6005549081150290604051600060405180830381858888f19350505050158015611009573d6000803e3d6000fd5b50600160009054906101000a900473ffffffffffffffffffffffffffffffffffffffff1673ffffffffffffffffffffffffffffffffffffffff166108fc6005549081150290604051600060405180830381858888f19350505050158015611074573d6000803e3d6000fd5b506000600c60008060009054906101000a900473ffffffffffffffffffffffffffffffffffffffff1673ffffffffffffffffffffffffffffffffffffffff1673ffffffffffffffffffffffffffffffffffffffff168152602001908152602001600020819055506000600c6000600160009054906101000a900473ffffffffffffffffffffffffffffffffffffffff1673ffffffffffffffffffffffffffffffffffffffff1673ffffffffffffffffffffffffffffffffffffffff168152602001908152602001600020819055506000600b60008060009054906101000a900473ffffffffffffffffffffffffffffffffffffffff1673ffffffffffffffffffffffffffffffffffffffff1673ffffffffffffffffffffffffffffffffffffffff168152602001908152602001600020819055506000600b6000600160009054906101000a900473ffffffffffffffffffffffffffffffffffffffff1673ffffffffffffffffffffffffffffffffffffffff1673ffffffffffffffffffffffffffffffffffffffff1681526020019081526020016000208190555060006006819055507fd397a3b1b662401574a4482307d3aaaa5413f8af98a7053e3473935f4d0659ed60405180806020018281038252601f8152602001807f746865206465706f736974732068617665206265656e2072657475726e65640081525060200191505060405180910390a15b50565b60088054600181600116156101000203166002900480601f0160208091040260200160405190810160405280929190818152602001828054600181600116156101000203166002900480156113195780601f106112ee57610100808354040283529160200191611319565b820191906000526020600020905b8154815290600101906020018083116112fc57829003601f168201915b505050505081565b600760009054906101000a900460ff1681565b6000600b60008373ffffffffffffffffffffffffffffffffffffffff1673ffffffffffffffffffffffffffffffffffffffff168152602001908152602001600020549050919050565b6003818154811061138a57fe5b906000526020600020016000915054906101000a900473ffffffffffffffffffffffffffffffffffffffff1681565b6000809054906101000a900473ffffffffffffffffffffffffffffffffffffffff1673ffffffffffffffffffffffffffffffffffffffff163373ffffffffffffffffffffffffffffffffffffffff161461141257600080fd5b6001600c60008060009054906101000a900473ffffffffffffffffffffffffffffffffffffffff1673ffffffffffffffffffffffffffffffffffffffff1673ffffffffffffffffffffffffffffffffffffffff16815260200190815260200160002054146114e8576040517f08c379a000000000000000000000000000000000000000000000000000000000815260040180806020018281038252601f8152602001807f74686520627579657220686173206e6f74206465706f7369746564207965740081525060200191505060405180910390fd5b6001600c6000600160009054906101000a900473ffffffffffffffffffffffffffffffffffffffff1673ffffffffffffffffffffffffffffffffffffffff1673ffffffffffffffffffffffffffffffffffffffff16815260200190815260200160002054146115bf576040517f08c379a00000000000000000000000000000000000000000000000000000000081526004018080602001828103825260208152602001807f7468652073656c6c657220686173206e6f74206465706f73697465642079657481525060200191505060405180910390fd5b6001600d60008060009054906101000a900473ffffffffffffffffffffffffffffffffffffffff1673ffffffffffffffffffffffffffffffffffffffff1673ffffffffffffffffffffffffffffffffffffffff1681526020019081526020016000205414611678576040517f08c379a0000000000000000000000000000000000000000000000000000000008152600401808060200182810382526025815260200180613a1c6025913960400191505060405180910390fd5b6003600760006101000a81548160ff0219169083600381111561169757fe5b02179055507fb9011ad8795709fdc44e4dc9cdf74ad000a963e2f1f831535863bd0f5550def8604051808060200182810382526028815260200180613bb26028913960400191505060405180910390a1565b8160011515811515146116fb57600080fd5b60006103e8600f600554028161170d57fe5b04905060008160026005548161171f57fe5b04039050600082600554039050600260009054906101000a900473ffffffffffffffffffffffffffffffffffffffff1673ffffffffffffffffffffffffffffffffffffffff166108fc829081150290604051600060405180830381858888f19350505050158015611794573d6000803e3d6000fd5b506001600c60008060009054906101000a900473ffffffffffffffffffffffffffffffffffffffff1673ffffffffffffffffffffffffffffffffffffffff1673ffffffffffffffffffffffffffffffffffffffff1681526020019081526020016000205414156118cd576000809054906101000a900473ffffffffffffffffffffffffffffffffffffffff1673ffffffffffffffffffffffffffffffffffffffff166108fc839081150290604051600060405180830381858888f19350505050158015611865573d6000803e3d6000fd5b506000600c60008060009054906101000a900473ffffffffffffffffffffffffffffffffffffffff1673ffffffffffffffffffffffffffffffffffffffff1673ffffffffffffffffffffffffffffffffffffffff168152602001908152602001600020819055505b6001600c6000600160009054906101000a900473ffffffffffffffffffffffffffffffffffffffff1673ffffffffffffffffffffffffffffffffffffffff1673ffffffffffffffffffffffffffffffffffffffff168152602001908152602001600020541415611a0857600160009054906101000a900473ffffffffffffffffffffffffffffffffffffffff1673ffffffffffffffffffffffffffffffffffffffff166108fc839081150290604051600060405180830381858888f1935050505015801561199f573d6000803e3d6000fd5b506000600c6000600160009054906101000a900473ffffffffffffffffffffffffffffffffffffffff1673ffffffffffffffffffffffffffffffffffffffff1673ffffffffffffffffffffffffffffffffffffffff168152602001908152602001600020819055505b6001600d60008060009054906101000a900473ffffffffffffffffffffffffffffffffffffffff1673ffffffffffffffffffffffffffffffffffffffff1673ffffffffffffffffffffffffffffffffffffffff16815260200190815260200160002054148015611a89575060006001811115611a8057fe5b60ff168560ff16145b15611b63576000809054906101000a900473ffffffffffffffffffffffffffffffffffffffff1673ffffffffffffffffffffffffffffffffffffffff166108fc6004549081150290604051600060405180830381858888f19350505050158015611af7573d6000803e3d6000fd5b506000600d60008060009054906101000a900473ffffffffffffffffffffffffffffffffffffffff1673ffffffffffffffffffffffffffffffffffffffff1673ffffffffffffffffffffffffffffffffffffffff16815260200190815260200160002081905550611cba565b6001600d60008060009054906101000a900473ffffffffffffffffffffffffffffffffffffffff1673ffffffffffffffffffffffffffffffffffffffff1673ffffffffffffffffffffffffffffffffffffffff16815260200190815260200160002054148015611be35750600180811115611bda57fe5b60ff168560ff16145b15611cb9576000809054906101000a900473ffffffffffffffffffffffffffffffffffffffff1673ffffffffffffffffffffffffffffffffffffffff166108fc6004549081150290604051600060405180830381858888f19350505050158015611c51573d6000803e3d6000fd5b506000600d60008060009054906101000a900473ffffffffffffffffffffffffffffffffffffffff1673ffffffffffffffffffffffffffffffffffffffff1673ffffffffffffffffffffffffffffffffffffffff168152602001908152602001600020819055505b5b7fe0b751eb2be5e6f7fc3fac7842f5b366e8a003ea7d61675d1b113673aaa7721c604051808060200182810382526060815260200180613b206060913960600191505060405180910390a1505050505050565b600160009054906101000a900473ffffffffffffffffffffffffffffffffffffffff1673ffffffffffffffffffffffffffffffffffffffff163373ffffffffffffffffffffffffffffffffffffffff1614611d6757600080fd5b6005543414611dde576040517f08c379a000000000000000000000000000000000000000000000000000000000815260040180806020018281038252600f8152602001807f496e76616c6964206465706f736974000000000000000000000000000000000081525060200191505060405180910390fd5b6000600c60003373ffffffffffffffffffffffffffffffffffffffff1673ffffffffffffffffffffffffffffffffffffffff1681526020019081526020016000205414611e93576040517f08c379a00000000000000000000000000000000000000000000000000000000081526004018080602001828103825260188152602001807f53656c6c657220616c7265616479206465706f7369746564000000000000000081525060200191505060405180910390fd5b6001600c60003373ffffffffffffffffffffffffffffffffffffffff1673ffffffffffffffffffffffffffffffffffffffff168152602001908152602001600020819055507feaa52bf3f740eaa050012695cd117e2182b5c032c7fc36dbcdfc74189f68ab2e3334604051808373ffffffffffffffffffffffffffffffffffffffff1673ffffffffffffffffffffffffffffffffffffffff16815260200180602001838152602001828103825260208152602001807f686173206d61646520746865207265717569726564206465706f736974206f66815250602001935050505060405180910390a1565b600d6020528060005260406000206000915090505481565b60008060009054906101000a900473ffffffffffffffffffffffffffffffffffffffff16905090565b600047905090565b6000809054906101000a900473ffffffffffffffffffffffffffffffffffffffff1681565b6000600d60008373ffffffffffffffffffffffffffffffffffffffff1673ffffffffffffffffffffffffffffffffffffffff168152602001908152602001600020549050919050565b600960009054906101000a900460ff1681565b6000600260009054906101000a900473ffffffffffffffffffffffffffffffffffffffff16905090565b6000600654905090565b6000809054906101000a900473ffffffffffffffffffffffffffffffffffffffff1673ffffffffffffffffffffffffffffffffffffffff163373ffffffffffffffffffffffffffffffffffffffff16146120d557600080fd5b600454341461214c576040517f08c379a000000000000000000000000000000000000000000000000000000000815260040180806020018281038252600e8152602001807f496e76616c696420616d6f756e7400000000000000000000000000000000000081525060200191505060405180910390fd5b6001600c60008060009054906101000a900473ffffffffffffffffffffffffffffffffffffffff1673ffffffffffffffffffffffffffffffffffffffff1673ffffffffffffffffffffffffffffffffffffffff1681526020019081526020016000205414612222576040517f08c379a000000000000000000000000000000000000000000000000000000000815260040180806020018281038252601f8152602001807f74686520627579657220686173206e6f74206465706f7369746564207965740081525060200191505060405180910390fd5b6001600c6000600160009054906101000a900473ffffffffffffffffffffffffffffffffffffffff1673ffffffffffffffffffffffffffffffffffffffff1673ffffffffffffffffffffffffffffffffffffffff16815260200190815260200160002054146122f9576040517f08c379a00000000000000000000000000000000000000000000000000000000081526004018080602001828103825260208152602001807f7468652073656c6c657220686173206e6f74206465706f73697465642079657481525060200191505060405180910390fd5b6000600d60003373ffffffffffffffffffffffffffffffffffffffff1673ffffffffffffffffffffffffffffffffffffffff1681526020019081526020016000205414612391576040517f08c379a000000000000000000000000000000000000000000000000000000000815260040180806020018281038252602581526020018061395e6025913960400191505060405180910390fd5b6001600d60003373ffffffffffffffffffffffffffffffffffffffff1673ffffffffffffffffffffffffffffffffffffffff168152602001908152602001600020819055507fdbafb049923bd24c9143b7aea787bb9133f12c9bc10e8ff7f1be6e2f13028c9760405180806020018281038252602f8152602001806139ed602f913960400191505060405180910390a1565b600260009054906101000a900473ffffffffffffffffffffffffffffffffffffffff1681565b6000809054906101000a900473ffffffffffffffffffffffffffffffffffffffff1673ffffffffffffffffffffffffffffffffffffffff163373ffffffffffffffffffffffffffffffffffffffff16146124a257600080fd5b6005543414612519576040517f08c379a000000000000000000000000000000000000000000000000000000000815260040180806020018281038252600f8152602001807f496e76616c6964206465706f736974000000000000000000000000000000000081525060200191505060405180910390fd5b6000600c60003373ffffffffffffffffffffffffffffffffffffffff1673ffffffffffffffffffffffffffffffffffffffff16815260200190815260200160002054146125ce576040517f08c379a00000000000000000000000000000000000000000000000000000000081526004018080602001828103825260178152602001807f427579657220616c7265616479206465706f736974656400000000000000000081525060200191505060405180910390fd5b6001600c60003373ffffffffffffffffffffffffffffffffffffffff1673ffffffffffffffffffffffffffffffffffffffff168152602001908152602001600020819055507f0109c07b399c647a3567815a956a02e0badfd3ed527a3fdb992031fae5d005f93334604051808373ffffffffffffffffffffffffffffffffffffffff1673ffffffffffffffffffffffffffffffffffffffff16815260200180602001838152602001828103825260208152602001807f686173206d61646520746865207265717569726564206465706f736974206f66815250602001935050505060405180910390a1565b6000809054906101000a900473ffffffffffffffffffffffffffffffffffffffff1673ffffffffffffffffffffffffffffffffffffffff163373ffffffffffffffffffffffffffffffffffffffff161461271257600080fd5b6001600c60008060009054906101000a900473ffffffffffffffffffffffffffffffffffffffff1673ffffffffffffffffffffffffffffffffffffffff1673ffffffffffffffffffffffffffffffffffffffff16815260200190815260200160002054146127e8576040517f08c379a000000000000000000000000000000000000000000000000000000000815260040180806020018281038252601f8152602001807f74686520627579657220686173206e6f74206465706f7369746564207965740081525060200191505060405180910390fd5b6001600c6000600160009054906101000a900473ffffffffffffffffffffffffffffffffffffffff1673ffffffffffffffffffffffffffffffffffffffff1673ffffffffffffffffffffffffffffffffffffffff16815260200190815260200160002054146128bf576040517f08c379a00000000000000000000000000000000000000000000000000000000081526004018080602001828103825260208152602001807f7468652073656c6c657220686173206e6f74206465706f73697465642079657481525060200191505060405180910390fd5b6001600d60008060009054906101000a900473ffffffffffffffffffffffffffffffffffffffff1673ffffffffffffffffffffffffffffffffffffffff1673ffffffffffffffffffffffffffffffffffffffff1681526020019081526020016000205414612978576040517f08c379a0000000000000000000000000000000000000000000000000000000008152600401808060200182810382526025815260200180613a1c6025913960400191505060405180910390fd5b6001600960006101000a81548160ff021916908315150217905550600160009054906101000a900473ffffffffffffffffffffffffffffffffffffffff1673ffffffffffffffffffffffffffffffffffffffff166108fc6004549081150290604051600060405180830381858888f193505050501580156129fd573d6000803e3d6000fd5b506000809054906101000a900473ffffffffffffffffffffffffffffffffffffffff1673ffffffffffffffffffffffffffffffffffffffff166108fc6005549081150290604051600060405180830381858888f19350505050158015612a67573d6000803e3d6000fd5b50600160009054906101000a900473ffffffffffffffffffffffffffffffffffffffff1673ffffffffffffffffffffffffffffffffffffffff166108fc6005549081150290604051600060405180830381858888f19350505050158015612ad2573d6000803e3d6000fd5b507fd54aabd3141f0694c3f533b346119d27c2eb3248d4f866d6bd8299c78b128daf6040518080602001828103825260538152602001806138a26053913960600191505060405180910390a1565b6000600960009054906101000a900460ff16905090565b60045481565b600c6020528060005260406000206000915090505481565b606060088054600181600116156101000203166002900480601f016020809104026020016040519081016040528092919081815260200182805460018160011615610100020316600290048015612bed5780601f10612bc257610100808354040283529160200191612bed565b820191906000526020600020905b815481529060010190602001808311612bd057829003601f168201915b5050505050905090565b6000809054906101000a900473ffffffffffffffffffffffffffffffffffffffff1673ffffffffffffffffffffffffffffffffffffffff163373ffffffffffffffffffffffffffffffffffffffff1614612c5057600080fd5b6001600c60008060009054906101000a900473ffffffffffffffffffffffffffffffffffffffff1673ffffffffffffffffffffffffffffffffffffffff1673ffffffffffffffffffffffffffffffffffffffff1681526020019081526020016000205414612d09576040517f08c379a0000000000000000000000000000000000000000000000000000000008152600401808060200182810382526032815260200180613a986032913960400191505060405180910390fd5b6000600c6000600160009054906101000a900473ffffffffffffffffffffffffffffffffffffffff1673ffffffffffffffffffffffffffffffffffffffff1673ffffffffffffffffffffffffffffffffffffffff1681526020019081526020016000205414612dc3576040517f08c379a00000000000000000000000000000000000000000000000000000000081526004018080602001828103825260368152602001806138f56036913960400191505060405180910390fd5b6000600c60008060009054906101000a900473ffffffffffffffffffffffffffffffffffffffff1673ffffffffffffffffffffffffffffffffffffffff1673ffffffffffffffffffffffffffffffffffffffff168152602001908152602001600020819055506000809054906101000a900473ffffffffffffffffffffffffffffffffffffffff1673ffffffffffffffffffffffffffffffffffffffff166108fc6005549081150290604051600060405180830381858888f19350505050158015612e92573d6000803e3d6000fd5b507f022a173fa68fb425cd1264890a0951b5a57aa7f1fcdc49e3262e86c1189ec9b1604051808060200182810382526024815260200180613afc6024913960400191505060405180910390a1565b606060006003811115612eef57fe5b600760009054906101000a900460ff166003811115612f0a57fe5b1415612f4d576040518060400160405280600481526020017f4f70656e00000000000000000000000000000000000000000000000000000000815250905061305b565b60016003811115612f5a57fe5b600760009054906101000a900460ff166003811115612f7557fe5b1415612fb8576040518060400160405280600781526020017f50656e64696e6700000000000000000000000000000000000000000000000000815250905061305b565b600380811115612fc457fe5b600760009054906101000a900460ff166003811115612fdf57fe5b1415613022576040518060400160405280601481526020017f526571756573742041646d696e20416374696f6e000000000000000000000000815250905061305b565b6040518060400160405280600681526020017f436c6f736564000000000000000000000000000000000000000000000000000081525090505b90565b6000600554905090565b600b6020528060005260406000206000915090505481565b60055481565b6000600454905090565b6000600160009054906101000a900473ffffffffffffffffffffffffffffffffffffffff16905090565b60065481565b600160009054906101000a900473ffffffffffffffffffffffffffffffffffffffff1673ffffffffffffffffffffffffffffffffffffffff163373ffffffffffffffffffffffffffffffffffffffff161461311a57600080fd5b6001600c60008060009054906101000a900473ffffffffffffffffffffffffffffffffffffffff1673ffffffffffffffffffffffffffffffffffffffff1673ffffffffffffffffffffffffffffffffffffffff16815260200190815260200160002054146131f0576040517f08c379a000000000000000000000000000000000000000000000000000000000815260040180806020018281038252601f8152602001807f74686520627579657220686173206e6f74206465706f7369746564207965740081525060200191505060405180910390fd5b6001600c6000600160009054906101000a900473ffffffffffffffffffffffffffffffffffffffff1673ffffffffffffffffffffffffffffffffffffffff1673ffffffffffffffffffffffffffffffffffffffff16815260200190815260200160002054146132c7576040517f08c379a00000000000000000000000000000000000000000000000000000000081526004018080602001828103825260208152602001807f7468652073656c6c657220686173206e6f74206465706f73697465642079657481525060200191505060405180910390fd5b6001600d60008060009054906101000a900473ffffffffffffffffffffffffffffffffffffffff1673ffffffffffffffffffffffffffffffffffffffff1673ffffffffffffffffffffffffffffffffffffffff1681526020019081526020016000205414613380576040517f08c379a0000000000000000000000000000000000000000000000000000000008152600401808060200182810382526025815260200180613a1c6025913960400191505060405180910390fd5b6001600960006101000a81548160ff0219169083151502179055506000809054906101000a900473ffffffffffffffffffffffffffffffffffffffff1673ffffffffffffffffffffffffffffffffffffffff166108fc6004549081150290604051600060405180830381858888f19350505050158015613404573d6000803e3d6000fd5b50600160009054906101000a900473ffffffffffffffffffffffffffffffffffffffff1673ffffffffffffffffffffffffffffffffffffffff166108fc6005549081150290604051600060405180830381858888f1935050505015801561346f573d6000803e3d6000fd5b506000809054906101000a900473ffffffffffffffffffffffffffffffffffffffff1673ffffffffffffffffffffffffffffffffffffffff166108fc6005549081150290604051600060405180830381858888f193505050501580156134d9573d6000803e3d6000fd5b507f1355ee9ef69549a50f8d0008c6cd588a9759815d1b30ee62ed168c2bb7a24a62604051808060200182810382526057815260200180613a416057913960600191505060405180910390a1565b600160009054906101000a900473ffffffffffffffffffffffffffffffffffffffff1673ffffffffffffffffffffffffffffffffffffffff163373ffffffffffffffffffffffffffffffffffffffff161461358157600080fd5b6001600c6000600160009054906101000a900473ffffffffffffffffffffffffffffffffffffffff1673ffffffffffffffffffffffffffffffffffffffff1673ffffffffffffffffffffffffffffffffffffffff168152602001908152602001600020541461363b576040517f08c379a000000000000000000000000000000000000000000000000000000000815260040180806020018281038252603381526020018061392b6033913960400191505060405180910390fd5b6000600c60008060009054906101000a900473ffffffffffffffffffffffffffffffffffffffff1673ffffffffffffffffffffffffffffffffffffffff1673ffffffffffffffffffffffffffffffffffffffff16815260200190815260200160002054146136f4576040517f08c379a00000000000000000000000000000000000000000000000000000000081526004018080602001828103825260358152602001806139836035913960400191505060405180910390fd5b6000600c6000600160009054906101000a900473ffffffffffffffffffffffffffffffffffffffff1673ffffffffffffffffffffffffffffffffffffffff1673ffffffffffffffffffffffffffffffffffffffff16815260200190815260200160002081905550600160009054906101000a900473ffffffffffffffffffffffffffffffffffffffff1673ffffffffffffffffffffffffffffffffffffffff166108fc6005549081150290604051600060405180830381858888f193505050501580156137c5573d6000803e3d6000fd5b507f68899ad50909030043672ec750f7e234201226c34f9efa036d99c5432d220a3960405180806020018281038252602581526020018061387d6025913960400191505060405180910390a156fe7468652062757965722068617320616c72656164792073656e7420616e20616d6f756e7420666f7220636c61696d4465706f736974737468652073656c6c657220686173206e6f74206d6164652061206465706f73697420666f7220636c61696d4465706f736974737468652073656c6c657220686173207265766572736564207468656972206465706f7369745468652073656c6c657220686173206265656e207061696420616e6420616c6c206465706f736974732068617665206265656e2072657475726e6564202d207472616e73616374696f6e20636f6d706c6574657468652073656c6c657220686173206465706f736974656420616c72656164792043414e4e4f5420726576657273654465706f7369747468652073656c6c657220686173206e6f7420646573706f73697465642043414e4e4f5420726576657273654465706f7369747468652062757965722068617320616c72656164792073656e642074686520616d6f756e7474686520627579657220686173206465706f736974656420616c72656164792043414e4e4f5420726576657273654465706f736974746865206465706f73697420636c61696d206861732031206f7574206f662032206e6563657373617279207369676e6174757265734275796572206861732073656e7420746865207061796d656e7420616d6f756e7420746f2074686520657363726f7774686520627579657220686173206e6f742073656e742074686520616d6f756e742079657454686520627579657220686173206265656e20726566756e64656420616e6420616c6c206465706f736974732068617665206265656e2072657475726e6564202d207472616e73616374696f6e2063616e63656c6c656474686520627579657220686173206e6f7420646573706f73697465642043414e4e4f5420726576657273654465706f73697474686520627579657220686173206e6f74206d6164652061206465706f73697420666f7220636c61696d4465706f7369747374686520627579657220686173207265766572736564207468656972206465706f73697454686520636f6e747261637420686173206265656e20636f6d706c6574656c792072657665727465642062792061646d696e2e20416c6c206465706f7369747320616e6420616d6f756e74732068617665206265656e20726566756e6465642e7468652073656e646572206861766520616c7265616479207369676e6564206f6666206f6e20636c61696d4465706f736974416e20616374696f6e2066726f6d2061646d696e20686173206265656e207265717565737465642ea265627a7a72315820258238a0050999067e0d6b67920c0a7fb0555b0dab2b64c65e45fac9eb9de1e864736f6c63430005100032a365627a7a723158200b75a142c64beb76b92aca9fbe56ac1d99f2f5085a4746632592e0290019852d6c6578706572696d656e74616cf564736f6c63430005100040",
  "source": "pragma solidity ^0.5.16;\npragma experimental ABIEncoderV2;\n\nimport \"./EscrowFactory.sol\";\n\ncontract EscrowExchange {\n\tuint public contractCount = 0;\n\taddress payable public owner;\n\tmapping(address => bool) public isAdmin;\n\tmapping(address => uint[]) public addressToIndex; // i.e. [0, 4, 5, 6, 8, 10] contract indices\n\tmapping(address => mapping(uint => bool)) public addressContractIndexExists; // Booleans to check whether an contract index (i.e. contract id) exists for this user.\n\tmapping(uint => EscrowFactory) public contractIndexesForUsers; // Map of id to the contract. Used to retrieve the contract\n\n\tmodifier isAdministrator() {\n        require(msg.sender == owner || isAdmin[msg.sender] == true, \"only an administrator is allowed to run this function\");\n        _;\n    }\n\n\tevent ContractCreated(address buyer, address seller, uint amount, uint deposit, uint signatureCount, string status, string notes, bool depositMade);\n\n\tconstructor() public {\n\t\towner = msg.sender;\n\t}\n\n\tfunction getContractForCurrentUser(uint index) public view returns (address, address, uint, uint, uint, string memory, string memory, uint, uint, uint, address){\n\t\tif (addressContractIndexExists[msg.sender][index]) {\n\t \t\tEscrowFactory retrieved_contract = contractIndexesForUsers[index];\n\t\t\n\t \t\taddress seller = retrieved_contract.getSeller();\n\t \t\taddress buyer = retrieved_contract.getBuyer();\n\n\t        return (buyer, \n\t        \tseller, \n\t        \tretrieved_contract.getAmount(), \n\t        \tretrieved_contract.getDeposit(), \n\t        \tretrieved_contract.getSignatureCount(),\n\t        \tretrieved_contract.getContractStatus(), \n\t        \tretrieved_contract.getNotes(),\n\t        \tretrieved_contract.getIfAddressDeposited(msg.sender),\n\t        \tretrieved_contract.getAmountCheck(buyer),\n\t        \tretrieved_contract.getSignature(msg.sender),\n\t        \taddress(retrieved_contract)\n\t        );\n\t\t}\n    }\n\n    /* PURPOSE: Return the index of the last contract for the user, so we know how many to iterate up to.\n\t\tIf statement - the sender has no contracts, return 0, so we don't iterate.\n\t\tElse if statement - the sender has 1 contract, get the contract id, and iterate up to that id to get the contract details\n\t\tElse statement - sender has multiple contracts, get the contract id of the last contract in the array, we will iterate up to that contract id to get all their contracts.\n    */\n    function getContractCountForCurrentUser() external view returns (uint) {\n    \tif (addressToIndex[msg.sender].length == 0) {\n    \t\treturn 0;\n    \t} else if (addressToIndex[msg.sender].length == 1) {\n    \t\treturn addressToIndex[msg.sender][0] + 1;\n    \t} else {\n\t    \tuint lastContractId = addressToIndex[msg.sender].length; // Get the length of the user's uint addressToIndex (array of contracts)\n\t\t    return addressToIndex[msg.sender][lastContractId - 1] + 1; // To access the last contract id user made, so we don't have to iterate entire contract array. We do +1 to take into account the user's last contract.\n    \t}\n\t }\n\n    function createContract(address payable buyer, address payable seller, uint amount, uint deposit, string memory notes) public {\n    \trequire(buyer != address(0), \"Invalid buyer address\");\n    \trequire(seller != address(0), \"Invalid seller address\");\n    \trequire(amount > 0);\n    \trequire(deposit > 0);\n    \tEscrowFactory newContract = new EscrowFactory(buyer, seller, amount, deposit, notes, owner);\n    \tcontractIndexesForUsers[contractCount] = newContract;\n    \taddressToIndex[buyer].push(contractCount);\n    \taddressToIndex[seller].push(contractCount);\n    \taddressContractIndexExists[buyer][contractCount] = true;\n    \taddressContractIndexExists[seller][contractCount] = true;\n    \tcontractCount = contractCount + 1;\n\n    \temit ContractCreated(buyer, seller, amount, deposit, 0, \"Open\", notes, false);\n    }\n\n    function adminContractTakeAction(uint index, uint8 action) public isAdministrator{\n    \tEscrowFactory retrieved_contract = contractIndexesForUsers[index];\n    \tretrieved_contract.adminContractTakeAction(true, action);\n    }\n\n    function setAdmin(bool state, address newAdmin) public isAdministrator {\n    \tisAdmin[newAdmin] = state;\n    }\n\n    function getAdmin(address admin) public view returns (bool) {\n    \treturn isAdmin[admin];\n    }\n}",
  "sourcePath": "/Users/donaldlee/Developer/PointsExchange/contracts/EscrowExchange.sol",
  "compiler": {
    "name": "solc",
    "version": "0.5.16+commit.9c3226ce.Emscripten.clang"
  },
  "schemaVersion": "3.3.3",
  "updatedAt": "2021-07-11T20:51:33.104Z",
  "networkType": "ethereum",
  "devdoc": {
    "methods": {}
  },
  "userdoc": {
    "methods": {}
  }
}