{
  "contractName": "EscrowExchange",
  "abi": [
    {
      "anonymous": false,
      "inputs": [
        {
          "indexed": false,
          "internalType": "address",
          "name": "buyer",
          "type": "address"
        },
        {
          "indexed": false,
          "internalType": "address",
          "name": "seller",
          "type": "address"
        },
        {
          "indexed": false,
          "internalType": "uint256",
          "name": "amount",
          "type": "uint256"
        },
        {
          "indexed": false,
          "internalType": "uint256",
          "name": "deposit",
          "type": "uint256"
        },
        {
          "indexed": false,
          "internalType": "uint256",
          "name": "signatureCount",
          "type": "uint256"
        },
        {
          "indexed": false,
          "internalType": "string",
          "name": "status",
          "type": "string"
        },
        {
          "indexed": false,
          "internalType": "string",
          "name": "notes",
          "type": "string"
        },
        {
          "indexed": false,
          "internalType": "bool",
          "name": "depositMade",
          "type": "bool"
        }
      ],
      "name": "ContractCreated",
      "type": "event"
    },
    {
      "constant": true,
      "inputs": [
        {
          "internalType": "address",
          "name": "",
          "type": "address"
        },
        {
          "internalType": "uint256",
          "name": "",
          "type": "uint256"
        }
      ],
      "name": "addressContractIndexExists",
      "outputs": [
        {
          "internalType": "bool",
          "name": "",
          "type": "bool"
        }
      ],
      "payable": false,
      "stateMutability": "view",
      "type": "function"
    },
    {
      "constant": true,
      "inputs": [
        {
          "internalType": "address",
          "name": "",
          "type": "address"
        },
        {
          "internalType": "uint256",
          "name": "",
          "type": "uint256"
        }
      ],
      "name": "addressToIndex",
      "outputs": [
        {
          "internalType": "uint256",
          "name": "",
          "type": "uint256"
        }
      ],
      "payable": false,
      "stateMutability": "view",
      "type": "function"
    },
    {
      "constant": true,
      "inputs": [],
      "name": "contractCount",
      "outputs": [
        {
          "internalType": "uint256",
          "name": "",
          "type": "uint256"
        }
      ],
      "payable": false,
      "stateMutability": "view",
      "type": "function"
    },
    {
      "constant": true,
      "inputs": [
        {
          "internalType": "uint256",
          "name": "",
          "type": "uint256"
        }
      ],
      "name": "contractIndexesForUsers",
      "outputs": [
        {
          "internalType": "contract EscrowFactory",
          "name": "",
          "type": "address"
        }
      ],
      "payable": false,
      "stateMutability": "view",
      "type": "function"
    },
    {
      "constant": true,
      "inputs": [
        {
          "internalType": "uint256",
          "name": "index",
          "type": "uint256"
        }
      ],
      "name": "getContractForCurrentUser",
      "outputs": [
        {
          "internalType": "address",
          "name": "",
          "type": "address"
        },
        {
          "internalType": "address",
          "name": "",
          "type": "address"
        },
        {
          "internalType": "uint256",
          "name": "",
          "type": "uint256"
        },
        {
          "internalType": "uint256",
          "name": "",
          "type": "uint256"
        },
        {
          "internalType": "uint256",
          "name": "",
          "type": "uint256"
        },
        {
          "internalType": "string",
          "name": "",
          "type": "string"
        },
        {
          "internalType": "string",
          "name": "",
          "type": "string"
        },
        {
          "internalType": "uint256",
          "name": "",
          "type": "uint256"
        },
        {
          "internalType": "uint256",
          "name": "",
          "type": "uint256"
        },
        {
          "internalType": "uint256",
          "name": "",
          "type": "uint256"
        },
        {
          "internalType": "address",
          "name": "",
          "type": "address"
        }
      ],
      "payable": false,
      "stateMutability": "view",
      "type": "function"
    },
    {
      "constant": true,
      "inputs": [],
      "name": "getContractCountForCurrentUser",
      "outputs": [
        {
          "internalType": "uint256",
          "name": "",
          "type": "uint256"
        }
      ],
      "payable": false,
      "stateMutability": "view",
      "type": "function"
    },
    {
      "constant": false,
      "inputs": [
        {
          "internalType": "address payable",
          "name": "buyer",
          "type": "address"
        },
        {
          "internalType": "address payable",
          "name": "seller",
          "type": "address"
        },
        {
          "internalType": "uint256",
          "name": "amount",
          "type": "uint256"
        },
        {
          "internalType": "uint256",
          "name": "deposit",
          "type": "uint256"
        },
        {
          "internalType": "string",
          "name": "notes",
          "type": "string"
        }
      ],
      "name": "createContract",
      "outputs": [],
      "payable": false,
      "stateMutability": "nonpayable",
      "type": "function"
    },
    {
      "constant": false,
      "inputs": [
        {
          "internalType": "uint256",
          "name": "contract_index",
          "type": "uint256"
        }
      ],
      "name": "buyerDeposit",
      "outputs": [],
      "payable": true,
      "stateMutability": "payable",
      "type": "function"
    },
    {
      "constant": false,
      "inputs": [
        {
          "internalType": "uint256",
          "name": "contract_index",
          "type": "uint256"
        }
      ],
      "name": "sellerDeposit",
      "outputs": [],
      "payable": true,
      "stateMutability": "payable",
      "type": "function"
    },
    {
      "constant": false,
      "inputs": [
        {
          "internalType": "uint256",
          "name": "contract_index",
          "type": "uint256"
        }
      ],
      "name": "reverseBuyerDeposit",
      "outputs": [],
      "payable": false,
      "stateMutability": "nonpayable",
      "type": "function"
    },
    {
      "constant": false,
      "inputs": [
        {
          "internalType": "uint256",
          "name": "contract_index",
          "type": "uint256"
        }
      ],
      "name": "reverseSellerDeposit",
      "outputs": [],
      "payable": false,
      "stateMutability": "nonpayable",
      "type": "function"
    },
    {
      "constant": false,
      "inputs": [
        {
          "internalType": "uint256",
          "name": "contract_index",
          "type": "uint256"
        }
      ],
      "name": "claimDeposits",
      "outputs": [],
      "payable": false,
      "stateMutability": "nonpayable",
      "type": "function"
    }
  ],
  "bytecode": "0x60806040526000805534801561001457600080fd5b50614d64806100246000396000f3fe608060405260043610620000b65760003560e01c80636a3661a6116200006d5780636a3661a614620001f75780636deba5f314620002255780638736381a146200024557806392646cc51462000275578063d0be31c414620002b9578063e1ab571114620002fd57620000b6565b80630eb4792214620000bb5780632cc4007814620000db5780633d0beb4b14620001095780634709384f146200014d5780634a47248c146200017b57806360cc106214620001a9575b600080fd5b620000d96004803603620000d39190810190620014fa565b6200032d565b005b348015620000e857600080fd5b50620001076004803603620001019190810190620014fa565b620003da565b005b3480156200011657600080fd5b506200013560048036036200012f919081019062001474565b62000485565b60405162000144919062001965565b60405180910390f35b3480156200015a57600080fd5b50620001796004803603620001739190810190620014fa565b620004b4565b005b3480156200018857600080fd5b50620001a76004803603620001a19190810190620014fa565b6200055f565b005b348015620001b657600080fd5b50620001d56004803603620001cf9190810190620014fa565b6200060a565b604051620001ee9b9a9998979695949392919062001818565b60405180910390f35b3480156200020457600080fd5b506200022360048036036200021d9190810190620013d9565b62000c2a565b005b6200024360048036036200023d9190810190620014fa565b62000fc9565b005b3480156200025257600080fd5b506200025d62001076565b6040516200026c919062001965565b60405180910390f35b3480156200028257600080fd5b50620002a160048036036200029b9190810190620014fa565b6200107c565b604051620002b0919062001904565b60405180910390f35b348015620002c657600080fd5b50620002e56004803603620002df919081019062001474565b620010af565b604051620002f49190620018e7565b60405180910390f35b3480156200030a57600080fd5b5062000315620010de565b60405162000324919062001965565b60405180910390f35b60006003600083815260200190815260200160002060009054906101000a900473ffffffffffffffffffffffffffffffffffffffff1690508073ffffffffffffffffffffffffffffffffffffffff1663e0915dc933346040518363ffffffff1660e01b8152600401620003a2929190620017eb565b600060405180830381600087803b158015620003bd57600080fd5b505af1158015620003d2573d6000803e3d6000fd5b505050505050565b60006003600083815260200190815260200160002060009054906101000a900473ffffffffffffffffffffffffffffffffffffffff1690508073ffffffffffffffffffffffffffffffffffffffff16637fc3ac2a336040518263ffffffff1660e01b81526004016200044d9190620016d0565b600060405180830381600087803b1580156200046857600080fd5b505af11580156200047d573d6000803e3d6000fd5b505050505050565b600160205281600052604060002081815481106200049f57fe5b90600052602060002001600091509150505481565b60006003600083815260200190815260200160002060009054906101000a900473ffffffffffffffffffffffffffffffffffffffff1690508073ffffffffffffffffffffffffffffffffffffffff1663b35dd420336040518263ffffffff1660e01b8152600401620005279190620016d0565b600060405180830381600087803b1580156200054257600080fd5b505af115801562000557573d6000803e3d6000fd5b505050505050565b60006003600083815260200190815260200160002060009054906101000a900473ffffffffffffffffffffffffffffffffffffffff1690508073ffffffffffffffffffffffffffffffffffffffff1663e89bee09336040518263ffffffff1660e01b8152600401620005d29190620016d0565b600060405180830381600087803b158015620005ed57600080fd5b505af115801562000602573d6000803e3d6000fd5b505050505050565b6000806000806000606080600080600080600260003373ffffffffffffffffffffffffffffffffffffffff1673ffffffffffffffffffffffffffffffffffffffff16815260200190815260200160002060008d815260200190815260200160002060009054906101000a900460ff161562000c1a576000600360008e815260200190815260200160002060009054906101000a900473ffffffffffffffffffffffffffffffffffffffff1690508073ffffffffffffffffffffffffffffffffffffffff1663603daf9a6040518163ffffffff1660e01b815260040160206040518083038186803b158015620006fe57600080fd5b505afa15801562000713573d6000803e3d6000fd5b505050506040513d601f19601f82011682018060405250620007399190810190620013ad565b8173ffffffffffffffffffffffffffffffffffffffff1663dbd0e1b66040518163ffffffff1660e01b815260040160206040518083038186803b1580156200078057600080fd5b505afa15801562000795573d6000803e3d6000fd5b505050506040513d601f19601f82011682018060405250620007bb9190810190620013ad565b8273ffffffffffffffffffffffffffffffffffffffff1663d321fe296040518163ffffffff1660e01b815260040160206040518083038186803b1580156200080257600080fd5b505afa15801562000817573d6000803e3d6000fd5b505050506040513d601f19601f820116820180604052506200083d919081019062001526565b8373ffffffffffffffffffffffffffffffffffffffff1663c399ec886040518163ffffffff1660e01b815260040160206040518083038186803b1580156200088457600080fd5b505afa15801562000899573d6000803e3d6000fd5b505050506040513d601f19601f82011682018060405250620008bf919081019062001526565b8473ffffffffffffffffffffffffffffffffffffffff166389d84af56040518163ffffffff1660e01b815260040160206040518083038186803b1580156200090657600080fd5b505afa1580156200091b573d6000803e3d6000fd5b505050506040513d601f19601f8201168201806040525062000941919081019062001526565b8573ffffffffffffffffffffffffffffffffffffffff1663c032846b6040518163ffffffff1660e01b815260040160006040518083038186803b1580156200098857600080fd5b505afa1580156200099d573d6000803e3d6000fd5b505050506040513d6000823e3d601f19601f82011682018060405250620009c89190810190620014b5565b8673ffffffffffffffffffffffffffffffffffffffff1663b4af200d6040518163ffffffff1660e01b815260040160006040518083038186803b15801562000a0f57600080fd5b505afa15801562000a24573d6000803e3d6000fd5b505050506040513d6000823e3d601f19601f8201168201806040525062000a4f9190810190620014b5565b8773ffffffffffffffffffffffffffffffffffffffff166303828aee336040518263ffffffff1660e01b815260040162000a8a9190620016d0565b60206040518083038186803b15801562000aa357600080fd5b505afa15801562000ab8573d6000803e3d6000fd5b505050506040513d601f19601f8201168201806040525062000ade919081019062001526565b8873ffffffffffffffffffffffffffffffffffffffff166386fef236336040518263ffffffff1660e01b815260040162000b199190620016d0565b60206040518083038186803b15801562000b3257600080fd5b505afa15801562000b47573d6000803e3d6000fd5b505050506040513d601f19601f8201168201806040525062000b6d919081019062001526565b8973ffffffffffffffffffffffffffffffffffffffff1663277fc0e9336040518263ffffffff1660e01b815260040162000ba89190620016d0565b60206040518083038186803b15801562000bc157600080fd5b505afa15801562000bd6573d6000803e3d6000fd5b505050506040513d601f19601f8201168201806040525062000bfc919081019062001526565b8a9b509b509b509b509b509b509b509b509b509b509b505062000c1b565b5b91939597999b90929496989a50565b600073ffffffffffffffffffffffffffffffffffffffff168573ffffffffffffffffffffffffffffffffffffffff16141562000c9d576040517f08c379a000000000000000000000000000000000000000000000000000000000815260040162000c949062001921565b60405180910390fd5b600073ffffffffffffffffffffffffffffffffffffffff168473ffffffffffffffffffffffffffffffffffffffff16141562000d10576040517f08c379a000000000000000000000000000000000000000000000000000000000815260040162000d079062001943565b60405180910390fd5b6000831162000d1e57600080fd5b6000821162000d2c57600080fd5b6000858585858560405162000d419062001274565b62000d5195949392919062001787565b604051809103906000f08015801562000d6e573d6000803e3d6000fd5b50905080600360008054815260200190815260200160002060006101000a81548173ffffffffffffffffffffffffffffffffffffffff021916908373ffffffffffffffffffffffffffffffffffffffff160217905550600160008773ffffffffffffffffffffffffffffffffffffffff1673ffffffffffffffffffffffffffffffffffffffff1681526020019081526020016000206000549080600181540180825580915050906001820390600052602060002001600090919290919091505550600160008673ffffffffffffffffffffffffffffffffffffffff1673ffffffffffffffffffffffffffffffffffffffff16815260200190815260200160002060005490806001815401808255809150509060018203906000526020600020016000909192909190915055506001600260008873ffffffffffffffffffffffffffffffffffffffff1673ffffffffffffffffffffffffffffffffffffffff16815260200190815260200160002060008054815260200190815260200160002060006101000a81548160ff0219169083151502179055506001600260008773ffffffffffffffffffffffffffffffffffffffff1673ffffffffffffffffffffffffffffffffffffffff16815260200190815260200160002060008054815260200190815260200160002060006101000a81548160ff0219169083151502179055506001600054016000819055507f0acd88e48e19df2f60e1fac1cc74e5cd85d20d113033e9f7ed5d60534fb3381a86868686600087600060405162000fb99796959493929190620016ed565b60405180910390a1505050505050565b60006003600083815260200190815260200160002060009054906101000a900473ffffffffffffffffffffffffffffffffffffffff1690508073ffffffffffffffffffffffffffffffffffffffff16639dea02ae33346040518363ffffffff1660e01b81526004016200103e929190620017eb565b600060405180830381600087803b1580156200105957600080fd5b505af11580156200106e573d6000803e3d6000fd5b505050505050565b60005481565b60036020528060005260406000206000915054906101000a900473ffffffffffffffffffffffffffffffffffffffff1681565b60026020528160005260406000206020528060005260406000206000915091509054906101000a900460ff1681565b600080600160003373ffffffffffffffffffffffffffffffffffffffff1673ffffffffffffffffffffffffffffffffffffffff16815260200190815260200160002080549050141562001135576000905062001271565b60018060003373ffffffffffffffffffffffffffffffffffffffff1673ffffffffffffffffffffffffffffffffffffffff168152602001908152602001600020805490501415620011cb57600160003373ffffffffffffffffffffffffffffffffffffffff1673ffffffffffffffffffffffffffffffffffffffff16815260200190815260200160002080549050905062001271565b6000600160003373ffffffffffffffffffffffffffffffffffffffff1673ffffffffffffffffffffffffffffffffffffffff16815260200190815260200160002080549050905060018060003373ffffffffffffffffffffffffffffffffffffffff1673ffffffffffffffffffffffffffffffffffffffff16815260200190815260200160002060018303815481106200126157fe5b9060005260206000200154019150505b90565b6131ae8062001b7483390190565b600081359050620012938162001b25565b92915050565b600081519050620012aa8162001b25565b92915050565b600081359050620012c18162001b3f565b92915050565b600082601f830112620012d957600080fd5b8135620012f0620012ea82620019b0565b62001982565b915080825260208301602083018583830111156200130d57600080fd5b6200131a83828462001acf565b50505092915050565b600082601f8301126200133557600080fd5b81516200134c6200134682620019b0565b62001982565b915080825260208301602083018583830111156200136957600080fd5b6200137683828462001ade565b50505092915050565b600081359050620013908162001b59565b92915050565b600081519050620013a78162001b59565b92915050565b600060208284031215620013c057600080fd5b6000620013d08482850162001299565b91505092915050565b600080600080600060a08688031215620013f257600080fd5b60006200140288828901620012b0565b95505060206200141588828901620012b0565b945050604062001428888289016200137f565b93505060606200143b888289016200137f565b925050608086013567ffffffffffffffff8111156200145957600080fd5b6200146788828901620012c7565b9150509295509295909350565b600080604083850312156200148857600080fd5b6000620014988582860162001282565b9250506020620014ab858286016200137f565b9150509250929050565b600060208284031215620014c857600080fd5b600082015167ffffffffffffffff811115620014e357600080fd5b620014f18482850162001323565b91505092915050565b6000602082840312156200150d57600080fd5b60006200151d848285016200137f565b91505092915050565b6000602082840312156200153957600080fd5b6000620015498482850162001396565b91505092915050565b6200155d8162001a57565b82525050565b6200156e8162001a0d565b82525050565b6200157f81620019f9565b82525050565b620015908162001a21565b82525050565b620015a18162001a6b565b82525050565b620015b28162001a93565b82525050565b6000620015c582620019dd565b620015d18185620019e8565b9350620015e381856020860162001ade565b620015ee8162001b14565b840191505092915050565b600062001608601583620019e8565b91507f496e76616c6964206275796572206164647265737300000000000000000000006000830152602082019050919050565b60006200164a600483620019e8565b91507f4f70656e000000000000000000000000000000000000000000000000000000006000830152602082019050919050565b60006200168c601683620019e8565b91507f496e76616c69642073656c6c65722061646472657373000000000000000000006000830152602082019050919050565b620016ca8162001a4d565b82525050565b6000602082019050620016e7600083018462001552565b92915050565b60006101008201905062001705600083018a62001552565b62001714602083018962001552565b620017236040830188620016bf565b620017326060830187620016bf565b620017416080830186620015a7565b81810360a083015262001754816200163b565b905081810360c08301526200176a8185620015b8565b90506200177b60e083018462001585565b98975050505050505050565b600060a0820190506200179e600083018862001563565b620017ad602083018762001563565b620017bc6040830186620016bf565b620017cb6060830185620016bf565b8181036080830152620017df8184620015b8565b90509695505050505050565b600060408201905062001802600083018562001552565b620018116020830184620016bf565b9392505050565b60006101608201905062001830600083018e62001574565b6200183f602083018d62001574565b6200184e604083018c620016bf565b6200185d606083018b620016bf565b6200186c608083018a620016bf565b81810360a0830152620018808189620015b8565b905081810360c0830152620018968188620015b8565b9050620018a760e0830187620016bf565b620018b7610100830186620016bf565b620018c7610120830185620016bf565b620018d761014083018462001574565b9c9b505050505050505050505050565b6000602082019050620018fe600083018462001585565b92915050565b60006020820190506200191b600083018462001596565b92915050565b600060208201905081810360008301526200193c81620015f9565b9050919050565b600060208201905081810360008301526200195e816200167d565b9050919050565b60006020820190506200197c6000830184620016bf565b92915050565b6000604051905081810181811067ffffffffffffffff82111715620019a657600080fd5b8060405250919050565b600067ffffffffffffffff821115620019c857600080fd5b601f19601f8301169050602081019050919050565b600081519050919050565b600082825260208201905092915050565b600062001a068262001a2d565b9050919050565b600062001a1a8262001a2d565b9050919050565b60008115159050919050565b600073ffffffffffffffffffffffffffffffffffffffff82169050919050565b6000819050919050565b600062001a648262001aa7565b9050919050565b600062001a788262001a7f565b9050919050565b600062001a8c8262001a2d565b9050919050565b600062001aa08262001a4d565b9050919050565b600062001ab48262001abb565b9050919050565b600062001ac88262001a2d565b9050919050565b82818337600083830152505050565b60005b8381101562001afe57808201518184015260208101905062001ae1565b8381111562001b0e576000848401525b50505050565b6000601f19601f8301169050919050565b62001b3081620019f9565b811462001b3c57600080fd5b50565b62001b4a8162001a0d565b811462001b5657600080fd5b50565b62001b648162001a4d565b811462001b7057600080fd5b5056fe60806040523480156200001157600080fd5b50604051620031ae380380620031ae833981810160405260a08110156200003757600080fd5b8101908080519060200190929190805190602001909291908051906020019092919080519060200190929190805160405193929190846401000000008211156200008057600080fd5b838201915060208201858111156200009757600080fd5b8251866001820283011164010000000082111715620000b557600080fd5b8083526020830192505050908051906020019080838360005b83811015620000eb578082015181840152602081019050620000ce565b50505050905090810190601f168015620001195780820380516001836020036101000a031916815260200191505b50604052505050846000806101000a81548173ffffffffffffffffffffffffffffffffffffffff021916908373ffffffffffffffffffffffffffffffffffffffff16021790555083600160006101000a81548173ffffffffffffffffffffffffffffffffffffffff021916908373ffffffffffffffffffffffffffffffffffffffff16021790555082600381905550816004819055508060079080519060200190620001c792919062000374565b506000600660006101000a81548160ff02191690836002811115620001e857fe5b021790555060028590806001815401808255809150509060018203906000526020600020016000909192909190916101000a81548173ffffffffffffffffffffffffffffffffffffffff021916908373ffffffffffffffffffffffffffffffffffffffff1602179055505060028490806001815401808255809150509060018203906000526020600020016000909192909190916101000a81548173ffffffffffffffffffffffffffffffffffffffff021916908373ffffffffffffffffffffffffffffffffffffffff160217905550506001600860008773ffffffffffffffffffffffffffffffffffffffff1673ffffffffffffffffffffffffffffffffffffffff16815260200190815260200160002060006101000a81548160ff0219169083151502179055506001600860008673ffffffffffffffffffffffffffffffffffffffff1673ffffffffffffffffffffffffffffffffffffffff16815260200190815260200160002060006101000a81548160ff021916908315150217905550505050505062000423565b828054600181600116156101000203166002900490600052602060002090601f016020900481019282601f10620003b757805160ff1916838001178555620003e8565b82800160010185558215620003e8579182015b82811115620003e7578251825591602001919060010190620003ca565b5b509050620003f79190620003fb565b5090565b6200042091905b808211156200041c57600081600090555060010162000402565b5090565b90565b612d7b80620004336000396000f3fe6080604052600436106101c25760003560e01c806389d84af5116100f7578063c399ec8811610095578063dbd0e1b611610064578063dbd0e1b614610a3b578063e0915dc914610a92578063e7f55ed614610ae0578063e89bee0914610b0b576101c2565b8063c399ec8814610955578063c792f36d14610980578063d0e30db0146109e5578063d321fe2914610a10576101c2565b8063ab404ff0116100d1578063ab404ff01461077f578063b35dd420146107e4578063b4af200d14610835578063c032846b146108c5576101c2565b806389d84af5146106db5780639dea02ae14610706578063aa8c217c14610754576101c2565b8063537eeb51116101645780637150d8ae1161013e5780637150d8ae1461057d57806378d2891a146105d45780637fc3ac2a1461062557806386fef23614610676576101c2565b8063537eeb51146104705780635f71f317146104d5578063603daf9a14610526576101c2565b8063200d2ed2116101a0578063200d2ed214610313578063210cb8c31461034c578063277fc0e914610390578063314fd68f146103f5576101c2565b806303828aee146101c757806308551a531461022c5780631866dc9714610283575b600080fd5b3480156101d357600080fd5b50610216600480360360208110156101ea57600080fd5b81019080803573ffffffffffffffffffffffffffffffffffffffff169060200190929190505050610b5c565b6040518082815260200191505060405180910390f35b34801561023857600080fd5b50610241610ba5565b604051808273ffffffffffffffffffffffffffffffffffffffff1673ffffffffffffffffffffffffffffffffffffffff16815260200191505060405180910390f35b34801561028f57600080fd5b50610298610bcb565b6040518080602001828103825283818151815260200191508051906020019080838360005b838110156102d85780820151818401526020810190506102bd565b50505050905090810190601f1680156103055780820380516001836020036101000a031916815260200191505b509250505060405180910390f35b34801561031f57600080fd5b50610328610c69565b6040518082600281111561033857fe5b60ff16815260200191505060405180910390f35b61038e6004803603602081101561036257600080fd5b81019080803573ffffffffffffffffffffffffffffffffffffffff169060200190929190505050610c7c565b005b34801561039c57600080fd5b506103df600480360360208110156103b357600080fd5b81019080803573ffffffffffffffffffffffffffffffffffffffff169060200190929190505050610e9f565b6040518082815260200191505060405180910390f35b34801561040157600080fd5b5061042e6004803603602081101561041857600080fd5b8101908080359060200190929190505050610ee8565b604051808273ffffffffffffffffffffffffffffffffffffffff1673ffffffffffffffffffffffffffffffffffffffff16815260200191505060405180910390f35b34801561047c57600080fd5b506104bf6004803603602081101561049357600080fd5b81019080803573ffffffffffffffffffffffffffffffffffffffff169060200190929190505050610f24565b6040518082815260200191505060405180910390f35b3480156104e157600080fd5b50610524600480360360208110156104f857600080fd5b81019080803573ffffffffffffffffffffffffffffffffffffffff169060200190929190505050610f3c565b005b34801561053257600080fd5b5061053b61126d565b604051808273ffffffffffffffffffffffffffffffffffffffff1673ffffffffffffffffffffffffffffffffffffffff16815260200191505060405180910390f35b34801561058957600080fd5b50610592611296565b604051808273ffffffffffffffffffffffffffffffffffffffff1673ffffffffffffffffffffffffffffffffffffffff16815260200191505060405180910390f35b3480156105e057600080fd5b50610623600480360360208110156105f757600080fd5b81019080803573ffffffffffffffffffffffffffffffffffffffff1690602001909291905050506112bb565b005b34801561063157600080fd5b506106746004803603602081101561064857600080fd5b81019080803573ffffffffffffffffffffffffffffffffffffffff1690602001909291905050506115ec565b005b34801561068257600080fd5b506106c56004803603602081101561069957600080fd5b81019080803573ffffffffffffffffffffffffffffffffffffffff169060200190929190505050611991565b6040518082815260200191505060405180910390f35b3480156106e757600080fd5b506106f06119da565b6040518082815260200191505060405180910390f35b6107526004803603604081101561071c57600080fd5b81019080803573ffffffffffffffffffffffffffffffffffffffff169060200190929190803590602001909291905050506119e4565b005b34801561076057600080fd5b50610769611c58565b6040518082815260200191505060405180910390f35b34801561078b57600080fd5b506107ce600480360360208110156107a257600080fd5b81019080803573ffffffffffffffffffffffffffffffffffffffff169060200190929190505050611c5e565b6040518082815260200191505060405180910390f35b3480156107f057600080fd5b506108336004803603602081101561080757600080fd5b81019080803573ffffffffffffffffffffffffffffffffffffffff169060200190929190505050611c76565b005b34801561084157600080fd5b5061084a61232e565b6040518080602001828103825283818151815260200191508051906020019080838360005b8381101561088a57808201518184015260208101905061086f565b50505050905090810190601f1680156108b75780820380516001836020036101000a031916815260200191505b509250505060405180910390f35b3480156108d157600080fd5b506108da6123d0565b6040518080602001828103825283818151815260200191508051906020019080838360005b8381101561091a5780820151818401526020810190506108ff565b50505050905090810190601f1680156109475780820380516001836020036101000a031916815260200191505b509250505060405180910390f35b34801561096157600080fd5b5061096a6124e4565b6040518082815260200191505060405180910390f35b34801561098c57600080fd5b506109cf600480360360208110156109a357600080fd5b81019080803573ffffffffffffffffffffffffffffffffffffffff1690602001909291905050506124ee565b6040518082815260200191505060405180910390f35b3480156109f157600080fd5b506109fa612506565b6040518082815260200191505060405180910390f35b348015610a1c57600080fd5b50610a2561250c565b6040518082815260200191505060405180910390f35b348015610a4757600080fd5b50610a50612516565b604051808273ffffffffffffffffffffffffffffffffffffffff1673ffffffffffffffffffffffffffffffffffffffff16815260200191505060405180910390f35b610ade60048036036040811015610aa857600080fd5b81019080803573ffffffffffffffffffffffffffffffffffffffff16906020019092919080359060200190929190505050612540565b005b348015610aec57600080fd5b50610af56127b5565b6040518082815260200191505060405180910390f35b348015610b1757600080fd5b50610b5a60048036036020811015610b2e57600080fd5b81019080803573ffffffffffffffffffffffffffffffffffffffff1690602001909291905050506127bb565b005b6000600a60008373ffffffffffffffffffffffffffffffffffffffff1673ffffffffffffffffffffffffffffffffffffffff168152602001908152602001600020549050919050565b600160009054906101000a900473ffffffffffffffffffffffffffffffffffffffff1681565b60078054600181600116156101000203166002900480601f016020809104026020016040519081016040528092919081815260200182805460018160011615610100020316600290048015610c615780601f10610c3657610100808354040283529160200191610c61565b820191906000526020600020905b815481529060010190602001808311610c4457829003601f168201915b505050505081565b600660009054906101000a900460ff1681565b806000809054906101000a900473ffffffffffffffffffffffffffffffffffffffff1673ffffffffffffffffffffffffffffffffffffffff168173ffffffffffffffffffffffffffffffffffffffff1614610cd657600080fd5b6003543414610ce457600080fd5b6001600a60008060009054906101000a900473ffffffffffffffffffffffffffffffffffffffff1673ffffffffffffffffffffffffffffffffffffffff1673ffffffffffffffffffffffffffffffffffffffff1681526020019081526020016000205414610d5157600080fd5b6001600a6000600160009054906101000a900473ffffffffffffffffffffffffffffffffffffffff1673ffffffffffffffffffffffffffffffffffffffff1673ffffffffffffffffffffffffffffffffffffffff1681526020019081526020016000205414610dbf57600080fd5b6000600b60003373ffffffffffffffffffffffffffffffffffffffff1673ffffffffffffffffffffffffffffffffffffffff1681526020019081526020016000205414610e0b57600080fd5b6001600b60003373ffffffffffffffffffffffffffffffffffffffff1673ffffffffffffffffffffffffffffffffffffffff168152602001908152602001600020819055507fdbafb049923bd24c9143b7aea787bb9133f12c9bc10e8ff7f1be6e2f13028c9760405180806020018281038252602f815260200180612bcc602f913960400191505060405180910390a15050565b6000600960008373ffffffffffffffffffffffffffffffffffffffff1673ffffffffffffffffffffffffffffffffffffffff168152602001908152602001600020549050919050565b60028181548110610ef557fe5b906000526020600020016000915054906101000a900473ffffffffffffffffffffffffffffffffffffffff1681565b600b6020528060005260406000206000915090505481565b80600160009054906101000a900473ffffffffffffffffffffffffffffffffffffffff1673ffffffffffffffffffffffffffffffffffffffff168173ffffffffffffffffffffffffffffffffffffffff1614610f9757600080fd5b6001600a60008060009054906101000a900473ffffffffffffffffffffffffffffffffffffffff1673ffffffffffffffffffffffffffffffffffffffff1673ffffffffffffffffffffffffffffffffffffffff168152602001908152602001600020541461100457600080fd5b6001600a6000600160009054906101000a900473ffffffffffffffffffffffffffffffffffffffff1673ffffffffffffffffffffffffffffffffffffffff1673ffffffffffffffffffffffffffffffffffffffff168152602001908152602001600020541461107257600080fd5b6001600b60008060009054906101000a900473ffffffffffffffffffffffffffffffffffffffff1673ffffffffffffffffffffffffffffffffffffffff1673ffffffffffffffffffffffffffffffffffffffff16815260200190815260200160002054146110df57600080fd5b6000809054906101000a900473ffffffffffffffffffffffffffffffffffffffff1673ffffffffffffffffffffffffffffffffffffffff166108fc6003549081150290604051600060405180830381858888f19350505050158015611148573d6000803e3d6000fd5b50600160009054906101000a900473ffffffffffffffffffffffffffffffffffffffff1673ffffffffffffffffffffffffffffffffffffffff166108fc6004549081150290604051600060405180830381858888f193505050501580156111b3573d6000803e3d6000fd5b506000809054906101000a900473ffffffffffffffffffffffffffffffffffffffff1673ffffffffffffffffffffffffffffffffffffffff166108fc6004549081150290604051600060405180830381858888f1935050505015801561121d573d6000803e3d6000fd5b507f1355ee9ef69549a50f8d0008c6cd588a9759815d1b30ee62ed168c2bb7a24a62604051808060200182810382526057815260200180612bfb6057913960600191505060405180910390a15050565b60008060009054906101000a900473ffffffffffffffffffffffffffffffffffffffff16905090565b6000809054906101000a900473ffffffffffffffffffffffffffffffffffffffff1681565b806000809054906101000a900473ffffffffffffffffffffffffffffffffffffffff1673ffffffffffffffffffffffffffffffffffffffff168173ffffffffffffffffffffffffffffffffffffffff161461131557600080fd5b6001600a60008060009054906101000a900473ffffffffffffffffffffffffffffffffffffffff1673ffffffffffffffffffffffffffffffffffffffff1673ffffffffffffffffffffffffffffffffffffffff168152602001908152602001600020541461138257600080fd5b6001600a6000600160009054906101000a900473ffffffffffffffffffffffffffffffffffffffff1673ffffffffffffffffffffffffffffffffffffffff1673ffffffffffffffffffffffffffffffffffffffff16815260200190815260200160002054146113f057600080fd5b6001600b60008060009054906101000a900473ffffffffffffffffffffffffffffffffffffffff1673ffffffffffffffffffffffffffffffffffffffff1673ffffffffffffffffffffffffffffffffffffffff168152602001908152602001600020541461145d57600080fd5b600160009054906101000a900473ffffffffffffffffffffffffffffffffffffffff1673ffffffffffffffffffffffffffffffffffffffff166108fc6003549081150290604051600060405180830381858888f193505050501580156114c7573d6000803e3d6000fd5b506000809054906101000a900473ffffffffffffffffffffffffffffffffffffffff1673ffffffffffffffffffffffffffffffffffffffff166108fc6004549081150290604051600060405180830381858888f19350505050158015611531573d6000803e3d6000fd5b50600160009054906101000a900473ffffffffffffffffffffffffffffffffffffffff1673ffffffffffffffffffffffffffffffffffffffff166108fc6004549081150290604051600060405180830381858888f1935050505015801561159c573d6000803e3d6000fd5b507fd54aabd3141f0694c3f533b346119d27c2eb3248d4f866d6bd8299c78b128daf604051808060200182810382526053815260200180612b0e6053913960600191505060405180910390a15050565b806000809054906101000a900473ffffffffffffffffffffffffffffffffffffffff1673ffffffffffffffffffffffffffffffffffffffff168173ffffffffffffffffffffffffffffffffffffffff161461164657600080fd5b6001600a60008060009054906101000a900473ffffffffffffffffffffffffffffffffffffffff1673ffffffffffffffffffffffffffffffffffffffff1673ffffffffffffffffffffffffffffffffffffffff16815260200190815260200160002054146116ff576040517f08c379a0000000000000000000000000000000000000000000000000000000008152600401808060200182810382526032815260200180612c8d6032913960400191505060405180910390fd5b6000600a6000600160009054906101000a900473ffffffffffffffffffffffffffffffffffffffff1673ffffffffffffffffffffffffffffffffffffffff1673ffffffffffffffffffffffffffffffffffffffff16815260200190815260200160002054146117b9576040517f08c379a0000000000000000000000000000000000000000000000000000000008152600401808060200182810382526036815260200180612b616036913960400191505060405180910390fd5b6000600b60008060009054906101000a900473ffffffffffffffffffffffffffffffffffffffff1673ffffffffffffffffffffffffffffffffffffffff1673ffffffffffffffffffffffffffffffffffffffff1681526020019081526020016000205414611872576040517f08c379a000000000000000000000000000000000000000000000000000000000815260040180806020018281038252603b815260200180612c52603b913960400191505060405180910390fd5b6000600a60008060009054906101000a900473ffffffffffffffffffffffffffffffffffffffff1673ffffffffffffffffffffffffffffffffffffffff1673ffffffffffffffffffffffffffffffffffffffff168152602001908152602001600020819055506000809054906101000a900473ffffffffffffffffffffffffffffffffffffffff1673ffffffffffffffffffffffffffffffffffffffff166108fc6004549081150290604051600060405180830381858888f19350505050158015611941573d6000803e3d6000fd5b507f022a173fa68fb425cd1264890a0951b5a57aa7f1fcdc49e3262e86c1189ec9b1604051808060200182810382526024815260200180612cf16024913960400191505060405180910390a15050565b6000600b60008373ffffffffffffffffffffffffffffffffffffffff1673ffffffffffffffffffffffffffffffffffffffff168152602001908152602001600020549050919050565b6000600554905090565b816000809054906101000a900473ffffffffffffffffffffffffffffffffffffffff1673ffffffffffffffffffffffffffffffffffffffff168173ffffffffffffffffffffffffffffffffffffffff1614611a3e57600080fd5b6004548214611ab5576040517f08c379a000000000000000000000000000000000000000000000000000000000815260040180806020018281038252600f8152602001807f496e76616c6964206465706f736974000000000000000000000000000000000081525060200191505060405180910390fd5b6000600a60008573ffffffffffffffffffffffffffffffffffffffff1673ffffffffffffffffffffffffffffffffffffffff1681526020019081526020016000205414611b6a576040517f08c379a00000000000000000000000000000000000000000000000000000000081526004018080602001828103825260178152602001807f427579657220616c7265616479206465706f736974656400000000000000000081525060200191505060405180910390fd5b6001600a60008573ffffffffffffffffffffffffffffffffffffffff1673ffffffffffffffffffffffffffffffffffffffff168152602001908152602001600020819055507f0109c07b399c647a3567815a956a02e0badfd3ed527a3fdb992031fae5d005f98383604051808373ffffffffffffffffffffffffffffffffffffffff1673ffffffffffffffffffffffffffffffffffffffff16815260200180602001838152602001828103825260208152602001807f686173206d61646520746865207265717569726564206465706f736974206f66815250602001935050505060405180910390a1505050565b60035481565b600a6020528060005260406000206000915090505481565b80600860008273ffffffffffffffffffffffffffffffffffffffff1673ffffffffffffffffffffffffffffffffffffffff16815260200190815260200160002060009054906101000a900460ff16611ccd57600080fd5b6001600a60008060009054906101000a900473ffffffffffffffffffffffffffffffffffffffff1673ffffffffffffffffffffffffffffffffffffffff1673ffffffffffffffffffffffffffffffffffffffff1681526020019081526020016000205414611d86576040517f08c379a0000000000000000000000000000000000000000000000000000000008152600401808060200182810382526032815260200180612cbf6032913960400191505060405180910390fd5b6001600a6000600160009054906101000a900473ffffffffffffffffffffffffffffffffffffffff1673ffffffffffffffffffffffffffffffffffffffff1673ffffffffffffffffffffffffffffffffffffffff1681526020019081526020016000205414611e40576040517f08c379a0000000000000000000000000000000000000000000000000000000008152600401808060200182810382526033815260200180612ab66033913960400191505060405180910390fd5b6000600b60008060009054906101000a900473ffffffffffffffffffffffffffffffffffffffff1673ffffffffffffffffffffffffffffffffffffffff1673ffffffffffffffffffffffffffffffffffffffff1681526020019081526020016000205414611ef9576040517f08c379a0000000000000000000000000000000000000000000000000000000008152600401808060200182810382526036815260200180612a806036913960400191505060405180910390fd5b6000600960008473ffffffffffffffffffffffffffffffffffffffff1673ffffffffffffffffffffffffffffffffffffffff1681526020019081526020016000205414611f91576040517f08c379a0000000000000000000000000000000000000000000000000000000008152600401808060200182810382526032815260200180612d156032913960400191505060405180910390fd5b6001600960008473ffffffffffffffffffffffffffffffffffffffff1673ffffffffffffffffffffffffffffffffffffffff168152602001908152602001600020819055506005600081548092919060010191905055506001600554141561203f577f87463abc399fbbddfcd563f22d61267e4c0402b336940699382407adce42e5a2604051808060200182810382526035815260200180612b976035913960400191505060405180910390a15b6002600554141561232a576000809054906101000a900473ffffffffffffffffffffffffffffffffffffffff1673ffffffffffffffffffffffffffffffffffffffff166108fc6004549081150290604051600060405180830381858888f193505050501580156120b3573d6000803e3d6000fd5b50600160009054906101000a900473ffffffffffffffffffffffffffffffffffffffff1673ffffffffffffffffffffffffffffffffffffffff166108fc6004549081150290604051600060405180830381858888f1935050505015801561211e573d6000803e3d6000fd5b506000600a60008060009054906101000a900473ffffffffffffffffffffffffffffffffffffffff1673ffffffffffffffffffffffffffffffffffffffff1673ffffffffffffffffffffffffffffffffffffffff168152602001908152602001600020819055506000600a6000600160009054906101000a900473ffffffffffffffffffffffffffffffffffffffff1673ffffffffffffffffffffffffffffffffffffffff1673ffffffffffffffffffffffffffffffffffffffff168152602001908152602001600020819055506000600960008060009054906101000a900473ffffffffffffffffffffffffffffffffffffffff1673ffffffffffffffffffffffffffffffffffffffff1673ffffffffffffffffffffffffffffffffffffffff16815260200190815260200160002081905550600060096000600160009054906101000a900473ffffffffffffffffffffffffffffffffffffffff1673ffffffffffffffffffffffffffffffffffffffff1673ffffffffffffffffffffffffffffffffffffffff1681526020019081526020016000208190555060006005819055507fd397a3b1b662401574a4482307d3aaaa5413f8af98a7053e3473935f4d0659ed60405180806020018281038252601f8152602001807f746865206465706f736974732068617665206265656e2072657475726e65640081525060200191505060405180910390a15b5050565b606060078054600181600116156101000203166002900480601f0160208091040260200160405190810160405280929190818152602001828054600181600116156101000203166002900480156123c65780601f1061239b576101008083540402835291602001916123c6565b820191906000526020600020905b8154815290600101906020018083116123a957829003601f168201915b5050505050905090565b6060600060028111156123df57fe5b600660009054906101000a900460ff1660028111156123fa57fe5b141561243d576040518060400160405280600481526020017f4f70656e0000000000000000000000000000000000000000000000000000000081525090506124e1565b6001600281111561244a57fe5b600660009054906101000a900460ff16600281111561246557fe5b14156124a8576040518060400160405280600781526020017f50656e64696e670000000000000000000000000000000000000000000000000081525090506124e1565b6040518060400160405280600681526020017f436c6f736564000000000000000000000000000000000000000000000000000081525090505b90565b6000600454905090565b60096020528060005260406000206000915090505481565b60045481565b6000600354905090565b6000600160009054906101000a900473ffffffffffffffffffffffffffffffffffffffff16905090565b81600160009054906101000a900473ffffffffffffffffffffffffffffffffffffffff1673ffffffffffffffffffffffffffffffffffffffff168173ffffffffffffffffffffffffffffffffffffffff161461259b57600080fd5b6004548214612612576040517f08c379a000000000000000000000000000000000000000000000000000000000815260040180806020018281038252600f8152602001807f496e76616c6964206465706f736974000000000000000000000000000000000081525060200191505060405180910390fd5b6000600a60008573ffffffffffffffffffffffffffffffffffffffff1673ffffffffffffffffffffffffffffffffffffffff16815260200190815260200160002054146126c7576040517f08c379a00000000000000000000000000000000000000000000000000000000081526004018080602001828103825260188152602001807f53656c6c657220616c7265616479206465706f7369746564000000000000000081525060200191505060405180910390fd5b6001600a60008573ffffffffffffffffffffffffffffffffffffffff1673ffffffffffffffffffffffffffffffffffffffff168152602001908152602001600020819055507feaa52bf3f740eaa050012695cd117e2182b5c032c7fc36dbcdfc74189f68ab2e8383604051808373ffffffffffffffffffffffffffffffffffffffff1673ffffffffffffffffffffffffffffffffffffffff16815260200180602001838152602001828103825260208152602001807f686173206d61646520746865207265717569726564206465706f736974206f66815250602001935050505060405180910390a1505050565b60055481565b80600160009054906101000a900473ffffffffffffffffffffffffffffffffffffffff1673ffffffffffffffffffffffffffffffffffffffff168173ffffffffffffffffffffffffffffffffffffffff161461281657600080fd5b6001600a6000600160009054906101000a900473ffffffffffffffffffffffffffffffffffffffff1673ffffffffffffffffffffffffffffffffffffffff1673ffffffffffffffffffffffffffffffffffffffff168152602001908152602001600020541461288457600080fd5b6000600a60008060009054906101000a900473ffffffffffffffffffffffffffffffffffffffff1673ffffffffffffffffffffffffffffffffffffffff1673ffffffffffffffffffffffffffffffffffffffff16815260200190815260200160002054146128f157600080fd5b6000600b60008060009054906101000a900473ffffffffffffffffffffffffffffffffffffffff1673ffffffffffffffffffffffffffffffffffffffff1673ffffffffffffffffffffffffffffffffffffffff168152602001908152602001600020541461295e57600080fd5b6000600a6000600160009054906101000a900473ffffffffffffffffffffffffffffffffffffffff1673ffffffffffffffffffffffffffffffffffffffff1673ffffffffffffffffffffffffffffffffffffffff16815260200190815260200160002081905550600160009054906101000a900473ffffffffffffffffffffffffffffffffffffffff1673ffffffffffffffffffffffffffffffffffffffff166108fc6004549081150290604051600060405180830381858888f19350505050158015612a2f573d6000803e3d6000fd5b507f68899ad50909030043672ec750f7e234201226c34f9efa036d99c5432d220a39604051808060200182810382526025815260200180612ae96025913960400191505060405180910390a1505056fe7468652062757965722068617320616c72656164792073656e7420616e20616d6f756e7420666f7220636c61696d4465706f736974737468652073656c6c657220686173206e6f74206d6164652061206465706f73697420666f7220636c61696d4465706f736974737468652073656c6c657220686173207265766572736564207468656972206465706f7369745468652073656c6c657220686173206265656e207061696420616e6420616c6c206465706f736974732068617665206265656e2072657475726e6564202d207472616e73616374696f6e20636f6d706c6574657468652073656c6c657220686173206465706f736974656420616c72656164792043414e4e4f5420726576657273654465706f736974746865206465706f73697420636c61696d206861732031206f7574206f662032206e6563657373617279207369676e6174757265734275796572206861732073656e7420746865207061796d656e7420616d6f756e7420746f2074686520657363726f7754686520627579657220686173206265656e20726566756e64656420616e6420616c6c206465706f736974732068617665206265656e2072657475726e6564202d207472616e73616374696f6e2063616e63656c6c65647468652062757965722068617320616c72656164792073656e742074686520616d6f756e742043414e4e4f5420726576657273654465706f73697474686520627579657220686173206e6f7420646573706f73697465642043414e4e4f5420726576657273654465706f73697474686520627579657220686173206e6f74206d6164652061206465706f73697420666f7220636c61696d4465706f7369747374686520627579657220686173207265766572736564207468656972206465706f7369747468652073656e646572206861766520616c7265616479207369676e6564206f6666206f6e20636c61696d4465706f736974a265627a7a7231582083940cfb751c1b7689f43810be6b720cfb0c7057349bcc53bf18e3faf9eb9cca64736f6c63430005100032a365627a7a7231582008220a6b0cb7e60e72221ebf2f27856cc91cc1d29e635a96015a2398d0f0c3376c6578706572696d656e74616cf564736f6c63430005100040",
  "source": "pragma solidity ^0.5.16;\npragma experimental ABIEncoderV2;\n\nimport \"./EscrowFactory.sol\";\n\ncontract EscrowExchange {\n\tuint public contractCount = 0;\n\tmapping(address => uint[]) public addressToIndex;\n\tmapping(address => mapping(uint => bool)) public addressContractIndexExists;\n\tmapping(uint => EscrowFactory) public contractIndexesForUsers;\n\n\t// TOFIX\n\tevent ContractCreated(address buyer, address seller, uint amount, uint deposit, uint signatureCount, string status, string notes, bool depositMade);\n\n\tfunction getContractForCurrentUser(uint index) public view returns (address, address, uint, uint, uint, string memory, string memory, uint, uint, uint, address){\n\t\tif (addressContractIndexExists[msg.sender][index]) {\n\t \t\tEscrowFactory retrieved_contract = contractIndexesForUsers[index];\n\t\t\n\t        return (retrieved_contract.getBuyer(), \n\t        \tretrieved_contract.getSeller(), \n\t        \tretrieved_contract.getAmount(), \n\t        \tretrieved_contract.getDeposit(), \n\t        \tretrieved_contract.getSignatureCount(),\n\t        \tretrieved_contract.getContractStatus(), \n\t        \tretrieved_contract.getNotes(),\n\t        \tretrieved_contract.getIfAddressDeposited(msg.sender),\n\t        \tretrieved_contract.getAmountCheck(msg.sender),\n\t        \tretrieved_contract.getSignature(msg.sender),\n\t        \taddress(retrieved_contract)\n\t        );\n\t\t}\n    }\n\n    function getContractCountForCurrentUser() external view returns (uint) {\n    \tif (addressToIndex[msg.sender].length == 0) {\n    \t\treturn 0;\n    \t} else if (addressToIndex[msg.sender].length == 1) {\n    \t\treturn addressToIndex[msg.sender].length;\n    \t} else {\n\t    \tuint lastContractId = addressToIndex[msg.sender].length; // Get the length of the user's uint addressToIndex (array of contracts)\n\t\t    return addressToIndex[msg.sender][lastContractId - 1] + 1; // To access the last contract id user made, so we don't have to iterate entire contract array. We do +1 to take into account the user's last contract.\n    \t}\n\t }\n\n    function createContract(address payable buyer, address payable seller, uint amount, uint deposit, string memory notes) public {\n    \trequire(buyer != address(0), \"Invalid buyer address\");\n    \trequire(seller != address(0), \"Invalid seller address\");\n    \trequire(amount > 0);\n    \trequire(deposit > 0);\n    \tEscrowFactory newContract = new EscrowFactory(buyer, seller, amount, deposit, notes);\n    \tcontractIndexesForUsers[contractCount] = newContract;\n    \taddressToIndex[buyer].push(contractCount);\n    \taddressToIndex[seller].push(contractCount);\n    \taddressContractIndexExists[buyer][contractCount] = true;\n    \taddressContractIndexExists[seller][contractCount] = true;\n    \tcontractCount = contractCount + 1;\n\n    \temit ContractCreated(buyer, seller, amount, deposit, 0, \"Open\", notes, false);\n    }\n\n    function buyerDeposit(uint contract_index) public payable {\n    \tEscrowFactory retrieved_contract = contractIndexesForUsers[contract_index];\n    \tretrieved_contract.buyerDeposit(msg.sender, msg.value);\n    }\n\n    function sellerDeposit(uint contract_index) public payable {\n    \tEscrowFactory retrieved_contract = contractIndexesForUsers[contract_index];\n    \tretrieved_contract.sellerDeposit(msg.sender, msg.value);\n    }\n\n    function reverseBuyerDeposit(uint contract_index) public {\n    \tEscrowFactory retrieved_contract = contractIndexesForUsers[contract_index];\n    \tretrieved_contract.reverseBuyerDeposit(msg.sender);\n    }\n\n    function reverseSellerDeposit(uint contract_index) public {\n    \tEscrowFactory retrieved_contract = contractIndexesForUsers[contract_index];\n    \tretrieved_contract.reverseSellerDeposit(msg.sender);\n    }\n\n    function claimDeposits(uint contract_index) public {\n    \tEscrowFactory retrieved_contract = contractIndexesForUsers[contract_index];\n    \tretrieved_contract.claimDeposits(msg.sender);\n    }\n}",
  "sourcePath": "/Users/donaldlee/Developer/PointsExchange/contracts/EscrowExchange.sol",
  "compiler": {
    "name": "solc",
    "version": "0.5.16+commit.9c3226ce.Emscripten.clang"
  },
  "schemaVersion": "3.3.3",
  "updatedAt": "2021-06-06T03:46:12.925Z",
  "networkType": "ethereum",
  "devdoc": {
    "methods": {}
  },
  "userdoc": {
    "methods": {}
  }
}