{
  "contractName": "EscrowExchange",
  "abi": [
    {
      "anonymous": false,
      "inputs": [
        {
          "indexed": false,
          "internalType": "string",
          "name": "msg",
          "type": "string"
        }
      ],
      "name": "AmountSent",
      "type": "event"
    },
    {
      "anonymous": false,
      "inputs": [
        {
          "indexed": false,
          "internalType": "string",
          "name": "msg",
          "type": "string"
        }
      ],
      "name": "BuyerDepositReversed",
      "type": "event"
    },
    {
      "anonymous": false,
      "inputs": [
        {
          "indexed": false,
          "internalType": "address",
          "name": "from",
          "type": "address"
        },
        {
          "indexed": false,
          "internalType": "string",
          "name": "msg",
          "type": "string"
        },
        {
          "indexed": false,
          "internalType": "uint256",
          "name": "amount",
          "type": "uint256"
        }
      ],
      "name": "BuyerDeposited",
      "type": "event"
    },
    {
      "anonymous": false,
      "inputs": [
        {
          "indexed": false,
          "internalType": "string",
          "name": "msg",
          "type": "string"
        }
      ],
      "name": "BuyerRefunded",
      "type": "event"
    },
    {
      "anonymous": false,
      "inputs": [
        {
          "indexed": false,
          "internalType": "address",
          "name": "buyer",
          "type": "address"
        },
        {
          "indexed": false,
          "internalType": "address",
          "name": "seller",
          "type": "address"
        },
        {
          "indexed": false,
          "internalType": "uint256",
          "name": "amount",
          "type": "uint256"
        },
        {
          "indexed": false,
          "internalType": "uint256",
          "name": "deposit",
          "type": "uint256"
        },
        {
          "indexed": false,
          "internalType": "uint256",
          "name": "signatureCount",
          "type": "uint256"
        },
        {
          "indexed": false,
          "internalType": "uint256",
          "name": "depositCount",
          "type": "uint256"
        },
        {
          "indexed": false,
          "internalType": "uint256",
          "name": "amountCount",
          "type": "uint256"
        },
        {
          "indexed": false,
          "internalType": "string",
          "name": "status",
          "type": "string"
        },
        {
          "indexed": false,
          "internalType": "string",
          "name": "notes",
          "type": "string"
        }
      ],
      "name": "ContractCreated",
      "type": "event"
    },
    {
      "anonymous": false,
      "inputs": [
        {
          "indexed": false,
          "internalType": "string",
          "name": "msg",
          "type": "string"
        }
      ],
      "name": "DepositPartialClaim",
      "type": "event"
    },
    {
      "anonymous": false,
      "inputs": [
        {
          "indexed": false,
          "internalType": "string",
          "name": "msg",
          "type": "string"
        }
      ],
      "name": "DepositsClaimed",
      "type": "event"
    },
    {
      "anonymous": false,
      "inputs": [
        {
          "indexed": false,
          "internalType": "string",
          "name": "msg",
          "type": "string"
        }
      ],
      "name": "SellerDepositReversed",
      "type": "event"
    },
    {
      "anonymous": false,
      "inputs": [
        {
          "indexed": false,
          "internalType": "address",
          "name": "from",
          "type": "address"
        },
        {
          "indexed": false,
          "internalType": "string",
          "name": "msg",
          "type": "string"
        },
        {
          "indexed": false,
          "internalType": "uint256",
          "name": "amount",
          "type": "uint256"
        }
      ],
      "name": "SellerDeposited",
      "type": "event"
    },
    {
      "anonymous": false,
      "inputs": [
        {
          "indexed": false,
          "internalType": "string",
          "name": "msg",
          "type": "string"
        }
      ],
      "name": "SellerPaid",
      "type": "event"
    },
    {
      "constant": false,
      "inputs": [
        {
          "internalType": "uint256",
          "name": "contract_id",
          "type": "uint256"
        }
      ],
      "name": "buyerDeposit",
      "outputs": [],
      "payable": true,
      "stateMutability": "payable",
      "type": "function"
    },
    {
      "constant": false,
      "inputs": [
        {
          "internalType": "uint256",
          "name": "contract_id",
          "type": "uint256"
        }
      ],
      "name": "claimDeposits",
      "outputs": [],
      "payable": false,
      "stateMutability": "nonpayable",
      "type": "function"
    },
    {
      "constant": true,
      "inputs": [
        {
          "internalType": "address",
          "name": "",
          "type": "address"
        },
        {
          "internalType": "uint256",
          "name": "",
          "type": "uint256"
        }
      ],
      "name": "contractsForUser",
      "outputs": [
        {
          "internalType": "address payable",
          "name": "buyer",
          "type": "address"
        },
        {
          "internalType": "address payable",
          "name": "seller",
          "type": "address"
        },
        {
          "internalType": "uint256",
          "name": "amount",
          "type": "uint256"
        },
        {
          "internalType": "uint256",
          "name": "deposit",
          "type": "uint256"
        },
        {
          "internalType": "uint256",
          "name": "signatureCount",
          "type": "uint256"
        },
        {
          "internalType": "uint256",
          "name": "depositCount",
          "type": "uint256"
        },
        {
          "internalType": "uint256",
          "name": "amountCount",
          "type": "uint256"
        },
        {
          "internalType": "enum EscrowFactory.Status",
          "name": "status",
          "type": "uint8"
        },
        {
          "internalType": "string",
          "name": "notes",
          "type": "string"
        }
      ],
      "payable": false,
      "stateMutability": "view",
      "type": "function"
    },
    {
      "constant": true,
      "inputs": [
        {
          "internalType": "address",
          "name": "",
          "type": "address"
        }
      ],
      "name": "ownerContractCount",
      "outputs": [
        {
          "internalType": "uint256",
          "name": "",
          "type": "uint256"
        }
      ],
      "payable": false,
      "stateMutability": "view",
      "type": "function"
    },
    {
      "constant": false,
      "inputs": [
        {
          "internalType": "uint256",
          "name": "contract_id",
          "type": "uint256"
        }
      ],
      "name": "paySeller",
      "outputs": [],
      "payable": false,
      "stateMutability": "nonpayable",
      "type": "function"
    },
    {
      "constant": false,
      "inputs": [
        {
          "internalType": "uint256",
          "name": "contract_id",
          "type": "uint256"
        }
      ],
      "name": "refundBuyer",
      "outputs": [],
      "payable": false,
      "stateMutability": "nonpayable",
      "type": "function"
    },
    {
      "constant": false,
      "inputs": [
        {
          "internalType": "uint256",
          "name": "contract_id",
          "type": "uint256"
        }
      ],
      "name": "reverseBuyerDeposit",
      "outputs": [],
      "payable": false,
      "stateMutability": "nonpayable",
      "type": "function"
    },
    {
      "constant": false,
      "inputs": [
        {
          "internalType": "uint256",
          "name": "contract_id",
          "type": "uint256"
        }
      ],
      "name": "reverseSellerDeposit",
      "outputs": [],
      "payable": false,
      "stateMutability": "nonpayable",
      "type": "function"
    },
    {
      "constant": false,
      "inputs": [
        {
          "internalType": "uint256",
          "name": "contract_id",
          "type": "uint256"
        }
      ],
      "name": "sellerDeposit",
      "outputs": [],
      "payable": true,
      "stateMutability": "payable",
      "type": "function"
    },
    {
      "constant": false,
      "inputs": [
        {
          "internalType": "uint256",
          "name": "contract_id",
          "type": "uint256"
        }
      ],
      "name": "sendAmount",
      "outputs": [],
      "payable": true,
      "stateMutability": "payable",
      "type": "function"
    },
    {
      "constant": true,
      "inputs": [
        {
          "internalType": "uint256",
          "name": "index",
          "type": "uint256"
        }
      ],
      "name": "getContractForCurrentUser",
      "outputs": [
        {
          "internalType": "address",
          "name": "",
          "type": "address"
        },
        {
          "internalType": "address",
          "name": "",
          "type": "address"
        },
        {
          "internalType": "uint256",
          "name": "",
          "type": "uint256"
        },
        {
          "internalType": "uint256",
          "name": "",
          "type": "uint256"
        },
        {
          "internalType": "uint256",
          "name": "",
          "type": "uint256"
        },
        {
          "internalType": "uint256",
          "name": "",
          "type": "uint256"
        },
        {
          "internalType": "uint256",
          "name": "",
          "type": "uint256"
        },
        {
          "internalType": "string",
          "name": "",
          "type": "string"
        },
        {
          "internalType": "string",
          "name": "",
          "type": "string"
        }
      ],
      "payable": false,
      "stateMutability": "view",
      "type": "function"
    },
    {
      "constant": true,
      "inputs": [],
      "name": "getContractCountForCurrentUser",
      "outputs": [
        {
          "internalType": "uint256",
          "name": "",
          "type": "uint256"
        }
      ],
      "payable": false,
      "stateMutability": "view",
      "type": "function"
    },
    {
      "constant": false,
      "inputs": [
        {
          "internalType": "address payable",
          "name": "buyer",
          "type": "address"
        },
        {
          "internalType": "address payable",
          "name": "seller",
          "type": "address"
        },
        {
          "internalType": "uint256",
          "name": "amount",
          "type": "uint256"
        },
        {
          "internalType": "uint256",
          "name": "deposit",
          "type": "uint256"
        },
        {
          "internalType": "string",
          "name": "notes",
          "type": "string"
        }
      ],
      "name": "createContract",
      "outputs": [],
      "payable": false,
      "stateMutability": "nonpayable",
      "type": "function"
    }
  ],
  "bytecode": "0x608060405234801561001057600080fd5b50613454806100206000396000f3fe6080604052600436106100c25760003560e01c80634a47248c1161007f5780636a3661a6116100595780636a3661a6146102775780636deba5f3146102a0578063e1ab5711146102bc578063fd72b6e9146102e7576100c2565b80634a47248c146101e057806360cc106214610209578063683024671461024e576100c2565b80630eb47922146100c75780630f063dab146100e35780632cc4007814610120578063392927631461014957806342998736146101725780634709384f146101b7575b600080fd5b6100e160048036036100dc9190810190612acd565b610303565b005b3480156100ef57600080fd5b5061010a600480360361010591908101906129d9565b61047e565b6040516101179190613216565b60405180910390f35b34801561012c57600080fd5b5061014760048036036101429190810190612acd565b610496565b005b34801561015557600080fd5b50610170600480360361016b9190810190612acd565b6107b4565b005b34801561017e57600080fd5b5061019960048036036101949190810190612a91565b610b55565b6040516101ae99989796959493929190612fcb565b60405180910390f35b3480156101c357600080fd5b506101de60048036036101d99190810190612acd565b610ca2565b005b3480156101ec57600080fd5b5061020760048036036102029190810190612acd565b611346565b005b34801561021557600080fd5b50610230600480360361022b9190810190612acd565b611664565b6040516102459998979695949392919061309b565b60405180910390f35b34801561025a57600080fd5b5061027560048036036102709190810190612acd565b6118f6565b005b34801561028357600080fd5b5061029e60048036036102999190810190612a02565b611c97565b005b6102ba60048036036102b59190810190612acd565b61210f565b005b3480156102c857600080fd5b506102d161228a565b6040516102de9190613216565b60405180910390f35b61030160048036036102fc9190810190612acd565b6122d1565b005b8061030d8161254c565b60010160009054906101000a900473ffffffffffffffffffffffffffffffffffffffff1673ffffffffffffffffffffffffffffffffffffffff163373ffffffffffffffffffffffffffffffffffffffff161461036857600080fd5b6103718261254c565b60030154341461038057600080fd5b600061038b8361254c565b600a0160003373ffffffffffffffffffffffffffffffffffffffff1673ffffffffffffffffffffffffffffffffffffffff16815260200190815260200160002054146103d657600080fd5b60016103e18361254c565b600a0160003373ffffffffffffffffffffffffffffffffffffffff1673ffffffffffffffffffffffffffffffffffffffff1681526020019081526020016000208190555061042e8261254c565b600501600081548092919060010191905055507feaa52bf3f740eaa050012695cd117e2182b5c032c7fc36dbcdfc74189f68ab2e333460405161047292919061305f565b60405180910390a15050565b60016020528060005260406000206000915090505481565b806104a08161254c565b60000160009054906101000a900473ffffffffffffffffffffffffffffffffffffffff1673ffffffffffffffffffffffffffffffffffffffff163373ffffffffffffffffffffffffffffffffffffffff16146104fb57600080fd5b60016105068361254c565b600a0160006105148561254c565b60000160009054906101000a900473ffffffffffffffffffffffffffffffffffffffff1673ffffffffffffffffffffffffffffffffffffffff1673ffffffffffffffffffffffffffffffffffffffff168152602001908152602001600020541461057d57600080fd5b60006105888361254c565b600a0160006105968561254c565b60010160009054906101000a900473ffffffffffffffffffffffffffffffffffffffff1673ffffffffffffffffffffffffffffffffffffffff1673ffffffffffffffffffffffffffffffffffffffff16815260200190815260200160002054146105ff57600080fd5b600061060a8361254c565b600b0160006106188561254c565b60000160009054906101000a900473ffffffffffffffffffffffffffffffffffffffff1673ffffffffffffffffffffffffffffffffffffffff1673ffffffffffffffffffffffffffffffffffffffff168152602001908152602001600020541461068157600080fd5b600061068c8361254c565b600a01600061069a8561254c565b60000160009054906101000a900473ffffffffffffffffffffffffffffffffffffffff1673ffffffffffffffffffffffffffffffffffffffff1673ffffffffffffffffffffffffffffffffffffffff168152602001908152602001600020819055506107058261254c565b60000160009054906101000a900473ffffffffffffffffffffffffffffffffffffffff1673ffffffffffffffffffffffffffffffffffffffff166108fc61074b8461254c565b600301549081150290604051600060405180830381858888f1935050505015801561077a573d6000803e3d6000fd5b507f022a173fa68fb425cd1264890a0951b5a57aa7f1fcdc49e3262e86c1189ec9b16040516107a8906131f6565b60405180910390a15050565b806107be8161254c565b60010160009054906101000a900473ffffffffffffffffffffffffffffffffffffffff1673ffffffffffffffffffffffffffffffffffffffff163373ffffffffffffffffffffffffffffffffffffffff161461081957600080fd5b60016108248361254c565b600a0160006108328561254c565b60000160009054906101000a900473ffffffffffffffffffffffffffffffffffffffff1673ffffffffffffffffffffffffffffffffffffffff1673ffffffffffffffffffffffffffffffffffffffff168152602001908152602001600020541461089b57600080fd5b60016108a68361254c565b600a0160006108b48561254c565b60010160009054906101000a900473ffffffffffffffffffffffffffffffffffffffff1673ffffffffffffffffffffffffffffffffffffffff1673ffffffffffffffffffffffffffffffffffffffff168152602001908152602001600020541461091d57600080fd5b60016109288361254c565b600b0160006109368561254c565b60000160009054906101000a900473ffffffffffffffffffffffffffffffffffffffff1673ffffffffffffffffffffffffffffffffffffffff1673ffffffffffffffffffffffffffffffffffffffff168152602001908152602001600020541461099f57600080fd5b6109a88261254c565b60000160009054906101000a900473ffffffffffffffffffffffffffffffffffffffff1673ffffffffffffffffffffffffffffffffffffffff166108fc6109ee8461254c565b600201549081150290604051600060405180830381858888f19350505050158015610a1d573d6000803e3d6000fd5b50610a278261254c565b60010160009054906101000a900473ffffffffffffffffffffffffffffffffffffffff1673ffffffffffffffffffffffffffffffffffffffff166108fc610a6d8461254c565b600301549081150290604051600060405180830381858888f19350505050158015610a9c573d6000803e3d6000fd5b50610aa68261254c565b60000160009054906101000a900473ffffffffffffffffffffffffffffffffffffffff1673ffffffffffffffffffffffffffffffffffffffff166108fc610aec8461254c565b600301549081150290604051600060405180830381858888f19350505050158015610b1b573d6000803e3d6000fd5b507f1355ee9ef69549a50f8d0008c6cd588a9759815d1b30ee62ed168c2bb7a24a62604051610b49906131d6565b60405180910390a15050565b60006020528160005260406000208181548110610b6e57fe5b90600052602060002090600c0201600091509150508060000160009054906101000a900473ffffffffffffffffffffffffffffffffffffffff16908060010160009054906101000a900473ffffffffffffffffffffffffffffffffffffffff16908060020154908060030154908060040154908060050154908060060154908060070160009054906101000a900460ff1690806008018054600181600116156101000203166002900480601f016020809104026020016040519081016040528092919081815260200182805460018160011615610100020316600290048015610c985780601f10610c6d57610100808354040283529160200191610c98565b820191906000526020600020905b815481529060010190602001808311610c7b57829003601f168201915b5050505050905089565b80610cac8161254c565b60010160009054906101000a900473ffffffffffffffffffffffffffffffffffffffff1673ffffffffffffffffffffffffffffffffffffffff163373ffffffffffffffffffffffffffffffffffffffff161480610d605750610d0d8161254c565b60000160009054906101000a900473ffffffffffffffffffffffffffffffffffffffff1673ffffffffffffffffffffffffffffffffffffffff163373ffffffffffffffffffffffffffffffffffffffff16145b610d6957600080fd5b6001610d748361254c565b600a016000610d828561254c565b60000160009054906101000a900473ffffffffffffffffffffffffffffffffffffffff1673ffffffffffffffffffffffffffffffffffffffff1673ffffffffffffffffffffffffffffffffffffffff1681526020019081526020016000205414610deb57600080fd5b6001610df68361254c565b600a016000610e048561254c565b60010160009054906101000a900473ffffffffffffffffffffffffffffffffffffffff1673ffffffffffffffffffffffffffffffffffffffff1673ffffffffffffffffffffffffffffffffffffffff1681526020019081526020016000205414610e6d57600080fd5b6000610e788361254c565b600b016000610e868561254c565b60000160009054906101000a900473ffffffffffffffffffffffffffffffffffffffff1673ffffffffffffffffffffffffffffffffffffffff1673ffffffffffffffffffffffffffffffffffffffff1681526020019081526020016000205414610eef57600080fd5b6000610efa8361254c565b60090160003373ffffffffffffffffffffffffffffffffffffffff1673ffffffffffffffffffffffffffffffffffffffff1681526020019081526020016000205414610f4557600080fd5b6001610f508361254c565b60090160003373ffffffffffffffffffffffffffffffffffffffff1673ffffffffffffffffffffffffffffffffffffffff16815260200190815260200160002081905550610f9d8261254c565b600401600081548092919060010191905055506001610fbb8361254c565b600401541415610ffb577f87463abc399fbbddfcd563f22d61267e4c0402b336940699382407adce42e5a2604051610ff290613196565b60405180910390a15b60026110068361254c565b600401541415611342576110198261254c565b60000160009054906101000a900473ffffffffffffffffffffffffffffffffffffffff1673ffffffffffffffffffffffffffffffffffffffff166108fc61105f8461254c565b600301549081150290604051600060405180830381858888f1935050505015801561108e573d6000803e3d6000fd5b506110988261254c565b60010160009054906101000a900473ffffffffffffffffffffffffffffffffffffffff1673ffffffffffffffffffffffffffffffffffffffff166108fc6110de8461254c565b600301549081150290604051600060405180830381858888f1935050505015801561110d573d6000803e3d6000fd5b5060006111198361254c565b600a0160006111278561254c565b60000160009054906101000a900473ffffffffffffffffffffffffffffffffffffffff1673ffffffffffffffffffffffffffffffffffffffff1673ffffffffffffffffffffffffffffffffffffffff1681526020019081526020016000208190555060006111948361254c565b600a0160006111a28561254c565b60010160009054906101000a900473ffffffffffffffffffffffffffffffffffffffff1673ffffffffffffffffffffffffffffffffffffffff1673ffffffffffffffffffffffffffffffffffffffff16815260200190815260200160002081905550600061120f8361254c565b600901600061121d8561254c565b60000160009054906101000a900473ffffffffffffffffffffffffffffffffffffffff1673ffffffffffffffffffffffffffffffffffffffff1673ffffffffffffffffffffffffffffffffffffffff16815260200190815260200160002081905550600061128a8361254c565b60090160006112988561254c565b60010160009054906101000a900473ffffffffffffffffffffffffffffffffffffffff1673ffffffffffffffffffffffffffffffffffffffff1673ffffffffffffffffffffffffffffffffffffffff1681526020019081526020016000208190555060006113058361254c565b600401819055507fd397a3b1b662401574a4482307d3aaaa5413f8af98a7053e3473935f4d0659ed60405161133990613176565b60405180910390a15b5050565b806113508161254c565b60010160009054906101000a900473ffffffffffffffffffffffffffffffffffffffff1673ffffffffffffffffffffffffffffffffffffffff163373ffffffffffffffffffffffffffffffffffffffff16146113ab57600080fd5b60016113b68361254c565b600a0160006113c48561254c565b60010160009054906101000a900473ffffffffffffffffffffffffffffffffffffffff1673ffffffffffffffffffffffffffffffffffffffff1673ffffffffffffffffffffffffffffffffffffffff168152602001908152602001600020541461142d57600080fd5b60006114388361254c565b600a0160006114468561254c565b60000160009054906101000a900473ffffffffffffffffffffffffffffffffffffffff1673ffffffffffffffffffffffffffffffffffffffff1673ffffffffffffffffffffffffffffffffffffffff16815260200190815260200160002054146114af57600080fd5b60006114ba8361254c565b600b0160006114c88561254c565b60000160009054906101000a900473ffffffffffffffffffffffffffffffffffffffff1673ffffffffffffffffffffffffffffffffffffffff1673ffffffffffffffffffffffffffffffffffffffff168152602001908152602001600020541461153157600080fd5b600061153c8361254c565b600a01600061154a8561254c565b60010160009054906101000a900473ffffffffffffffffffffffffffffffffffffffff1673ffffffffffffffffffffffffffffffffffffffff1673ffffffffffffffffffffffffffffffffffffffff168152602001908152602001600020819055506115b58261254c565b60010160009054906101000a900473ffffffffffffffffffffffffffffffffffffffff1673ffffffffffffffffffffffffffffffffffffffff166108fc6115fb8461254c565b600301549081150290604051600060405180830381858888f1935050505015801561162a573d6000803e3d6000fd5b507f68899ad50909030043672ec750f7e234201226c34f9efa036d99c5432d220a3960405161165890613136565b60405180910390a15050565b600080600080600080600060608061167a61281e565b6000803373ffffffffffffffffffffffffffffffffffffffff1673ffffffffffffffffffffffffffffffffffffffff1681526020019081526020016000208b815481106116c357fe5b90600052602060002090600c0201604051806101200160405290816000820160009054906101000a900473ffffffffffffffffffffffffffffffffffffffff1673ffffffffffffffffffffffffffffffffffffffff1673ffffffffffffffffffffffffffffffffffffffff1681526020016001820160009054906101000a900473ffffffffffffffffffffffffffffffffffffffff1673ffffffffffffffffffffffffffffffffffffffff1673ffffffffffffffffffffffffffffffffffffffff16815260200160028201548152602001600382015481526020016004820154815260200160058201548152602001600682015481526020016007820160009054906101000a900460ff1660028111156117d957fe5b60028111156117e457fe5b8152602001600882018054600181600116156101000203166002900480601f0160208091040260200160405190810160405280929190818152602001828054600181600116156101000203166002900480156118815780601f1061185657610100808354040283529160200191611881565b820191906000526020600020905b81548152906001019060200180831161186457829003601f168201915b5050505050815250509050806000015181602001518260400151836060015184608001518560a001518660c001516118c78860e0015160028111156118c257fe5b6125ac565b886101000151889850879750809050995099509950995099509950995099509950509193959799909294969850565b806119008161254c565b60000160009054906101000a900473ffffffffffffffffffffffffffffffffffffffff1673ffffffffffffffffffffffffffffffffffffffff163373ffffffffffffffffffffffffffffffffffffffff161461195b57600080fd5b60016119668361254c565b600a0160006119748561254c565b60000160009054906101000a900473ffffffffffffffffffffffffffffffffffffffff1673ffffffffffffffffffffffffffffffffffffffff1673ffffffffffffffffffffffffffffffffffffffff16815260200190815260200160002054146119dd57600080fd5b60016119e88361254c565b600a0160006119f68561254c565b60010160009054906101000a900473ffffffffffffffffffffffffffffffffffffffff1673ffffffffffffffffffffffffffffffffffffffff1673ffffffffffffffffffffffffffffffffffffffff1681526020019081526020016000205414611a5f57600080fd5b6001611a6a8361254c565b600b016000611a788561254c565b60000160009054906101000a900473ffffffffffffffffffffffffffffffffffffffff1673ffffffffffffffffffffffffffffffffffffffff1673ffffffffffffffffffffffffffffffffffffffff1681526020019081526020016000205414611ae157600080fd5b611aea8261254c565b60010160009054906101000a900473ffffffffffffffffffffffffffffffffffffffff1673ffffffffffffffffffffffffffffffffffffffff166108fc611b308461254c565b600201549081150290604051600060405180830381858888f19350505050158015611b5f573d6000803e3d6000fd5b50611b698261254c565b60000160009054906101000a900473ffffffffffffffffffffffffffffffffffffffff1673ffffffffffffffffffffffffffffffffffffffff166108fc611baf8461254c565b600301549081150290604051600060405180830381858888f19350505050158015611bde573d6000803e3d6000fd5b50611be88261254c565b60010160009054906101000a900473ffffffffffffffffffffffffffffffffffffffff1673ffffffffffffffffffffffffffffffffffffffff166108fc611c2e8461254c565b600301549081150290604051600060405180830381858888f19350505050158015611c5d573d6000803e3d6000fd5b507fd54aabd3141f0694c3f533b346119d27c2eb3248d4f866d6bd8299c78b128daf604051611c8b90613156565b60405180910390a15050565b611c9f61281e565b611cac8686868686612774565b90506000808773ffffffffffffffffffffffffffffffffffffffff1673ffffffffffffffffffffffffffffffffffffffff168152602001908152602001600020819080600181540180825580915050906001820390600052602060002090600c02016000909192909190915060008201518160000160006101000a81548173ffffffffffffffffffffffffffffffffffffffff021916908373ffffffffffffffffffffffffffffffffffffffff16021790555060208201518160010160006101000a81548173ffffffffffffffffffffffffffffffffffffffff021916908373ffffffffffffffffffffffffffffffffffffffff16021790555060408201518160020155606082015181600301556080820151816004015560a0820151816005015560c0820151816006015560e08201518160070160006101000a81548160ff02191690836002811115611dfc57fe5b0217905550610100820151816008019080519060200190611e1e9291906128a1565b505050506000808673ffffffffffffffffffffffffffffffffffffffff1673ffffffffffffffffffffffffffffffffffffffff168152602001908152602001600020819080600181540180825580915050906001820390600052602060002090600c02016000909192909190915060008201518160000160006101000a81548173ffffffffffffffffffffffffffffffffffffffff021916908373ffffffffffffffffffffffffffffffffffffffff16021790555060208201518160010160006101000a81548173ffffffffffffffffffffffffffffffffffffffff021916908373ffffffffffffffffffffffffffffffffffffffff16021790555060408201518160020155606082015181600301556080820151816004015560a0820151816005015560c0820151816006015560e08201518160070160006101000a81548160ff02191690836002811115611f7057fe5b0217905550610100820151816008019080519060200190611f929291906128a1565b50505050611fe860018060008973ffffffffffffffffffffffffffffffffffffffff1673ffffffffffffffffffffffffffffffffffffffff1681526020019081526020016000205461280290919063ffffffff16565b600160008873ffffffffffffffffffffffffffffffffffffffff1673ffffffffffffffffffffffffffffffffffffffff1681526020019081526020016000208190555061207d60018060008873ffffffffffffffffffffffffffffffffffffffff1673ffffffffffffffffffffffffffffffffffffffff1681526020019081526020016000205461280290919063ffffffff16565b600160008773ffffffffffffffffffffffffffffffffffffffff1673ffffffffffffffffffffffffffffffffffffffff168152602001908152602001600020819055507f13a585dd0ddb5faa09ae5a30245b35c41edd795c9b16f8830cb6c1954b06c003868686866000806000896040516120ff989796959493929190612f32565b60405180910390a1505050505050565b806121198161254c565b60000160009054906101000a900473ffffffffffffffffffffffffffffffffffffffff1673ffffffffffffffffffffffffffffffffffffffff163373ffffffffffffffffffffffffffffffffffffffff161461217457600080fd5b61217d8261254c565b60030154341461218c57600080fd5b60006121978361254c565b600a0160003373ffffffffffffffffffffffffffffffffffffffff1673ffffffffffffffffffffffffffffffffffffffff16815260200190815260200160002054146121e257600080fd5b60016121ed8361254c565b600a0160003373ffffffffffffffffffffffffffffffffffffffff1673ffffffffffffffffffffffffffffffffffffffff1681526020019081526020016000208190555061223a8261254c565b600501600081548092919060010191905055507f0109c07b399c647a3567815a956a02e0badfd3ed527a3fdb992031fae5d005f9333460405161227e92919061305f565b60405180910390a15050565b6000600160003373ffffffffffffffffffffffffffffffffffffffff1673ffffffffffffffffffffffffffffffffffffffff16815260200190815260200160002054905090565b806122db8161254c565b60000160009054906101000a900473ffffffffffffffffffffffffffffffffffffffff1673ffffffffffffffffffffffffffffffffffffffff163373ffffffffffffffffffffffffffffffffffffffff161461233657600080fd5b61233f8261254c565b60020154341461234e57600080fd5b60016123598361254c565b600a0160006123678561254c565b60000160009054906101000a900473ffffffffffffffffffffffffffffffffffffffff1673ffffffffffffffffffffffffffffffffffffffff1673ffffffffffffffffffffffffffffffffffffffff16815260200190815260200160002054146123d057600080fd5b60016123db8361254c565b600a0160006123e98561254c565b60010160009054906101000a900473ffffffffffffffffffffffffffffffffffffffff1673ffffffffffffffffffffffffffffffffffffffff1673ffffffffffffffffffffffffffffffffffffffff168152602001908152602001600020541461245257600080fd5b600061245d8361254c565b600b0160003373ffffffffffffffffffffffffffffffffffffffff1673ffffffffffffffffffffffffffffffffffffffff16815260200190815260200160002054146124a857600080fd5b60016124b38361254c565b600b0160003373ffffffffffffffffffffffffffffffffffffffff1673ffffffffffffffffffffffffffffffffffffffff168152602001908152602001600020819055506125008261254c565b600601600081548092919060010191905055507fdbafb049923bd24c9143b7aea787bb9133f12c9bc10e8ff7f1be6e2f13028c97604051612540906131b6565b60405180910390a15050565b60008060003373ffffffffffffffffffffffffffffffffffffffff1673ffffffffffffffffffffffffffffffffffffffff168152602001908152602001600020828154811061259757fe5b90600052602060002090600c02019050919050565b60608060405180602001604052806000815250905060008060003373ffffffffffffffffffffffffffffffffffffffff1673ffffffffffffffffffffffffffffffffffffffff168152602001908152602001600020848154811061260c57fe5b90600052602060002090600c020160070160009054906101000a900460ff16600281111561263657fe5b1415612679576040518060400160405280600481526020017f4f70656e00000000000000000000000000000000000000000000000000000000815250905061276b565b60016000803373ffffffffffffffffffffffffffffffffffffffff1673ffffffffffffffffffffffffffffffffffffffff16815260200190815260200160002084815481106126c457fe5b90600052602060002090600c020160070160009054906101000a900460ff1660028111156126ee57fe5b1415612731576040518060400160405280600781526020017f50656e64696e6700000000000000000000000000000000000000000000000000815250905061276a565b6040518060400160405280600681526020017f436c6f736564000000000000000000000000000000000000000000000000000081525090505b5b80915050919050565b61277c61281e565b6040518061012001604052808773ffffffffffffffffffffffffffffffffffffffff1681526020018673ffffffffffffffffffffffffffffffffffffffff168152602001858152602001848152602001600081526020016000815260200160008152602001600060028111156127ee57fe5b815260200183815250905095945050505050565b60008082840190508381101561281457fe5b8091505092915050565b604051806101200160405280600073ffffffffffffffffffffffffffffffffffffffff168152602001600073ffffffffffffffffffffffffffffffffffffffff16815260200160008152602001600081526020016000815260200160008152602001600081526020016000600281111561289457fe5b8152602001606081525090565b828054600181600116156101000203166002900490600052602060002090601f016020900481019282601f106128e257805160ff1916838001178555612910565b82800160010185558215612910579182015b8281111561290f5782518255916020019190600101906128f4565b5b50905061291d9190612921565b5090565b61294391905b8082111561293f576000816000905550600101612927565b5090565b90565b600081359050612955816133cc565b92915050565b60008135905061296a816133e3565b92915050565b600082601f83011261298157600080fd5b813561299461298f8261325e565b613231565b915080825260208301602083018583830111156129b057600080fd5b6129bb83828461336c565b50505092915050565b6000813590506129d3816133fa565b92915050565b6000602082840312156129eb57600080fd5b60006129f984828501612946565b91505092915050565b600080600080600060a08688031215612a1a57600080fd5b6000612a288882890161295b565b9550506020612a398882890161295b565b9450506040612a4a888289016129c4565b9350506060612a5b888289016129c4565b925050608086013567ffffffffffffffff811115612a7857600080fd5b612a8488828901612970565b9150509295509295909350565b60008060408385031215612aa457600080fd5b6000612ab285828601612946565b9250506020612ac3858286016129c4565b9150509250929050565b600060208284031215612adf57600080fd5b6000612aed848285016129c4565b91505092915050565b612aff81613312565b82525050565b612b0e816132c3565b82525050565b612b1d816132b1565b82525050565b612b2c81613324565b82525050565b612b3b81613336565b82525050565b6000612b4c82613295565b612b5681856132a0565b9350612b6681856020860161337b565b612b6f816133ae565b840191505092915050565b6000612b858261328a565b612b8f81856132a0565b9350612b9f81856020860161337b565b612ba8816133ae565b840191505092915050565b6000612bc06025836132a0565b91507f7468652073656c6c65722068617320726576657273656420746865697220646560008301527f706f7369740000000000000000000000000000000000000000000000000000006020830152604082019050919050565b6000612c266053836132a0565b91507f5468652073656c6c657220686173206265656e207061696420616e6420616c6c60008301527f206465706f736974732068617665206265656e2072657475726e6564202d207460208301527f72616e73616374696f6e20636f6d706c657465000000000000000000000000006040830152606082019050919050565b6000612cb2601f836132a0565b91507f746865206465706f736974732068617665206265656e2072657475726e6564006000830152602082019050919050565b6000612cf26004836132a0565b91507f4f70656e000000000000000000000000000000000000000000000000000000006000830152602082019050919050565b6000612d326035836132a0565b91507f746865206465706f73697420636c61696d206861732031206f7574206f66203260008301527f206e6563657373617279207369676e61747572657300000000000000000000006020830152604082019050919050565b6000612d986020836132a0565b91507f686173206d61646520746865207265717569726564206465706f736974206f666000830152602082019050919050565b6000612dd8602f836132a0565b91507f4275796572206861732073656e7420746865207061796d656e7420616d6f756e60008301527f7420746f2074686520657363726f7700000000000000000000000000000000006020830152604082019050919050565b6000612e3e6057836132a0565b91507f54686520627579657220686173206265656e20726566756e64656420616e642060008301527f616c6c206465706f736974732068617665206265656e2072657475726e65642060208301527f2d207472616e73616374696f6e2063616e63656c6c65640000000000000000006040830152606082019050919050565b6000612eca6024836132a0565b91507f746865206275796572206861732072657665727365642074686569722064657060008301527f6f736974000000000000000000000000000000000000000000000000000000006020830152604082019050919050565b612f2c81613308565b82525050565b600061012082019050612f48600083018b612af6565b612f55602083018a612af6565b612f626040830189612f23565b612f6f6060830188612f23565b612f7c6080830187612b32565b612f8960a0830186612b32565b612f9660c0830185612b32565b81810360e0830152612fa781612ce5565b9050818103610100830152612fbc8184612b41565b90509998505050505050505050565b600061012082019050612fe1600083018c612b05565b612fee602083018b612b05565b612ffb604083018a612f23565b6130086060830189612f23565b6130156080830188612f23565b61302260a0830187612f23565b61302f60c0830186612f23565b61303c60e0830185612b23565b81810361010083015261304f8184612b7a565b90509a9950505050505050505050565b60006060820190506130746000830185612af6565b818103602083015261308581612d8b565b90506130946040830184612f23565b9392505050565b6000610120820190506130b1600083018c612b14565b6130be602083018b612b14565b6130cb604083018a612f23565b6130d86060830189612f23565b6130e56080830188612f23565b6130f260a0830187612f23565b6130ff60c0830186612f23565b81810360e08301526131118185612b41565b90508181036101008301526131268184612b41565b90509a9950505050505050505050565b6000602082019050818103600083015261314f81612bb3565b9050919050565b6000602082019050818103600083015261316f81612c19565b9050919050565b6000602082019050818103600083015261318f81612ca5565b9050919050565b600060208201905081810360008301526131af81612d25565b9050919050565b600060208201905081810360008301526131cf81612dcb565b9050919050565b600060208201905081810360008301526131ef81612e31565b9050919050565b6000602082019050818103600083015261320f81612ebd565b9050919050565b600060208201905061322b6000830184612f23565b92915050565b6000604051905081810181811067ffffffffffffffff8211171561325457600080fd5b8060405250919050565b600067ffffffffffffffff82111561327557600080fd5b601f19601f8301169050602081019050919050565b600081519050919050565b600081519050919050565b600082825260208201905092915050565b60006132bc826132e8565b9050919050565b60006132ce826132e8565b9050919050565b60008190506132e3826133bf565b919050565b600073ffffffffffffffffffffffffffffffffffffffff82169050919050565b6000819050919050565b600061331d82613348565b9050919050565b600061332f826132d5565b9050919050565b600061334182613308565b9050919050565b60006133538261335a565b9050919050565b6000613365826132e8565b9050919050565b82818337600083830152505050565b60005b8381101561339957808201518184015260208101905061337e565b838111156133a8576000848401525b50505050565b6000601f19601f8301169050919050565b600381106133c957fe5b50565b6133d5816132b1565b81146133e057600080fd5b50565b6133ec816132c3565b81146133f757600080fd5b50565b61340381613308565b811461340e57600080fd5b5056fea365627a7a723158201c208ffad013c6e3000b2b5ecb3d024e53d7b650135f502f07a6f55b9b63cd836c6578706572696d656e74616cf564736f6c63430005100040",
  "source": "pragma solidity ^0.5.16;\npragma experimental ABIEncoderV2;\n\nimport \"./EscrowFactory.sol\";\n\ncontract EscrowExchange is EscrowFactory {\n\n\tevent ContractCreated(address buyer, address seller, uint amount, uint deposit, uint signatureCount, uint depositCount, uint amountCount, string status, string notes);\n\n\tfunction getContractForCurrentUser(uint index) public view returns (address, address, uint, uint, uint, uint, uint, string memory, string memory){\n\t\tEscrowContract memory retrieved_contract = contractsForUser[msg.sender][index];\n        return (retrieved_contract.buyer, \n        \tretrieved_contract.seller, \n        \tretrieved_contract.amount, \n        \tretrieved_contract.deposit, \n        \tretrieved_contract.signatureCount,\n        \tretrieved_contract.depositCount,\n        \tretrieved_contract.amountCount,\n        \tcheckStatus(uint(retrieved_contract.status)), \n        \tretrieved_contract.notes\n        );\n    }\n\n    function getContractCountForCurrentUser() external view returns (uint) {\n\t    return ownerContractCount[msg.sender];\n\t }\n\n    function createContract(address payable buyer, address payable seller, uint amount, uint deposit, string memory notes) public {\n    \tEscrowContract memory newContract = _createContract(buyer, seller, amount, deposit, notes);\n    \t// For looping through contracts later on.\n    \tcontractsForUser[buyer].push(newContract);\n    \tcontractsForUser[seller].push(newContract);\n    \townerContractCount[buyer] = ownerContractCount[buyer].add(1);\n    \townerContractCount[seller] = ownerContractCount[seller].add(1);\n\n    \temit ContractCreated(buyer, seller, amount, deposit, 0, 0, 0, \"Open\", notes);\n    }\n\n    function checkStatus(uint id) private view returns (string memory){\n\n        string memory status = \"\";\n\n        if (uint(contractsForUser[msg.sender][id].status) == 0){\n            status = \"Open\";\n        } else if (uint(contractsForUser[msg.sender][id].status) == 1){\n            status = \"Pending\";\n        } else{\n            status = \"Closed\";\n        }\n\n        return (status);\n    }\n}",
  "sourcePath": "/Users/donaldlee/Developer/PointsExchange/contracts/EscrowExchange.sol",
  "compiler": {
    "name": "solc",
    "version": "0.5.16+commit.9c3226ce.Emscripten.clang"
  },
  "schemaVersion": "3.3.3",
  "updatedAt": "2021-04-13T01:54:55.366Z",
  "networkType": "ethereum",
  "devdoc": {
    "methods": {}
  },
  "userdoc": {
    "methods": {}
  }
}