{
  "contractName": "EscrowExchange",
  "abi": [
    {
      "inputs": [],
      "payable": false,
      "stateMutability": "nonpayable",
      "type": "constructor"
    },
    {
      "anonymous": false,
      "inputs": [
        {
          "indexed": false,
          "internalType": "address",
          "name": "buyer",
          "type": "address"
        },
        {
          "indexed": false,
          "internalType": "address",
          "name": "seller",
          "type": "address"
        },
        {
          "indexed": false,
          "internalType": "uint256",
          "name": "amount",
          "type": "uint256"
        },
        {
          "indexed": false,
          "internalType": "uint256",
          "name": "deposit",
          "type": "uint256"
        },
        {
          "indexed": false,
          "internalType": "uint256",
          "name": "signatureCount",
          "type": "uint256"
        },
        {
          "indexed": false,
          "internalType": "string",
          "name": "status",
          "type": "string"
        },
        {
          "indexed": false,
          "internalType": "string",
          "name": "notes",
          "type": "string"
        },
        {
          "indexed": false,
          "internalType": "bool",
          "name": "depositMade",
          "type": "bool"
        }
      ],
      "name": "ContractCreated",
      "type": "event"
    },
    {
      "constant": true,
      "inputs": [
        {
          "internalType": "address",
          "name": "",
          "type": "address"
        },
        {
          "internalType": "uint256",
          "name": "",
          "type": "uint256"
        }
      ],
      "name": "addressContractIndexExists",
      "outputs": [
        {
          "internalType": "bool",
          "name": "",
          "type": "bool"
        }
      ],
      "payable": false,
      "stateMutability": "view",
      "type": "function"
    },
    {
      "constant": true,
      "inputs": [
        {
          "internalType": "address",
          "name": "",
          "type": "address"
        },
        {
          "internalType": "uint256",
          "name": "",
          "type": "uint256"
        }
      ],
      "name": "addressToIndex",
      "outputs": [
        {
          "internalType": "uint256",
          "name": "",
          "type": "uint256"
        }
      ],
      "payable": false,
      "stateMutability": "view",
      "type": "function"
    },
    {
      "constant": true,
      "inputs": [],
      "name": "contractCount",
      "outputs": [
        {
          "internalType": "uint256",
          "name": "",
          "type": "uint256"
        }
      ],
      "payable": false,
      "stateMutability": "view",
      "type": "function"
    },
    {
      "constant": true,
      "inputs": [
        {
          "internalType": "uint256",
          "name": "",
          "type": "uint256"
        }
      ],
      "name": "contractIndexesForUsers",
      "outputs": [
        {
          "internalType": "contract EscrowFactory",
          "name": "",
          "type": "address"
        }
      ],
      "payable": false,
      "stateMutability": "view",
      "type": "function"
    },
    {
      "constant": true,
      "inputs": [
        {
          "internalType": "address",
          "name": "",
          "type": "address"
        }
      ],
      "name": "isAdmin",
      "outputs": [
        {
          "internalType": "bool",
          "name": "",
          "type": "bool"
        }
      ],
      "payable": false,
      "stateMutability": "view",
      "type": "function"
    },
    {
      "constant": true,
      "inputs": [],
      "name": "owner",
      "outputs": [
        {
          "internalType": "address payable",
          "name": "",
          "type": "address"
        }
      ],
      "payable": false,
      "stateMutability": "view",
      "type": "function"
    },
    {
      "constant": true,
      "inputs": [
        {
          "internalType": "uint256",
          "name": "index",
          "type": "uint256"
        }
      ],
      "name": "getContractForCurrentUser",
      "outputs": [
        {
          "internalType": "address",
          "name": "",
          "type": "address"
        },
        {
          "internalType": "address",
          "name": "",
          "type": "address"
        },
        {
          "internalType": "uint256",
          "name": "",
          "type": "uint256"
        },
        {
          "internalType": "uint256",
          "name": "",
          "type": "uint256"
        },
        {
          "internalType": "uint256",
          "name": "",
          "type": "uint256"
        },
        {
          "internalType": "string",
          "name": "",
          "type": "string"
        },
        {
          "internalType": "string",
          "name": "",
          "type": "string"
        },
        {
          "internalType": "uint256",
          "name": "",
          "type": "uint256"
        },
        {
          "internalType": "uint256",
          "name": "",
          "type": "uint256"
        },
        {
          "internalType": "uint256",
          "name": "",
          "type": "uint256"
        },
        {
          "internalType": "address",
          "name": "",
          "type": "address"
        }
      ],
      "payable": false,
      "stateMutability": "view",
      "type": "function"
    },
    {
      "constant": true,
      "inputs": [],
      "name": "getContractCountForCurrentUser",
      "outputs": [
        {
          "internalType": "uint256",
          "name": "",
          "type": "uint256"
        }
      ],
      "payable": false,
      "stateMutability": "view",
      "type": "function"
    },
    {
      "constant": false,
      "inputs": [
        {
          "internalType": "address payable",
          "name": "buyer",
          "type": "address"
        },
        {
          "internalType": "address payable",
          "name": "seller",
          "type": "address"
        },
        {
          "internalType": "uint256",
          "name": "amount",
          "type": "uint256"
        },
        {
          "internalType": "uint256",
          "name": "deposit",
          "type": "uint256"
        },
        {
          "internalType": "string",
          "name": "notes",
          "type": "string"
        }
      ],
      "name": "createContract",
      "outputs": [],
      "payable": false,
      "stateMutability": "nonpayable",
      "type": "function"
    },
    {
      "constant": false,
      "inputs": [
        {
          "internalType": "uint256",
          "name": "index",
          "type": "uint256"
        }
      ],
      "name": "adminReverseContract",
      "outputs": [],
      "payable": false,
      "stateMutability": "nonpayable",
      "type": "function"
    },
    {
      "constant": false,
      "inputs": [
        {
          "internalType": "bool",
          "name": "state",
          "type": "bool"
        },
        {
          "internalType": "address",
          "name": "newAdmin",
          "type": "address"
        }
      ],
      "name": "setAdmin",
      "outputs": [],
      "payable": false,
      "stateMutability": "nonpayable",
      "type": "function"
    },
    {
      "constant": true,
      "inputs": [
        {
          "internalType": "address",
          "name": "admin",
          "type": "address"
        }
      ],
      "name": "getAdmin",
      "outputs": [
        {
          "internalType": "bool",
          "name": "",
          "type": "bool"
        }
      ],
      "payable": false,
      "stateMutability": "view",
      "type": "function"
    }
  ],
  "bytecode": "0x60806040526000805534801561001457600080fd5b5033600160006101000a81548173ffffffffffffffffffffffffffffffffffffffff021916908373ffffffffffffffffffffffffffffffffffffffff1602179055506158c5806100656000396000f3fe60806040523480156200001157600080fd5b5060043610620000c45760003560e01c80638da5cb5b116200007b5780638da5cb5b14620001ed57806392646cc5146200020f5780639a3101711462000245578063d0be31c41462000265578063e1ab5711146200029b578063fdeb5ccc14620002bd57620000c4565b806324d7806c14620000c95780633d0beb4b14620000ff57806360cc1062146200013557806364efb22b14620001755780636a3661a614620001ab5780638736381a14620001cb575b600080fd5b620000e76004803603620000e19190810190620013e3565b620002dd565b604051620000f6919062001a0f565b60405180910390f35b6200011d6004803603620001179190810190620014d6565b620002fd565b6040516200012c919062001aaf565b60405180910390f35b6200015360048036036200014d91908101906200159d565b6200032c565b6040516200016c9b9a9998979695949392919062001940565b60405180910390f35b6200019360048036036200018d9190810190620013e3565b62000958565b604051620001a2919062001a0f565b60405180910390f35b620001c96004803603620001c391908101906200143b565b620009ae565b005b620001d562000d71565b604051620001e4919062001aaf565b60405180910390f35b620001f762000d77565b60405162000206919062001815565b60405180910390f35b6200022d60048036036200022791908101906200159d565b62000d9d565b6040516200023c919062001a2c565b60405180910390f35b6200026360048036036200025d919081019062001517565b62000dd0565b005b6200028360048036036200027d9190810190620014d6565b62000f1a565b60405162000292919062001a0f565b60405180910390f35b620002a562000f49565b604051620002b4919062001aaf565b60405180910390f35b620002db6004803603620002d591908101906200159d565b620010f8565b005b60026020528060005260406000206000915054906101000a900460ff1681565b600360205281600052604060002081815481106200031757fe5b90600052602060002001600091509150505481565b6000806000806000606080600080600080600460003373ffffffffffffffffffffffffffffffffffffffff1673ffffffffffffffffffffffffffffffffffffffff16815260200190815260200160002060008d815260200190815260200160002060009054906101000a900460ff161562000948576000600560008e815260200190815260200160002060009054906101000a900473ffffffffffffffffffffffffffffffffffffffff16905060008173ffffffffffffffffffffffffffffffffffffffff1663dbd0e1b66040518163ffffffff1660e01b815260040160206040518083038186803b1580156200042257600080fd5b505afa15801562000437573d6000803e3d6000fd5b505050506040513d601f19601f820116820180604052506200045d91908101906200140f565b905060008273ffffffffffffffffffffffffffffffffffffffff1663603daf9a6040518163ffffffff1660e01b815260040160206040518083038186803b158015620004a857600080fd5b505afa158015620004bd573d6000803e3d6000fd5b505050506040513d601f19601f82011682018060405250620004e391908101906200140f565b905080828473ffffffffffffffffffffffffffffffffffffffff1663d321fe296040518163ffffffff1660e01b815260040160206040518083038186803b1580156200052e57600080fd5b505afa15801562000543573d6000803e3d6000fd5b505050506040513d601f19601f82011682018060405250620005699190810190620015c9565b8573ffffffffffffffffffffffffffffffffffffffff1663c399ec886040518163ffffffff1660e01b815260040160206040518083038186803b158015620005b057600080fd5b505afa158015620005c5573d6000803e3d6000fd5b505050506040513d601f19601f82011682018060405250620005eb9190810190620015c9565b8673ffffffffffffffffffffffffffffffffffffffff166389d84af56040518163ffffffff1660e01b815260040160206040518083038186803b1580156200063257600080fd5b505afa15801562000647573d6000803e3d6000fd5b505050506040513d601f19601f820116820180604052506200066d9190810190620015c9565b8773ffffffffffffffffffffffffffffffffffffffff1663c032846b6040518163ffffffff1660e01b815260040160006040518083038186803b158015620006b457600080fd5b505afa158015620006c9573d6000803e3d6000fd5b505050506040513d6000823e3d601f19601f82011682018060405250620006f4919081019062001558565b8873ffffffffffffffffffffffffffffffffffffffff1663b4af200d6040518163ffffffff1660e01b815260040160006040518083038186803b1580156200073b57600080fd5b505afa15801562000750573d6000803e3d6000fd5b505050506040513d6000823e3d601f19601f820116820180604052506200077b919081019062001558565b8973ffffffffffffffffffffffffffffffffffffffff166303828aee336040518263ffffffff1660e01b8152600401620007b69190620017f8565b60206040518083038186803b158015620007cf57600080fd5b505afa158015620007e4573d6000803e3d6000fd5b505050506040513d601f19601f820116820180604052506200080a9190810190620015c9565b8a73ffffffffffffffffffffffffffffffffffffffff166386fef2368a6040518263ffffffff1660e01b8152600401620008459190620017db565b60206040518083038186803b1580156200085e57600080fd5b505afa15801562000873573d6000803e3d6000fd5b505050506040513d601f19601f82011682018060405250620008999190810190620015c9565b8b73ffffffffffffffffffffffffffffffffffffffff1663277fc0e9336040518263ffffffff1660e01b8152600401620008d49190620017f8565b60206040518083038186803b158015620008ed57600080fd5b505afa15801562000902573d6000803e3d6000fd5b505050506040513d601f19601f82011682018060405250620009289190810190620015c9565b8c9d509d509d509d509d509d509d509d509d509d509d5050505062000949565b5b91939597999b90929496989a50565b6000600260008373ffffffffffffffffffffffffffffffffffffffff1673ffffffffffffffffffffffffffffffffffffffff16815260200190815260200160002060009054906101000a900460ff169050919050565b600073ffffffffffffffffffffffffffffffffffffffff168573ffffffffffffffffffffffffffffffffffffffff16141562000a21576040517f08c379a000000000000000000000000000000000000000000000000000000000815260040162000a189062001a49565b60405180910390fd5b600073ffffffffffffffffffffffffffffffffffffffff168473ffffffffffffffffffffffffffffffffffffffff16141562000a94576040517f08c379a000000000000000000000000000000000000000000000000000000000815260040162000a8b9062001a8d565b60405180910390fd5b6000831162000aa257600080fd5b6000821162000ab057600080fd5b60008585858585600160009054906101000a900473ffffffffffffffffffffffffffffffffffffffff1660405162000ae89062001293565b62000af996959493929190620018cc565b604051809103906000f08015801562000b16573d6000803e3d6000fd5b50905080600560008054815260200190815260200160002060006101000a81548173ffffffffffffffffffffffffffffffffffffffff021916908373ffffffffffffffffffffffffffffffffffffffff160217905550600360008773ffffffffffffffffffffffffffffffffffffffff1673ffffffffffffffffffffffffffffffffffffffff1681526020019081526020016000206000549080600181540180825580915050906001820390600052602060002001600090919290919091505550600360008673ffffffffffffffffffffffffffffffffffffffff1673ffffffffffffffffffffffffffffffffffffffff16815260200190815260200160002060005490806001815401808255809150509060018203906000526020600020016000909192909190915055506001600460008873ffffffffffffffffffffffffffffffffffffffff1673ffffffffffffffffffffffffffffffffffffffff16815260200190815260200160002060008054815260200190815260200160002060006101000a81548160ff0219169083151502179055506001600460008773ffffffffffffffffffffffffffffffffffffffff1673ffffffffffffffffffffffffffffffffffffffff16815260200190815260200160002060008054815260200190815260200160002060006101000a81548160ff0219169083151502179055506001600054016000819055507f0acd88e48e19df2f60e1fac1cc74e5cd85d20d113033e9f7ed5d60534fb3381a86868686600087600060405162000d61979695949392919062001832565b60405180910390a1505050505050565b60005481565b600160009054906101000a900473ffffffffffffffffffffffffffffffffffffffff1681565b60056020528060005260406000206000915054906101000a900473ffffffffffffffffffffffffffffffffffffffff1681565b600160009054906101000a900473ffffffffffffffffffffffffffffffffffffffff1673ffffffffffffffffffffffffffffffffffffffff163373ffffffffffffffffffffffffffffffffffffffff16148062000e7d575060011515600260003373ffffffffffffffffffffffffffffffffffffffff1673ffffffffffffffffffffffffffffffffffffffff16815260200190815260200160002060009054906101000a900460ff161515145b62000ebf576040517f08c379a000000000000000000000000000000000000000000000000000000000815260040162000eb69062001a6b565b60405180910390fd5b81600260008373ffffffffffffffffffffffffffffffffffffffff1673ffffffffffffffffffffffffffffffffffffffff16815260200190815260200160002060006101000a81548160ff0219169083151502179055505050565b60046020528160005260406000206020528060005260406000206000915091509054906101000a900460ff1681565b600080600360003373ffffffffffffffffffffffffffffffffffffffff1673ffffffffffffffffffffffffffffffffffffffff16815260200190815260200160002080549050141562000fa05760009050620010f5565b6001600360003373ffffffffffffffffffffffffffffffffffffffff1673ffffffffffffffffffffffffffffffffffffffff1681526020019081526020016000208054905014156200104e576001600360003373ffffffffffffffffffffffffffffffffffffffff1673ffffffffffffffffffffffffffffffffffffffff1681526020019081526020016000206000815481106200103a57fe5b9060005260206000200154019050620010f5565b6000600360003373ffffffffffffffffffffffffffffffffffffffff1673ffffffffffffffffffffffffffffffffffffffff1681526020019081526020016000208054905090506001600360003373ffffffffffffffffffffffffffffffffffffffff1673ffffffffffffffffffffffffffffffffffffffff1681526020019081526020016000206001830381548110620010e557fe5b9060005260206000200154019150505b90565b600160009054906101000a900473ffffffffffffffffffffffffffffffffffffffff1673ffffffffffffffffffffffffffffffffffffffff163373ffffffffffffffffffffffffffffffffffffffff161480620011a5575060011515600260003373ffffffffffffffffffffffffffffffffffffffff1673ffffffffffffffffffffffffffffffffffffffff16815260200190815260200160002060009054906101000a900460ff161515145b620011e7576040517f08c379a0000000000000000000000000000000000000000000000000000000008152600401620011de9062001a6b565b60405180910390fd5b60006005600083815260200190815260200160002060009054906101000a900473ffffffffffffffffffffffffffffffffffffffff1690508073ffffffffffffffffffffffffffffffffffffffff16636986ac0760016040518263ffffffff1660e01b81526004016200125b919062001a0f565b600060405180830381600087803b1580156200127657600080fd5b505af11580156200128b573d6000803e3d6000fd5b505050505050565b613bab8062001cd883390190565b600081359050620012b28162001c6f565b92915050565b600081519050620012c98162001c6f565b92915050565b600081359050620012e08162001c89565b92915050565b600081359050620012f78162001ca3565b92915050565b600082601f8301126200130f57600080fd5b813562001326620013208262001afa565b62001acc565b915080825260208301602083018583830111156200134357600080fd5b6200135083828462001c19565b50505092915050565b600082601f8301126200136b57600080fd5b8151620013826200137c8262001afa565b62001acc565b915080825260208301602083018583830111156200139f57600080fd5b620013ac83828462001c28565b50505092915050565b600081359050620013c68162001cbd565b92915050565b600081519050620013dd8162001cbd565b92915050565b600060208284031215620013f657600080fd5b60006200140684828501620012a1565b91505092915050565b6000602082840312156200142257600080fd5b60006200143284828501620012b8565b91505092915050565b600080600080600060a086880312156200145457600080fd5b60006200146488828901620012cf565b95505060206200147788828901620012cf565b94505060406200148a88828901620013b5565b93505060606200149d88828901620013b5565b925050608086013567ffffffffffffffff811115620014bb57600080fd5b620014c988828901620012fd565b9150509295509295909350565b60008060408385031215620014ea57600080fd5b6000620014fa85828601620012a1565b92505060206200150d85828601620013b5565b9150509250929050565b600080604083850312156200152b57600080fd5b60006200153b85828601620012e6565b92505060206200154e85828601620012a1565b9150509250929050565b6000602082840312156200156b57600080fd5b600082015167ffffffffffffffff8111156200158657600080fd5b620015948482850162001359565b91505092915050565b600060208284031215620015b057600080fd5b6000620015c084828501620013b5565b91505092915050565b600060208284031215620015dc57600080fd5b6000620015ec84828501620013cc565b91505092915050565b620016008162001ba1565b82525050565b620016118162001b57565b82525050565b620016228162001b43565b82525050565b620016338162001b6b565b82525050565b620016448162001bb5565b82525050565b620016558162001bdd565b82525050565b6000620016688262001b27565b62001674818562001b32565b93506200168681856020860162001c28565b620016918162001c5e565b840191505092915050565b6000620016ab60158362001b32565b91507f496e76616c6964206275796572206164647265737300000000000000000000006000830152602082019050919050565b6000620016ed60358362001b32565b91507f6f6e6c7920616e2061646d696e6973747261746f7220697320616c6c6f77656460008301527f20746f2072756e20746869732066756e6374696f6e00000000000000000000006020830152604082019050919050565b60006200175560048362001b32565b91507f4f70656e000000000000000000000000000000000000000000000000000000006000830152602082019050919050565b60006200179760168362001b32565b91507f496e76616c69642073656c6c65722061646472657373000000000000000000006000830152602082019050919050565b620017d58162001b97565b82525050565b6000602082019050620017f2600083018462001617565b92915050565b60006020820190506200180f6000830184620015f5565b92915050565b60006020820190506200182c600083018462001606565b92915050565b6000610100820190506200184a600083018a620015f5565b620018596020830189620015f5565b620018686040830188620017ca565b620018776060830187620017ca565b6200188660808301866200164a565b81810360a0830152620018998162001746565b905081810360c0830152620018af81856200165b565b9050620018c060e083018462001628565b98975050505050505050565b600060c082019050620018e3600083018962001606565b620018f2602083018862001606565b620019016040830187620017ca565b620019106060830186620017ca565b81810360808301526200192481856200165b565b90506200193560a083018462001606565b979650505050505050565b60006101608201905062001958600083018e62001617565b62001967602083018d62001617565b62001976604083018c620017ca565b62001985606083018b620017ca565b62001994608083018a620017ca565b81810360a0830152620019a881896200165b565b905081810360c0830152620019be81886200165b565b9050620019cf60e0830187620017ca565b620019df610100830186620017ca565b620019ef610120830185620017ca565b620019ff61014083018462001617565b9c9b505050505050505050505050565b600060208201905062001a26600083018462001628565b92915050565b600060208201905062001a43600083018462001639565b92915050565b6000602082019050818103600083015262001a64816200169c565b9050919050565b6000602082019050818103600083015262001a8681620016de565b9050919050565b6000602082019050818103600083015262001aa88162001788565b9050919050565b600060208201905062001ac66000830184620017ca565b92915050565b6000604051905081810181811067ffffffffffffffff8211171562001af057600080fd5b8060405250919050565b600067ffffffffffffffff82111562001b1257600080fd5b601f19601f8301169050602081019050919050565b600081519050919050565b600082825260208201905092915050565b600062001b508262001b77565b9050919050565b600062001b648262001b77565b9050919050565b60008115159050919050565b600073ffffffffffffffffffffffffffffffffffffffff82169050919050565b6000819050919050565b600062001bae8262001bf1565b9050919050565b600062001bc28262001bc9565b9050919050565b600062001bd68262001b77565b9050919050565b600062001bea8262001b97565b9050919050565b600062001bfe8262001c05565b9050919050565b600062001c128262001b77565b9050919050565b82818337600083830152505050565b60005b8381101562001c4857808201518184015260208101905062001c2b565b8381111562001c58576000848401525b50505050565b6000601f19601f8301169050919050565b62001c7a8162001b43565b811462001c8657600080fd5b50565b62001c948162001b57565b811462001ca057600080fd5b50565b62001cae8162001b6b565b811462001cba57600080fd5b50565b62001cc88162001b97565b811462001cd457600080fd5b5056fe60806040523480156200001157600080fd5b5060405162003bab38038062003bab833981810160405260c08110156200003757600080fd5b8101908080519060200190929190805190602001909291908051906020019092919080519060200190929190805160405193929190846401000000008211156200008057600080fd5b838201915060208201858111156200009757600080fd5b8251866001820283011164010000000082111715620000b557600080fd5b8083526020830192505050908051906020019080838360005b83811015620000eb578082015181840152602081019050620000ce565b50505050905090810190601f168015620001195780820380516001836020036101000a031916815260200191505b5060405260200180519060200190929190505050856000806101000a81548173ffffffffffffffffffffffffffffffffffffffff021916908373ffffffffffffffffffffffffffffffffffffffff16021790555084600160006101000a81548173ffffffffffffffffffffffffffffffffffffffff021916908373ffffffffffffffffffffffffffffffffffffffff16021790555083600481905550826005819055508160089080519060200190620001d4929190620003de565b506000600760006101000a81548160ff02191690836003811115620001f557fe5b02179055506000600960006101000a81548160ff02191690831515021790555060038690806001815401808255809150509060018203906000526020600020016000909192909190916101000a81548173ffffffffffffffffffffffffffffffffffffffff021916908373ffffffffffffffffffffffffffffffffffffffff1602179055505060038590806001815401808255809150509060018203906000526020600020016000909192909190916101000a81548173ffffffffffffffffffffffffffffffffffffffff021916908373ffffffffffffffffffffffffffffffffffffffff160217905550506001600a60008873ffffffffffffffffffffffffffffffffffffffff1673ffffffffffffffffffffffffffffffffffffffff16815260200190815260200160002060006101000a81548160ff0219169083151502179055506001600a60008773ffffffffffffffffffffffffffffffffffffffff1673ffffffffffffffffffffffffffffffffffffffff16815260200190815260200160002060006101000a81548160ff02191690831515021790555080600260006101000a81548173ffffffffffffffffffffffffffffffffffffffff021916908373ffffffffffffffffffffffffffffffffffffffff1602179055505050505050506200048d565b828054600181600116156101000203166002900490600052602060002090601f016020900481019282601f106200042157805160ff191683800117855562000452565b8280016001018555821562000452579182015b828111156200045157825182559160200191906001019062000434565b5b50905062000461919062000465565b5090565b6200048a91905b80821115620004865760008160009055506001016200046c565b5090565b90565b61370e806200049d6000396000f3fe6080604052600436106102045760003560e01c80638b2b3d8b11610118578063c032846b116100a0578063d321fe291161006f578063d321fe2914610a53578063dbd0e1b614610a7e578063e7f55ed614610ad5578063e8a61cc814610b00578063f8fe988914610b1757610204565b8063c032846b14610908578063c399ec8814610998578063c792f36d146109c3578063d0e30db014610a2857610204565b8063a5754394116100e7578063a5754394146107a2578063aa8c217c146107d1578063ab404ff0146107fc578063b4af200d14610861578063be7e69fd146108f157610204565b80638b2b3d8b146107205780638da5cb5b1461072a578063a057958714610781578063a0c97bce1461078b57610204565b8063537eeb511161019b5780637150d8ae1161016a5780637150d8ae146105b357806386fef2361461060a578063892642011461066f578063893d20e81461069e57806389d84af5146106f557610204565b8063537eeb511461048f578063603daf9a146104f45780636986ac071461054b5780636f9fb98a1461058857610204565b8063200d2ed2116101d7578063200d2ed21461036c578063277fc0e9146103a5578063314fd68f1461040a5780634c1786ea1461048557610204565b806303828aee1461020957806308551a531461026e5780631432c281146102c55780631866dc97146102dc575b600080fd5b34801561021557600080fd5b506102586004803603602081101561022c57600080fd5b81019080803573ffffffffffffffffffffffffffffffffffffffff169060200190929190505050610b2e565b6040518082815260200191505060405180910390f35b34801561027a57600080fd5b50610283610b77565b604051808273ffffffffffffffffffffffffffffffffffffffff1673ffffffffffffffffffffffffffffffffffffffff16815260200191505060405180910390f35b3480156102d157600080fd5b506102da610b9d565b005b3480156102e857600080fd5b506102f1611254565b6040518080602001828103825283818151815260200191508051906020019080838360005b83811015610331578082015181840152602081019050610316565b50505050905090810190601f16801561035e5780820380516001836020036101000a031916815260200191505b509250505060405180910390f35b34801561037857600080fd5b506103816112f2565b6040518082600381111561039157fe5b60ff16815260200191505060405180910390f35b3480156103b157600080fd5b506103f4600480360360208110156103c857600080fd5b81019080803573ffffffffffffffffffffffffffffffffffffffff169060200190929190505050611305565b6040518082815260200191505060405180910390f35b34801561041657600080fd5b506104436004803603602081101561042d57600080fd5b810190808035906020019092919050505061134e565b604051808273ffffffffffffffffffffffffffffffffffffffff1673ffffffffffffffffffffffffffffffffffffffff16815260200191505060405180910390f35b61048d61138a565b005b34801561049b57600080fd5b506104de600480360360208110156104b257600080fd5b81019080803573ffffffffffffffffffffffffffffffffffffffff1690602001909291905050506115fb565b6040518082815260200191505060405180910390f35b34801561050057600080fd5b50610509611613565b604051808273ffffffffffffffffffffffffffffffffffffffff1673ffffffffffffffffffffffffffffffffffffffff16815260200191505060405180910390f35b34801561055757600080fd5b506105866004803603602081101561056e57600080fd5b8101908080351515906020019092919050505061163c565b005b34801561059457600080fd5b5061059d611ae7565b6040518082815260200191505060405180910390f35b3480156105bf57600080fd5b506105c8611aef565b604051808273ffffffffffffffffffffffffffffffffffffffff1673ffffffffffffffffffffffffffffffffffffffff16815260200191505060405180910390f35b34801561061657600080fd5b506106596004803603602081101561062d57600080fd5b81019080803573ffffffffffffffffffffffffffffffffffffffff169060200190929190505050611b14565b6040518082815260200191505060405180910390f35b34801561067b57600080fd5b50610684611b5d565b604051808215151515815260200191505060405180910390f35b3480156106aa57600080fd5b506106b3611b70565b604051808273ffffffffffffffffffffffffffffffffffffffff1673ffffffffffffffffffffffffffffffffffffffff16815260200191505060405180910390f35b34801561070157600080fd5b5061070a611b9a565b6040518082815260200191505060405180910390f35b610728611ba4565b005b34801561073657600080fd5b5061073f611f4b565b604051808273ffffffffffffffffffffffffffffffffffffffff1673ffffffffffffffffffffffffffffffffffffffff16815260200191505060405180910390f35b610789611f71565b005b34801561079757600080fd5b506107a06121e1565b005b3480156107ae57600080fd5b506107b7612648565b604051808215151515815260200191505060405180910390f35b3480156107dd57600080fd5b506107e661265f565b6040518082815260200191505060405180910390f35b34801561080857600080fd5b5061084b6004803603602081101561081f57600080fd5b81019080803573ffffffffffffffffffffffffffffffffffffffff169060200190929190505050612665565b6040518082815260200191505060405180910390f35b34801561086d57600080fd5b5061087661267d565b6040518080602001828103825283818151815260200191508051906020019080838360005b838110156108b657808201518184015260208101905061089b565b50505050905090810190601f1680156108e35780820380516001836020036101000a031916815260200191505b509250505060405180910390f35b3480156108fd57600080fd5b5061090661271f565b005b34801561091457600080fd5b5061091d612a08565b6040518080602001828103825283818151815260200191508051906020019080838360005b8381101561095d578082015181840152602081019050610942565b50505050905090810190601f16801561098a5780820380516001836020036101000a031916815260200191505b509250505060405180910390f35b3480156109a457600080fd5b506109ad612b86565b6040518082815260200191505060405180910390f35b3480156109cf57600080fd5b50610a12600480360360208110156109e657600080fd5b81019080803573ffffffffffffffffffffffffffffffffffffffff169060200190929190505050612b90565b6040518082815260200191505060405180910390f35b348015610a3457600080fd5b50610a3d612ba8565b6040518082815260200191505060405180910390f35b348015610a5f57600080fd5b50610a68612bae565b6040518082815260200191505060405180910390f35b348015610a8a57600080fd5b50610a93612bb8565b604051808273ffffffffffffffffffffffffffffffffffffffff1673ffffffffffffffffffffffffffffffffffffffff16815260200191505060405180910390f35b348015610ae157600080fd5b50610aea612be2565b6040518082815260200191505060405180910390f35b348015610b0c57600080fd5b50610b15612be8565b005b348015610b2357600080fd5b50610b2c61304f565b005b6000600c60008373ffffffffffffffffffffffffffffffffffffffff1673ffffffffffffffffffffffffffffffffffffffff168152602001908152602001600020549050919050565b600160009054906101000a900473ffffffffffffffffffffffffffffffffffffffff1681565b33600a60008273ffffffffffffffffffffffffffffffffffffffff1673ffffffffffffffffffffffffffffffffffffffff16815260200190815260200160002060009054906101000a900460ff16610bf457600080fd5b6001600c60008060009054906101000a900473ffffffffffffffffffffffffffffffffffffffff1673ffffffffffffffffffffffffffffffffffffffff1673ffffffffffffffffffffffffffffffffffffffff1681526020019081526020016000205414610cad576040517f08c379a00000000000000000000000000000000000000000000000000000000081526004018080602001828103825260328152602001806135f26032913960400191505060405180910390fd5b6001600c6000600160009054906101000a900473ffffffffffffffffffffffffffffffffffffffff1673ffffffffffffffffffffffffffffffffffffffff1673ffffffffffffffffffffffffffffffffffffffff1681526020019081526020016000205414610d67576040517f08c379a00000000000000000000000000000000000000000000000000000000081526004018080602001828103825260338152602001806133726033913960400191505060405180910390fd5b6000600d60008060009054906101000a900473ffffffffffffffffffffffffffffffffffffffff1673ffffffffffffffffffffffffffffffffffffffff1673ffffffffffffffffffffffffffffffffffffffff1681526020019081526020016000205414610e20576040517f08c379a000000000000000000000000000000000000000000000000000000000815260040180806020018281038252603681526020018061333c6036913960400191505060405180910390fd5b6000600b60003373ffffffffffffffffffffffffffffffffffffffff1673ffffffffffffffffffffffffffffffffffffffff1681526020019081526020016000205414610eb8576040517f08c379a00000000000000000000000000000000000000000000000000000000081526004018080602001828103825260328152602001806136a86032913960400191505060405180910390fd5b6001600b60003373ffffffffffffffffffffffffffffffffffffffff1673ffffffffffffffffffffffffffffffffffffffff1681526020019081526020016000208190555060066000815480929190600101919050555060016006541415610f66577f87463abc399fbbddfcd563f22d61267e4c0402b336940699382407adce42e5a26040518080602001828103825260358152602001806134e06035913960400191505060405180910390a15b60026006541415611251576000809054906101000a900473ffffffffffffffffffffffffffffffffffffffff1673ffffffffffffffffffffffffffffffffffffffff166108fc6005549081150290604051600060405180830381858888f19350505050158015610fda573d6000803e3d6000fd5b50600160009054906101000a900473ffffffffffffffffffffffffffffffffffffffff1673ffffffffffffffffffffffffffffffffffffffff166108fc6005549081150290604051600060405180830381858888f19350505050158015611045573d6000803e3d6000fd5b506000600c60008060009054906101000a900473ffffffffffffffffffffffffffffffffffffffff1673ffffffffffffffffffffffffffffffffffffffff1673ffffffffffffffffffffffffffffffffffffffff168152602001908152602001600020819055506000600c6000600160009054906101000a900473ffffffffffffffffffffffffffffffffffffffff1673ffffffffffffffffffffffffffffffffffffffff1673ffffffffffffffffffffffffffffffffffffffff168152602001908152602001600020819055506000600b60008060009054906101000a900473ffffffffffffffffffffffffffffffffffffffff1673ffffffffffffffffffffffffffffffffffffffff1673ffffffffffffffffffffffffffffffffffffffff168152602001908152602001600020819055506000600b6000600160009054906101000a900473ffffffffffffffffffffffffffffffffffffffff1673ffffffffffffffffffffffffffffffffffffffff1673ffffffffffffffffffffffffffffffffffffffff1681526020019081526020016000208190555060006006819055507fd397a3b1b662401574a4482307d3aaaa5413f8af98a7053e3473935f4d0659ed60405180806020018281038252601f8152602001807f746865206465706f736974732068617665206265656e2072657475726e65640081525060200191505060405180910390a15b50565b60088054600181600116156101000203166002900480601f0160208091040260200160405190810160405280929190818152602001828054600181600116156101000203166002900480156112ea5780601f106112bf576101008083540402835291602001916112ea565b820191906000526020600020905b8154815290600101906020018083116112cd57829003601f168201915b505050505081565b600760009054906101000a900460ff1681565b6000600b60008373ffffffffffffffffffffffffffffffffffffffff1673ffffffffffffffffffffffffffffffffffffffff168152602001908152602001600020549050919050565b6003818154811061135b57fe5b906000526020600020016000915054906101000a900473ffffffffffffffffffffffffffffffffffffffff1681565b600160009054906101000a900473ffffffffffffffffffffffffffffffffffffffff1673ffffffffffffffffffffffffffffffffffffffff163373ffffffffffffffffffffffffffffffffffffffff16146113e457600080fd5b600554341461145b576040517f08c379a000000000000000000000000000000000000000000000000000000000815260040180806020018281038252600f8152602001807f496e76616c6964206465706f736974000000000000000000000000000000000081525060200191505060405180910390fd5b6000600c60003373ffffffffffffffffffffffffffffffffffffffff1673ffffffffffffffffffffffffffffffffffffffff1681526020019081526020016000205414611510576040517f08c379a00000000000000000000000000000000000000000000000000000000081526004018080602001828103825260188152602001807f53656c6c657220616c7265616479206465706f7369746564000000000000000081525060200191505060405180910390fd5b6001600c60003373ffffffffffffffffffffffffffffffffffffffff1673ffffffffffffffffffffffffffffffffffffffff168152602001908152602001600020819055507feaa52bf3f740eaa050012695cd117e2182b5c032c7fc36dbcdfc74189f68ab2e3334604051808373ffffffffffffffffffffffffffffffffffffffff1673ffffffffffffffffffffffffffffffffffffffff16815260200180602001838152602001828103825260208152602001807f686173206d61646520746865207265717569726564206465706f736974206f66815250602001935050505060405180910390a1565b600d6020528060005260406000206000915090505481565b60008060009054906101000a900473ffffffffffffffffffffffffffffffffffffffff16905090565b80600115158115151461164e57600080fd5b60006103e8600f600554028161166057fe5b04905060008160026005548161167257fe5b04039050600082600554039050600260009054906101000a900473ffffffffffffffffffffffffffffffffffffffff1673ffffffffffffffffffffffffffffffffffffffff166108fc829081150290604051600060405180830381858888f193505050501580156116e7573d6000803e3d6000fd5b506001600c60008060009054906101000a900473ffffffffffffffffffffffffffffffffffffffff1673ffffffffffffffffffffffffffffffffffffffff1673ffffffffffffffffffffffffffffffffffffffff168152602001908152602001600020541415611820576000809054906101000a900473ffffffffffffffffffffffffffffffffffffffff1673ffffffffffffffffffffffffffffffffffffffff166108fc839081150290604051600060405180830381858888f193505050501580156117b8573d6000803e3d6000fd5b506000600c60008060009054906101000a900473ffffffffffffffffffffffffffffffffffffffff1673ffffffffffffffffffffffffffffffffffffffff1673ffffffffffffffffffffffffffffffffffffffff168152602001908152602001600020819055505b6001600c6000600160009054906101000a900473ffffffffffffffffffffffffffffffffffffffff1673ffffffffffffffffffffffffffffffffffffffff1673ffffffffffffffffffffffffffffffffffffffff16815260200190815260200160002054141561195b57600160009054906101000a900473ffffffffffffffffffffffffffffffffffffffff1673ffffffffffffffffffffffffffffffffffffffff166108fc839081150290604051600060405180830381858888f193505050501580156118f2573d6000803e3d6000fd5b506000600c6000600160009054906101000a900473ffffffffffffffffffffffffffffffffffffffff1673ffffffffffffffffffffffffffffffffffffffff1673ffffffffffffffffffffffffffffffffffffffff168152602001908152602001600020819055505b6001600d60008060009054906101000a900473ffffffffffffffffffffffffffffffffffffffff1673ffffffffffffffffffffffffffffffffffffffff1673ffffffffffffffffffffffffffffffffffffffff168152602001908152602001600020541415611a95576000809054906101000a900473ffffffffffffffffffffffffffffffffffffffff1673ffffffffffffffffffffffffffffffffffffffff166108fc6004549081150290604051600060405180830381858888f19350505050158015611a2d573d6000803e3d6000fd5b506000600d60008060009054906101000a900473ffffffffffffffffffffffffffffffffffffffff1673ffffffffffffffffffffffffffffffffffffffff1673ffffffffffffffffffffffffffffffffffffffff168152602001908152602001600020819055505b7f2b8a5a9da82f2787db14bf47f6b82c3b647370a8f06e6f9bad17117d3022100e6040518080602001828103825260608152602001806136486060913960600191505060405180910390a15050505050565b600047905090565b6000809054906101000a900473ffffffffffffffffffffffffffffffffffffffff1681565b6000600d60008373ffffffffffffffffffffffffffffffffffffffff1673ffffffffffffffffffffffffffffffffffffffff168152602001908152602001600020549050919050565b600960009054906101000a900460ff1681565b6000600260009054906101000a900473ffffffffffffffffffffffffffffffffffffffff16905090565b6000600654905090565b6000809054906101000a900473ffffffffffffffffffffffffffffffffffffffff1673ffffffffffffffffffffffffffffffffffffffff163373ffffffffffffffffffffffffffffffffffffffff1614611bfd57600080fd5b6004543414611c74576040517f08c379a000000000000000000000000000000000000000000000000000000000815260040180806020018281038252600e8152602001807f496e76616c696420616d6f756e7400000000000000000000000000000000000081525060200191505060405180910390fd5b6001600c60008060009054906101000a900473ffffffffffffffffffffffffffffffffffffffff1673ffffffffffffffffffffffffffffffffffffffff1673ffffffffffffffffffffffffffffffffffffffff1681526020019081526020016000205414611d4a576040517f08c379a000000000000000000000000000000000000000000000000000000000815260040180806020018281038252601f8152602001807f74686520627579657220686173206e6f74206465706f7369746564207965740081525060200191505060405180910390fd5b6001600c6000600160009054906101000a900473ffffffffffffffffffffffffffffffffffffffff1673ffffffffffffffffffffffffffffffffffffffff1673ffffffffffffffffffffffffffffffffffffffff1681526020019081526020016000205414611e21576040517f08c379a00000000000000000000000000000000000000000000000000000000081526004018080602001828103825260208152602001807f7468652073656c6c657220686173206e6f74206465706f73697465642079657481525060200191505060405180910390fd5b6000600d60003373ffffffffffffffffffffffffffffffffffffffff1673ffffffffffffffffffffffffffffffffffffffff1681526020019081526020016000205414611eb9576040517f08c379a00000000000000000000000000000000000000000000000000000000081526004018080602001828103825260258152602001806134866025913960400191505060405180910390fd5b6001600d60003373ffffffffffffffffffffffffffffffffffffffff1673ffffffffffffffffffffffffffffffffffffffff168152602001908152602001600020819055507fdbafb049923bd24c9143b7aea787bb9133f12c9bc10e8ff7f1be6e2f13028c9760405180806020018281038252602f815260200180613515602f913960400191505060405180910390a1565b600260009054906101000a900473ffffffffffffffffffffffffffffffffffffffff1681565b6000809054906101000a900473ffffffffffffffffffffffffffffffffffffffff1673ffffffffffffffffffffffffffffffffffffffff163373ffffffffffffffffffffffffffffffffffffffff1614611fca57600080fd5b6005543414612041576040517f08c379a000000000000000000000000000000000000000000000000000000000815260040180806020018281038252600f8152602001807f496e76616c6964206465706f736974000000000000000000000000000000000081525060200191505060405180910390fd5b6000600c60003373ffffffffffffffffffffffffffffffffffffffff1673ffffffffffffffffffffffffffffffffffffffff16815260200190815260200160002054146120f6576040517f08c379a00000000000000000000000000000000000000000000000000000000081526004018080602001828103825260178152602001807f427579657220616c7265616479206465706f736974656400000000000000000081525060200191505060405180910390fd5b6001600c60003373ffffffffffffffffffffffffffffffffffffffff1673ffffffffffffffffffffffffffffffffffffffff168152602001908152602001600020819055507f0109c07b399c647a3567815a956a02e0badfd3ed527a3fdb992031fae5d005f93334604051808373ffffffffffffffffffffffffffffffffffffffff1673ffffffffffffffffffffffffffffffffffffffff16815260200180602001838152602001828103825260208152602001807f686173206d61646520746865207265717569726564206465706f736974206f66815250602001935050505060405180910390a1565b6000809054906101000a900473ffffffffffffffffffffffffffffffffffffffff1673ffffffffffffffffffffffffffffffffffffffff163373ffffffffffffffffffffffffffffffffffffffff161461223a57600080fd5b6001600c60008060009054906101000a900473ffffffffffffffffffffffffffffffffffffffff1673ffffffffffffffffffffffffffffffffffffffff1673ffffffffffffffffffffffffffffffffffffffff1681526020019081526020016000205414612310576040517f08c379a000000000000000000000000000000000000000000000000000000000815260040180806020018281038252601f8152602001807f74686520627579657220686173206e6f74206465706f7369746564207965740081525060200191505060405180910390fd5b6001600c6000600160009054906101000a900473ffffffffffffffffffffffffffffffffffffffff1673ffffffffffffffffffffffffffffffffffffffff1673ffffffffffffffffffffffffffffffffffffffff16815260200190815260200160002054146123e7576040517f08c379a00000000000000000000000000000000000000000000000000000000081526004018080602001828103825260208152602001807f7468652073656c6c657220686173206e6f74206465706f73697465642079657481525060200191505060405180910390fd5b6001600d60008060009054906101000a900473ffffffffffffffffffffffffffffffffffffffff1673ffffffffffffffffffffffffffffffffffffffff1673ffffffffffffffffffffffffffffffffffffffff16815260200190815260200160002054146124a0576040517f08c379a00000000000000000000000000000000000000000000000000000000081526004018080602001828103825260258152602001806135446025913960400191505060405180910390fd5b6001600960006101000a81548160ff021916908315150217905550600160009054906101000a900473ffffffffffffffffffffffffffffffffffffffff1673ffffffffffffffffffffffffffffffffffffffff166108fc6004549081150290604051600060405180830381858888f19350505050158015612525573d6000803e3d6000fd5b506000809054906101000a900473ffffffffffffffffffffffffffffffffffffffff1673ffffffffffffffffffffffffffffffffffffffff166108fc6005549081150290604051600060405180830381858888f1935050505015801561258f573d6000803e3d6000fd5b50600160009054906101000a900473ffffffffffffffffffffffffffffffffffffffff1673ffffffffffffffffffffffffffffffffffffffff166108fc6005549081150290604051600060405180830381858888f193505050501580156125fa573d6000803e3d6000fd5b507fd54aabd3141f0694c3f533b346119d27c2eb3248d4f866d6bd8299c78b128daf6040518080602001828103825260538152602001806133ca6053913960600191505060405180910390a1565b6000600960009054906101000a900460ff16905090565b60045481565b600c6020528060005260406000206000915090505481565b606060088054600181600116156101000203166002900480601f0160208091040260200160405190810160405280929190818152602001828054600181600116156101000203166002900480156127155780601f106126ea57610100808354040283529160200191612715565b820191906000526020600020905b8154815290600101906020018083116126f857829003601f168201915b5050505050905090565b6000809054906101000a900473ffffffffffffffffffffffffffffffffffffffff1673ffffffffffffffffffffffffffffffffffffffff163373ffffffffffffffffffffffffffffffffffffffff161461277857600080fd5b6001600c60008060009054906101000a900473ffffffffffffffffffffffffffffffffffffffff1673ffffffffffffffffffffffffffffffffffffffff1673ffffffffffffffffffffffffffffffffffffffff1681526020019081526020016000205414612831576040517f08c379a00000000000000000000000000000000000000000000000000000000081526004018080602001828103825260328152602001806135c06032913960400191505060405180910390fd5b6000600c6000600160009054906101000a900473ffffffffffffffffffffffffffffffffffffffff1673ffffffffffffffffffffffffffffffffffffffff1673ffffffffffffffffffffffffffffffffffffffff16815260200190815260200160002054146128eb576040517f08c379a000000000000000000000000000000000000000000000000000000000815260040180806020018281038252603681526020018061341d6036913960400191505060405180910390fd5b6000600c60008060009054906101000a900473ffffffffffffffffffffffffffffffffffffffff1673ffffffffffffffffffffffffffffffffffffffff1673ffffffffffffffffffffffffffffffffffffffff168152602001908152602001600020819055506000809054906101000a900473ffffffffffffffffffffffffffffffffffffffff1673ffffffffffffffffffffffffffffffffffffffff166108fc6005549081150290604051600060405180830381858888f193505050501580156129ba573d6000803e3d6000fd5b507f022a173fa68fb425cd1264890a0951b5a57aa7f1fcdc49e3262e86c1189ec9b16040518080602001828103825260248152602001806136246024913960400191505060405180910390a1565b606060006003811115612a1757fe5b600760009054906101000a900460ff166003811115612a3257fe5b1415612a75576040518060400160405280600481526020017f4f70656e000000000000000000000000000000000000000000000000000000008152509050612b83565b60016003811115612a8257fe5b600760009054906101000a900460ff166003811115612a9d57fe5b1415612ae0576040518060400160405280600781526020017f50656e64696e67000000000000000000000000000000000000000000000000008152509050612b83565b600380811115612aec57fe5b600760009054906101000a900460ff166003811115612b0757fe5b1415612b4a576040518060400160405280601a81526020017f41646d696e20417373697374616e6365205265717565737465640000000000008152509050612b83565b6040518060400160405280600681526020017f436c6f736564000000000000000000000000000000000000000000000000000081525090505b90565b6000600554905090565b600b6020528060005260406000206000915090505481565b60055481565b6000600454905090565b6000600160009054906101000a900473ffffffffffffffffffffffffffffffffffffffff16905090565b60065481565b600160009054906101000a900473ffffffffffffffffffffffffffffffffffffffff1673ffffffffffffffffffffffffffffffffffffffff163373ffffffffffffffffffffffffffffffffffffffff1614612c4257600080fd5b6001600c60008060009054906101000a900473ffffffffffffffffffffffffffffffffffffffff1673ffffffffffffffffffffffffffffffffffffffff1673ffffffffffffffffffffffffffffffffffffffff1681526020019081526020016000205414612d18576040517f08c379a000000000000000000000000000000000000000000000000000000000815260040180806020018281038252601f8152602001807f74686520627579657220686173206e6f74206465706f7369746564207965740081525060200191505060405180910390fd5b6001600c6000600160009054906101000a900473ffffffffffffffffffffffffffffffffffffffff1673ffffffffffffffffffffffffffffffffffffffff1673ffffffffffffffffffffffffffffffffffffffff1681526020019081526020016000205414612def576040517f08c379a00000000000000000000000000000000000000000000000000000000081526004018080602001828103825260208152602001807f7468652073656c6c657220686173206e6f74206465706f73697465642079657481525060200191505060405180910390fd5b6001600d60008060009054906101000a900473ffffffffffffffffffffffffffffffffffffffff1673ffffffffffffffffffffffffffffffffffffffff1673ffffffffffffffffffffffffffffffffffffffff1681526020019081526020016000205414612ea8576040517f08c379a00000000000000000000000000000000000000000000000000000000081526004018080602001828103825260258152602001806135446025913960400191505060405180910390fd5b6001600960006101000a81548160ff0219169083151502179055506000809054906101000a900473ffffffffffffffffffffffffffffffffffffffff1673ffffffffffffffffffffffffffffffffffffffff166108fc6004549081150290604051600060405180830381858888f19350505050158015612f2c573d6000803e3d6000fd5b50600160009054906101000a900473ffffffffffffffffffffffffffffffffffffffff1673ffffffffffffffffffffffffffffffffffffffff166108fc6005549081150290604051600060405180830381858888f19350505050158015612f97573d6000803e3d6000fd5b506000809054906101000a900473ffffffffffffffffffffffffffffffffffffffff1673ffffffffffffffffffffffffffffffffffffffff166108fc6005549081150290604051600060405180830381858888f19350505050158015613001573d6000803e3d6000fd5b507f1355ee9ef69549a50f8d0008c6cd588a9759815d1b30ee62ed168c2bb7a24a626040518080602001828103825260578152602001806135696057913960600191505060405180910390a1565b600160009054906101000a900473ffffffffffffffffffffffffffffffffffffffff1673ffffffffffffffffffffffffffffffffffffffff163373ffffffffffffffffffffffffffffffffffffffff16146130a957600080fd5b6001600c6000600160009054906101000a900473ffffffffffffffffffffffffffffffffffffffff1673ffffffffffffffffffffffffffffffffffffffff1673ffffffffffffffffffffffffffffffffffffffff1681526020019081526020016000205414613163576040517f08c379a00000000000000000000000000000000000000000000000000000000081526004018080602001828103825260338152602001806134536033913960400191505060405180910390fd5b6000600c60008060009054906101000a900473ffffffffffffffffffffffffffffffffffffffff1673ffffffffffffffffffffffffffffffffffffffff1673ffffffffffffffffffffffffffffffffffffffff168152602001908152602001600020541461321c576040517f08c379a00000000000000000000000000000000000000000000000000000000081526004018080602001828103825260358152602001806134ab6035913960400191505060405180910390fd5b6000600c6000600160009054906101000a900473ffffffffffffffffffffffffffffffffffffffff1673ffffffffffffffffffffffffffffffffffffffff1673ffffffffffffffffffffffffffffffffffffffff16815260200190815260200160002081905550600160009054906101000a900473ffffffffffffffffffffffffffffffffffffffff1673ffffffffffffffffffffffffffffffffffffffff166108fc6005549081150290604051600060405180830381858888f193505050501580156132ed573d6000803e3d6000fd5b507f68899ad50909030043672ec750f7e234201226c34f9efa036d99c5432d220a396040518080602001828103825260258152602001806133a56025913960400191505060405180910390a156fe7468652062757965722068617320616c72656164792073656e7420616e20616d6f756e7420666f7220636c61696d4465706f736974737468652073656c6c657220686173206e6f74206d6164652061206465706f73697420666f7220636c61696d4465706f736974737468652073656c6c657220686173207265766572736564207468656972206465706f7369745468652073656c6c657220686173206265656e207061696420616e6420616c6c206465706f736974732068617665206265656e2072657475726e6564202d207472616e73616374696f6e20636f6d706c6574657468652073656c6c657220686173206465706f736974656420616c72656164792043414e4e4f5420726576657273654465706f7369747468652073656c6c657220686173206e6f7420646573706f73697465642043414e4e4f5420726576657273654465706f7369747468652062757965722068617320616c72656164792073656e642074686520616d6f756e7474686520627579657220686173206465706f736974656420616c72656164792043414e4e4f5420726576657273654465706f736974746865206465706f73697420636c61696d206861732031206f7574206f662032206e6563657373617279207369676e6174757265734275796572206861732073656e7420746865207061796d656e7420616d6f756e7420746f2074686520657363726f7774686520627579657220686173206e6f742073656e742074686520616d6f756e742079657454686520627579657220686173206265656e20726566756e64656420616e6420616c6c206465706f736974732068617665206265656e2072657475726e6564202d207472616e73616374696f6e2063616e63656c6c656474686520627579657220686173206e6f7420646573706f73697465642043414e4e4f5420726576657273654465706f73697474686520627579657220686173206e6f74206d6164652061206465706f73697420666f7220636c61696d4465706f7369747374686520627579657220686173207265766572736564207468656972206465706f73697454686520636f6e747261637420686173206265656e20636f6d706c6574656c792072657665727465642062792061646d696e2e20416c6c206465706f7369747320616e6420616d6f756e74732068617665206265656e20726566756e6465642e7468652073656e646572206861766520616c7265616479207369676e6564206f6666206f6e20636c61696d4465706f736974a265627a7a7231582084d4f869506a6f7e51a6f27684a230e2b7592a58d71f2380df6f2f023503589a64736f6c63430005100032a365627a7a7231582070ab1167199d1f3725d6b6c3e1bf8a8128f167e431922f3e07a30fd1278ca5336c6578706572696d656e74616cf564736f6c63430005100040",
  "source": "pragma solidity ^0.5.16;\npragma experimental ABIEncoderV2;\n\nimport \"./EscrowFactory.sol\";\n\ncontract EscrowExchange {\n\tuint public contractCount = 0;\n\taddress payable public owner;\n\tmapping(address => bool) public isAdmin;\n\tmapping(address => uint[]) public addressToIndex; // i.e. [0, 4, 5, 6, 8, 10] contract indices\n\tmapping(address => mapping(uint => bool)) public addressContractIndexExists; // Booleans to check whether an contract index (i.e. contract id) exists for this user.\n\tmapping(uint => EscrowFactory) public contractIndexesForUsers; // Map of id to the contract. Used to retrieve the contract\n\n\tmodifier isAdministrator() {\n        require(msg.sender == owner || isAdmin[msg.sender] == true, \"only an administrator is allowed to run this function\");\n        _;\n    }\n\n\tevent ContractCreated(address buyer, address seller, uint amount, uint deposit, uint signatureCount, string status, string notes, bool depositMade);\n\n\tconstructor() public {\n\t\towner = msg.sender;\n\t}\n\n\tfunction getContractForCurrentUser(uint index) public view returns (address, address, uint, uint, uint, string memory, string memory, uint, uint, uint, address){\n\t\tif (addressContractIndexExists[msg.sender][index]) {\n\t \t\tEscrowFactory retrieved_contract = contractIndexesForUsers[index];\n\t\t\n\t \t\taddress seller = retrieved_contract.getSeller();\n\t \t\taddress buyer = retrieved_contract.getBuyer();\n\n\t        return (buyer, \n\t        \tseller, \n\t        \tretrieved_contract.getAmount(), \n\t        \tretrieved_contract.getDeposit(), \n\t        \tretrieved_contract.getSignatureCount(),\n\t        \tretrieved_contract.getContractStatus(), \n\t        \tretrieved_contract.getNotes(),\n\t        \tretrieved_contract.getIfAddressDeposited(msg.sender),\n\t        \tretrieved_contract.getAmountCheck(buyer),\n\t        \tretrieved_contract.getSignature(msg.sender),\n\t        \taddress(retrieved_contract)\n\t        );\n\t\t}\n    }\n\n    /* PURPOSE: Return the index of the last contract for the user, so we know how many to iterate up to.\n\t\tIf statement - the sender has no contracts, return 0, so we don't iterate.\n\t\tElse if statement - the sender has 1 contract, get the contract id, and iterate up to that id to get the contract details\n\t\tElse statement - sender has multiple contracts, get the contract id of the last contract in the array, we will iterate up to that contract id to get all their contracts.\n    */\n    function getContractCountForCurrentUser() external view returns (uint) {\n    \tif (addressToIndex[msg.sender].length == 0) {\n    \t\treturn 0;\n    \t} else if (addressToIndex[msg.sender].length == 1) {\n    \t\treturn addressToIndex[msg.sender][0] + 1;\n    \t} else {\n\t    \tuint lastContractId = addressToIndex[msg.sender].length; // Get the length of the user's uint addressToIndex (array of contracts)\n\t\t    return addressToIndex[msg.sender][lastContractId - 1] + 1; // To access the last contract id user made, so we don't have to iterate entire contract array. We do +1 to take into account the user's last contract.\n    \t}\n\t }\n\n    function createContract(address payable buyer, address payable seller, uint amount, uint deposit, string memory notes) public {\n    \trequire(buyer != address(0), \"Invalid buyer address\");\n    \trequire(seller != address(0), \"Invalid seller address\");\n    \trequire(amount > 0);\n    \trequire(deposit > 0);\n    \tEscrowFactory newContract = new EscrowFactory(buyer, seller, amount, deposit, notes, owner);\n    \tcontractIndexesForUsers[contractCount] = newContract;\n    \taddressToIndex[buyer].push(contractCount);\n    \taddressToIndex[seller].push(contractCount);\n    \taddressContractIndexExists[buyer][contractCount] = true;\n    \taddressContractIndexExists[seller][contractCount] = true;\n    \tcontractCount = contractCount + 1;\n\n    \temit ContractCreated(buyer, seller, amount, deposit, 0, \"Open\", notes, false);\n    }\n\n    function adminReverseContract(uint index) public isAdministrator{\n    \tEscrowFactory retrieved_contract = contractIndexesForUsers[index];\n    \tretrieved_contract.adminReverseContract(true);\n    }\n\n    function setAdmin(bool state, address newAdmin) public isAdministrator {\n    \tisAdmin[newAdmin] = state;\n    }\n\n    function getAdmin(address admin) public view returns (bool) {\n    \treturn isAdmin[admin];\n    }\n}",
  "sourcePath": "/Users/donaldlee/Developer/PointsExchange/contracts/EscrowExchange.sol",
  "compiler": {
    "name": "solc",
    "version": "0.5.16+commit.9c3226ce.Emscripten.clang"
  },
  "schemaVersion": "3.3.3",
  "updatedAt": "2021-07-10T01:42:05.668Z",
  "networkType": "ethereum",
  "devdoc": {
    "methods": {}
  },
  "userdoc": {
    "methods": {}
  }
}